{
  "_format": "hh-sol-artifact-1",
  "contractName": "FUD",
  "sourceName": "contracts/faucet/FUD.sol",
  "abi": [
    {
      "inputs": [],
      "stateMutability": "nonpayable",
      "type": "constructor"
    },
    {
      "anonymous": false,
      "inputs": [
        {
          "indexed": true,
          "internalType": "address",
          "name": "owner",
          "type": "address"
        },
        {
          "indexed": true,
          "internalType": "address",
          "name": "spender",
          "type": "address"
        },
        {
          "indexed": false,
          "internalType": "uint256",
          "name": "value",
          "type": "uint256"
        }
      ],
      "name": "Approval",
      "type": "event"
    },
    {
      "anonymous": false,
      "inputs": [
        {
          "indexed": true,
          "internalType": "address",
          "name": "from",
          "type": "address"
        },
        {
          "indexed": true,
          "internalType": "address",
          "name": "to",
          "type": "address"
        },
        {
          "indexed": false,
          "internalType": "uint256",
          "name": "value",
          "type": "uint256"
        }
      ],
      "name": "Transfer",
      "type": "event"
    },
    {
      "inputs": [
        {
          "internalType": "address",
          "name": "owner",
          "type": "address"
        },
        {
          "internalType": "address",
          "name": "spender",
          "type": "address"
        }
      ],
      "name": "allowance",
      "outputs": [
        {
          "internalType": "uint256",
          "name": "",
          "type": "uint256"
        }
      ],
      "stateMutability": "view",
      "type": "function"
    },
    {
      "inputs": [
        {
          "internalType": "address",
          "name": "spender",
          "type": "address"
        },
        {
          "internalType": "uint256",
          "name": "amount",
          "type": "uint256"
        }
      ],
      "name": "approve",
      "outputs": [
        {
          "internalType": "bool",
          "name": "",
          "type": "bool"
        }
      ],
      "stateMutability": "nonpayable",
      "type": "function"
    },
    {
      "inputs": [
        {
          "internalType": "address",
          "name": "account",
          "type": "address"
        }
      ],
      "name": "balanceOf",
      "outputs": [
        {
          "internalType": "uint256",
          "name": "",
          "type": "uint256"
        }
      ],
      "stateMutability": "view",
      "type": "function"
    },
    {
      "inputs": [],
      "name": "decimals",
      "outputs": [
        {
          "internalType": "uint8",
          "name": "",
          "type": "uint8"
        }
      ],
      "stateMutability": "view",
      "type": "function"
    },
    {
      "inputs": [
        {
          "internalType": "address",
          "name": "spender",
          "type": "address"
        },
        {
          "internalType": "uint256",
          "name": "subtractedValue",
          "type": "uint256"
        }
      ],
      "name": "decreaseAllowance",
      "outputs": [
        {
          "internalType": "bool",
          "name": "",
          "type": "bool"
        }
      ],
      "stateMutability": "nonpayable",
      "type": "function"
    },
    {
      "inputs": [
        {
          "internalType": "address",
          "name": "spender",
          "type": "address"
        },
        {
          "internalType": "uint256",
          "name": "addedValue",
          "type": "uint256"
        }
      ],
      "name": "increaseAllowance",
      "outputs": [
        {
          "internalType": "bool",
          "name": "",
          "type": "bool"
        }
      ],
      "stateMutability": "nonpayable",
      "type": "function"
    },
    {
      "inputs": [],
      "name": "mint",
      "outputs": [],
      "stateMutability": "nonpayable",
      "type": "function"
    },
    {
      "inputs": [],
      "name": "name",
      "outputs": [
        {
          "internalType": "string",
          "name": "",
          "type": "string"
        }
      ],
      "stateMutability": "view",
      "type": "function"
    },
    {
      "inputs": [],
      "name": "symbol",
      "outputs": [
        {
          "internalType": "string",
          "name": "",
          "type": "string"
        }
      ],
      "stateMutability": "view",
      "type": "function"
    },
    {
      "inputs": [],
      "name": "totalSupply",
      "outputs": [
        {
          "internalType": "uint256",
          "name": "",
          "type": "uint256"
        }
      ],
      "stateMutability": "view",
      "type": "function"
    },
    {
      "inputs": [
        {
          "internalType": "address",
          "name": "to",
          "type": "address"
        },
        {
          "internalType": "uint256",
          "name": "amount",
          "type": "uint256"
        }
      ],
      "name": "transfer",
      "outputs": [
        {
          "internalType": "bool",
          "name": "",
          "type": "bool"
        }
      ],
      "stateMutability": "nonpayable",
      "type": "function"
    },
    {
      "inputs": [
        {
          "internalType": "address",
          "name": "from",
          "type": "address"
        },
        {
          "internalType": "address",
          "name": "to",
          "type": "address"
        },
        {
          "internalType": "uint256",
          "name": "amount",
          "type": "uint256"
        }
      ],
      "name": "transferFrom",
      "outputs": [
        {
          "internalType": "bool",
          "name": "",
          "type": "bool"
        }
      ],
      "stateMutability": "nonpayable",
      "type": "function"
    }
  ],
  "bytecode": "0x608034620003c0576040906001600160401b0381830181811183821017620002c057835260078252602090662134ba31b7b4b760c91b8284015283519284840184811083821117620002c05785526003918285526242544360e81b84860152815192818411620002c0578054936001938486811c96168015620003b5575b878710146200039f578190601f9687811162000349575b508790878311600114620002e257600092620002d6575b505060001982841b1c191690841b1781555b8551918211620002c05760049586548481811c91168015620002b5575b87821014620002a05785811162000255575b508590858411600114620001ea57938394918492600095620001de575b50501b92600019911b1c19161783555b33156200019f57506002546a52b7d2dcc80cd2e4000000928382018092116200018a57506000917fddf252ad1be2c89b69c2b068fc378daa952ba7f163c4a11628f55a4df523b3ef9160025533835282815284832084815401905584519384523393a351610a109081620003c68239f35b601190634e487b7160e01b6000525260246000fd5b90606493519262461bcd60e51b845283015260248201527f45524332303a206d696e7420746f20746865207a65726f2061646472657373006044820152fd5b01519350388062000109565b9190601f198416928860005284886000209460005b8a898383106200023d575050501062000222575b50505050811b01835562000119565b01519060f884600019921b161c191690553880808062000213565b868601518955909701969485019488935001620001ff565b87600052866000208680860160051c82019289871062000296575b0160051c019085905b82811062000289575050620000ec565b6000815501859062000279565b9250819262000270565b602288634e487b7160e01b6000525260246000fd5b90607f1690620000da565b634e487b7160e01b600052604160045260246000fd5b015190503880620000ab565b90869350601f1983169185600052896000209260005b8b82821062000332575050841162000319575b505050811b018155620000bd565b015160001983861b60f8161c191690553880806200030b565b8385015186558a97909501949384019301620002f8565b90915083600052876000208780850160051c8201928a861062000395575b918891869594930160051c01915b8281106200038557505062000094565b6000815585945088910162000375565b9250819262000367565b634e487b7160e01b600052602260045260246000fd5b95607f16956200007d565b600080fdfe608060408181526004918236101561001657600080fd5b600092833560e01c91826306fdde031461059e57508163095ea7b3146105745781631249c58b146104a857816318160ddd1461048957816323b872dd146103be578163313ce567146103a2578163395093511461033c57816370a082311461030657816395d89b41146101e5578163a457c2d71461012457508063a9059cbb146100f45763dd62ed3e146100a957600080fd5b346100f057806003193601126100f057806020926100c56106c1565b6100cd6106dc565b6001600160a01b0391821683526001865283832091168252845220549051908152f35b5080fd5b50346100f057806003193601126100f05760209061011d6101136106c1565b6024359033610826565b5160018152f35b905082346101e257826003193601126101e25761013f6106c1565b91836024359233815260016020528181206001600160a01b03861682526020522054908282106101795760208561011d85850387336106f2565b608490602086519162461bcd60e51b8352820152602560248201527f45524332303a2064656372656173656420616c6c6f77616e63652062656c6f7760448201527f207a65726f0000000000000000000000000000000000000000000000000000006064820152fd5b80fd5b8383346100f057816003193601126100f05780519082845460018160011c90600183169283156102fc575b60209384841081146102e9578388529081156102cd5750600114610278575b505050829003601f01601f191682019267ffffffffffffffff8411838510176102655750829182610261925282610678565b0390f35b80604186634e487b7160e01b6024945252fd5b8787529192508591837f8a35acfbc15ff81a39ae7d344fd709f28e8600b4aa8c65c6b64bfe7fe36bd19b5b8385106102b9575050505083010185808061022f565b8054888601830152930192849082016102a3565b60ff1916878501525050151560051b840101905085808061022f565b60248960228c634e487b7160e01b835252fd5b91607f1691610210565b5050346100f05760203660031901126100f057806020926001600160a01b0361032d6106c1565b16815280845220549051908152f35b8284346101e257816003193601126101e2576103566106c1565b33825260016020528282206001600160a01b03821683526020528282205491602435830180931161038f5760208461011d8585336106f2565b80601186634e487b7160e01b6024945252fd5b5050346100f057816003193601126100f0576020905160128152f35b839150346100f05760603660031901126100f0576103da6106c1565b6103e26106dc565b9184604435946001600160a01b03841681526001602052818120338252602052205490600019820361041d575b60208661011d878787610826565b848210610446575091839161043b6020969561011d950333836106f2565b91939481935061040f565b606490602087519162461bcd60e51b8352820152601d60248201527f45524332303a20696e73756666696369656e7420616c6c6f77616e63650000006044820152fd5b5050346100f057816003193601126100f0576020906002549051908152f35b91905034610570578260031936011261057057331561052d57600254670de0b6b3a76400009283820180921161051a57506002553383528260205280832082815401905551908152817fddf252ad1be2c89b69c2b068fc378daa952ba7f163c4a11628f55a4df523b3ef60203393a380f35b846011602492634e487b7160e01b835252fd5b906020606492519162461bcd60e51b8352820152601f60248201527f45524332303a206d696e7420746f20746865207a65726f2061646472657373006044820152fd5b8280fd5b5050346100f057806003193601126100f05760209061011d6105946106c1565b60243590336106f2565b849084346105705782600319360112610570578260035460018160011c906001831692831561066e575b60209384841081146102e9578388529081156102cd575060011461061857505050829003601f01601f191682019267ffffffffffffffff8411838510176102655750829182610261925282610678565b600387529192508591837fc2575a0e9e593c00f959f8c92f12db2869c3395a3b0502d05e2516446f71f85b5b83851061065a575050505083010185808061022f565b805488860183015293019284908201610644565b91607f16916105c8565b6020808252825181830181905290939260005b8281106106ad57505060409293506000838284010152601f8019910116010190565b81810186015184820160400152850161068b565b600435906001600160a01b03821682036106d757565b600080fd5b602435906001600160a01b03821682036106d757565b6001600160a01b038091169182156107bd57169182156107535760207f8c5be1e5ebec7d5bd14f71427d1e84f3dd0314c0f7b2291e5b200ac8c7c3b925918360005260018252604060002085600052825280604060002055604051908152a3565b608460405162461bcd60e51b815260206004820152602260248201527f45524332303a20617070726f766520746f20746865207a65726f20616464726560448201527f73730000000000000000000000000000000000000000000000000000000000006064820152fd5b608460405162461bcd60e51b8152602060048201526024808201527f45524332303a20617070726f76652066726f6d20746865207a65726f2061646460448201527f72657373000000000000000000000000000000000000000000000000000000006064820152fd5b6001600160a01b0380911691821561097057169182156109065760008281528060205260408120549180831061089c57604082827fddf252ad1be2c89b69c2b068fc378daa952ba7f163c4a11628f55a4df523b3ef958760209652828652038282205586815220818154019055604051908152a3565b608460405162461bcd60e51b815260206004820152602660248201527f45524332303a207472616e7366657220616d6f756e742065786365656473206260448201527f616c616e636500000000000000000000000000000000000000000000000000006064820152fd5b608460405162461bcd60e51b815260206004820152602360248201527f45524332303a207472616e7366657220746f20746865207a65726f206164647260448201527f65737300000000000000000000000000000000000000000000000000000000006064820152fd5b608460405162461bcd60e51b815260206004820152602560248201527f45524332303a207472616e736665722066726f6d20746865207a65726f20616460448201527f64726573730000000000000000000000000000000000000000000000000000006064820152fdfea26469706673582212203a200fbad596198335c1e465f08ff1c6e07abe59b5c116076ad71abe07cc3f4464736f6c63430008180033",
  "linkReferences": {},
  "deployedLinkReferences": {}
}