{
  "_format": "hh-sol-artifact-1",
  "contractName": "FUD",
  "sourceName": "contracts/faucet/FUD.sol",
  "abi": [
    {
      "inputs": [],
      "stateMutability": "nonpayable",
      "type": "constructor"
    },
    {
      "anonymous": false,
      "inputs": [
        {
          "indexed": true,
          "internalType": "address",
          "name": "owner",
          "type": "address"
        },
        {
          "indexed": true,
          "internalType": "address",
          "name": "spender",
          "type": "address"
        },
        {
          "indexed": false,
          "internalType": "uint256",
          "name": "value",
          "type": "uint256"
        }
      ],
      "name": "Approval",
      "type": "event"
    },
    {
      "anonymous": false,
      "inputs": [
        {
          "indexed": true,
          "internalType": "address",
          "name": "from",
          "type": "address"
        },
        {
          "indexed": true,
          "internalType": "address",
          "name": "to",
          "type": "address"
        },
        {
          "indexed": false,
          "internalType": "uint256",
          "name": "value",
          "type": "uint256"
        }
      ],
      "name": "Transfer",
      "type": "event"
    },
    {
      "inputs": [
        {
          "internalType": "address",
          "name": "owner",
          "type": "address"
        },
        {
          "internalType": "address",
          "name": "spender",
          "type": "address"
        }
      ],
      "name": "allowance",
      "outputs": [
        {
          "internalType": "uint256",
          "name": "",
          "type": "uint256"
        }
      ],
      "stateMutability": "view",
      "type": "function"
    },
    {
      "inputs": [
        {
          "internalType": "address",
          "name": "spender",
          "type": "address"
        },
        {
          "internalType": "uint256",
          "name": "amount",
          "type": "uint256"
        }
      ],
      "name": "approve",
      "outputs": [
        {
          "internalType": "bool",
          "name": "",
          "type": "bool"
        }
      ],
      "stateMutability": "nonpayable",
      "type": "function"
    },
    {
      "inputs": [
        {
          "internalType": "address",
          "name": "account",
          "type": "address"
        }
      ],
      "name": "balanceOf",
      "outputs": [
        {
          "internalType": "uint256",
          "name": "",
          "type": "uint256"
        }
      ],
      "stateMutability": "view",
      "type": "function"
    },
    {
      "inputs": [],
      "name": "decimals",
      "outputs": [
        {
          "internalType": "uint8",
          "name": "",
          "type": "uint8"
        }
      ],
      "stateMutability": "view",
      "type": "function"
    },
    {
      "inputs": [
        {
          "internalType": "address",
          "name": "spender",
          "type": "address"
        },
        {
          "internalType": "uint256",
          "name": "subtractedValue",
          "type": "uint256"
        }
      ],
      "name": "decreaseAllowance",
      "outputs": [
        {
          "internalType": "bool",
          "name": "",
          "type": "bool"
        }
      ],
      "stateMutability": "nonpayable",
      "type": "function"
    },
    {
      "inputs": [
        {
          "internalType": "address",
          "name": "spender",
          "type": "address"
        },
        {
          "internalType": "uint256",
          "name": "addedValue",
          "type": "uint256"
        }
      ],
      "name": "increaseAllowance",
      "outputs": [
        {
          "internalType": "bool",
          "name": "",
          "type": "bool"
        }
      ],
      "stateMutability": "nonpayable",
      "type": "function"
    },
    {
      "inputs": [
        {
          "internalType": "address",
          "name": "receiver",
          "type": "address"
        }
      ],
      "name": "mint",
      "outputs": [],
      "stateMutability": "nonpayable",
      "type": "function"
    },
    {
      "inputs": [],
      "name": "name",
      "outputs": [
        {
          "internalType": "string",
          "name": "",
          "type": "string"
        }
      ],
      "stateMutability": "view",
      "type": "function"
    },
    {
      "inputs": [],
      "name": "symbol",
      "outputs": [
        {
          "internalType": "string",
          "name": "",
          "type": "string"
        }
      ],
      "stateMutability": "view",
      "type": "function"
    },
    {
      "inputs": [],
      "name": "totalSupply",
      "outputs": [
        {
          "internalType": "uint256",
          "name": "",
          "type": "uint256"
        }
      ],
      "stateMutability": "view",
      "type": "function"
    },
    {
      "inputs": [
        {
          "internalType": "address",
          "name": "to",
          "type": "address"
        },
        {
          "internalType": "uint256",
          "name": "amount",
          "type": "uint256"
        }
      ],
      "name": "transfer",
      "outputs": [
        {
          "internalType": "bool",
          "name": "",
          "type": "bool"
        }
      ],
      "stateMutability": "nonpayable",
      "type": "function"
    },
    {
      "inputs": [
        {
          "internalType": "address",
          "name": "from",
          "type": "address"
        },
        {
          "internalType": "address",
          "name": "to",
          "type": "address"
        },
        {
          "internalType": "uint256",
          "name": "amount",
          "type": "uint256"
        }
      ],
      "name": "transferFrom",
      "outputs": [
        {
          "internalType": "bool",
          "name": "",
          "type": "bool"
        }
      ],
      "stateMutability": "nonpayable",
      "type": "function"
    }
  ],
  "bytecode": "0x60803462000326576040906001600160401b03908083018281118282101762000226578352600b81526020916a467564207468652050756760a81b83830152835184810181811083821117620002265785526003908181526211955160ea1b8582015283519083821162000226578254916001958684811c941680156200031b575b8885101462000305578190601f94858111620002af575b50889085831160011462000248576000926200023c575b505060001982861b1c191690861b1783555b8051938411620002265760049586548681811c911680156200021b575b828210146200020657838111620001bb575b50809285116001146200014d575093839491849260009562000141575b50501b92600019911b1c19161790555b62000128336200032b565b62000133306200032b565b51610a939081620003f78239f35b0151935038806200010d565b92919084601f1981168860005285600020956000905b89838310620001a0575050501062000185575b50505050811b0190556200011d565b01519060f884600019921b161c191690553880808062000176565b85870151895590970196948501948893509081019062000163565b87600052816000208480880160051c820192848910620001fc575b0160051c019087905b828110620001ef575050620000f0565b60008155018790620001df565b92508192620001d6565b602288634e487b7160e01b6000525260246000fd5b90607f1690620000de565b634e487b7160e01b600052604160045260246000fd5b015190503880620000af565b90889350601f19831691876000528a6000209260005b8c8282106200029857505084116200027f575b505050811b018355620000c1565b015160001983881b60f8161c1916905538808062000271565b8385015186558c979095019493840193016200025e565b90915085600052886000208580850160051c8201928b8610620002fb575b918a91869594930160051c01915b828110620002eb57505062000098565b600081558594508a9101620002db565b92508192620002cd565b634e487b7160e01b600052602260045260246000fd5b93607f169362000081565b600080fd5b6001600160a01b03168015620003b1576002546d027716b6a0adc2d677c0800000008082018092116200039b5760207fddf252ad1be2c89b69c2b068fc378daa952ba7f163c4a11628f55a4df523b3ef9160009360025584845283825260408420818154019055604051908152a3565b634e487b7160e01b600052601160045260246000fd5b60405162461bcd60e51b815260206004820152601f60248201527f45524332303a206d696e7420746f20746865207a65726f2061646472657373006044820152606490fdfe608060408181526004918236101561001657600080fd5b600092833560e01c91826306fdde031461066a57508163095ea7b31461064057816318160ddd1461062157816323b872dd14610556578163313ce5671461053a57816339509351146104d45781636a6278421461033c57816370a082311461030657816395d89b41146101e5578163a457c2d71461012457508063a9059cbb146100f45763dd62ed3e146100a957600080fd5b346100f057806003193601126100f057806020926100c561078d565b6100cd6107a8565b6001600160a01b0391821683526001865283832091168252845220549051908152f35b5080fd5b50346100f057806003193601126100f05760209061011d61011361078d565b60243590336108f2565b5160018152f35b905082346101e257826003193601126101e25761013f61078d565b91836024359233815260016020528181206001600160a01b03861682526020522054908282106101795760208561011d85850387336107be565b608490602086519162461bcd60e51b8352820152602560248201527f45524332303a2064656372656173656420616c6c6f77616e63652062656c6f7760448201527f207a65726f0000000000000000000000000000000000000000000000000000006064820152fd5b80fd5b8383346100f057816003193601126100f05780519082845460018160011c90600183169283156102fc575b60209384841081146102e9578388529081156102cd5750600114610278575b505050829003601f01601f191682019267ffffffffffffffff8411838510176102655750829182610261925282610744565b0390f35b80604186634e487b7160e01b6024945252fd5b8787529192508591837f8a35acfbc15ff81a39ae7d344fd709f28e8600b4aa8c65c6b64bfe7fe36bd19b5b8385106102b9575050505083010185808061022f565b8054888601830152930192849082016102a3565b60ff1916878501525050151560051b840101905085808061022f565b60248960228c634e487b7160e01b835252fd5b91607f1691610210565b5050346100f05760203660031901126100f057806020926001600160a01b0361032d61078d565b16815280845220549051908152f35b9050346104d0576020806003193601126104cc5761035861078d565b301561047d576001600160a01b031692831561043057308552848252808520546a295be96e64066972000000938482106103df5750907fddf252ad1be2c89b69c2b068fc378daa952ba7f163c4a11628f55a4df523b3ef92913087528683526a295be96e64066971ffffff190181872055848652808620848154019055519283523092a380f35b6084908484519162461bcd60e51b8352820152602660248201527f45524332303a207472616e7366657220616d6f756e7420657863656564732062604482015265616c616e636560d01b6064820152fd5b60849350519162461bcd60e51b8352820152602360248201527f45524332303a207472616e7366657220746f20746865207a65726f206164647260448201526265737360e81b6064820152fd5b50608492519162461bcd60e51b8352820152602560248201527f45524332303a207472616e736665722066726f6d20746865207a65726f206164604482015264647265737360d81b6064820152fd5b8380fd5b8280fd5b8284346101e257816003193601126101e2576104ee61078d565b33825260016020528282206001600160a01b0382168352602052828220549160243583018093116105275760208461011d8585336107be565b80601186634e487b7160e01b6024945252fd5b5050346100f057816003193601126100f0576020905160128152f35b839150346100f05760603660031901126100f05761057261078d565b61057a6107a8565b9184604435946001600160a01b0384168152600160205281812033825260205220549060001982036105b5575b60208661011d8787876108f2565b8482106105de57509183916105d36020969561011d950333836107be565b9193948193506105a7565b606490602087519162461bcd60e51b8352820152601d60248201527f45524332303a20696e73756666696369656e7420616c6c6f77616e63650000006044820152fd5b5050346100f057816003193601126100f0576020906002549051908152f35b5050346100f057806003193601126100f05760209061011d61066061078d565b60243590336107be565b849084346104d057826003193601126104d0578260035460018160011c906001831692831561073a575b60209384841081146102e9578388529081156102cd57506001146106e457505050829003601f01601f191682019267ffffffffffffffff8411838510176102655750829182610261925282610744565b600387529192508591837fc2575a0e9e593c00f959f8c92f12db2869c3395a3b0502d05e2516446f71f85b5b838510610726575050505083010185808061022f565b805488860183015293019284908201610710565b91607f1691610694565b6020808252825181830181905290939260005b82811061077957505060409293506000838284010152601f8019910116010190565b818101860151848201604001528501610757565b600435906001600160a01b03821682036107a357565b600080fd5b602435906001600160a01b03821682036107a357565b6001600160a01b03809116918215610889571691821561081f5760207f8c5be1e5ebec7d5bd14f71427d1e84f3dd0314c0f7b2291e5b200ac8c7c3b925918360005260018252604060002085600052825280604060002055604051908152a3565b608460405162461bcd60e51b815260206004820152602260248201527f45524332303a20617070726f766520746f20746865207a65726f20616464726560448201527f73730000000000000000000000000000000000000000000000000000000000006064820152fd5b608460405162461bcd60e51b8152602060048201526024808201527f45524332303a20617070726f76652066726f6d20746865207a65726f2061646460448201527f72657373000000000000000000000000000000000000000000000000000000006064820152fd5b6001600160a01b03809116918215610a0b57169182156109bb5760008281528060205260408120549180831061096857604082827fddf252ad1be2c89b69c2b068fc378daa952ba7f163c4a11628f55a4df523b3ef958760209652828652038282205586815220818154019055604051908152a3565b608460405162461bcd60e51b815260206004820152602660248201527f45524332303a207472616e7366657220616d6f756e7420657863656564732062604482015265616c616e636560d01b6064820152fd5b608460405162461bcd60e51b815260206004820152602360248201527f45524332303a207472616e7366657220746f20746865207a65726f206164647260448201526265737360e81b6064820152fd5b608460405162461bcd60e51b815260206004820152602560248201527f45524332303a207472616e736665722066726f6d20746865207a65726f206164604482015264647265737360d81b6064820152fdfea2646970667358221220fab4ee9e730a021a777c4fed126eec8c4d0385b4fd19814a845331374b19e4bf64736f6c63430008180033",
  "linkReferences": {},
  "deployedLinkReferences": {}
}