{
  "_format": "hh-sol-artifact-1",
  "contractName": "Orbital",
  "sourceName": "contracts/Orbital.sol",
  "abi": [
    {
      "inputs": [
        {
          "internalType": "address",
          "name": "priceFeeds",
          "type": "address"
        },
        {
          "internalType": "address",
          "name": "wormhole",
          "type": "address"
        }
      ],
      "stateMutability": "nonpayable",
      "type": "constructor"
    },
    {
      "anonymous": false,
      "inputs": [
        {
          "indexed": true,
          "internalType": "address",
          "name": "previousOwner",
          "type": "address"
        },
        {
          "indexed": true,
          "internalType": "address",
          "name": "newOwner",
          "type": "address"
        }
      ],
      "name": "OwnershipTransferStarted",
      "type": "event"
    },
    {
      "anonymous": false,
      "inputs": [
        {
          "indexed": true,
          "internalType": "address",
          "name": "previousOwner",
          "type": "address"
        },
        {
          "indexed": true,
          "internalType": "address",
          "name": "newOwner",
          "type": "address"
        }
      ],
      "name": "OwnershipTransferred",
      "type": "event"
    },
    {
      "inputs": [
        {
          "internalType": "address",
          "name": "tokenId",
          "type": "address"
        }
      ],
      "name": "_isTokenSupported",
      "outputs": [
        {
          "internalType": "bool",
          "name": "",
          "type": "bool"
        }
      ],
      "stateMutability": "view",
      "type": "function"
    },
    {
      "inputs": [],
      "name": "acceptOwnership",
      "outputs": [],
      "stateMutability": "nonpayable",
      "type": "function"
    },
    {
      "inputs": [
        {
          "internalType": "uint16",
          "name": "chainId",
          "type": "uint16"
        },
        {
          "internalType": "bytes32",
          "name": "orbital",
          "type": "bytes32"
        }
      ],
      "name": "addForeignOrbital",
      "outputs": [],
      "stateMutability": "nonpayable",
      "type": "function"
    },
    {
      "inputs": [
        {
          "internalType": "address",
          "name": "token",
          "type": "address"
        }
      ],
      "name": "addSupportedToken",
      "outputs": [],
      "stateMutability": "nonpayable",
      "type": "function"
    },
    {
      "inputs": [
        {
          "internalType": "uint16",
          "name": "toChainId",
          "type": "uint16"
        },
        {
          "internalType": "bytes32",
          "name": "tokenIn",
          "type": "bytes32"
        },
        {
          "internalType": "bytes32",
          "name": "tokenOut",
          "type": "bytes32"
        },
        {
          "internalType": "uint256",
          "name": "value",
          "type": "uint256"
        },
        {
          "internalType": "bytes32",
          "name": "receiver",
          "type": "bytes32"
        }
      ],
      "name": "borrow",
      "outputs": [
        {
          "internalType": "bytes32",
          "name": "",
          "type": "bytes32"
        }
      ],
      "stateMutability": "payable",
      "type": "function"
    },
    {
      "inputs": [],
      "name": "owner",
      "outputs": [
        {
          "internalType": "address",
          "name": "",
          "type": "address"
        }
      ],
      "stateMutability": "view",
      "type": "function"
    },
    {
      "inputs": [],
      "name": "pendingOwner",
      "outputs": [
        {
          "internalType": "address",
          "name": "",
          "type": "address"
        }
      ],
      "stateMutability": "view",
      "type": "function"
    },
    {
      "inputs": [
        {
          "internalType": "uint32",
          "name": "wormholeNonce",
          "type": "uint32"
        },
        {
          "internalType": "bytes32",
          "name": "method",
          "type": "bytes32"
        },
        {
          "internalType": "bytes32",
          "name": "loanId",
          "type": "bytes32"
        },
        {
          "internalType": "bytes32",
          "name": "receiver",
          "type": "bytes32"
        },
        {
          "internalType": "uint16",
          "name": "fromChainId",
          "type": "uint16"
        },
        {
          "internalType": "bytes32",
          "name": "fromContractId",
          "type": "bytes32"
        },
        {
          "internalType": "bytes32",
          "name": "tokenOut",
          "type": "bytes32"
        },
        {
          "internalType": "uint256",
          "name": "value",
          "type": "uint256"
        }
      ],
      "name": "receiveOnBorrow",
      "outputs": [],
      "stateMutability": "nonpayable",
      "type": "function"
    },
    {
      "inputs": [
        {
          "internalType": "uint32",
          "name": "wormholeNonce",
          "type": "uint32"
        },
        {
          "internalType": "bytes32",
          "name": "method",
          "type": "bytes32"
        },
        {
          "internalType": "bytes32",
          "name": "loanId",
          "type": "bytes32"
        }
      ],
      "name": "receiveOnRepay",
      "outputs": [],
      "stateMutability": "nonpayable",
      "type": "function"
    },
    {
      "inputs": [],
      "name": "renounceOwnership",
      "outputs": [],
      "stateMutability": "nonpayable",
      "type": "function"
    },
    {
      "inputs": [
        {
          "internalType": "bytes32",
          "name": "loanId",
          "type": "bytes32"
        }
      ],
      "name": "repay",
      "outputs": [
        {
          "internalType": "bool",
          "name": "",
          "type": "bool"
        }
      ],
      "stateMutability": "payable",
      "type": "function"
    },
    {
      "inputs": [
        {
          "internalType": "address",
          "name": "newOwner",
          "type": "address"
        }
      ],
      "name": "transferOwnership",
      "outputs": [],
      "stateMutability": "nonpayable",
      "type": "function"
    }
  ],
  "bytecode": "0x60a03461014157601f6118d538819003918201601f19168301916001600160401b0383118484101761014657808492604094855283398101031261014157610052602061004b8361015c565b920161015c565b600180546001600160a01b0319908116909155600080543381841681178355604051956001600160a01b0395949386939192918416907f8be0079c531659141344cd1fd0a4f28419497f9722a3daafe3b4186f6b6457e09080a36f13d397d093d49493d5d7d351551213d160821b6002556e13d397d49154105657d351551213d1608a1b6003557013d397d111519055531517d351551213d1607a1b6004556007805460ff191660501790556005805463ffffffff19166001179055600d80549093169116179055166080526117649081610171823960805181818161028b0152818161042d0152610c3c0152f35b600080fd5b634e487b7160e01b600052604160045260246000fd5b51906001600160a01b03821682036101415756fe6080604052600436101561001257600080fd5b60003560e01c806313d80c1e146111ec578063418bd4b614610e7e578063563dd61314610a295780636d69fcaf146109bf578063715018a61461095057806375f5172e1461091557806379ba5097146108345780638da5cb5b1461080d5780639c112790146107d4578063d80b52b614610144578063e30c39781461011d5763f2fde38b146100a057600080fd5b34610118576020366003190112610118576004356001600160a01b03808216809203610118576100ce6116b6565b8173ffffffffffffffffffffffffffffffffffffffff196001541617600155600054167f38d16b8cac22d99fc7c124b9cd0de2d3fa1faef420bfe791d8c362d765e22700600080a3005b600080fd5b346101185760003660031901126101185760206001600160a01b0360015416604051908152f35b60a0366003190112610118576101586113ff565b60649060405190632e7682c760e11b8252602435600483015260208260248173__$cd1346a8e2955df852b4501a7004a2b636$__5af49182156105a3576000926107a3575b506101a782611656565b15610760576040516323b872dd60e01b815233600482015230602482015283356044820152916001600160a01b03906020908490606490829060009086165af19283156105a3578493610731575b50602081600d5416604051958680927ff52b31f100000000000000000000000000000000000000000000000000000000825260243560048301526044356024830152823560448301525afa9384156105a3576000946106fd575b5060ff60075416838111610694578361026b610273928761171b565b04809561170e565b5060405190631a90a21960e01b8252602082600481847f0000000000000000000000000000000000000000000000000000000000000000165afa9182156105a357600092610660575b506102c982341015611543565b604051946382c947b760e01b865230600487015260208660248173__$cd1346a8e2955df852b4501a7004a2b636$__5af49586156105a35760009661062c575b5061ffff8416600052600860205260406000205463ffffffff600554166040516020810191338352608435604083015260608201524260808201526080815261035181611467565b5190209660025495604051906382c947b760e01b825233600483015260208260248173__$cd1346a8e2955df852b4501a7004a2b636$__5af480156105a3576000906105f8575b61ffff92506040519860208a01528a60408a0152606089015260843560808901521660a087015260c086015260e085015260443561010085015261012090818501528352610140908184019284841067ffffffffffffffff8511176105e2576020918480928160405263ffffffff600554166358cd21bf60e11b8352886104288161013f199361014482016115ae565b0301927f0000000000000000000000000000000000000000000000000000000000000000165af180156105a3576105af575b505050604051906382c947b760e01b825233600483015260208260248173__$cd1346a8e2955df852b4501a7004a2b636$__5af49182156105a35760009261056f575b50604051916104ab83611467565b8252602082019060243582526040830190358152606083019060018252608084019242845285600052600960205260406000209451855551600185015551600284015551906004821015610559576105086004926003850161169e565b519101556005549063ffffffff82169163ffffffff83146105435763ffffffff600160209401169063ffffffff191617600555604051908152f35b634e487b7160e01b600052601160045260246000fd5b634e487b7160e01b600052602160045260246000fd5b9091506020813d60201161059b575b8161058b6020938361149f565b810103126101185751908361049d565b3d915061057e565b6040513d6000823e3d90fd5b6105d1926020903d6020116105da575b6105c9828561149f565b01019061158e565b5082808061045a565b3d91506105bf565b634e487b7160e01b600052604160045260246000fd5b506020823d602011610624575b816106126020938361149f565b810103126101185761ffff9151610398565b3d9150610605565b9095506020813d602011610658575b816106486020938361149f565b8101031261011857519486610309565b3d915061063b565b9091506020813d60201161068c575b8161067c6020938361149f565b81010312610118575190856102bc565b3d915061066f565b6084847f20313030000000000000000000000000000000000000000000000000000000006040519162461bcd60e51b8352602060048401526024808401527f50657263656e74616765206d757374206265206265747765656e203020616e646044840152820152fd5b9093506020813d602011610729575b816107196020938361149f565b810103126101185751928461024f565b3d915061070c565b6107529060203d602011610759575b61074a818361149f565b81019061152b565b50846101f5565b503d610740565b8260405162461bcd60e51b815260206004820152601360248201527f546f6b656e206e6f7420737570706f72746564000000000000000000000000006044820152fd5b6107c691925060203d6020116107cd575b6107be818361149f565b81019061150c565b908361019d565b503d6107b4565b34610118576020366003190112610118576004356001600160a01b038116810361011857610803602091611656565b6040519015158152f35b346101185760003660031901126101185760206001600160a01b0360005416604051908152f35b34610118576000366003190112610118576001546001600160a01b0333818316036108ab5773ffffffffffffffffffffffffffffffffffffffff198092166001556000549133908316176000553391167f8be0079c531659141344cd1fd0a4f28419497f9722a3daafe3b4186f6b6457e0600080a3005b608460405162461bcd60e51b815260206004820152602960248201527f4f776e61626c6532537465703a2063616c6c6572206973206e6f74207468652060448201527f6e6577206f776e657200000000000000000000000000000000000000000000006064820152fd5b346101185760403660031901126101185761ffff6109316113ff565b6109396116b6565b166000526008602052602435604060002055600080f35b34610118576000366003190112610118576109696116b6565b60006001600160a01b0373ffffffffffffffffffffffffffffffffffffffff19806001541660015582549081168355167f8be0079c531659141344cd1fd0a4f28419497f9722a3daafe3b4186f6b6457e08280a3005b34610118576020366003190112610118576004356001600160a01b0390818116809103610118576109ee6116b6565b600c54680100000000000000008110156105e257806001610a129201600c55611609565b909283549160031b92831b921b1916179055600080f35b602036600319011261011857600435600052600a6020526040600020600660405191610a5483611483565b805483526001810154602084015260028101546040840152610a8060ff6003830154166060850161145b565b60048101546080840152600581015460a084015261ffff91829101541660c083015260608201516004811015610559576001610abc91146114c1565b81519160405192632e7682c760e11b84526004840152602492602081858173__$cd1346a8e2955df852b4501a7004a2b636$__5af49081156105a357600091610e5f575b506001600160a01b03908133911603610e1b5765f7cf9b8d0000610b446040840151610b3f6080860151610b3960a0880151914261170e565b9261171b565b61171b565b046040830151908101809111610e065760208301519060405191632e7682c760e11b83526004830152602082878173__$cd1346a8e2955df852b4501a7004a2b636$__5af49182156105a3578392602092610bd492600092610de7575b506040516323b872dd60e01b81523360048201523060248201526044810191909152938492839160009183906064820190565b0393165af180156105a357610dc8575b506040516382c947b760e01b8152306004820152602081868173__$cd1346a8e2955df852b4501a7004a2b636$__5af49081156105a357600091610d96575b508360c0840151166000526008602052604060002054917f0000000000000000000000000000000000000000000000000000000000000000169160405191631a90a21960e01b8352602083600481875afa9283156105a357600093610d62575b50610c8f833414611543565b6003549560c08601511660405196602088015260043560408801526060870152608086015260a085015260a0845260c084019484861067ffffffffffffffff871117610d4e57506020918580928160405263ffffffff600554166358cd21bf60e11b835287610d058160bf199360c482016115ae565b0301925af19182156105a357600293606093610d2b575b50500152602060405160018152f35b60c0610d46926020903d6020116105da576105c9828561149f565b508380610d1c565b634e487b7160e01b60005260416004526000fd5b9092506020813d602011610d8e575b81610d7e6020938361149f565b8101031261011857519187610c83565b3d9150610d71565b90506020813d602011610dc0575b81610db16020938361149f565b81010312610118575185610c23565b3d9150610da4565b610de09060203d6020116107595761074a818361149f565b5084610be4565b610dff919250843d86116107cd576107be818361149f565b9089610ba1565b84634e487b7160e01b60005260116004526000fd5b60648460116040519162461bcd60e51b8352602060048401528201527f556e617574686f72697a6564206c6f616e0000000000000000000000000000006044820152fd5b610e78915060203d6020116107cd576107be818361149f565b84610b00565b346101185761010036600319011261011857610e986113ec565b602460443590606435926084359061ffff908183168093036101185760c4359463ffffffff60e43592610ec96116b6565b16948560005260209660068852610ee860ff6040600020541615611410565b6002548235036111a757856000526008885260a435604060002054036111645782600052600a885260ff60036040600020015416600481101561114f5761110c5773__$cd1346a8e2955df852b4501a7004a2b636$__60405190632e7682c760e11b918281528360048201528a818681855af49283156105a357858d918d936000966110ed575b506040519485938492835260048301525af49081156105a357610fd5928b9288926000916110d0575b5060006001600160a01b0360405180978196829563a9059cbb60e01b845260048401602090939291936001600160a01b0360408201951681520152565b0393165af180156105a3576110b3575b5080600052600b885260406000205493604051996110028b611483565b8a52888a0191825260408a0190815260608a01916001835260808b019442865260a08c0196875260c08c01988952600052600a8a5260406000209a518b555160018b01555160028a01555190600482101561109f575091879161106c6006999460038b960161169e565b5160048301555160058201550191511661ffff19825416179055600052526040600020600160ff19825416179055600080f35b634e487b7160e01b60005260216004526000fd5b6110c990893d8b116107595761074a818361149f565b5089610fe5565b6110e79150843d86116107cd576107be818361149f565b8e610f98565b611105919650843d86116107cd576107be818361149f565b948f610f6f565b6064886014846040519262461bcd60e51b845260048401528201527f4c6f616e20616c726561647920637265617465640000000000000000000000006044820152fd5b82634e487b7160e01b60005260216004526000fd5b6064886017846040519262461bcd60e51b845260048401528201527f496e76616c696420666f726569676e206f72626974616c0000000000000000006044820152fd5b60405162461bcd60e51b815260206004820152601060248201527f556e646566696e6564206d6574686f64000000000000000000000000000000006044820152606490fd5b346101185760603660031901126101185763ffffffff61120a6113ec565b6112126116b6565b168060005260206006815261122f60ff6040600020541615611410565b600354602435036111a757604435600052600981526040600020916040519261125784611467565b8054845260018101549383810194855260028201549460408201958652600460ff6003850154169361128d60608501958661145b565b01546080830152825160048110156105595760016112ab91146114c1565b519073__$cd1346a8e2955df852b4501a7004a2b636$__9160405190632e7682c760e11b9081835260048301528682602481875af49283156105a35787926000946113ca575b5060249051916040519586938492835260048301525af49081156105a35761135c9686936000936113ab575b50519160006001600160a01b03604051809a8196829563a9059cbb60e01b845260048401602090939291936001600160a01b0360408201951681520152565b0393165af19081156105a35760069460029261138e575b5052600052526040600020600160ff19825416179055600080f35b6113a490853d87116107595761074a818361149f565b5085611373565b6113c3919350843d86116107cd576107be818361149f565b918861131d565b60249194506113e590843d86116107cd576107be818361149f565b93906112f1565b6004359063ffffffff8216820361011857565b6004359061ffff8216820361011857565b1561141757565b606460405162461bcd60e51b815260206004820152601b60248201527f4e6f6e63652077617320616c72656164792065786563757465642e00000000006044820152fd5b60048210156105595752565b60a0810190811067ffffffffffffffff8211176105e257604052565b60e0810190811067ffffffffffffffff8211176105e257604052565b90601f8019910116810190811067ffffffffffffffff8211176105e257604052565b156114c857565b606460405162461bcd60e51b815260206004820152601260248201527f4c6f616e206973206e6f742061637469766500000000000000000000000000006044820152fd5b9081602091031261011857516001600160a01b03811681036101185790565b90816020910312610118575180151581036101185790565b1561154a57565b606460405162461bcd60e51b815260206004820152601860248201527f496e73756666696369656e74206d6573736167652066656500000000000000006044820152fd5b90816020910312610118575167ffffffffffffffff811681036101185790565b92919063ffffffff16835260206060602085015281519182606086015260005b8381106115f5575050506040608082600082819588010152601f8019910116850101930152565b8181018301518682016080015282016115ce565b600c5481101561164057600c6000527fdf6966c971051c3d54ec59162606531493a51404a002842f56009d7e5cf4a8c70190600090565b634e487b7160e01b600052603260045260246000fd5b600c549060005b82811061166c57505050600090565b61167581611609565b906001600160a01b0390548185169260031b1c16146116965760010161165d565b505050600190565b9060048110156105595760ff80198354169116179055565b6001600160a01b036000541633036116ca57565b606460405162461bcd60e51b815260206004820152602060248201527f4f776e61626c653a2063616c6c6572206973206e6f7420746865206f776e65726044820152fd5b9190820391821161054357565b818102929181159184041417156105435756fea2646970667358221220ec1afcda05007350787e89c8808fd4947b2cd7f785ae2c939b05ff6151a64f2064736f6c63430008180033",
  "linkReferences": {
    "contracts/libraries/AddressToBytes32.sol": {
      "AddressToBytes32": [
        {
          "length": 20,
          "start": 746
        },
        {
          "length": 20,
          "start": 1110
        },
        {
          "length": 20,
          "start": 1254
        },
        {
          "length": 20,
          "start": 1514
        },
        {
          "length": 20,
          "start": 3149
        },
        {
          "length": 20,
          "start": 3301
        },
        {
          "length": 20,
          "start": 3440
        },
        {
          "length": 20,
          "start": 4252
        },
        {
          "length": 20,
          "start": 5152
        }
      ]
    }
  },
  "deployedLinkReferences": {
    "contracts/libraries/AddressToBytes32.sol": {
      "AddressToBytes32": [
        {
          "length": 20,
          "start": 377
        },
        {
          "length": 20,
          "start": 741
        },
        {
          "length": 20,
          "start": 885
        },
        {
          "length": 20,
          "start": 1145
        },
        {
          "length": 20,
          "start": 2780
        },
        {
          "length": 20,
          "start": 2932
        },
        {
          "length": 20,
          "start": 3071
        },
        {
          "length": 20,
          "start": 3883
        },
        {
          "length": 20,
          "start": 4783
        }
      ]
    }
  }
}