{
  "_format": "hh-sol-artifact-1",
  "contractName": "Orbital",
  "sourceName": "contracts/Orbital.sol",
  "abi": [
    {
      "inputs": [
        {
          "internalType": "address",
          "name": "priceFeeds",
          "type": "address"
        },
        {
          "internalType": "address",
          "name": "wormhole",
          "type": "address"
        }
      ],
      "stateMutability": "nonpayable",
      "type": "constructor"
    },
    {
      "anonymous": false,
      "inputs": [
        {
          "indexed": true,
          "internalType": "address",
          "name": "previousOwner",
          "type": "address"
        },
        {
          "indexed": true,
          "internalType": "address",
          "name": "newOwner",
          "type": "address"
        }
      ],
      "name": "OwnershipTransferStarted",
      "type": "event"
    },
    {
      "anonymous": false,
      "inputs": [
        {
          "indexed": true,
          "internalType": "address",
          "name": "previousOwner",
          "type": "address"
        },
        {
          "indexed": true,
          "internalType": "address",
          "name": "newOwner",
          "type": "address"
        }
      ],
      "name": "OwnershipTransferred",
      "type": "event"
    },
    {
      "inputs": [
        {
          "internalType": "bytes32",
          "name": "tokenId",
          "type": "bytes32"
        }
      ],
      "name": "_isTokenSupported",
      "outputs": [
        {
          "internalType": "bool",
          "name": "",
          "type": "bool"
        }
      ],
      "stateMutability": "view",
      "type": "function"
    },
    {
      "inputs": [],
      "name": "acceptOwnership",
      "outputs": [],
      "stateMutability": "nonpayable",
      "type": "function"
    },
    {
      "inputs": [
        {
          "internalType": "uint16",
          "name": "chainId",
          "type": "uint16"
        },
        {
          "internalType": "bytes32",
          "name": "orbital",
          "type": "bytes32"
        }
      ],
      "name": "addForeignOrbital",
      "outputs": [],
      "stateMutability": "nonpayable",
      "type": "function"
    },
    {
      "inputs": [
        {
          "internalType": "address",
          "name": "token",
          "type": "address"
        }
      ],
      "name": "addSupportedToken",
      "outputs": [],
      "stateMutability": "nonpayable",
      "type": "function"
    },
    {
      "inputs": [
        {
          "internalType": "uint16",
          "name": "toChainId",
          "type": "uint16"
        },
        {
          "internalType": "bytes32",
          "name": "tokenIn",
          "type": "bytes32"
        },
        {
          "internalType": "bytes32",
          "name": "tokenOut",
          "type": "bytes32"
        },
        {
          "internalType": "uint256",
          "name": "value",
          "type": "uint256"
        },
        {
          "internalType": "bytes32",
          "name": "receiver",
          "type": "bytes32"
        }
      ],
      "name": "borrow",
      "outputs": [
        {
          "internalType": "bytes32",
          "name": "",
          "type": "bytes32"
        }
      ],
      "stateMutability": "payable",
      "type": "function"
    },
    {
      "inputs": [
        {
          "internalType": "bytes32",
          "name": "tokenIn",
          "type": "bytes32"
        },
        {
          "internalType": "bytes32",
          "name": "tokenOut",
          "type": "bytes32"
        },
        {
          "internalType": "uint256",
          "name": "amountIn",
          "type": "uint256"
        },
        {
          "internalType": "uint8",
          "name": "ltv",
          "type": "uint8"
        }
      ],
      "name": "getAmountOut",
      "outputs": [
        {
          "internalType": "uint256",
          "name": "",
          "type": "uint256"
        }
      ],
      "stateMutability": "view",
      "type": "function"
    },
    {
      "inputs": [],
      "name": "owner",
      "outputs": [
        {
          "internalType": "address",
          "name": "",
          "type": "address"
        }
      ],
      "stateMutability": "view",
      "type": "function"
    },
    {
      "inputs": [],
      "name": "pendingOwner",
      "outputs": [
        {
          "internalType": "address",
          "name": "",
          "type": "address"
        }
      ],
      "stateMutability": "view",
      "type": "function"
    },
    {
      "inputs": [
        {
          "internalType": "uint32",
          "name": "wormholeNonce",
          "type": "uint32"
        },
        {
          "internalType": "bytes32",
          "name": "method",
          "type": "bytes32"
        },
        {
          "internalType": "bytes32",
          "name": "loanId",
          "type": "bytes32"
        },
        {
          "internalType": "bytes32",
          "name": "receiver",
          "type": "bytes32"
        },
        {
          "internalType": "uint16",
          "name": "fromChainId",
          "type": "uint16"
        },
        {
          "internalType": "bytes32",
          "name": "fromContractId",
          "type": "bytes32"
        },
        {
          "internalType": "bytes32",
          "name": "tokenOut",
          "type": "bytes32"
        },
        {
          "internalType": "uint256",
          "name": "value",
          "type": "uint256"
        }
      ],
      "name": "receiveOnBorrow",
      "outputs": [],
      "stateMutability": "nonpayable",
      "type": "function"
    },
    {
      "inputs": [
        {
          "internalType": "uint32",
          "name": "wormholeNonce",
          "type": "uint32"
        },
        {
          "internalType": "bytes32",
          "name": "method",
          "type": "bytes32"
        },
        {
          "internalType": "bytes32",
          "name": "loanId",
          "type": "bytes32"
        }
      ],
      "name": "receiveOnRepay",
      "outputs": [],
      "stateMutability": "nonpayable",
      "type": "function"
    },
    {
      "inputs": [
        {
          "internalType": "uint32",
          "name": "wormholeNonce",
          "type": "uint32"
        },
        {
          "internalType": "bytes32",
          "name": "method",
          "type": "bytes32"
        },
        {
          "internalType": "bytes32",
          "name": "receiver",
          "type": "bytes32"
        },
        {
          "internalType": "bool",
          "name": "status",
          "type": "bool"
        }
      ],
      "name": "receiveOnStakeSuiFrens",
      "outputs": [],
      "stateMutability": "nonpayable",
      "type": "function"
    },
    {
      "inputs": [],
      "name": "renounceOwnership",
      "outputs": [],
      "stateMutability": "nonpayable",
      "type": "function"
    },
    {
      "inputs": [
        {
          "internalType": "bytes32",
          "name": "loanId",
          "type": "bytes32"
        }
      ],
      "name": "repay",
      "outputs": [
        {
          "internalType": "bool",
          "name": "",
          "type": "bool"
        }
      ],
      "stateMutability": "payable",
      "type": "function"
    },
    {
      "inputs": [
        {
          "internalType": "address",
          "name": "newOwner",
          "type": "address"
        }
      ],
      "name": "transferOwnership",
      "outputs": [],
      "stateMutability": "nonpayable",
      "type": "function"
    }
  ],
  "bytecode": "0x60a03461014357601f62001bb338819003918201601f19168301916001600160401b0383118484101761014857808492604094855283398101031261014357610053602061004c8361015e565b920161015e565b600180546001600160a01b0319908116909155600080543381841681178355604051956001600160a01b0395949386939192918416907f8be0079c531659141344cd1fd0a4f28419497f9722a3daafe3b4186f6b6457e09080a36f13d397d093d49493d5d7d351551213d160821b6002556e13d397d49154105657d351551213d1608a1b6003557013d397d111519055531517d351551213d1607a1b6004556007805460ff191660501790556005805463ffffffff19166001179055600e8054909316911617905516608052611a409081620001738239608051818181610328015281816104d00152610ecc0152f35b600080fd5b634e487b7160e01b600052604160045260246000fd5b51906001600160a01b03821682036101435756fe6080604052600436101561001257600080fd5b60003560e01c806313d80c1e14611443578063418bd4b61461110e578063563dd61314610cad5780636d69fcaf14610bcf578063715018a614610b60578063722da3c214610a8557806375f5172e14610a4a57806379ba5097146109695780637b76ba8a146108ab5780638da5cb5b14610884578063d80b52b614610182578063e30c39781461015b578063f2fde38b146100e35763f770a695146100b657600080fd5b346100de5760203660031901126100de5760206100d46004356118c6565b6040519015158152f35b600080fd5b346100de5760203660031901126100de576004356001600160a01b038082168092036100de57610111611902565b8173ffffffffffffffffffffffffffffffffffffffff196001541617600155600054167f38d16b8cac22d99fc7c124b9cd0de2d3fa1faef420bfe791d8c362d765e22700600080a3005b346100de5760003660031901126100de5760206001600160a01b0360015416604051908152f35b60a03660031901126100de57610196611656565b6101a16024356118c6565b15610840576101b16044356118c6565b156107fc57604051632e7682c760e11b8152602435600482015260208160248173__$cd1346a8e2955df852b4501a7004a2b636$__5af4908115610643576000916107cd575b506040516323b872dd60e01b81523360048201523060248201526064803560448301529091602091839182906000906001600160a01b03165af180156106435761079e575b506001600160a01b03600e54166020604051809263f52b31f160e01b82528180610282606435604435602435600485016040919493926060820195825260208201520152565b03915afa9081156106435760009161076c575b5060006040516382c947b760e01b815233600482015260208160248173__$cd1346a8e2955df852b4501a7004a2b636$__5af49081156106435760009161073a575b50600052600b60205260ff60406000205416610732575b60ff806007541691160160ff81116105e5576103099161197a565b5090604051631a90a21960e01b81526020816004816001600160a01b037f0000000000000000000000000000000000000000000000000000000000000000165afa90811561064357600091610700575b506103668134101561179b565b604051926382c947b760e01b845230600485015260208460248173__$cd1346a8e2955df852b4501a7004a2b636$__5af4938415610643576000946106cc575b5061ffff8316600052600860205260406000205463ffffffff60055416604051602081019133835260843560408301526060820152426080820152608081526103ee816116be565b5190209460025494604051906382c947b760e01b825233600483015260208260248173__$cd1346a8e2955df852b4501a7004a2b636$__5af4801561064357600090610698575b61ffff9250604051976020890152886040890152606088015260843560808801521660a086015260c085015260e0840152604435610100840152610120908184015282526101408083019183831067ffffffffffffffff8411176106825782602091816040528163ffffffff600554166358cd21bf60e11b8252876104c38161013f19936101448201611806565b0301916001600160a01b037f0000000000000000000000000000000000000000000000000000000000000000165af180156106435761064f575b5050506040516382c947b760e01b815233600482015260208160248173__$cd1346a8e2955df852b4501a7004a2b636$__5af490811561064357600091610611575b506040519061054d826116be565b81526020810160243581526040820160643581526060830190600182526080840192428452856000526009602052604060002094518555516001850155516002840155519060048210156105fb576105aa600492600385016118ae565b519101556005549063ffffffff82169163ffffffff83146105e55763ffffffff600160209401169063ffffffff191617600555604051908152f35b634e487b7160e01b600052601160045260246000fd5b634e487b7160e01b600052602160045260246000fd5b90506020813d60201161063b575b8161062c602093836116f7565b810103126100de57518261053f565b3d915061061f565b6040513d6000823e3d90fd5b610671926020903d60201161067a575b61066982856116f7565b0101906117e6565b508180806104fd565b3d915061065f565b634e487b7160e01b600052604160045260246000fd5b506020823d6020116106c4575b816106b2602093836116f7565b810103126100de5761ffff9151610435565b3d91506106a5565b9093506020813d6020116106f8575b816106e8602093836116f7565b810103126100de575192846103a6565b3d91506106db565b90506020813d60201161072a575b8161071b602093836116f7565b810103126100de575183610359565b3d915061070e565b50600a6102ee565b90506020813d602011610764575b81610755602093836116f7565b810103126100de5751846102d7565b3d9150610748565b90506020813d602011610796575b81610787602093836116f7565b810103126100de575182610295565b3d915061077a565b6107bf9060203d6020116107c6575b6107b781836116f7565b810190611783565b508161023c565b503d6107ad565b6107ef915060203d6020116107f5575b6107e781836116f7565b810190611764565b826101f7565b503d6107dd565b606460405162461bcd60e51b815260206004820152601760248201527f546f6b656e206f7574206e6f7420737570706f727465640000000000000000006044820152fd5b606460405162461bcd60e51b815260206004820152601660248201527f546f6b656e20696e206e6f7420737570706f72746564000000000000000000006044820152fd5b346100de5760003660031901126100de5760206001600160a01b0360005416604051908152f35b346100de5760803660031901126100de5760643560ff811681036100de576001600160a01b03600e54166020604051809263f52b31f160e01b8252818061090e604435602435600435600485016040919493926060820195825260208201520152565b03915afa90811561064357600091610936575b602061092d848461197a565b50604051908152f35b90506020813d602011610961575b81610951602093836116f7565b810103126100de57516020610921565b3d9150610944565b346100de5760003660031901126100de576001546001600160a01b0333818316036109e05773ffffffffffffffffffffffffffffffffffffffff198092166001556000549133908316176000553391167f8be0079c531659141344cd1fd0a4f28419497f9722a3daafe3b4186f6b6457e0600080a3005b608460405162461bcd60e51b815260206004820152602960248201527f4f776e61626c6532537465703a2063616c6c6572206973206e6f74207468652060448201527f6e6577206f776e657200000000000000000000000000000000000000000000006064820152fd5b346100de5760403660031901126100de5761ffff610a66611656565b610a6e611902565b166000526008602052602435604060002055600080f35b346100de5760803660031901126100de57610a9e611643565b606435908115158092036100de5763ffffffff90610aba611902565b16806000526006602052610ad660ff6040600020541615611667565b60035460243503610b1b57604435600052600b602052604060002060ff199260ff84835416911617905560005260066020526001604060002091825416179055600080f35b60405162461bcd60e51b815260206004820152601060248201527f556e646566696e6564206d6574686f64000000000000000000000000000000006044820152606490fd5b346100de5760003660031901126100de57610b79611902565b60006001600160a01b0373ffffffffffffffffffffffffffffffffffffffff19806001541660015582549081168355167f8be0079c531659141344cd1fd0a4f28419497f9722a3daafe3b4186f6b6457e08280a3005b346100de5760203660031901126100de576004356001600160a01b0381168091036100de57610bfc611902565b604051906382c947b760e01b8252600482015260208160248173__$cd1346a8e2955df852b4501a7004a2b636$__5af490811561064357600091610c7b575b50600d546801000000000000000081101561068257806001610c609201600d55611861565b819291549060031b91821b91600019901b1916179055600080f35b90506020813d602011610ca5575b81610c96602093836116f7565b810103126100de575181610c3b565b3d9150610c89565b60203660031901126100de57600435600052600a6020526040600020600760405191610cd8836116da565b80548352600181015490602084019182526002810154604085015260038101546060850152610d1160ff600483015416608086016116b2565b600581015460a0850152600681015460c085015261ffff92839101541660e0840152608083015160048110156105fb576001610d4d9114611719565b519160405192632e7682c760e11b84526004840152602492602081858173__$cd1346a8e2955df852b4501a7004a2b636$__5af4908115610643576000916110ef575b506001600160a01b039081339116036110ab5765f7cf9b8d0000610dd46060840151610dcf60a0860151610dc960c0880151914261195a565b92611967565b611967565b0460608301519081018091116110965760408301519060405191632e7682c760e11b83526004830152602082878173__$cd1346a8e2955df852b4501a7004a2b636$__5af4918215610643578392602092610e6492600092611077575b506040516323b872dd60e01b81523360048201523060248201526044810191909152938492839160009183906064820190565b0393165af1801561064357611058575b506040516382c947b760e01b8152306004820152602081868173__$cd1346a8e2955df852b4501a7004a2b636$__5af490811561064357600091611026575b508360e0840151166000526008602052604060002054917f0000000000000000000000000000000000000000000000000000000000000000169160405191631a90a21960e01b8352602083600481875afa92831561064357600093610ff2575b50610f1f83341461179b565b6003549560e08601511660405196602088015260043560408801526060870152608086015260a085015260a0845260c084019484861067ffffffffffffffff871117610fde57506020918580928160405263ffffffff600554166358cd21bf60e11b835287610f958160bf199360c48201611806565b0301925af191821561064357600293608093610fbb575b50500152602060405160018152f35b60c0610fd6926020903d60201161067a5761066982856116f7565b508380610fac565b634e487b7160e01b60005260416004526000fd5b9092506020813d60201161101e575b8161100e602093836116f7565b810103126100de57519187610f13565b3d9150611001565b90506020813d602011611050575b81611041602093836116f7565b810103126100de575185610eb3565b3d9150611034565b6110709060203d6020116107c6576107b781836116f7565b5084610e74565b61108f919250843d86116107f5576107e781836116f7565b9089610e31565b84634e487b7160e01b60005260116004526000fd5b60648460116040519162461bcd60e51b8352602060048401528201527f556e617574686f72697a6564206c6f616e0000000000000000000000000000006044820152fd5b611108915060203d6020116107f5576107e781836116f7565b84610d90565b346100de576101003660031901126100de57611128611643565b60249060443591606435916084359061ffff908183168093036100de5760c4359563ffffffff60e4359261115a611902565b1694856000526020966006885261117960ff6040600020541615611667565b600254823503610b1b57856000526008885260a435604060002054036114005782600052600a885260ff6004604060002001541660048110156113eb576113a85773__$cd1346a8e2955df852b4501a7004a2b636$__60405190632e7682c760e11b918281528b60048201528a818681855af4928315610643578b91600094611389575b50856040518094819382528760048301525af490811561064357611264928b92889260009161136c575b5060006001600160a01b0360405180978196829563a9059cbb60e01b845260048401602090939291936001600160a01b0360408201951681520152565b0393165af180156106435761134f575b5088600052600c885260406000205493604051996112918b6116da565b848b52898b0192835260408b0190815260608b0191825260808b01926001845260a08c019542875260c08d0197885260e08d01998a52600052600a8b5260406000209b518c555160018c01555160028b01555160038a01555190600482101561133b5750918791611309600794600460069b016118ae565b51600583015551878201550191511661ffff19825416179055600052526040600020600160ff19825416179055600080f35b634e487b7160e01b60005260216004526000fd5b61136590893d8b116107c6576107b781836116f7565b5089611274565b6113839150843d86116107f5576107e781836116f7565b8e611227565b6113a1919450823d84116107f5576107e781836116f7565b928d6111fd565b6064886014846040519262461bcd60e51b845260048401528201527f4c6f616e20616c726561647920637265617465640000000000000000000000006044820152fd5b82634e487b7160e01b60005260216004526000fd5b6064886017846040519262461bcd60e51b845260048401528201527f496e76616c696420666f726569676e206f72626974616c0000000000000000006044820152fd5b346100de5760603660031901126100de5763ffffffff611461611643565b611469611902565b168060005260206006815261148660ff6040600020541615611667565b60035460243503610b1b5760443560005260098152604060002091604051926114ae846116be565b8054845260018101549383810194855260028201549460408201958652600460ff600385015416936114e46060850195866116b2565b01546080830152825160048110156105fb5760016115029114611719565b519073__$cd1346a8e2955df852b4501a7004a2b636$__9160405190632e7682c760e11b9081835260048301528682602481875af4928315610643578792600094611621575b5060249051916040519586938492835260048301525af4908115610643576115b3968693600093611602575b50519160006001600160a01b03604051809a8196829563a9059cbb60e01b845260048401602090939291936001600160a01b0360408201951681520152565b0393165af1908115610643576006946002926115e5575b5052600052526040600020600160ff19825416179055600080f35b6115fb90853d87116107c6576107b781836116f7565b50856115ca565b61161a919350843d86116107f5576107e781836116f7565b9188611574565b602491945061163c90843d86116107f5576107e781836116f7565b9390611548565b6004359063ffffffff821682036100de57565b6004359061ffff821682036100de57565b1561166e57565b606460405162461bcd60e51b815260206004820152601b60248201527f4e6f6e63652077617320616c72656164792065786563757465642e00000000006044820152fd5b60048210156105fb5752565b60a0810190811067ffffffffffffffff82111761068257604052565b610100810190811067ffffffffffffffff82111761068257604052565b90601f8019910116810190811067ffffffffffffffff82111761068257604052565b1561172057565b606460405162461bcd60e51b815260206004820152601260248201527f4c6f616e206973206e6f742061637469766500000000000000000000000000006044820152fd5b908160209103126100de57516001600160a01b03811681036100de5790565b908160209103126100de575180151581036100de5790565b156117a257565b606460405162461bcd60e51b815260206004820152601860248201527f496e73756666696369656e74206d6573736167652066656500000000000000006044820152fd5b908160209103126100de575167ffffffffffffffff811681036100de5790565b92919063ffffffff16835260206060602085015281519182606086015260005b83811061184d575050506040608082600082819588010152601f8019910116850101930152565b818101830151868201608001528201611826565b600d5481101561189857600d6000527fd7b6990105719101dabeb77144f2a3385c8033acd3af97e9423a695e81ad1eb50190600090565b634e487b7160e01b600052603260045260246000fd5b9060048110156105fb5760ff80198354169116179055565b600d549060005b8281106118dc57505050600090565b816118e682611861565b90549060031b1c146118fa576001016118cd565b505050600190565b6001600160a01b0360005416330361191657565b606460405162461bcd60e51b815260206004820152602060248201527f4f776e61626c653a2063616c6c6572206973206e6f7420746865206f776e65726044820152fd5b919082039182116105e557565b818102929181159184041417156105e557565b919060ff16606481116119a157606461199661199e9285611967565b04809361195a565b90565b608460405162461bcd60e51b8152602060048201526024808201527f50657263656e74616765206d757374206265206265747765656e203020616e6460448201527f20313030000000000000000000000000000000000000000000000000000000006064820152fdfea2646970667358221220077b5788c0df9f6aa8782ac004476a4ba58d1799b6de285c94320209278ea8f564736f6c63430008180033",
  "linkReferences": {
    "contracts/libraries/AddressToBytes32.sol": {
      "AddressToBytes32": [
        {
          "length": 20,
          "start": 838
        },
        {
          "length": 20,
          "start": 1062
        },
        {
          "length": 20,
          "start": 1269
        },
        {
          "length": 20,
          "start": 1413
        },
        {
          "length": 20,
          "start": 1678
        },
        {
          "length": 20,
          "start": 3466
        },
        {
          "length": 20,
          "start": 3807
        },
        {
          "length": 20,
          "start": 3959
        },
        {
          "length": 20,
          "start": 4098
        },
        {
          "length": 20,
          "start": 4911
        },
        {
          "length": 20,
          "start": 5753
        }
      ]
    }
  },
  "deployedLinkReferences": {
    "contracts/libraries/AddressToBytes32.sol": {
      "AddressToBytes32": [
        {
          "length": 20,
          "start": 467
        },
        {
          "length": 20,
          "start": 691
        },
        {
          "length": 20,
          "start": 898
        },
        {
          "length": 20,
          "start": 1042
        },
        {
          "length": 20,
          "start": 1307
        },
        {
          "length": 20,
          "start": 3095
        },
        {
          "length": 20,
          "start": 3436
        },
        {
          "length": 20,
          "start": 3588
        },
        {
          "length": 20,
          "start": 3727
        },
        {
          "length": 20,
          "start": 4540
        },
        {
          "length": 20,
          "start": 5382
        }
      ]
    }
  }
}