{
  "_format": "hh-sol-artifact-1",
  "contractName": "Orbital",
  "sourceName": "contracts/Orbital.sol",
  "abi": [
    {
      "inputs": [
        {
          "internalType": "address",
          "name": "priceFeeds",
          "type": "address"
        },
        {
          "internalType": "address",
          "name": "wormhole",
          "type": "address"
        }
      ],
      "stateMutability": "nonpayable",
      "type": "constructor"
    },
    {
      "anonymous": false,
      "inputs": [
        {
          "indexed": true,
          "internalType": "address",
          "name": "previousOwner",
          "type": "address"
        },
        {
          "indexed": true,
          "internalType": "address",
          "name": "newOwner",
          "type": "address"
        }
      ],
      "name": "OwnershipTransferStarted",
      "type": "event"
    },
    {
      "anonymous": false,
      "inputs": [
        {
          "indexed": true,
          "internalType": "address",
          "name": "previousOwner",
          "type": "address"
        },
        {
          "indexed": true,
          "internalType": "address",
          "name": "newOwner",
          "type": "address"
        }
      ],
      "name": "OwnershipTransferred",
      "type": "event"
    },
    {
      "inputs": [
        {
          "internalType": "bytes32",
          "name": "tokenId",
          "type": "bytes32"
        }
      ],
      "name": "_isTokenSupported",
      "outputs": [
        {
          "internalType": "bool",
          "name": "",
          "type": "bool"
        }
      ],
      "stateMutability": "view",
      "type": "function"
    },
    {
      "inputs": [],
      "name": "acceptOwnership",
      "outputs": [],
      "stateMutability": "nonpayable",
      "type": "function"
    },
    {
      "inputs": [
        {
          "internalType": "uint16",
          "name": "chainId",
          "type": "uint16"
        },
        {
          "internalType": "bytes32",
          "name": "orbital",
          "type": "bytes32"
        }
      ],
      "name": "addForeignOrbital",
      "outputs": [],
      "stateMutability": "nonpayable",
      "type": "function"
    },
    {
      "inputs": [
        {
          "internalType": "address",
          "name": "token",
          "type": "address"
        }
      ],
      "name": "addSupportedToken",
      "outputs": [],
      "stateMutability": "nonpayable",
      "type": "function"
    },
    {
      "inputs": [
        {
          "internalType": "uint16",
          "name": "toChainId",
          "type": "uint16"
        },
        {
          "internalType": "bytes32",
          "name": "tokenIn",
          "type": "bytes32"
        },
        {
          "internalType": "bytes32",
          "name": "tokenOut",
          "type": "bytes32"
        },
        {
          "internalType": "uint256",
          "name": "value",
          "type": "uint256"
        },
        {
          "internalType": "bytes32",
          "name": "receiver",
          "type": "bytes32"
        }
      ],
      "name": "borrow",
      "outputs": [
        {
          "internalType": "bytes32",
          "name": "",
          "type": "bytes32"
        }
      ],
      "stateMutability": "payable",
      "type": "function"
    },
    {
      "inputs": [
        {
          "internalType": "bytes32",
          "name": "tokenIn",
          "type": "bytes32"
        },
        {
          "internalType": "bytes32",
          "name": "tokenOut",
          "type": "bytes32"
        },
        {
          "internalType": "uint256",
          "name": "amountIn",
          "type": "uint256"
        },
        {
          "internalType": "uint8",
          "name": "ltv",
          "type": "uint8"
        }
      ],
      "name": "getAmountOut",
      "outputs": [
        {
          "internalType": "uint256",
          "name": "",
          "type": "uint256"
        }
      ],
      "stateMutability": "view",
      "type": "function"
    },
    {
      "inputs": [],
      "name": "owner",
      "outputs": [
        {
          "internalType": "address",
          "name": "",
          "type": "address"
        }
      ],
      "stateMutability": "view",
      "type": "function"
    },
    {
      "inputs": [],
      "name": "pendingOwner",
      "outputs": [
        {
          "internalType": "address",
          "name": "",
          "type": "address"
        }
      ],
      "stateMutability": "view",
      "type": "function"
    },
    {
      "inputs": [
        {
          "internalType": "uint32",
          "name": "wormholeNonce",
          "type": "uint32"
        },
        {
          "internalType": "bytes32",
          "name": "loanId",
          "type": "bytes32"
        },
        {
          "internalType": "bytes32",
          "name": "receiver",
          "type": "bytes32"
        },
        {
          "internalType": "uint16",
          "name": "fromChainId",
          "type": "uint16"
        },
        {
          "internalType": "bytes32",
          "name": "fromContractId",
          "type": "bytes32"
        },
        {
          "internalType": "bytes32",
          "name": "tokenIn",
          "type": "bytes32"
        },
        {
          "internalType": "bytes32",
          "name": "tokenOut",
          "type": "bytes32"
        },
        {
          "internalType": "uint256",
          "name": "value",
          "type": "uint256"
        }
      ],
      "name": "receiveOnBorrow",
      "outputs": [],
      "stateMutability": "nonpayable",
      "type": "function"
    },
    {
      "inputs": [
        {
          "internalType": "uint32",
          "name": "wormholeNonce",
          "type": "uint32"
        },
        {
          "internalType": "bytes32",
          "name": "loanId",
          "type": "bytes32"
        }
      ],
      "name": "receiveOnRepay",
      "outputs": [],
      "stateMutability": "nonpayable",
      "type": "function"
    },
    {
      "inputs": [],
      "name": "renounceOwnership",
      "outputs": [],
      "stateMutability": "nonpayable",
      "type": "function"
    },
    {
      "inputs": [
        {
          "internalType": "bytes32",
          "name": "loanId",
          "type": "bytes32"
        }
      ],
      "name": "repay",
      "outputs": [
        {
          "internalType": "bool",
          "name": "",
          "type": "bool"
        }
      ],
      "stateMutability": "payable",
      "type": "function"
    },
    {
      "inputs": [
        {
          "internalType": "address",
          "name": "newOwner",
          "type": "address"
        }
      ],
      "name": "transferOwnership",
      "outputs": [],
      "stateMutability": "nonpayable",
      "type": "function"
    }
  ],
  "bytecode": "0x60a03461014157601f611ae738819003918201601f19168301916001600160401b0383118484101761014657808492604094855283398101031261014157610052602061004b8361015c565b920161015c565b600180546001600160a01b0319908116909155600080543381841681178355604051956001600160a01b0395949386939192918416907f8be0079c531659141344cd1fd0a4f28419497f9722a3daafe3b4186f6b6457e09080a36f13d397d093d49493d5d7d351551213d160821b6002556e13d397d49154105657d351551213d1608a1b6003557013d397d111519055531517d351551213d1607a1b6004556007805460ff191660501790556005805463ffffffff19166001179055600d8054909316911617905516608052611976908161017182396080518181816102ad0152818161044f015261110c0152f35b600080fd5b634e487b7160e01b600052604160045260246000fd5b51906001600160a01b03821682036101415756fe6080604052600436101561001257600080fd5b60003560e01c80630b3735fb14611359578063563dd61314610eeb5780635bdea91414610afe5780636d69fcaf14610a20578063715018a6146109b157806375f5172e1461097657806379ba5097146108955780637b76ba8a146107d75780638da5cb5b146107b0578063d80b52b614610177578063e30c397814610150578063f2fde38b146100d85763f770a695146100ab57600080fd5b346100d35760203660031901126100d35760206100c96004356117fc565b6040519015158152f35b600080fd5b346100d35760203660031901126100d3576004356001600160a01b038082168092036100d357610106611838565b8173ffffffffffffffffffffffffffffffffffffffff196001541617600155600054167f38d16b8cac22d99fc7c124b9cd0de2d3fa1faef420bfe791d8c362d765e22700600080a3005b346100d35760003660031901126100d35760206001600160a01b0360015416604051908152f35b60a03660031901126100d35761018b611561565b6101966024356117fc565b1561076c576101a66044356117fc565b156107285760405190632e7682c760e11b8252602435600483015260208260248173__$cd1346a8e2955df852b4501a7004a2b636$__5af49182156105a3576000926106f7575b506040516323b872dd60e01b81523360048201523060248201526064803560448301526001600160a01b03936020918391829060009088165af180156105a3576106c8575b5081600d54166020604051809263f52b31f160e01b82528180610271606435604435602435600485016040919493926060820195825260208201520152565b03915afa80156105a357600090610694575b610294915060ff60075416906118b0565b509160405190631a90a21960e01b8252602082600481847f0000000000000000000000000000000000000000000000000000000000000000165afa9182156105a357600092610660575b506102eb823410156116a6565b604051936382c947b760e01b855230600486015260208560248173__$cd1346a8e2955df852b4501a7004a2b636$__5af49485156105a35760009561062c575b5061ffff8416600052600860205260406000205463ffffffff6005541660405160208101913383526084356040830152606082015242608082015260808152610373816115c9565b5190209560025495604051906382c947b760e01b825233600483015260208260248173__$cd1346a8e2955df852b4501a7004a2b636$__5af480156105a3576000906105f8575b61ffff92506040519860208a01528960408a0152606089015260843560808901521660a087015260c086015260e085015260443561010085015261012090818501528352610140908184019284841067ffffffffffffffff8511176105e2576020918480928160405263ffffffff600554166358cd21bf60e11b83528861044a8161013f19936101448201611711565b0301927f0000000000000000000000000000000000000000000000000000000000000000165af180156105a3576105af575b505050604051906382c947b760e01b825233600483015260208260248173__$cd1346a8e2955df852b4501a7004a2b636$__5af49182156105a35760009261056f575b50604051916104cd836115c9565b82526020820191602435835260408101606435815260608201906001825260808301944286528460005260096020526040600020935184555160018401555160028301555160048110156105595760209361052d600492600385016117e4565b5191015560055463ffffffff61054481831661176c565b169063ffffffff191617600555604051908152f35b634e487b7160e01b600052602160045260246000fd5b9091506020813d60201161059b575b8161058b60209383611602565b810103126100d3575190826104bf565b3d915061057e565b6040513d6000823e3d90fd5b6105d1926020903d6020116105da575b6105c98285611602565b0101906116f1565b5081808061047c565b3d91506105bf565b634e487b7160e01b600052604160045260246000fd5b506020823d602011610624575b8161061260209383611602565b810103126100d35761ffff91516103ba565b3d9150610605565b9094506020813d602011610658575b8161064860209383611602565b810103126100d35751938561032b565b3d915061063b565b9091506020813d60201161068c575b8161067c60209383611602565b810103126100d3575190846102de565b3d915061066f565b506020813d6020116106c0575b816106ae60209383611602565b810103126100d3576102949051610283565b3d91506106a1565b6106e99060203d6020116106f0575b6106e18183611602565b81019061168e565b5082610232565b503d6106d7565b61071a91925060203d602011610721575b6107128183611602565b81019061166f565b90826101ed565b503d610708565b606460405162461bcd60e51b815260206004820152601760248201527f546f6b656e206f7574206e6f7420737570706f727465640000000000000000006044820152fd5b606460405162461bcd60e51b815260206004820152601660248201527f546f6b656e20696e206e6f7420737570706f72746564000000000000000000006044820152fd5b346100d35760003660031901126100d35760206001600160a01b0360005416604051908152f35b346100d35760803660031901126100d35760643560ff811681036100d3576001600160a01b03600d54166020604051809263f52b31f160e01b8252818061083a604435602435600435600485016040919493926060820195825260208201520152565b03915afa9081156105a357600091610862575b602061085984846118b0565b50604051908152f35b90506020813d60201161088d575b8161087d60209383611602565b810103126100d35751602061084d565b3d9150610870565b346100d35760003660031901126100d3576001546001600160a01b03338183160361090c5773ffffffffffffffffffffffffffffffffffffffff198092166001556000549133908316176000553391167f8be0079c531659141344cd1fd0a4f28419497f9722a3daafe3b4186f6b6457e0600080a3005b608460405162461bcd60e51b815260206004820152602960248201527f4f776e61626c6532537465703a2063616c6c6572206973206e6f74207468652060448201527f6e6577206f776e657200000000000000000000000000000000000000000000006064820152fd5b346100d35760403660031901126100d35761ffff610992611561565b61099a611838565b166000526008602052602435604060002055600080f35b346100d35760003660031901126100d3576109ca611838565b60006001600160a01b0373ffffffffffffffffffffffffffffffffffffffff19806001541660015582549081168355167f8be0079c531659141344cd1fd0a4f28419497f9722a3daafe3b4186f6b6457e08280a3005b346100d35760203660031901126100d3576004356001600160a01b0381168091036100d357610a4d611838565b604051906382c947b760e01b8252600482015260208160248173__$cd1346a8e2955df852b4501a7004a2b636$__5af49081156105a357600091610acc575b50600c54680100000000000000008110156105e257806001610ab19201600c55611797565b819291549060031b91821b91600019901b1916179055600080f35b90506020813d602011610af6575b81610ae760209383611602565b810103126100d3575181610a8c565b3d9150610ada565b346100d3576101003660031901126100d357610b1861154e565b6024908135604435906064359061ffff908183168093036100d35760c4359563ffffffff60e43596610b48611838565b16948560005260209660068852610b6760ff6040600020541615611572565b856000526008885260843560406000205403610ea85783600052600a885260ff600460406000200154166004811015610e9357610e505773__$cd1346a8e2955df852b4501a7004a2b636$__60405190632e7682c760e11b918281528b60048201528a818781855af49283156105a3578b91600094610e31575b50866040518094819382528860048301525af49081156105a357600091610e14575b50633b9aca0092838102938185041490151715610dff57600d5460405163f52b31f160e01b815260a4356004820152602481018d9052604481019490945292959493926001600160a01b039291908b908890606490829087165afa80156105a3578b97600091610dc6575b5091610cbe9391610c886000999460ff60075416906118b0565b5098899360405180978196829563a9059cbb60e01b845260048401602090939291936001600160a01b0360408201951681520152565b0393165af180156105a357610da9575b5088600052600b88526040600020549360405199610ceb8b6115e5565b848b52898b0192835260408b0190815260608b0191825260808b01926001845260a08c019542875260c08d0197885260e08d01998a52600052600a8b5260406000209b518c555160018c01555160028b01555160038a015551906004821015610d955750918791610d63600794600460069b016117e4565b51600583015551878201550191511661ffff19825416179055600052526040600020600160ff19825416179055600080f35b634e487b7160e01b60005260216004526000fd5b610dbf90893d8b116106f0576106e18183611602565b5089610cce565b8881949992509492943d8311610df8575b610de18183611602565b810103126100d35790518a96919290610cbe610c6e565b503d610dd7565b84634e487b7160e01b60005260116004526000fd5b610e2b91508a3d8c11610721576107128183611602565b8b610c03565b610e49919450823d8411610721576107128183611602565b928d610be1565b6064886014856040519262461bcd60e51b845260048401528201527f4c6f616e20616c726561647920637265617465640000000000000000000000006044820152fd5b83634e487b7160e01b60005260216004526000fd5b6064886017856040519262461bcd60e51b845260048401528201527f496e76616c696420666f726569676e206f72626974616c0000000000000000006044820152fd5b60203660031901126100d35760043580600052600a60205260406000209060405191610f16836115e5565b8054835261ffff6007600183015492602086019384526002810154604087015260038101546060870152610f5460ff600483015416608088016115bd565b600581015460a0870152600681015460c087015201541660e084015260808301516004811015610559576001610f8a9114611624565b519160405192632e7682c760e11b84526004840152602492602081858173__$cd1346a8e2955df852b4501a7004a2b636$__5af49081156105a35760009161133a575b506001600160a01b039081339116036112f65765f7cf9b8d0000611011606084015161100c60a086015161100660c08801519142611890565b9261189d565b61189d565b046060830151908101809111610dff5760408301519060405191632e7682c760e11b83526004830152602082878173__$cd1346a8e2955df852b4501a7004a2b636$__5af49182156105a35783926020926110a1926000926112d7575b506040516323b872dd60e01b81523360048201523060248201526044810191909152938492839160009183906064820190565b0393165af180156105a3576112b8575b50604051906382c947b760e01b8252306004830152602082868173__$cd1346a8e2955df852b4501a7004a2b636$__5af49182156105a357600092611284575b5061ffff60e0840151166000526008602052604060002054907f0000000000000000000000000000000000000000000000000000000000000000169060405192631a90a21960e01b8452602084600481865afa9384156105a357600094611250575b5061115f8434146116a6565b6003549561ffff60e0870151169060405197602089015260408801526060870152608086015260a085015260a0845260c084019484861067ffffffffffffffff87111761123c575084602091816040528163ffffffff9485600554166358cd21bf60e11b8352886111d78160bf199360c48201611711565b0301925af19283156105a357600294608094611219575b5050600554906111ff81831661176c565b169063ffffffff1916176005550152602060405160018152f35b60c0611234926020903d6020116105da576105c98285611602565b5084806111ee565b634e487b7160e01b60005260416004526000fd5b9093506020813d60201161127c575b8161126c60209383611602565b810103126100d357519287611153565b3d915061125f565b9091506020813d6020116112b0575b816112a060209383611602565b810103126100d3575190856110f1565b3d9150611293565b6112d09060203d6020116106f0576106e18183611602565b50846110b1565b6112ef919250843d8611610721576107128183611602565b908961106e565b60648460116040519162461bcd60e51b8352602060048401528201527f556e617574686f72697a6564206c6f616e0000000000000000000000000000006044820152fd5b611353915060203d602011610721576107128183611602565b84610fcd565b346100d35760403660031901126100d35763ffffffff61137761154e565b61137f611838565b168060005260206006815261139c60ff6040600020541615611572565b60243560005260098152604060002091604051926113b9846115c9565b8054845260018101549383810194855260028201549460408201958652600460ff600385015416936113ef6060850195866115bd565b015460808301528251600481101561055957600161140d9114611624565b519073__$cd1346a8e2955df852b4501a7004a2b636$__9160405190632e7682c760e11b9081835260048301528682602481875af49283156105a357879260009461152c575b5060249051916040519586938492835260048301525af49081156105a3576114be96869360009361150d575b50519160006001600160a01b03604051809a8196829563a9059cbb60e01b845260048401602090939291936001600160a01b0360408201951681520152565b0393165af19081156105a3576006946002926114f0575b5052600052526040600020600160ff19825416179055600080f35b61150690853d87116106f0576106e18183611602565b50856114d5565b611525919350843d8611610721576107128183611602565b918861147f565b602491945061154790843d8611610721576107128183611602565b9390611453565b6004359063ffffffff821682036100d357565b6004359061ffff821682036100d357565b1561157957565b606460405162461bcd60e51b815260206004820152601b60248201527f4e6f6e63652077617320616c72656164792065786563757465642e00000000006044820152fd5b60048210156105595752565b60a0810190811067ffffffffffffffff8211176105e257604052565b610100810190811067ffffffffffffffff8211176105e257604052565b90601f8019910116810190811067ffffffffffffffff8211176105e257604052565b1561162b57565b606460405162461bcd60e51b815260206004820152601260248201527f4c6f616e206973206e6f742061637469766500000000000000000000000000006044820152fd5b908160209103126100d357516001600160a01b03811681036100d35790565b908160209103126100d3575180151581036100d35790565b156116ad57565b606460405162461bcd60e51b815260206004820152601860248201527f496e73756666696369656e74206d6573736167652066656500000000000000006044820152fd5b908160209103126100d3575167ffffffffffffffff811681036100d35790565b92919063ffffffff16835260206060602085015281519182606086015260005b838110611758575050506040608082600082819588010152601f8019910116850101930152565b818101830151868201608001528201611731565b63ffffffff8091169081146117815760010190565b634e487b7160e01b600052601160045260246000fd5b600c548110156117ce57600c6000527fdf6966c971051c3d54ec59162606531493a51404a002842f56009d7e5cf4a8c70190600090565b634e487b7160e01b600052603260045260246000fd5b9060048110156105595760ff80198354169116179055565b600c549060005b82811061181257505050600090565b8161181c82611797565b90549060031b1c1461183057600101611803565b505050600190565b6001600160a01b0360005416330361184c57565b606460405162461bcd60e51b815260206004820152602060248201527f4f776e61626c653a2063616c6c6572206973206e6f7420746865206f776e65726044820152fd5b9190820391821161178157565b8181029291811591840414171561178157565b919060ff16606481116118d75760646118cc6118d4928561189d565b048093611890565b90565b608460405162461bcd60e51b8152602060048201526024808201527f50657263656e74616765206d757374206265206265747765656e203020616e6460448201527f20313030000000000000000000000000000000000000000000000000000000006064820152fdfea26469706673582212207b24f2512b4dd5eea715867523f8c23aad7b2c5843e236a3b86dd23d6f0f97bb64736f6c63430008180033",
  "linkReferences": {
    "contracts/libraries/AddressToBytes32.sol": {
      "AddressToBytes32": [
        {
          "length": 20,
          "start": 826
        },
        {
          "length": 20,
          "start": 1144
        },
        {
          "length": 20,
          "start": 1288
        },
        {
          "length": 20,
          "start": 1548
        },
        {
          "length": 20,
          "start": 3033
        },
        {
          "length": 20,
          "start": 3345
        },
        {
          "length": 20,
          "start": 4378
        },
        {
          "length": 20,
          "start": 4530
        },
        {
          "length": 20,
          "start": 4670
        },
        {
          "length": 20,
          "start": 5506
        }
      ]
    }
  },
  "deployedLinkReferences": {
    "contracts/libraries/AddressToBytes32.sol": {
      "AddressToBytes32": [
        {
          "length": 20,
          "start": 457
        },
        {
          "length": 20,
          "start": 775
        },
        {
          "length": 20,
          "start": 919
        },
        {
          "length": 20,
          "start": 1179
        },
        {
          "length": 20,
          "start": 2664
        },
        {
          "length": 20,
          "start": 2976
        },
        {
          "length": 20,
          "start": 4009
        },
        {
          "length": 20,
          "start": 4161
        },
        {
          "length": 20,
          "start": 4301
        },
        {
          "length": 20,
          "start": 5137
        }
      ]
    }
  }
}