{
  "_format": "hh-sol-artifact-1",
  "contractName": "Orbital",
  "sourceName": "contracts/Orbital.sol",
  "abi": [
    {
      "inputs": [
        {
          "internalType": "address",
          "name": "priceFeeds",
          "type": "address"
        },
        {
          "internalType": "address",
          "name": "wormhole",
          "type": "address"
        }
      ],
      "stateMutability": "nonpayable",
      "type": "constructor"
    },
    {
      "anonymous": false,
      "inputs": [
        {
          "indexed": true,
          "internalType": "address",
          "name": "previousOwner",
          "type": "address"
        },
        {
          "indexed": true,
          "internalType": "address",
          "name": "newOwner",
          "type": "address"
        }
      ],
      "name": "OwnershipTransferStarted",
      "type": "event"
    },
    {
      "anonymous": false,
      "inputs": [
        {
          "indexed": true,
          "internalType": "address",
          "name": "previousOwner",
          "type": "address"
        },
        {
          "indexed": true,
          "internalType": "address",
          "name": "newOwner",
          "type": "address"
        }
      ],
      "name": "OwnershipTransferred",
      "type": "event"
    },
    {
      "inputs": [
        {
          "internalType": "bytes32",
          "name": "tokenId",
          "type": "bytes32"
        }
      ],
      "name": "_isTokenSupported",
      "outputs": [
        {
          "internalType": "bool",
          "name": "",
          "type": "bool"
        }
      ],
      "stateMutability": "view",
      "type": "function"
    },
    {
      "inputs": [],
      "name": "acceptOwnership",
      "outputs": [],
      "stateMutability": "nonpayable",
      "type": "function"
    },
    {
      "inputs": [
        {
          "internalType": "uint16",
          "name": "chainId",
          "type": "uint16"
        },
        {
          "internalType": "bytes32",
          "name": "orbital",
          "type": "bytes32"
        }
      ],
      "name": "addForeignOrbital",
      "outputs": [],
      "stateMutability": "nonpayable",
      "type": "function"
    },
    {
      "inputs": [
        {
          "internalType": "address",
          "name": "token",
          "type": "address"
        },
        {
          "internalType": "uint256",
          "name": "interestRate",
          "type": "uint256"
        }
      ],
      "name": "addSupportedToken",
      "outputs": [],
      "stateMutability": "nonpayable",
      "type": "function"
    },
    {
      "inputs": [
        {
          "internalType": "uint16",
          "name": "toChainId",
          "type": "uint16"
        },
        {
          "internalType": "bytes32",
          "name": "tokenIn",
          "type": "bytes32"
        },
        {
          "internalType": "bytes32",
          "name": "tokenOut",
          "type": "bytes32"
        },
        {
          "internalType": "uint256",
          "name": "value",
          "type": "uint256"
        },
        {
          "internalType": "bytes32",
          "name": "receiver",
          "type": "bytes32"
        }
      ],
      "name": "borrow",
      "outputs": [
        {
          "internalType": "bytes32",
          "name": "",
          "type": "bytes32"
        }
      ],
      "stateMutability": "payable",
      "type": "function"
    },
    {
      "inputs": [
        {
          "internalType": "bytes32",
          "name": "tokenIn",
          "type": "bytes32"
        },
        {
          "internalType": "bytes32",
          "name": "tokenOut",
          "type": "bytes32"
        },
        {
          "internalType": "uint256",
          "name": "amountIn",
          "type": "uint256"
        },
        {
          "internalType": "uint8",
          "name": "ltv",
          "type": "uint8"
        }
      ],
      "name": "getAmountOut",
      "outputs": [
        {
          "internalType": "uint256",
          "name": "",
          "type": "uint256"
        }
      ],
      "stateMutability": "view",
      "type": "function"
    },
    {
      "inputs": [],
      "name": "owner",
      "outputs": [
        {
          "internalType": "address",
          "name": "",
          "type": "address"
        }
      ],
      "stateMutability": "view",
      "type": "function"
    },
    {
      "inputs": [],
      "name": "pendingOwner",
      "outputs": [
        {
          "internalType": "address",
          "name": "",
          "type": "address"
        }
      ],
      "stateMutability": "view",
      "type": "function"
    },
    {
      "inputs": [
        {
          "internalType": "uint32",
          "name": "wormholeNonce",
          "type": "uint32"
        },
        {
          "internalType": "bytes32",
          "name": "loanId",
          "type": "bytes32"
        },
        {
          "internalType": "bytes32",
          "name": "receiver",
          "type": "bytes32"
        },
        {
          "internalType": "uint16",
          "name": "fromChainId",
          "type": "uint16"
        },
        {
          "internalType": "bytes32",
          "name": "fromContractId",
          "type": "bytes32"
        },
        {
          "internalType": "bytes32",
          "name": "tokenIn",
          "type": "bytes32"
        },
        {
          "internalType": "bytes32",
          "name": "tokenOut",
          "type": "bytes32"
        },
        {
          "internalType": "uint256",
          "name": "value",
          "type": "uint256"
        }
      ],
      "name": "receiveOnBorrow",
      "outputs": [],
      "stateMutability": "nonpayable",
      "type": "function"
    },
    {
      "inputs": [
        {
          "internalType": "uint32",
          "name": "wormholeNonce",
          "type": "uint32"
        },
        {
          "internalType": "bytes32",
          "name": "loanId",
          "type": "bytes32"
        }
      ],
      "name": "receiveOnRepay",
      "outputs": [],
      "stateMutability": "nonpayable",
      "type": "function"
    },
    {
      "inputs": [],
      "name": "renounceOwnership",
      "outputs": [],
      "stateMutability": "nonpayable",
      "type": "function"
    },
    {
      "inputs": [
        {
          "internalType": "bytes32",
          "name": "loanId",
          "type": "bytes32"
        }
      ],
      "name": "repay",
      "outputs": [
        {
          "internalType": "bool",
          "name": "",
          "type": "bool"
        }
      ],
      "stateMutability": "payable",
      "type": "function"
    },
    {
      "inputs": [
        {
          "internalType": "address",
          "name": "newOwner",
          "type": "address"
        }
      ],
      "name": "transferOwnership",
      "outputs": [],
      "stateMutability": "nonpayable",
      "type": "function"
    }
  ],
  "bytecode": "0x60a03461014157601f611b5f38819003918201601f19168301916001600160401b0383118484101761014657808492604094855283398101031261014157610052602061004b8361015c565b920161015c565b600180546001600160a01b0319908116909155600080543381841681178355604051956001600160a01b0395949386939192918416907f8be0079c531659141344cd1fd0a4f28419497f9722a3daafe3b4186f6b6457e09080a36f13d397d093d49493d5d7d351551213d160821b6002556e13d397d49154105657d351551213d1608a1b6003557013d397d111519055531517d351551213d1607a1b6004556007805460ff191660501790556005805463ffffffff19166001179055600d80549093169116179055166080526119ee908161017182396080518181816102ac0152818161044e015261102d0152f35b600080fd5b634e487b7160e01b600052604160045260246000fd5b51906001600160a01b03821682036101415756fe6080604052600436101561001257600080fd5b60003560e01c80630b3735fb146113bb5780634d8e3d3b1461127a578063563dd61314610e0c5780635bdea91414610a1f578063715018a6146109b057806375f5172e1461097557806379ba5097146108945780637b76ba8a146107d65780638da5cb5b146107af578063d80b52b614610176578063e30c39781461014f578063f2fde38b146100d85763f770a695146100ab57600080fd5b346100d35760203660031901126100d35760206100c9600435611874565b6040519015158152f35b600080fd5b346100d35760203660031901126100d3576100f16115c3565b6100f96118b0565b6001600160a01b03809116908173ffffffffffffffffffffffffffffffffffffffff196001541617600155600054167f38d16b8cac22d99fc7c124b9cd0de2d3fa1faef420bfe791d8c362d765e22700600080a3005b346100d35760003660031901126100d35760206001600160a01b0360015416604051908152f35b60a03660031901126100d35761018a6115d9565b610195602435611874565b1561076b576101a5604435611874565b156107275760405190632e7682c760e11b8252602435600483015260208260248173__$cd1346a8e2955df852b4501a7004a2b636$__5af49182156105a2576000926106f6575b506040516323b872dd60e01b81523360048201523060248201526064803560448301526001600160a01b03936020918391829060009088165af180156105a2576106c7575b5081600d54166020604051809263f52b31f160e01b82528180610270606435604435602435600485016040919493926060820195825260208201520152565b03915afa80156105a257600090610693575b610293915060ff6007541690611928565b509160405190631a90a21960e01b8252602082600481847f0000000000000000000000000000000000000000000000000000000000000000165afa9182156105a25760009261065f575b506102ea8234101561176b565b604051936382c947b760e01b855230600486015260208560248173__$cd1346a8e2955df852b4501a7004a2b636$__5af49485156105a25760009561062b575b5061ffff8416600052600860205260406000205463ffffffff600554166040516020810191338352608435604083015260608201524260808201526080815261037281611635565b5190209560025495604051906382c947b760e01b825233600483015260208260248173__$cd1346a8e2955df852b4501a7004a2b636$__5af480156105a2576000906105f7575b61ffff92506040519860208a01528960408a0152606089015260843560808901521660a087015260c086015260e085015260443561010085015261012090818501528352610140908184019284841067ffffffffffffffff8511176105e1576020918480928160405263ffffffff600554166358cd21bf60e11b8352886104498161013f199361014482016117d6565b0301927f0000000000000000000000000000000000000000000000000000000000000000165af180156105a2576105ae575b505050604051906382c947b760e01b825233600483015260208260248173__$cd1346a8e2955df852b4501a7004a2b636$__5af49182156105a25760009261056e575b50604051916104cc83611635565b82526020820191602435835260408101606435815260608201906001825260808301944286528460005260096020526040600020935184555160018401555160028301555160048110156105585760209361052c6004926003850161185c565b5191015560055463ffffffff610543818316611831565b169063ffffffff191617600555604051908152f35b634e487b7160e01b600052602160045260246000fd5b9091506020813d60201161059a575b8161058a6020938361166e565b810103126100d3575190826104be565b3d915061057d565b6040513d6000823e3d90fd5b6105d0926020903d6020116105d9575b6105c8828561166e565b0101906117b6565b5081808061047b565b3d91506105be565b634e487b7160e01b600052604160045260246000fd5b506020823d602011610623575b816106116020938361166e565b810103126100d35761ffff91516103b9565b3d9150610604565b9094506020813d602011610657575b816106476020938361166e565b810103126100d35751938561032a565b3d915061063a565b9091506020813d60201161068b575b8161067b6020938361166e565b810103126100d3575190846102dd565b3d915061066e565b506020813d6020116106bf575b816106ad6020938361166e565b810103126100d3576102939051610282565b3d91506106a0565b6106e89060203d6020116106ef575b6106e0818361166e565b810190611753565b5082610231565b503d6106d6565b61071991925060203d602011610720575b610711818361166e565b810190611734565b90826101ec565b503d610707565b606460405162461bcd60e51b815260206004820152601760248201527f546f6b656e206f7574206e6f7420737570706f727465640000000000000000006044820152fd5b606460405162461bcd60e51b815260206004820152601660248201527f546f6b656e20696e206e6f7420737570706f72746564000000000000000000006044820152fd5b346100d35760003660031901126100d35760206001600160a01b0360005416604051908152f35b346100d35760803660031901126100d35760643560ff811681036100d3576001600160a01b03600d54166020604051809263f52b31f160e01b82528180610839604435602435600435600485016040919493926060820195825260208201520152565b03915afa9081156105a257600091610861575b60206108588484611928565b50604051908152f35b90506020813d60201161088c575b8161087c6020938361166e565b810103126100d35751602061084c565b3d915061086f565b346100d35760003660031901126100d3576001546001600160a01b03338183160361090b5773ffffffffffffffffffffffffffffffffffffffff198092166001556000549133908316176000553391167f8be0079c531659141344cd1fd0a4f28419497f9722a3daafe3b4186f6b6457e0600080a3005b608460405162461bcd60e51b815260206004820152602960248201527f4f776e61626c6532537465703a2063616c6c6572206973206e6f74207468652060448201527f6e6577206f776e657200000000000000000000000000000000000000000000006064820152fd5b346100d35760403660031901126100d35761ffff6109916115d9565b6109996118b0565b166000526008602052602435604060002055600080f35b346100d35760003660031901126100d3576109c96118b0565b60006001600160a01b0373ffffffffffffffffffffffffffffffffffffffff19806001541660015582549081168355167f8be0079c531659141344cd1fd0a4f28419497f9722a3daafe3b4186f6b6457e08280a3005b346100d3576101003660031901126100d357610a396115b0565b6024908135604435906064359061ffff908183168093036100d35760c4359563ffffffff60e43596610a696118b0565b16948560005260209660068852610a8860ff60406000205416156115ea565b856000526008885260843560406000205403610dc95783600052600a885260ff600460406000200154166004811015610db457610d715773__$cd1346a8e2955df852b4501a7004a2b636$__60405190632e7682c760e11b918281528b60048201528a818781855af49283156105a2578b91600094610d52575b50866040518094819382528860048301525af49081156105a257600091610d35575b50633b9aca0092838102938185041490151715610d2057600d5460405163f52b31f160e01b815260a4356004820152602481018d9052604481019490945292959493926001600160a01b039291908b908890606490829087165afa80156105a2578b97600091610ce7575b5091610bdf9391610ba96000999460ff6007541690611928565b5098899360405180978196829563a9059cbb60e01b845260048401602090939291936001600160a01b0360408201951681520152565b0393165af180156105a257610cca575b5088600052600b88526040600020549360405199610c0c8b611651565b848b52898b0192835260408b0190815260608b0191825260808b01926001845260a08c019542875260c08d0197885260e08d01998a52600052600a8b5260406000209b518c555160018c01555160028b01555160038a015551906004821015610cb65750918791610c84600794600460069b0161185c565b51600583015551878201550191511661ffff19825416179055600052526040600020600160ff19825416179055600080f35b634e487b7160e01b60005260216004526000fd5b610ce090893d8b116106ef576106e0818361166e565b5089610bef565b8881949992509492943d8311610d19575b610d02818361166e565b810103126100d35790518a96919290610bdf610b8f565b503d610cf8565b84634e487b7160e01b60005260116004526000fd5b610d4c91508a3d8c1161072057610711818361166e565b8b610b24565b610d6a919450823d841161072057610711818361166e565b928d610b02565b6064886014856040519262461bcd60e51b845260048401528201527f4c6f616e20616c726561647920637265617465640000000000000000000000006044820152fd5b83634e487b7160e01b60005260216004526000fd5b6064886017856040519262461bcd60e51b845260048401528201527f496e76616c696420666f726569676e206f72626974616c0000000000000000006044820152fd5b60203660031901126100d35760043580600052600a60205260406000209060405191610e3783611651565b8054835261ffff6007600183015492602086019384526002810154604087015260038101546060870152610e7560ff600483015416608088016116dd565b600581015460a0870152600681015460c087015201541660e084015260808301516004811015610558576001610eab91146116e9565b519160405192632e7682c760e11b84526004840152602492602081858173__$cd1346a8e2955df852b4501a7004a2b636$__5af49081156105a25760009161125b575b506001600160a01b039081339116036112175765f7cf9b8d0000610f326060840151610f2d60a0860151610f2760c08801519142611908565b92611915565b611915565b046060830151908101809111610d205760408301519060405191632e7682c760e11b83526004830152602082878173__$cd1346a8e2955df852b4501a7004a2b636$__5af49182156105a2578392602092610fc2926000926111f8575b506040516323b872dd60e01b81523360048201523060248201526044810191909152938492839160009183906064820190565b0393165af180156105a2576111d9575b50604051906382c947b760e01b8252306004830152602082868173__$cd1346a8e2955df852b4501a7004a2b636$__5af49182156105a2576000926111a5575b5061ffff60e0840151166000526008602052604060002054907f0000000000000000000000000000000000000000000000000000000000000000169060405192631a90a21960e01b8452602084600481865afa9384156105a257600094611171575b5061108084341461176b565b6003549561ffff60e0870151169060405197602089015260408801526060870152608086015260a085015260a0845260c084019484861067ffffffffffffffff87111761115d575084602091816040528163ffffffff9485600554166358cd21bf60e11b8352886110f88160bf199360c482016117d6565b0301925af19283156105a25760029460809461113a575b505060055490611120818316611831565b169063ffffffff1916176005550152602060405160018152f35b60c0611155926020903d6020116105d9576105c8828561166e565b50848061110f565b634e487b7160e01b60005260416004526000fd5b9093506020813d60201161119d575b8161118d6020938361166e565b810103126100d357519287611074565b3d9150611180565b9091506020813d6020116111d1575b816111c16020938361166e565b810103126100d357519085611012565b3d91506111b4565b6111f19060203d6020116106ef576106e0818361166e565b5084610fd2565b611210919250843d861161072057610711818361166e565b9089610f8f565b60648460116040519162461bcd60e51b8352602060048401528201527f556e617574686f72697a6564206c6f616e0000000000000000000000000000006044820152fd5b611274915060203d60201161072057610711818361166e565b84610eee565b346100d35760403660031901126100d3576112936115c3565b61129b6118b0565b73__$cd1346a8e2955df852b4501a7004a2b636$__906040516001600160a01b036382c947b760e01b92838352168060048301526020928383602481885af49283156105a25760009361138c575b50600c5490680100000000000000008210156105e157849361131383600160249501600c55611690565b819291549060031b91821b91600019901b19161790556040519586938492835260048301525af480156105a25760009061135e575b600b925060005252602435604060002055600080f35b508082813d8311611385575b611374818361166e565b810103126100d357600b9151611348565b503d61136a565b9092508381813d83116113b4575b6113a4818361166e565b810103126100d3575191856112e9565b503d61139a565b346100d35760403660031901126100d35763ffffffff6113d96115b0565b6113e16118b0565b16806000526020600681526113fe60ff60406000205416156115ea565b602435600052600981526040600020916040519261141b84611635565b8054845260018101549383810194855260028201549460408201958652600460ff600385015416936114516060850195866116dd565b015460808301528251600481101561055857600161146f91146116e9565b519073__$cd1346a8e2955df852b4501a7004a2b636$__9160405190632e7682c760e11b9081835260048301528682602481875af49283156105a257879260009461158e575b5060249051916040519586938492835260048301525af49081156105a25761152096869360009361156f575b50519160006001600160a01b03604051809a8196829563a9059cbb60e01b845260048401602090939291936001600160a01b0360408201951681520152565b0393165af19081156105a257600694600292611552575b5052600052526040600020600160ff19825416179055600080f35b61156890853d87116106ef576106e0818361166e565b5085611537565b611587919350843d861161072057610711818361166e565b91886114e1565b60249194506115a990843d861161072057610711818361166e565b93906114b5565b6004359063ffffffff821682036100d357565b600435906001600160a01b03821682036100d357565b6004359061ffff821682036100d357565b156115f157565b606460405162461bcd60e51b815260206004820152601b60248201527f4e6f6e63652077617320616c72656164792065786563757465642e00000000006044820152fd5b60a0810190811067ffffffffffffffff8211176105e157604052565b610100810190811067ffffffffffffffff8211176105e157604052565b90601f8019910116810190811067ffffffffffffffff8211176105e157604052565b600c548110156116c757600c6000527fdf6966c971051c3d54ec59162606531493a51404a002842f56009d7e5cf4a8c70190600090565b634e487b7160e01b600052603260045260246000fd5b60048210156105585752565b156116f057565b606460405162461bcd60e51b815260206004820152601260248201527f4c6f616e206973206e6f742061637469766500000000000000000000000000006044820152fd5b908160209103126100d357516001600160a01b03811681036100d35790565b908160209103126100d3575180151581036100d35790565b1561177257565b606460405162461bcd60e51b815260206004820152601860248201527f496e73756666696369656e74206d6573736167652066656500000000000000006044820152fd5b908160209103126100d3575167ffffffffffffffff811681036100d35790565b92919063ffffffff16835260206060602085015281519182606086015260005b83811061181d575050506040608082600082819588010152601f8019910116850101930152565b8181018301518682016080015282016117f6565b63ffffffff8091169081146118465760010190565b634e487b7160e01b600052601160045260246000fd5b9060048110156105585760ff80198354169116179055565b600c549060005b82811061188a57505050600090565b8161189482611690565b90549060031b1c146118a85760010161187b565b505050600190565b6001600160a01b036000541633036118c457565b606460405162461bcd60e51b815260206004820152602060248201527f4f776e61626c653a2063616c6c6572206973206e6f7420746865206f776e65726044820152fd5b9190820391821161184657565b8181029291811591840414171561184657565b919060ff166064811161194f57606461194461194c9285611915565b048093611908565b90565b608460405162461bcd60e51b8152602060048201526024808201527f50657263656e74616765206d757374206265206265747765656e203020616e6460448201527f20313030000000000000000000000000000000000000000000000000000000006064820152fdfea264697066735822122060f27c5f7c78ae7dd5100f0f779a8fa68aaab84bc7b6890cdb6504ebde678ef164736f6c63430008180033",
  "linkReferences": {
    "contracts/libraries/AddressToBytes32.sol": {
      "AddressToBytes32": [
        {
          "length": 20,
          "start": 825
        },
        {
          "length": 20,
          "start": 1143
        },
        {
          "length": 20,
          "start": 1287
        },
        {
          "length": 20,
          "start": 1547
        },
        {
          "length": 20,
          "start": 3122
        },
        {
          "length": 20,
          "start": 4155
        },
        {
          "length": 20,
          "start": 4307
        },
        {
          "length": 20,
          "start": 4447
        },
        {
          "length": 20,
          "start": 5134
        },
        {
          "length": 20,
          "start": 5604
        }
      ]
    }
  },
  "deployedLinkReferences": {
    "contracts/libraries/AddressToBytes32.sol": {
      "AddressToBytes32": [
        {
          "length": 20,
          "start": 456
        },
        {
          "length": 20,
          "start": 774
        },
        {
          "length": 20,
          "start": 918
        },
        {
          "length": 20,
          "start": 1178
        },
        {
          "length": 20,
          "start": 2753
        },
        {
          "length": 20,
          "start": 3786
        },
        {
          "length": 20,
          "start": 3938
        },
        {
          "length": 20,
          "start": 4078
        },
        {
          "length": 20,
          "start": 4765
        },
        {
          "length": 20,
          "start": 5235
        }
      ]
    }
  }
}