{
  "_format": "hh-sol-artifact-1",
  "contractName": "Orbital",
  "sourceName": "contracts/Orbital.sol",
  "abi": [
    {
      "inputs": [
        {
          "internalType": "address",
          "name": "priceFeeds",
          "type": "address"
        },
        {
          "internalType": "address",
          "name": "wormhole",
          "type": "address"
        }
      ],
      "stateMutability": "nonpayable",
      "type": "constructor"
    },
    {
      "anonymous": false,
      "inputs": [
        {
          "indexed": true,
          "internalType": "address",
          "name": "previousOwner",
          "type": "address"
        },
        {
          "indexed": true,
          "internalType": "address",
          "name": "newOwner",
          "type": "address"
        }
      ],
      "name": "OwnershipTransferStarted",
      "type": "event"
    },
    {
      "anonymous": false,
      "inputs": [
        {
          "indexed": true,
          "internalType": "address",
          "name": "previousOwner",
          "type": "address"
        },
        {
          "indexed": true,
          "internalType": "address",
          "name": "newOwner",
          "type": "address"
        }
      ],
      "name": "OwnershipTransferred",
      "type": "event"
    },
    {
      "inputs": [
        {
          "internalType": "bytes32",
          "name": "tokenId",
          "type": "bytes32"
        }
      ],
      "name": "_isTokenSupported",
      "outputs": [
        {
          "internalType": "bool",
          "name": "",
          "type": "bool"
        }
      ],
      "stateMutability": "view",
      "type": "function"
    },
    {
      "inputs": [],
      "name": "acceptOwnership",
      "outputs": [],
      "stateMutability": "nonpayable",
      "type": "function"
    },
    {
      "inputs": [
        {
          "internalType": "uint16",
          "name": "chainId",
          "type": "uint16"
        },
        {
          "internalType": "bytes32",
          "name": "orbital",
          "type": "bytes32"
        }
      ],
      "name": "addForeignOrbital",
      "outputs": [],
      "stateMutability": "nonpayable",
      "type": "function"
    },
    {
      "inputs": [
        {
          "internalType": "address",
          "name": "token",
          "type": "address"
        }
      ],
      "name": "addSupportedToken",
      "outputs": [],
      "stateMutability": "nonpayable",
      "type": "function"
    },
    {
      "inputs": [
        {
          "internalType": "uint16",
          "name": "toChainId",
          "type": "uint16"
        },
        {
          "internalType": "bytes32",
          "name": "tokenIn",
          "type": "bytes32"
        },
        {
          "internalType": "bytes32",
          "name": "tokenOut",
          "type": "bytes32"
        },
        {
          "internalType": "uint256",
          "name": "value",
          "type": "uint256"
        },
        {
          "internalType": "bytes32",
          "name": "receiver",
          "type": "bytes32"
        }
      ],
      "name": "borrow",
      "outputs": [
        {
          "internalType": "bytes32",
          "name": "",
          "type": "bytes32"
        }
      ],
      "stateMutability": "payable",
      "type": "function"
    },
    {
      "inputs": [
        {
          "internalType": "bytes32",
          "name": "tokenIn",
          "type": "bytes32"
        },
        {
          "internalType": "bytes32",
          "name": "tokenOut",
          "type": "bytes32"
        },
        {
          "internalType": "uint256",
          "name": "amountIn",
          "type": "uint256"
        },
        {
          "internalType": "uint8",
          "name": "ltv",
          "type": "uint8"
        }
      ],
      "name": "getAmountOut",
      "outputs": [
        {
          "internalType": "uint256",
          "name": "",
          "type": "uint256"
        }
      ],
      "stateMutability": "view",
      "type": "function"
    },
    {
      "inputs": [],
      "name": "owner",
      "outputs": [
        {
          "internalType": "address",
          "name": "",
          "type": "address"
        }
      ],
      "stateMutability": "view",
      "type": "function"
    },
    {
      "inputs": [],
      "name": "pendingOwner",
      "outputs": [
        {
          "internalType": "address",
          "name": "",
          "type": "address"
        }
      ],
      "stateMutability": "view",
      "type": "function"
    },
    {
      "inputs": [
        {
          "internalType": "uint32",
          "name": "wormholeNonce",
          "type": "uint32"
        },
        {
          "internalType": "bytes32",
          "name": "loanId",
          "type": "bytes32"
        },
        {
          "internalType": "bytes32",
          "name": "receiver",
          "type": "bytes32"
        },
        {
          "internalType": "uint16",
          "name": "fromChainId",
          "type": "uint16"
        },
        {
          "internalType": "bytes32",
          "name": "fromContractId",
          "type": "bytes32"
        },
        {
          "internalType": "bytes32",
          "name": "tokenOut",
          "type": "bytes32"
        },
        {
          "internalType": "uint256",
          "name": "value",
          "type": "uint256"
        }
      ],
      "name": "receiveOnBorrow",
      "outputs": [],
      "stateMutability": "nonpayable",
      "type": "function"
    },
    {
      "inputs": [
        {
          "internalType": "uint32",
          "name": "wormholeNonce",
          "type": "uint32"
        },
        {
          "internalType": "bytes32",
          "name": "loanId",
          "type": "bytes32"
        }
      ],
      "name": "receiveOnRepay",
      "outputs": [],
      "stateMutability": "nonpayable",
      "type": "function"
    },
    {
      "inputs": [
        {
          "internalType": "uint32",
          "name": "wormholeNonce",
          "type": "uint32"
        },
        {
          "internalType": "bytes32",
          "name": "receiver",
          "type": "bytes32"
        },
        {
          "internalType": "bool",
          "name": "status",
          "type": "bool"
        }
      ],
      "name": "receiveOnStakeSuiFrens",
      "outputs": [],
      "stateMutability": "nonpayable",
      "type": "function"
    },
    {
      "inputs": [],
      "name": "renounceOwnership",
      "outputs": [],
      "stateMutability": "nonpayable",
      "type": "function"
    },
    {
      "inputs": [
        {
          "internalType": "bytes32",
          "name": "loanId",
          "type": "bytes32"
        }
      ],
      "name": "repay",
      "outputs": [
        {
          "internalType": "bool",
          "name": "",
          "type": "bool"
        }
      ],
      "stateMutability": "payable",
      "type": "function"
    },
    {
      "inputs": [
        {
          "internalType": "address",
          "name": "newOwner",
          "type": "address"
        }
      ],
      "name": "transferOwnership",
      "outputs": [],
      "stateMutability": "nonpayable",
      "type": "function"
    }
  ],
  "bytecode": "0x60a03461014157601f611b4a38819003918201601f19168301916001600160401b0383118484101761014657808492604094855283398101031261014157610052602061004b8361015c565b920161015c565b600180546001600160a01b0319908116909155600080543381841681178355604051956001600160a01b0395949386939192918416907f8be0079c531659141344cd1fd0a4f28419497f9722a3daafe3b4186f6b6457e09080a36f13d397d093d49493d5d7d351551213d160821b6002556e13d397d49154105657d351551213d1608a1b6003557013d397d111519055531517d351551213d1607a1b6004556007805460ff191660501790556005805463ffffffff19166001179055600e80549093169116179055166080526119d990816101718239608051818181610328015281816104d001526111a50152f35b600080fd5b634e487b7160e01b600052604160045260246000fd5b51906001600160a01b03821682036101415756fe6080604052600436101561001257600080fd5b60003560e01c80630b3735fb146113e7578063563dd61314610f865780636d69fcaf14610ea8578063715018a614610e3957806375f5172e14610dfe57806379ba509714610d1d5780637b76ba8a14610c5f5780637fc9b2bb14610bd45780638299852c146108ab5780638da5cb5b14610884578063d80b52b614610182578063e30c39781461015b578063f2fde38b146100e35763f770a695146100b657600080fd5b346100de5760203660031901126100de5760206100d460043561185f565b6040519015158152f35b600080fd5b346100de5760203660031901126100de576004356001600160a01b038082168092036100de5761011161189b565b8173ffffffffffffffffffffffffffffffffffffffff196001541617600155600054167f38d16b8cac22d99fc7c124b9cd0de2d3fa1faef420bfe791d8c362d765e22700600080a3005b346100de5760003660031901126100de5760206001600160a01b0360015416604051908152f35b60a03660031901126100de576101966115ef565b6101a160243561185f565b15610840576101b160443561185f565b156107fc57604051632e7682c760e11b8152602435600482015260208160248173__$cd1346a8e2955df852b4501a7004a2b636$__5af4908115610643576000916107cd575b506040516323b872dd60e01b81523360048201523060248201526064803560448301529091602091839182906000906001600160a01b03165af180156106435761079e575b506001600160a01b03600e54166020604051809263f52b31f160e01b82528180610282606435604435602435600485016040919493926060820195825260208201520152565b03915afa9081156106435760009161076c575b5060006040516382c947b760e01b815233600482015260208160248173__$cd1346a8e2955df852b4501a7004a2b636$__5af49081156106435760009161073a575b50600052600b60205260ff60406000205416610732575b60ff806007541691160160ff81116105e55761030991611913565b5090604051631a90a21960e01b81526020816004816001600160a01b037f0000000000000000000000000000000000000000000000000000000000000000165afa90811561064357600091610700575b5061036681341015611734565b604051926382c947b760e01b845230600485015260208460248173__$cd1346a8e2955df852b4501a7004a2b636$__5af4938415610643576000946106cc575b5061ffff8316600052600860205260406000205463ffffffff60055416604051602081019133835260843560408301526060820152426080820152608081526103ee81611657565b5190209460025494604051906382c947b760e01b825233600483015260208260248173__$cd1346a8e2955df852b4501a7004a2b636$__5af4801561064357600090610698575b61ffff9250604051976020890152886040890152606088015260843560808801521660a086015260c085015260e0840152604435610100840152610120908184015282526101408083019183831067ffffffffffffffff8411176106825782602091816040528163ffffffff600554166358cd21bf60e11b8252876104c38161013f1993610144820161179f565b0301916001600160a01b037f0000000000000000000000000000000000000000000000000000000000000000165af180156106435761064f575b5050506040516382c947b760e01b815233600482015260208160248173__$cd1346a8e2955df852b4501a7004a2b636$__5af490811561064357600091610611575b506040519061054d82611657565b81526020810160243581526040820160643581526060830190600182526080840192428452856000526009602052604060002094518555516001850155516002840155519060048210156105fb576105aa60049260038501611847565b519101556005549063ffffffff82169163ffffffff83146105e55763ffffffff600160209401169063ffffffff191617600555604051908152f35b634e487b7160e01b600052601160045260246000fd5b634e487b7160e01b600052602160045260246000fd5b90506020813d60201161063b575b8161062c60209383611690565b810103126100de57518261053f565b3d915061061f565b6040513d6000823e3d90fd5b610671926020903d60201161067a575b6106698285611690565b01019061177f565b508180806104fd565b3d915061065f565b634e487b7160e01b600052604160045260246000fd5b506020823d6020116106c4575b816106b260209383611690565b810103126100de5761ffff9151610435565b3d91506106a5565b9093506020813d6020116106f8575b816106e860209383611690565b810103126100de575192846103a6565b3d91506106db565b90506020813d60201161072a575b8161071b60209383611690565b810103126100de575183610359565b3d915061070e565b50600a6102ee565b90506020813d602011610764575b8161075560209383611690565b810103126100de5751846102d7565b3d9150610748565b90506020813d602011610796575b8161078760209383611690565b810103126100de575182610295565b3d915061077a565b6107bf9060203d6020116107c6575b6107b78183611690565b81019061171c565b508161023c565b503d6107ad565b6107ef915060203d6020116107f5575b6107e78183611690565b8101906116fd565b826101f7565b503d6107dd565b606460405162461bcd60e51b815260206004820152601760248201527f546f6b656e206f7574206e6f7420737570706f727465640000000000000000006044820152fd5b606460405162461bcd60e51b815260206004820152601660248201527f546f6b656e20696e206e6f7420737570706f72746564000000000000000000006044820152fd5b346100de5760003660031901126100de5760206001600160a01b0360005416604051908152f35b346100de5760e03660031901126100de576108c46115dc565b602490813591604435916064359061ffff908183168093036100de5760a4359563ffffffff60c435926108f561189b565b1694856000526020966006885261091460ff6040600020541615611600565b856000526008885260843560406000205403610b915782600052600a885260ff600460406000200154166004811015610b7c57610b395773__$cd1346a8e2955df852b4501a7004a2b636$__60405190632e7682c760e11b918281528b60048201528a818681855af4928315610643578b91600094610b1a575b50856040518094819382528760048301525af4908115610643576109f5928b928892600091610afd575b5060006001600160a01b0360405180978196829563a9059cbb60e01b845260048401602090939291936001600160a01b0360408201951681520152565b0393165af1801561064357610ae0575b5088600052600c88526040600020549360405199610a228b611673565b848b52898b0192835260408b0190815260608b0191825260808b01926001845260a08c019542875260c08d0197885260e08d01998a52600052600a8b5260406000209b518c555160018c01555160028b01555160038a015551906004821015610acc5750918791610a9a600794600460069b01611847565b51600583015551878201550191511661ffff19825416179055600052526040600020600160ff19825416179055600080f35b634e487b7160e01b60005260216004526000fd5b610af690893d8b116107c6576107b78183611690565b5089610a05565b610b149150843d86116107f5576107e78183611690565b8e6109b8565b610b32919450823d84116107f5576107e78183611690565b928d61098e565b6064886014846040519262461bcd60e51b845260048401528201527f4c6f616e20616c726561647920637265617465640000000000000000000000006044820152fd5b82634e487b7160e01b60005260216004526000fd5b6064886017846040519262461bcd60e51b845260048401528201527f496e76616c696420666f726569676e206f72626974616c0000000000000000006044820152fd5b346100de5760603660031901126100de57610bed6115dc565b604435908115158092036100de5763ffffffff90610c0961189b565b16806000526006602052610c2560ff6040600020541615611600565b602435600052600b602052604060002060ff199260ff84835416911617905560005260066020526001604060002091825416179055600080f35b346100de5760803660031901126100de5760643560ff811681036100de576001600160a01b03600e54166020604051809263f52b31f160e01b82528180610cc2604435602435600435600485016040919493926060820195825260208201520152565b03915afa90811561064357600091610cea575b6020610ce18484611913565b50604051908152f35b90506020813d602011610d15575b81610d0560209383611690565b810103126100de57516020610cd5565b3d9150610cf8565b346100de5760003660031901126100de576001546001600160a01b033381831603610d945773ffffffffffffffffffffffffffffffffffffffff198092166001556000549133908316176000553391167f8be0079c531659141344cd1fd0a4f28419497f9722a3daafe3b4186f6b6457e0600080a3005b608460405162461bcd60e51b815260206004820152602960248201527f4f776e61626c6532537465703a2063616c6c6572206973206e6f74207468652060448201527f6e6577206f776e657200000000000000000000000000000000000000000000006064820152fd5b346100de5760403660031901126100de5761ffff610e1a6115ef565b610e2261189b565b166000526008602052602435604060002055600080f35b346100de5760003660031901126100de57610e5261189b565b60006001600160a01b0373ffffffffffffffffffffffffffffffffffffffff19806001541660015582549081168355167f8be0079c531659141344cd1fd0a4f28419497f9722a3daafe3b4186f6b6457e08280a3005b346100de5760203660031901126100de576004356001600160a01b0381168091036100de57610ed561189b565b604051906382c947b760e01b8252600482015260208160248173__$cd1346a8e2955df852b4501a7004a2b636$__5af490811561064357600091610f54575b50600d546801000000000000000081101561068257806001610f399201600d556117fa565b819291549060031b91821b91600019901b1916179055600080f35b90506020813d602011610f7e575b81610f6f60209383611690565b810103126100de575181610f14565b3d9150610f62565b60203660031901126100de57600435600052600a6020526040600020600760405191610fb183611673565b80548352600181015490602084019182526002810154604085015260038101546060850152610fea60ff6004830154166080860161164b565b600581015460a0850152600681015460c085015261ffff92839101541660e0840152608083015160048110156105fb57600161102691146116b2565b519160405192632e7682c760e11b84526004840152602492602081858173__$cd1346a8e2955df852b4501a7004a2b636$__5af4908115610643576000916113c8575b506001600160a01b039081339116036113845765f7cf9b8d00006110ad60608401516110a860a08601516110a260c088015191426118f3565b92611900565b611900565b04606083015190810180911161136f5760408301519060405191632e7682c760e11b83526004830152602082878173__$cd1346a8e2955df852b4501a7004a2b636$__5af491821561064357839260209261113d92600092611350575b506040516323b872dd60e01b81523360048201523060248201526044810191909152938492839160009183906064820190565b0393165af1801561064357611331575b506040516382c947b760e01b8152306004820152602081868173__$cd1346a8e2955df852b4501a7004a2b636$__5af4908115610643576000916112ff575b508360e0840151166000526008602052604060002054917f0000000000000000000000000000000000000000000000000000000000000000169160405191631a90a21960e01b8352602083600481875afa928315610643576000936112cb575b506111f8833414611734565b6003549560e08601511660405196602088015260043560408801526060870152608086015260a085015260a0845260c084019484861067ffffffffffffffff8711176112b757506020918580928160405263ffffffff600554166358cd21bf60e11b83528761126e8160bf199360c4820161179f565b0301925af191821561064357600293608093611294575b50500152602060405160018152f35b60c06112af926020903d60201161067a576106698285611690565b508380611285565b634e487b7160e01b60005260416004526000fd5b9092506020813d6020116112f7575b816112e760209383611690565b810103126100de575191876111ec565b3d91506112da565b90506020813d602011611329575b8161131a60209383611690565b810103126100de57518561118c565b3d915061130d565b6113499060203d6020116107c6576107b78183611690565b508461114d565b611368919250843d86116107f5576107e78183611690565b908961110a565b84634e487b7160e01b60005260116004526000fd5b60648460116040519162461bcd60e51b8352602060048401528201527f556e617574686f72697a6564206c6f616e0000000000000000000000000000006044820152fd5b6113e1915060203d6020116107f5576107e78183611690565b84611069565b346100de5760403660031901126100de5763ffffffff6114056115dc565b61140d61189b565b168060005260206006815261142a60ff6040600020541615611600565b602435600052600981526040600020916040519261144784611657565b8054845260018101549383810194855260028201549460408201958652600460ff6003850154169361147d60608501958661164b565b01546080830152825160048110156105fb57600161149b91146116b2565b519073__$cd1346a8e2955df852b4501a7004a2b636$__9160405190632e7682c760e11b9081835260048301528682602481875af49283156106435787926000946115ba575b5060249051916040519586938492835260048301525af49081156106435761154c96869360009361159b575b50519160006001600160a01b03604051809a8196829563a9059cbb60e01b845260048401602090939291936001600160a01b0360408201951681520152565b0393165af19081156106435760069460029261157e575b5052600052526040600020600160ff19825416179055600080f35b61159490853d87116107c6576107b78183611690565b5085611563565b6115b3919350843d86116107f5576107e78183611690565b918861150d565b60249194506115d590843d86116107f5576107e78183611690565b93906114e1565b6004359063ffffffff821682036100de57565b6004359061ffff821682036100de57565b1561160757565b606460405162461bcd60e51b815260206004820152601b60248201527f4e6f6e63652077617320616c72656164792065786563757465642e00000000006044820152fd5b60048210156105fb5752565b60a0810190811067ffffffffffffffff82111761068257604052565b610100810190811067ffffffffffffffff82111761068257604052565b90601f8019910116810190811067ffffffffffffffff82111761068257604052565b156116b957565b606460405162461bcd60e51b815260206004820152601260248201527f4c6f616e206973206e6f742061637469766500000000000000000000000000006044820152fd5b908160209103126100de57516001600160a01b03811681036100de5790565b908160209103126100de575180151581036100de5790565b1561173b57565b606460405162461bcd60e51b815260206004820152601860248201527f496e73756666696369656e74206d6573736167652066656500000000000000006044820152fd5b908160209103126100de575167ffffffffffffffff811681036100de5790565b92919063ffffffff16835260206060602085015281519182606086015260005b8381106117e6575050506040608082600082819588010152601f8019910116850101930152565b8181018301518682016080015282016117bf565b600d5481101561183157600d6000527fd7b6990105719101dabeb77144f2a3385c8033acd3af97e9423a695e81ad1eb50190600090565b634e487b7160e01b600052603260045260246000fd5b9060048110156105fb5760ff80198354169116179055565b600d549060005b82811061187557505050600090565b8161187f826117fa565b90549060031b1c1461189357600101611866565b505050600190565b6001600160a01b036000541633036118af57565b606460405162461bcd60e51b815260206004820152602060248201527f4f776e61626c653a2063616c6c6572206973206e6f7420746865206f776e65726044820152fd5b919082039182116105e557565b818102929181159184041417156105e557565b919060ff166064811161193a57606461192f6119379285611900565b0480936118f3565b90565b608460405162461bcd60e51b8152602060048201526024808201527f50657263656e74616765206d757374206265206265747765656e203020616e6460448201527f20313030000000000000000000000000000000000000000000000000000000006064820152fdfea26469706673582212204938ed5f0366085334a488ef9553ed5f34fa0cd269225904ceb7589f974c6e5364736f6c63430008180033",
  "linkReferences": {
    "contracts/libraries/AddressToBytes32.sol": {
      "AddressToBytes32": [
        {
          "length": 20,
          "start": 836
        },
        {
          "length": 20,
          "start": 1060
        },
        {
          "length": 20,
          "start": 1267
        },
        {
          "length": 20,
          "start": 1411
        },
        {
          "length": 20,
          "start": 1676
        },
        {
          "length": 20,
          "start": 2750
        },
        {
          "length": 20,
          "start": 4193
        },
        {
          "length": 20,
          "start": 4534
        },
        {
          "length": 20,
          "start": 4686
        },
        {
          "length": 20,
          "start": 4825
        },
        {
          "length": 20,
          "start": 5648
        }
      ]
    }
  },
  "deployedLinkReferences": {
    "contracts/libraries/AddressToBytes32.sol": {
      "AddressToBytes32": [
        {
          "length": 20,
          "start": 467
        },
        {
          "length": 20,
          "start": 691
        },
        {
          "length": 20,
          "start": 898
        },
        {
          "length": 20,
          "start": 1042
        },
        {
          "length": 20,
          "start": 1307
        },
        {
          "length": 20,
          "start": 2381
        },
        {
          "length": 20,
          "start": 3824
        },
        {
          "length": 20,
          "start": 4165
        },
        {
          "length": 20,
          "start": 4317
        },
        {
          "length": 20,
          "start": 4456
        },
        {
          "length": 20,
          "start": 5279
        }
      ]
    }
  }
}