{
  "_format": "hh-sol-artifact-1",
  "contractName": "PriceFeeds",
  "sourceName": "contracts/PriceFeeds.sol",
  "abi": [
    {
      "inputs": [
        {
          "internalType": "address",
          "name": "sValueFeed",
          "type": "address"
        }
      ],
      "stateMutability": "nonpayable",
      "type": "constructor"
    },
    {
      "anonymous": false,
      "inputs": [
        {
          "indexed": true,
          "internalType": "address",
          "name": "previousOwner",
          "type": "address"
        },
        {
          "indexed": true,
          "internalType": "address",
          "name": "newOwner",
          "type": "address"
        }
      ],
      "name": "OwnershipTransferStarted",
      "type": "event"
    },
    {
      "anonymous": false,
      "inputs": [
        {
          "indexed": true,
          "internalType": "address",
          "name": "previousOwner",
          "type": "address"
        },
        {
          "indexed": true,
          "internalType": "address",
          "name": "newOwner",
          "type": "address"
        }
      ],
      "name": "OwnershipTransferred",
      "type": "event"
    },
    {
      "inputs": [],
      "name": "acceptOwnership",
      "outputs": [],
      "stateMutability": "nonpayable",
      "type": "function"
    },
    {
      "inputs": [
        {
          "internalType": "bytes32",
          "name": "tokenIn",
          "type": "bytes32"
        },
        {
          "internalType": "bytes32",
          "name": "tokenOut",
          "type": "bytes32"
        },
        {
          "internalType": "uint256",
          "name": "amountIn",
          "type": "uint256"
        }
      ],
      "name": "estimateFromTo",
      "outputs": [
        {
          "internalType": "uint256",
          "name": "",
          "type": "uint256"
        }
      ],
      "stateMutability": "view",
      "type": "function"
    },
    {
      "inputs": [
        {
          "internalType": "bytes32",
          "name": "tokenId",
          "type": "bytes32"
        }
      ],
      "name": "getPrice",
      "outputs": [
        {
          "internalType": "uint256",
          "name": "",
          "type": "uint256"
        }
      ],
      "stateMutability": "view",
      "type": "function"
    },
    {
      "inputs": [],
      "name": "owner",
      "outputs": [
        {
          "internalType": "address",
          "name": "",
          "type": "address"
        }
      ],
      "stateMutability": "view",
      "type": "function"
    },
    {
      "inputs": [],
      "name": "pendingOwner",
      "outputs": [
        {
          "internalType": "address",
          "name": "",
          "type": "address"
        }
      ],
      "stateMutability": "view",
      "type": "function"
    },
    {
      "inputs": [],
      "name": "renounceOwnership",
      "outputs": [],
      "stateMutability": "nonpayable",
      "type": "function"
    },
    {
      "inputs": [
        {
          "internalType": "address",
          "name": "newOwner",
          "type": "address"
        }
      ],
      "name": "transferOwnership",
      "outputs": [],
      "stateMutability": "nonpayable",
      "type": "function"
    },
    {
      "inputs": [
        {
          "internalType": "bytes32",
          "name": "tokenId",
          "type": "bytes32"
        },
        {
          "internalType": "uint256",
          "name": "priceId",
          "type": "uint256"
        }
      ],
      "name": "updateFeedId",
      "outputs": [],
      "stateMutability": "nonpayable",
      "type": "function"
    }
  ],
  "bytecode": "0x6080346100ae57601f61068938819003918201601f19168301916001600160401b038311848410176100b3578084926020946040528339810103126100ae57516001600160a01b0390818116908190036100ae5760018060a01b031980600154166001556000543382821617600055604051933391167f8be0079c531659141344cd1fd0a4f28419497f9722a3daafe3b4186f6b6457e0600080a360025416176002556105bf90816100ca8239f35b600080fd5b634e487b7160e01b600052604160045260246000fdfe608060408181526004918236101561001657600080fd5b600090813560e01c90816331d98b3f1461041257508063715018a6146103a357806379ba5097146102bf5780638da5cb5b14610299578063e30c397814610271578063eed2c25014610245578063f2fde38b146101c65763f52b31f11461007c57600080fd5b346101c35760603660031901126101c357604435916001600160a01b036002541684358352600360205281832054908251906344dca75160e11b92838352878301526080928383602481855afa9283156101b957908491879461019a575b5060243587526003602052602486882054918751948593849283528c8301525afa92831561019057859361015c575b50506060015184810294818604149015171561014957606001519182156101365750602093505191048152f35b80601286634e487b7160e01b6024945252fd5b602483601187634e487b7160e01b835252fd5b6060929350908161018192903d10610189575b61017981836104a5565b8101906104dd565b919038610109565b503d61016f565b84513d87823e3d90fd5b6101b2919450823d84116101895761017981836104a5565b92386100da565b85513d88823e3d90fd5b80fd5b50823461024157602036600319011261024157356001600160a01b0380821680920361023d576101f4610531565b8173ffffffffffffffffffffffffffffffffffffffff1960015416176001558254167f38d16b8cac22d99fc7c124b9cd0de2d3fa1faef420bfe791d8c362d765e227008380a380f35b8280fd5b5080fd5b50913461023d578160031936011261023d5761025f610531565b35825260036020526024359082205580f35b5090346102415781600319360112610241576020906001600160a01b03600154169051908152f35b5090346102415781600319360112610241576001600160a01b0360209254169051908152f35b5091903461023d578260031936011261023d57600154916001600160a01b0391338385160361033a57505073ffffffffffffffffffffffffffffffffffffffff19809216600155825491339083161783553391167f8be0079c531659141344cd1fd0a4f28419497f9722a3daafe3b4186f6b6457e08380a380f35b906020608492519162461bcd60e51b8352820152602960248201527f4f776e61626c6532537465703a2063616c6c6572206973206e6f74207468652060448201527f6e6577206f776e657200000000000000000000000000000000000000000000006064820152fd5b50346101c357806003193601126101c3576103bc610531565b806001600160a01b0373ffffffffffffffffffffffffffffffffffffffff19806001541660015582549081168355167f8be0079c531659141344cd1fd0a4f28419497f9722a3daafe3b4186f6b6457e08280a380f35b91939050346104a15760203660031901126104a157816024816080936001600160a01b03600254169080358952600360205287892054906344dca75160e11b84528301525afa908115610495579060609160209491610476575b5001519051908152f35b61048f915060803d6080116101895761017981836104a5565b3861046c565b505051903d90823e3d90fd5b8380fd5b90601f8019910116810190811067ffffffffffffffff8211176104c757604052565b634e487b7160e01b600052604160045260246000fd5b9081608091031261052c5760405190608082019082821067ffffffffffffffff8311176104c7576060916040528051835260208101516020840152604081015160408401520151606082015290565b600080fd5b6001600160a01b0360005416330361054557565b606460405162461bcd60e51b815260206004820152602060248201527f4f776e61626c653a2063616c6c6572206973206e6f7420746865206f776e65726044820152fdfea2646970667358221220d7bdab153e439bb2e8336ad016b2fcfc9cf016042d46c5a7682694bad87625ba64736f6c63430008180033",
  "linkReferences": {},
  "deployedLinkReferences": {}
}