{
  "_format": "hh-sol-artifact-1",
  "contractName": "PriceFeeds",
  "sourceName": "contracts/PriceFeeds.sol",
  "abi": [
    {
      "inputs": [
        {
          "internalType": "address",
          "name": "sValueFeed",
          "type": "address"
        }
      ],
      "stateMutability": "nonpayable",
      "type": "constructor"
    },
    {
      "anonymous": false,
      "inputs": [
        {
          "indexed": true,
          "internalType": "address",
          "name": "previousOwner",
          "type": "address"
        },
        {
          "indexed": true,
          "internalType": "address",
          "name": "newOwner",
          "type": "address"
        }
      ],
      "name": "OwnershipTransferStarted",
      "type": "event"
    },
    {
      "anonymous": false,
      "inputs": [
        {
          "indexed": true,
          "internalType": "address",
          "name": "previousOwner",
          "type": "address"
        },
        {
          "indexed": true,
          "internalType": "address",
          "name": "newOwner",
          "type": "address"
        }
      ],
      "name": "OwnershipTransferred",
      "type": "event"
    },
    {
      "inputs": [],
      "name": "acceptOwnership",
      "outputs": [],
      "stateMutability": "nonpayable",
      "type": "function"
    },
    {
      "inputs": [
        {
          "internalType": "bytes32",
          "name": "tokenIn",
          "type": "bytes32"
        },
        {
          "internalType": "bytes32",
          "name": "tokenOut",
          "type": "bytes32"
        },
        {
          "internalType": "uint256",
          "name": "amountIn",
          "type": "uint256"
        }
      ],
      "name": "estimateFromTo",
      "outputs": [
        {
          "internalType": "uint256",
          "name": "",
          "type": "uint256"
        }
      ],
      "stateMutability": "view",
      "type": "function"
    },
    {
      "inputs": [
        {
          "internalType": "bytes32",
          "name": "tokenId",
          "type": "bytes32"
        }
      ],
      "name": "getPrice",
      "outputs": [
        {
          "internalType": "uint256",
          "name": "",
          "type": "uint256"
        }
      ],
      "stateMutability": "view",
      "type": "function"
    },
    {
      "inputs": [],
      "name": "owner",
      "outputs": [
        {
          "internalType": "address",
          "name": "",
          "type": "address"
        }
      ],
      "stateMutability": "view",
      "type": "function"
    },
    {
      "inputs": [],
      "name": "pendingOwner",
      "outputs": [
        {
          "internalType": "address",
          "name": "",
          "type": "address"
        }
      ],
      "stateMutability": "view",
      "type": "function"
    },
    {
      "inputs": [],
      "name": "renounceOwnership",
      "outputs": [],
      "stateMutability": "nonpayable",
      "type": "function"
    },
    {
      "inputs": [
        {
          "internalType": "address",
          "name": "newOwner",
          "type": "address"
        }
      ],
      "name": "transferOwnership",
      "outputs": [],
      "stateMutability": "nonpayable",
      "type": "function"
    },
    {
      "inputs": [
        {
          "internalType": "address",
          "name": "tokenId",
          "type": "address"
        },
        {
          "internalType": "uint256",
          "name": "priceId",
          "type": "uint256"
        }
      ],
      "name": "updateFeedId",
      "outputs": [],
      "stateMutability": "nonpayable",
      "type": "function"
    }
  ],
  "bytecode": "0x6080346100ae57601f61073838819003918201601f19168301916001600160401b038311848410176100b3578084926020946040528339810103126100ae57516001600160a01b0390818116908190036100ae5760018060a01b031980600154166001556000543382821617600055604051933391167f8be0079c531659141344cd1fd0a4f28419497f9722a3daafe3b4186f6b6457e0600080a3600254161760025561066e90816100ca8239f35b600080fd5b634e487b7160e01b600052604160045260246000fdfe608060408181526004918236101561001657600080fd5b600090813560e01c90816331d98b3f146104b7575080633f0d9c72146103e6578063715018a61461037757806379ba50971461028f5780638da5cb5b14610269578063e30c39781461023d578063f2fde38b146101c65763f52b31f11461007c57600080fd5b346101c35760603660031901126101c357604435916001600160a01b036002541684358352600360205281832054908251906344dca75160e11b92838352878301526080928383602481855afa9283156101b957908491879461019a575b5060243587526003602052602486882054918751948593849283528c8301525afa92831561019057859361015c575b50506060015184810294818604149015171561014957606001519182156101365750602093505191048152f35b80601286634e487b7160e01b6024945252fd5b602483601187634e487b7160e01b835252fd5b6060929350908161018192903d10610189575b6101798183610559565b810190610591565b919038610109565b503d61016f565b84513d87823e3d90fd5b6101b2919450823d8411610189576101798183610559565b92386100da565b85513d88823e3d90fd5b80fd5b50346101c35760203660031901126101c3576101e061053e565b6101e86105e0565b6001600160a01b03809116908173ffffffffffffffffffffffffffffffffffffffff1960015416176001558254167f38d16b8cac22d99fc7c124b9cd0de2d3fa1faef420bfe791d8c362d765e227008380a380f35b5090346102655781600319360112610265576020906001600160a01b03600154169051908152f35b5080fd5b5090346102655781600319360112610265576001600160a01b0360209254169051908152f35b50919034610373578260031936011261037357600154916001600160a01b0391338385160361030a57505073ffffffffffffffffffffffffffffffffffffffff19809216600155825491339083161783553391167f8be0079c531659141344cd1fd0a4f28419497f9722a3daafe3b4186f6b6457e08380a380f35b906020608492519162461bcd60e51b8352820152602960248201527f4f776e61626c6532537465703a2063616c6c6572206973206e6f74207468652060448201527f6e6577206f776e657200000000000000000000000000000000000000000000006064820152fd5b8280fd5b50346101c357806003193601126101c3576103906105e0565b806001600160a01b0373ffffffffffffffffffffffffffffffffffffffff19806001541660015582549081168355167f8be0079c531659141344cd1fd0a4f28419497f9722a3daafe3b4186f6b6457e08280a380f35b50913461037357816003193601126103735761040061053e565b906104096105e0565b6001600160a01b038351927f82c947b7000000000000000000000000000000000000000000000000000000008452169082015260208160248173__$cd1346a8e2955df852b4501a7004a2b636$__5af49081156104ab578391610479575b50825260036020526024359082205580f35b90506020813d6020116104a3575b8161049460209383610559565b81010312610373575138610467565b3d9150610487565b505051903d90823e3d90fd5b919390503461053a57602036600319011261053a57816024816080936001600160a01b03600254169080358952600360205287892054906344dca75160e11b84528301525afa9081156104ab57906060916020949161051b575b5001519051908152f35b610534915060803d608011610189576101798183610559565b38610511565b8380fd5b600435906001600160a01b038216820361055457565b600080fd5b90601f8019910116810190811067ffffffffffffffff82111761057b57604052565b634e487b7160e01b600052604160045260246000fd5b908160809103126105545760405190608082019082821067ffffffffffffffff83111761057b576060916040528051835260208101516020840152604081015160408401520151606082015290565b6001600160a01b036000541633036105f457565b606460405162461bcd60e51b815260206004820152602060248201527f4f776e61626c653a2063616c6c6572206973206e6f7420746865206f776e65726044820152fdfea26469706673582212207d9481c6d70cc65e26eda6f7b56a24e9f443b2d34e7bfe77998834f5878043ce64736f6c63430008180033",
  "linkReferences": {
    "contracts/libraries/AddressToBytes32.sol": {
      "AddressToBytes32": [
        {
          "length": 20,
          "start": 1294
        }
      ]
    }
  },
  "deployedLinkReferences": {
    "contracts/libraries/AddressToBytes32.sol": {
      "AddressToBytes32": [
        {
          "length": 20,
          "start": 1092
        }
      ]
    }
  }
}