{
  "_format": "hh-sol-artifact-1",
  "contractName": "USDT",
  "sourceName": "contracts/faucet/USDT.sol",
  "abi": [
    {
      "inputs": [],
      "stateMutability": "nonpayable",
      "type": "constructor"
    },
    {
      "anonymous": false,
      "inputs": [
        {
          "indexed": true,
          "internalType": "address",
          "name": "owner",
          "type": "address"
        },
        {
          "indexed": true,
          "internalType": "address",
          "name": "spender",
          "type": "address"
        },
        {
          "indexed": false,
          "internalType": "uint256",
          "name": "value",
          "type": "uint256"
        }
      ],
      "name": "Approval",
      "type": "event"
    },
    {
      "anonymous": false,
      "inputs": [
        {
          "indexed": true,
          "internalType": "address",
          "name": "from",
          "type": "address"
        },
        {
          "indexed": true,
          "internalType": "address",
          "name": "to",
          "type": "address"
        },
        {
          "indexed": false,
          "internalType": "uint256",
          "name": "value",
          "type": "uint256"
        }
      ],
      "name": "Transfer",
      "type": "event"
    },
    {
      "inputs": [
        {
          "internalType": "address",
          "name": "owner",
          "type": "address"
        },
        {
          "internalType": "address",
          "name": "spender",
          "type": "address"
        }
      ],
      "name": "allowance",
      "outputs": [
        {
          "internalType": "uint256",
          "name": "",
          "type": "uint256"
        }
      ],
      "stateMutability": "view",
      "type": "function"
    },
    {
      "inputs": [
        {
          "internalType": "address",
          "name": "spender",
          "type": "address"
        },
        {
          "internalType": "uint256",
          "name": "amount",
          "type": "uint256"
        }
      ],
      "name": "approve",
      "outputs": [
        {
          "internalType": "bool",
          "name": "",
          "type": "bool"
        }
      ],
      "stateMutability": "nonpayable",
      "type": "function"
    },
    {
      "inputs": [
        {
          "internalType": "address",
          "name": "account",
          "type": "address"
        }
      ],
      "name": "balanceOf",
      "outputs": [
        {
          "internalType": "uint256",
          "name": "",
          "type": "uint256"
        }
      ],
      "stateMutability": "view",
      "type": "function"
    },
    {
      "inputs": [],
      "name": "decimals",
      "outputs": [
        {
          "internalType": "uint8",
          "name": "",
          "type": "uint8"
        }
      ],
      "stateMutability": "view",
      "type": "function"
    },
    {
      "inputs": [
        {
          "internalType": "address",
          "name": "spender",
          "type": "address"
        },
        {
          "internalType": "uint256",
          "name": "subtractedValue",
          "type": "uint256"
        }
      ],
      "name": "decreaseAllowance",
      "outputs": [
        {
          "internalType": "bool",
          "name": "",
          "type": "bool"
        }
      ],
      "stateMutability": "nonpayable",
      "type": "function"
    },
    {
      "inputs": [
        {
          "internalType": "address",
          "name": "spender",
          "type": "address"
        },
        {
          "internalType": "uint256",
          "name": "addedValue",
          "type": "uint256"
        }
      ],
      "name": "increaseAllowance",
      "outputs": [
        {
          "internalType": "bool",
          "name": "",
          "type": "bool"
        }
      ],
      "stateMutability": "nonpayable",
      "type": "function"
    },
    {
      "inputs": [
        {
          "internalType": "address",
          "name": "receiver",
          "type": "address"
        }
      ],
      "name": "mint",
      "outputs": [],
      "stateMutability": "nonpayable",
      "type": "function"
    },
    {
      "inputs": [],
      "name": "name",
      "outputs": [
        {
          "internalType": "string",
          "name": "",
          "type": "string"
        }
      ],
      "stateMutability": "view",
      "type": "function"
    },
    {
      "inputs": [],
      "name": "symbol",
      "outputs": [
        {
          "internalType": "string",
          "name": "",
          "type": "string"
        }
      ],
      "stateMutability": "view",
      "type": "function"
    },
    {
      "inputs": [],
      "name": "totalSupply",
      "outputs": [
        {
          "internalType": "uint256",
          "name": "",
          "type": "uint256"
        }
      ],
      "stateMutability": "view",
      "type": "function"
    },
    {
      "inputs": [
        {
          "internalType": "address",
          "name": "to",
          "type": "address"
        },
        {
          "internalType": "uint256",
          "name": "amount",
          "type": "uint256"
        }
      ],
      "name": "transfer",
      "outputs": [
        {
          "internalType": "bool",
          "name": "",
          "type": "bool"
        }
      ],
      "stateMutability": "nonpayable",
      "type": "function"
    },
    {
      "inputs": [
        {
          "internalType": "address",
          "name": "from",
          "type": "address"
        },
        {
          "internalType": "address",
          "name": "to",
          "type": "address"
        },
        {
          "internalType": "uint256",
          "name": "amount",
          "type": "uint256"
        }
      ],
      "name": "transferFrom",
      "outputs": [
        {
          "internalType": "bool",
          "name": "",
          "type": "bool"
        }
      ],
      "stateMutability": "nonpayable",
      "type": "function"
    }
  ],
  "bytecode": "0x60803462000350576040906001600160401b0390808301828111828210176200033a578352600a81526020916915195d1a195c881554d160b21b83830152835192848401848110838211176200033a578552600493848152631554d11560e21b8282015283519083821162000325576003928354926001968785811c951680156200031a575b8386101462000305578190601f95868111620002af575b50839086831160011462000248576000926200023c575b505060001982871b1c191690871b1784555b8151948511620002275786548681811c911680156200021c575b828210146200020757838111620001bc575b50809285116001146200014e575093839491849260009562000142575b50501b92600019911b1c19161790555b620001293362000355565b620001343062000355565b51610a8f90816200041e8239f35b0151935038806200010e565b92919084601f1981168860005285600020956000905b89838310620001a1575050501062000186575b50505050811b0190556200011e565b01519060f884600019921b161c191690553880808062000177565b85870151895590970196948501948893509081019062000164565b87600052816000208480880160051c820192848910620001fd575b0160051c019087905b828110620001f0575050620000f1565b60008155018790620001e0565b92508192620001d7565b602288634e487b7160e01b6000525260246000fd5b90607f1690620000df565b604187634e487b7160e01b6000525260246000fd5b015190503880620000b3565b90899350601f1983169188600052856000209260005b878282106200029857505084116200027f575b505050811b018455620000c5565b015160001983891b60f8161c1916905538808062000271565b8385015186558d979095019493840193016200025e565b90915086600052836000208680850160051c820192868610620002fb575b918b91869594930160051c01915b828110620002eb5750506200009c565b600081558594508b9101620002db565b92508192620002cd565b602289634e487b7160e01b6000525260246000fd5b94607f169462000085565b604186634e487b7160e01b6000525260246000fd5b634e487b7160e01b600052604160045260246000fd5b600080fd5b6001600160a01b03168015620003d8576002546a295be96e64066972000000808201809211620003c25760207fddf252ad1be2c89b69c2b068fc378daa952ba7f163c4a11628f55a4df523b3ef9160009360025584845283825260408420818154019055604051908152a3565b634e487b7160e01b600052601160045260246000fd5b60405162461bcd60e51b815260206004820152601f60248201527f45524332303a206d696e7420746f20746865207a65726f2061646472657373006044820152606490fdfe608060408181526004918236101561001657600080fd5b600092833560e01c91826306fdde031461066657508163095ea7b31461063c57816318160ddd1461061d57816323b872dd14610552578163313ce5671461053657816339509351146104d05781636a6278421461033c57816370a082311461030657816395d89b41146101e5578163a457c2d71461012457508063a9059cbb146100f45763dd62ed3e146100a957600080fd5b346100f057806003193601126100f057806020926100c5610789565b6100cd6107a4565b6001600160a01b0391821683526001865283832091168252845220549051908152f35b5080fd5b50346100f057806003193601126100f05760209061011d610113610789565b60243590336108ee565b5160018152f35b905082346101e257826003193601126101e25761013f610789565b91836024359233815260016020528181206001600160a01b03861682526020522054908282106101795760208561011d85850387336107ba565b608490602086519162461bcd60e51b8352820152602560248201527f45524332303a2064656372656173656420616c6c6f77616e63652062656c6f7760448201527f207a65726f0000000000000000000000000000000000000000000000000000006064820152fd5b80fd5b8383346100f057816003193601126100f05780519082845460018160011c90600183169283156102fc575b60209384841081146102e9578388529081156102cd5750600114610278575b505050829003601f01601f191682019267ffffffffffffffff8411838510176102655750829182610261925282610740565b0390f35b80604186634e487b7160e01b6024945252fd5b8787529192508591837f8a35acfbc15ff81a39ae7d344fd709f28e8600b4aa8c65c6b64bfe7fe36bd19b5b8385106102b9575050505083010185808061022f565b8054888601830152930192849082016102a3565b60ff1916878501525050151560051b840101905085808061022f565b60248960228c634e487b7160e01b835252fd5b91607f1691610210565b5050346100f05760203660031901126100f057806020926001600160a01b0361032d610789565b16815280845220549051908152f35b9050346104cc576020806003193601126104c857610358610789565b3015610479576001600160a01b031692831561042c573085528482528085205468056bc75e2d63100000938482106103db5750907fddf252ad1be2c89b69c2b068fc378daa952ba7f163c4a11628f55a4df523b3ef929130875286835268056bc75e2d630fffff190181872055848652808620848154019055519283523092a380f35b6084908484519162461bcd60e51b8352820152602660248201527f45524332303a207472616e7366657220616d6f756e7420657863656564732062604482015265616c616e636560d01b6064820152fd5b60849350519162461bcd60e51b8352820152602360248201527f45524332303a207472616e7366657220746f20746865207a65726f206164647260448201526265737360e81b6064820152fd5b50608492519162461bcd60e51b8352820152602560248201527f45524332303a207472616e736665722066726f6d20746865207a65726f206164604482015264647265737360d81b6064820152fd5b8380fd5b8280fd5b8284346101e257816003193601126101e2576104ea610789565b33825260016020528282206001600160a01b0382168352602052828220549160243583018093116105235760208461011d8585336107ba565b80601186634e487b7160e01b6024945252fd5b5050346100f057816003193601126100f0576020905160128152f35b839150346100f05760603660031901126100f05761056e610789565b6105766107a4565b9184604435946001600160a01b0384168152600160205281812033825260205220549060001982036105b1575b60208661011d8787876108ee565b8482106105da57509183916105cf6020969561011d950333836107ba565b9193948193506105a3565b606490602087519162461bcd60e51b8352820152601d60248201527f45524332303a20696e73756666696369656e7420616c6c6f77616e63650000006044820152fd5b5050346100f057816003193601126100f0576020906002549051908152f35b5050346100f057806003193601126100f05760209061011d61065c610789565b60243590336107ba565b849084346104cc57826003193601126104cc578260035460018160011c9060018316928315610736575b60209384841081146102e9578388529081156102cd57506001146106e057505050829003601f01601f191682019267ffffffffffffffff8411838510176102655750829182610261925282610740565b600387529192508591837fc2575a0e9e593c00f959f8c92f12db2869c3395a3b0502d05e2516446f71f85b5b838510610722575050505083010185808061022f565b80548886018301529301928490820161070c565b91607f1691610690565b6020808252825181830181905290939260005b82811061077557505060409293506000838284010152601f8019910116010190565b818101860151848201604001528501610753565b600435906001600160a01b038216820361079f57565b600080fd5b602435906001600160a01b038216820361079f57565b6001600160a01b03809116918215610885571691821561081b5760207f8c5be1e5ebec7d5bd14f71427d1e84f3dd0314c0f7b2291e5b200ac8c7c3b925918360005260018252604060002085600052825280604060002055604051908152a3565b608460405162461bcd60e51b815260206004820152602260248201527f45524332303a20617070726f766520746f20746865207a65726f20616464726560448201527f73730000000000000000000000000000000000000000000000000000000000006064820152fd5b608460405162461bcd60e51b8152602060048201526024808201527f45524332303a20617070726f76652066726f6d20746865207a65726f2061646460448201527f72657373000000000000000000000000000000000000000000000000000000006064820152fd5b6001600160a01b03809116918215610a0757169182156109b75760008281528060205260408120549180831061096457604082827fddf252ad1be2c89b69c2b068fc378daa952ba7f163c4a11628f55a4df523b3ef958760209652828652038282205586815220818154019055604051908152a3565b608460405162461bcd60e51b815260206004820152602660248201527f45524332303a207472616e7366657220616d6f756e7420657863656564732062604482015265616c616e636560d01b6064820152fd5b608460405162461bcd60e51b815260206004820152602360248201527f45524332303a207472616e7366657220746f20746865207a65726f206164647260448201526265737360e81b6064820152fd5b608460405162461bcd60e51b815260206004820152602560248201527f45524332303a207472616e736665722066726f6d20746865207a65726f206164604482015264647265737360d81b6064820152fdfea2646970667358221220027cce2714e2538cb400be6a4f3cfb49c6508aef1279cbf4db33b9cfb2a8903f64736f6c63430008180033",
  "linkReferences": {},
  "deployedLinkReferences": {}
}