{
  "contracts/Orbital.sol": {
    "Orbital": {
      "abi": [
        {
          "inputs": [
            {
              "internalType": "address",
              "name": "priceFeeds",
              "type": "address"
            },
            {
              "internalType": "address",
              "name": "wormhole",
              "type": "address"
            }
          ],
          "stateMutability": "nonpayable",
          "type": "constructor"
        },
        {
          "anonymous": false,
          "inputs": [
            {
              "indexed": true,
              "internalType": "address",
              "name": "previousOwner",
              "type": "address"
            },
            {
              "indexed": true,
              "internalType": "address",
              "name": "newOwner",
              "type": "address"
            }
          ],
          "name": "OwnershipTransferStarted",
          "type": "event"
        },
        {
          "anonymous": false,
          "inputs": [
            {
              "indexed": true,
              "internalType": "address",
              "name": "previousOwner",
              "type": "address"
            },
            {
              "indexed": true,
              "internalType": "address",
              "name": "newOwner",
              "type": "address"
            }
          ],
          "name": "OwnershipTransferred",
          "type": "event"
        },
        {
          "inputs": [
            {
              "internalType": "address",
              "name": "tokenId",
              "type": "address"
            }
          ],
          "name": "_isTokenSupported",
          "outputs": [
            {
              "internalType": "bool",
              "name": "",
              "type": "bool"
            }
          ],
          "stateMutability": "view",
          "type": "function"
        },
        {
          "inputs": [],
          "name": "acceptOwnership",
          "outputs": [],
          "stateMutability": "nonpayable",
          "type": "function"
        },
        {
          "inputs": [
            {
              "internalType": "uint16",
              "name": "chainId",
              "type": "uint16"
            },
            {
              "internalType": "bytes32",
              "name": "orbital",
              "type": "bytes32"
            }
          ],
          "name": "addForeignOrbital",
          "outputs": [],
          "stateMutability": "nonpayable",
          "type": "function"
        },
        {
          "inputs": [
            {
              "internalType": "address",
              "name": "token",
              "type": "address"
            }
          ],
          "name": "addSupportedToken",
          "outputs": [],
          "stateMutability": "nonpayable",
          "type": "function"
        },
        {
          "inputs": [
            {
              "internalType": "uint16",
              "name": "toChainId",
              "type": "uint16"
            },
            {
              "internalType": "bytes32",
              "name": "tokenIn",
              "type": "bytes32"
            },
            {
              "internalType": "bytes32",
              "name": "tokenOut",
              "type": "bytes32"
            },
            {
              "internalType": "uint256",
              "name": "value",
              "type": "uint256"
            },
            {
              "internalType": "bytes32",
              "name": "receiver",
              "type": "bytes32"
            }
          ],
          "name": "borrow",
          "outputs": [
            {
              "internalType": "bytes32",
              "name": "",
              "type": "bytes32"
            }
          ],
          "stateMutability": "payable",
          "type": "function"
        },
        {
          "inputs": [],
          "name": "owner",
          "outputs": [
            {
              "internalType": "address",
              "name": "",
              "type": "address"
            }
          ],
          "stateMutability": "view",
          "type": "function"
        },
        {
          "inputs": [],
          "name": "pendingOwner",
          "outputs": [
            {
              "internalType": "address",
              "name": "",
              "type": "address"
            }
          ],
          "stateMutability": "view",
          "type": "function"
        },
        {
          "inputs": [
            {
              "internalType": "uint32",
              "name": "wormholeNonce",
              "type": "uint32"
            },
            {
              "internalType": "bytes32",
              "name": "method",
              "type": "bytes32"
            },
            {
              "internalType": "bytes32",
              "name": "loanId",
              "type": "bytes32"
            },
            {
              "internalType": "bytes32",
              "name": "receiver",
              "type": "bytes32"
            },
            {
              "internalType": "uint16",
              "name": "fromChainId",
              "type": "uint16"
            },
            {
              "internalType": "bytes32",
              "name": "fromContractId",
              "type": "bytes32"
            },
            {
              "internalType": "bytes32",
              "name": "tokenOut",
              "type": "bytes32"
            },
            {
              "internalType": "uint256",
              "name": "value",
              "type": "uint256"
            }
          ],
          "name": "receiveOnBorrow",
          "outputs": [],
          "stateMutability": "nonpayable",
          "type": "function"
        },
        {
          "inputs": [
            {
              "internalType": "uint32",
              "name": "wormholeNonce",
              "type": "uint32"
            },
            {
              "internalType": "bytes32",
              "name": "method",
              "type": "bytes32"
            },
            {
              "internalType": "bytes32",
              "name": "loanId",
              "type": "bytes32"
            }
          ],
          "name": "receiveOnRepay",
          "outputs": [],
          "stateMutability": "nonpayable",
          "type": "function"
        },
        {
          "inputs": [],
          "name": "renounceOwnership",
          "outputs": [],
          "stateMutability": "nonpayable",
          "type": "function"
        },
        {
          "inputs": [
            {
              "internalType": "bytes32",
              "name": "loanId",
              "type": "bytes32"
            }
          ],
          "name": "repay",
          "outputs": [
            {
              "internalType": "bool",
              "name": "",
              "type": "bool"
            }
          ],
          "stateMutability": "payable",
          "type": "function"
        },
        {
          "inputs": [
            {
              "internalType": "address",
              "name": "newOwner",
              "type": "address"
            }
          ],
          "name": "transferOwnership",
          "outputs": [],
          "stateMutability": "nonpayable",
          "type": "function"
        }
      ],
      "evm": {
        "bytecode": {
          "linkReferences": {
            "contracts/libraries/AddressToBytes32.sol": {
              "AddressToBytes32": [
                {
                  "length": 20,
                  "start": 746
                },
                {
                  "length": 20,
                  "start": 1110
                },
                {
                  "length": 20,
                  "start": 1254
                },
                {
                  "length": 20,
                  "start": 1514
                },
                {
                  "length": 20,
                  "start": 3149
                },
                {
                  "length": 20,
                  "start": 3301
                },
                {
                  "length": 20,
                  "start": 3440
                },
                {
                  "length": 20,
                  "start": 4252
                },
                {
                  "length": 20,
                  "start": 5152
                }
              ]
            }
          },
          "object": "60a03461014157601f6118d538819003918201601f19168301916001600160401b0383118484101761014657808492604094855283398101031261014157610052602061004b8361015c565b920161015c565b600180546001600160a01b0319908116909155600080543381841681178355604051956001600160a01b0395949386939192918416907f8be0079c531659141344cd1fd0a4f28419497f9722a3daafe3b4186f6b6457e09080a36f13d397d093d49493d5d7d351551213d160821b6002556e13d397d49154105657d351551213d1608a1b6003557013d397d111519055531517d351551213d1607a1b6004556007805460ff191660501790556005805463ffffffff19166001179055600d80549093169116179055166080526117649081610171823960805181818161028b0152818161042d0152610c3c0152f35b600080fd5b634e487b7160e01b600052604160045260246000fd5b51906001600160a01b03821682036101415756fe6080604052600436101561001257600080fd5b60003560e01c806313d80c1e146111ec578063418bd4b614610e7e578063563dd61314610a295780636d69fcaf146109bf578063715018a61461095057806375f5172e1461091557806379ba5097146108345780638da5cb5b1461080d5780639c112790146107d4578063d80b52b614610144578063e30c39781461011d5763f2fde38b146100a057600080fd5b34610118576020366003190112610118576004356001600160a01b03808216809203610118576100ce6116b6565b8173ffffffffffffffffffffffffffffffffffffffff196001541617600155600054167f38d16b8cac22d99fc7c124b9cd0de2d3fa1faef420bfe791d8c362d765e22700600080a3005b600080fd5b346101185760003660031901126101185760206001600160a01b0360015416604051908152f35b60a0366003190112610118576101586113ff565b60649060405190632e7682c760e11b8252602435600483015260208260248173__$cd1346a8e2955df852b4501a7004a2b636$__5af49182156105a3576000926107a3575b506101a782611656565b15610760576040516323b872dd60e01b815233600482015230602482015283356044820152916001600160a01b03906020908490606490829060009086165af19283156105a3578493610731575b50602081600d5416604051958680927ff52b31f100000000000000000000000000000000000000000000000000000000825260243560048301526044356024830152823560448301525afa9384156105a3576000946106fd575b5060ff60075416838111610694578361026b610273928761171b565b04809561170e565b5060405190631a90a21960e01b8252602082600481847f0000000000000000000000000000000000000000000000000000000000000000165afa9182156105a357600092610660575b506102c982341015611543565b604051946382c947b760e01b865230600487015260208660248173__$cd1346a8e2955df852b4501a7004a2b636$__5af49586156105a35760009661062c575b5061ffff8416600052600860205260406000205463ffffffff600554166040516020810191338352608435604083015260608201524260808201526080815261035181611467565b5190209660025495604051906382c947b760e01b825233600483015260208260248173__$cd1346a8e2955df852b4501a7004a2b636$__5af480156105a3576000906105f8575b61ffff92506040519860208a01528a60408a0152606089015260843560808901521660a087015260c086015260e085015260443561010085015261012090818501528352610140908184019284841067ffffffffffffffff8511176105e2576020918480928160405263ffffffff600554166358cd21bf60e11b8352886104288161013f199361014482016115ae565b0301927f0000000000000000000000000000000000000000000000000000000000000000165af180156105a3576105af575b505050604051906382c947b760e01b825233600483015260208260248173__$cd1346a8e2955df852b4501a7004a2b636$__5af49182156105a35760009261056f575b50604051916104ab83611467565b8252602082019060243582526040830190358152606083019060018252608084019242845285600052600960205260406000209451855551600185015551600284015551906004821015610559576105086004926003850161169e565b519101556005549063ffffffff82169163ffffffff83146105435763ffffffff600160209401169063ffffffff191617600555604051908152f35b634e487b7160e01b600052601160045260246000fd5b634e487b7160e01b600052602160045260246000fd5b9091506020813d60201161059b575b8161058b6020938361149f565b810103126101185751908361049d565b3d915061057e565b6040513d6000823e3d90fd5b6105d1926020903d6020116105da575b6105c9828561149f565b01019061158e565b5082808061045a565b3d91506105bf565b634e487b7160e01b600052604160045260246000fd5b506020823d602011610624575b816106126020938361149f565b810103126101185761ffff9151610398565b3d9150610605565b9095506020813d602011610658575b816106486020938361149f565b8101031261011857519486610309565b3d915061063b565b9091506020813d60201161068c575b8161067c6020938361149f565b81010312610118575190856102bc565b3d915061066f565b6084847f20313030000000000000000000000000000000000000000000000000000000006040519162461bcd60e51b8352602060048401526024808401527f50657263656e74616765206d757374206265206265747765656e203020616e646044840152820152fd5b9093506020813d602011610729575b816107196020938361149f565b810103126101185751928461024f565b3d915061070c565b6107529060203d602011610759575b61074a818361149f565b81019061152b565b50846101f5565b503d610740565b8260405162461bcd60e51b815260206004820152601360248201527f546f6b656e206e6f7420737570706f72746564000000000000000000000000006044820152fd5b6107c691925060203d6020116107cd575b6107be818361149f565b81019061150c565b908361019d565b503d6107b4565b34610118576020366003190112610118576004356001600160a01b038116810361011857610803602091611656565b6040519015158152f35b346101185760003660031901126101185760206001600160a01b0360005416604051908152f35b34610118576000366003190112610118576001546001600160a01b0333818316036108ab5773ffffffffffffffffffffffffffffffffffffffff198092166001556000549133908316176000553391167f8be0079c531659141344cd1fd0a4f28419497f9722a3daafe3b4186f6b6457e0600080a3005b608460405162461bcd60e51b815260206004820152602960248201527f4f776e61626c6532537465703a2063616c6c6572206973206e6f74207468652060448201527f6e6577206f776e657200000000000000000000000000000000000000000000006064820152fd5b346101185760403660031901126101185761ffff6109316113ff565b6109396116b6565b166000526008602052602435604060002055600080f35b34610118576000366003190112610118576109696116b6565b60006001600160a01b0373ffffffffffffffffffffffffffffffffffffffff19806001541660015582549081168355167f8be0079c531659141344cd1fd0a4f28419497f9722a3daafe3b4186f6b6457e08280a3005b34610118576020366003190112610118576004356001600160a01b0390818116809103610118576109ee6116b6565b600c54680100000000000000008110156105e257806001610a129201600c55611609565b909283549160031b92831b921b1916179055600080f35b602036600319011261011857600435600052600a6020526040600020600660405191610a5483611483565b805483526001810154602084015260028101546040840152610a8060ff6003830154166060850161145b565b60048101546080840152600581015460a084015261ffff91829101541660c083015260608201516004811015610559576001610abc91146114c1565b81519160405192632e7682c760e11b84526004840152602492602081858173__$cd1346a8e2955df852b4501a7004a2b636$__5af49081156105a357600091610e5f575b506001600160a01b03908133911603610e1b5765f7cf9b8d0000610b446040840151610b3f6080860151610b3960a0880151914261170e565b9261171b565b61171b565b046040830151908101809111610e065760208301519060405191632e7682c760e11b83526004830152602082878173__$cd1346a8e2955df852b4501a7004a2b636$__5af49182156105a3578392602092610bd492600092610de7575b506040516323b872dd60e01b81523360048201523060248201526044810191909152938492839160009183906064820190565b0393165af180156105a357610dc8575b506040516382c947b760e01b8152306004820152602081868173__$cd1346a8e2955df852b4501a7004a2b636$__5af49081156105a357600091610d96575b508360c0840151166000526008602052604060002054917f0000000000000000000000000000000000000000000000000000000000000000169160405191631a90a21960e01b8352602083600481875afa9283156105a357600093610d62575b50610c8f833414611543565b6003549560c08601511660405196602088015260043560408801526060870152608086015260a085015260a0845260c084019484861067ffffffffffffffff871117610d4e57506020918580928160405263ffffffff600554166358cd21bf60e11b835287610d058160bf199360c482016115ae565b0301925af19182156105a357600293606093610d2b575b50500152602060405160018152f35b60c0610d46926020903d6020116105da576105c9828561149f565b508380610d1c565b634e487b7160e01b60005260416004526000fd5b9092506020813d602011610d8e575b81610d7e6020938361149f565b8101031261011857519187610c83565b3d9150610d71565b90506020813d602011610dc0575b81610db16020938361149f565b81010312610118575185610c23565b3d9150610da4565b610de09060203d6020116107595761074a818361149f565b5084610be4565b610dff919250843d86116107cd576107be818361149f565b9089610ba1565b84634e487b7160e01b60005260116004526000fd5b60648460116040519162461bcd60e51b8352602060048401528201527f556e617574686f72697a6564206c6f616e0000000000000000000000000000006044820152fd5b610e78915060203d6020116107cd576107be818361149f565b84610b00565b346101185761010036600319011261011857610e986113ec565b602460443590606435926084359061ffff908183168093036101185760c4359463ffffffff60e43592610ec96116b6565b16948560005260209660068852610ee860ff6040600020541615611410565b6002548235036111a757856000526008885260a435604060002054036111645782600052600a885260ff60036040600020015416600481101561114f5761110c5773__$cd1346a8e2955df852b4501a7004a2b636$__60405190632e7682c760e11b918281528360048201528a818681855af49283156105a357858d918d936000966110ed575b506040519485938492835260048301525af49081156105a357610fd5928b9288926000916110d0575b5060006001600160a01b0360405180978196829563a9059cbb60e01b845260048401602090939291936001600160a01b0360408201951681520152565b0393165af180156105a3576110b3575b5080600052600b885260406000205493604051996110028b611483565b8a52888a0191825260408a0190815260608a01916001835260808b019442865260a08c0196875260c08c01988952600052600a8a5260406000209a518b555160018b01555160028a01555190600482101561109f575091879161106c6006999460038b960161169e565b5160048301555160058201550191511661ffff19825416179055600052526040600020600160ff19825416179055600080f35b634e487b7160e01b60005260216004526000fd5b6110c990893d8b116107595761074a818361149f565b5089610fe5565b6110e79150843d86116107cd576107be818361149f565b8e610f98565b611105919650843d86116107cd576107be818361149f565b948f610f6f565b6064886014846040519262461bcd60e51b845260048401528201527f4c6f616e20616c726561647920637265617465640000000000000000000000006044820152fd5b82634e487b7160e01b60005260216004526000fd5b6064886017846040519262461bcd60e51b845260048401528201527f496e76616c696420666f726569676e206f72626974616c0000000000000000006044820152fd5b60405162461bcd60e51b815260206004820152601060248201527f556e646566696e6564206d6574686f64000000000000000000000000000000006044820152606490fd5b346101185760603660031901126101185763ffffffff61120a6113ec565b6112126116b6565b168060005260206006815261122f60ff6040600020541615611410565b600354602435036111a757604435600052600981526040600020916040519261125784611467565b8054845260018101549383810194855260028201549460408201958652600460ff6003850154169361128d60608501958661145b565b01546080830152825160048110156105595760016112ab91146114c1565b519073__$cd1346a8e2955df852b4501a7004a2b636$__9160405190632e7682c760e11b9081835260048301528682602481875af49283156105a35787926000946113ca575b5060249051916040519586938492835260048301525af49081156105a35761135c9686936000936113ab575b50519160006001600160a01b03604051809a8196829563a9059cbb60e01b845260048401602090939291936001600160a01b0360408201951681520152565b0393165af19081156105a35760069460029261138e575b5052600052526040600020600160ff19825416179055600080f35b6113a490853d87116107595761074a818361149f565b5085611373565b6113c3919350843d86116107cd576107be818361149f565b918861131d565b60249194506113e590843d86116107cd576107be818361149f565b93906112f1565b6004359063ffffffff8216820361011857565b6004359061ffff8216820361011857565b1561141757565b606460405162461bcd60e51b815260206004820152601b60248201527f4e6f6e63652077617320616c72656164792065786563757465642e00000000006044820152fd5b60048210156105595752565b60a0810190811067ffffffffffffffff8211176105e257604052565b60e0810190811067ffffffffffffffff8211176105e257604052565b90601f8019910116810190811067ffffffffffffffff8211176105e257604052565b156114c857565b606460405162461bcd60e51b815260206004820152601260248201527f4c6f616e206973206e6f742061637469766500000000000000000000000000006044820152fd5b9081602091031261011857516001600160a01b03811681036101185790565b90816020910312610118575180151581036101185790565b1561154a57565b606460405162461bcd60e51b815260206004820152601860248201527f496e73756666696369656e74206d6573736167652066656500000000000000006044820152fd5b90816020910312610118575167ffffffffffffffff811681036101185790565b92919063ffffffff16835260206060602085015281519182606086015260005b8381106115f5575050506040608082600082819588010152601f8019910116850101930152565b8181018301518682016080015282016115ce565b600c5481101561164057600c6000527fdf6966c971051c3d54ec59162606531493a51404a002842f56009d7e5cf4a8c70190600090565b634e487b7160e01b600052603260045260246000fd5b600c549060005b82811061166c57505050600090565b61167581611609565b906001600160a01b0390548185169260031b1c16146116965760010161165d565b505050600190565b9060048110156105595760ff80198354169116179055565b6001600160a01b036000541633036116ca57565b606460405162461bcd60e51b815260206004820152602060248201527f4f776e61626c653a2063616c6c6572206973206e6f7420746865206f776e65726044820152fd5b9190820391821161054357565b818102929181159184041417156105435756fea2646970667358221220ec1afcda05007350787e89c8808fd4947b2cd7f785ae2c939b05ff6151a64f2064736f6c63430008180033",
          "opcodes": "PUSH1 0xA0 CALLVALUE PUSH2 0x141 JUMPI PUSH1 0x1F PUSH2 0x18D5 CODESIZE DUP2 SWAP1 SUB SWAP2 DUP3 ADD PUSH1 0x1F NOT AND DUP4 ADD SWAP2 PUSH1 0x1 PUSH1 0x1 PUSH1 0x40 SHL SUB DUP4 GT DUP5 DUP5 LT OR PUSH2 0x146 JUMPI DUP1 DUP5 SWAP3 PUSH1 0x40 SWAP5 DUP6 MSTORE DUP4 CODECOPY DUP2 ADD SUB SLT PUSH2 0x141 JUMPI PUSH2 0x52 PUSH1 0x20 PUSH2 0x4B DUP4 PUSH2 0x15C JUMP JUMPDEST SWAP3 ADD PUSH2 0x15C JUMP JUMPDEST PUSH1 0x1 DUP1 SLOAD PUSH1 0x1 PUSH1 0x1 PUSH1 0xA0 SHL SUB NOT SWAP1 DUP2 AND SWAP1 SWAP2 SSTORE PUSH1 0x0 DUP1 SLOAD CALLER DUP2 DUP5 AND DUP2 OR DUP4 SSTORE PUSH1 0x40 MLOAD SWAP6 PUSH1 0x1 PUSH1 0x1 PUSH1 0xA0 SHL SUB SWAP6 SWAP5 SWAP4 DUP7 SWAP4 SWAP2 SWAP3 SWAP2 DUP5 AND SWAP1 PUSH32 0x8BE0079C531659141344CD1FD0A4F28419497F9722A3DAAFE3B4186F6B6457E0 SWAP1 DUP1 LOG3 PUSH16 0x13D397D093D49493D5D7D351551213D1 PUSH1 0x82 SHL PUSH1 0x2 SSTORE PUSH15 0x13D397D49154105657D351551213D1 PUSH1 0x8A SHL PUSH1 0x3 SSTORE PUSH17 0x13D397D111519055531517D351551213D1 PUSH1 0x7A SHL PUSH1 0x4 SSTORE PUSH1 0x7 DUP1 SLOAD PUSH1 0xFF NOT AND PUSH1 0x50 OR SWAP1 SSTORE PUSH1 0x5 DUP1 SLOAD PUSH4 0xFFFFFFFF NOT AND PUSH1 0x1 OR SWAP1 SSTORE PUSH1 0xD DUP1 SLOAD SWAP1 SWAP4 AND SWAP2 AND OR SWAP1 SSTORE AND PUSH1 0x80 MSTORE PUSH2 0x1764 SWAP1 DUP2 PUSH2 0x171 DUP3 CODECOPY PUSH1 0x80 MLOAD DUP2 DUP2 DUP2 PUSH2 0x28B ADD MSTORE DUP2 DUP2 PUSH2 0x42D ADD MSTORE PUSH2 0xC3C ADD MSTORE RETURN JUMPDEST PUSH1 0x0 DUP1 REVERT JUMPDEST PUSH4 0x4E487B71 PUSH1 0xE0 SHL PUSH1 0x0 MSTORE PUSH1 0x41 PUSH1 0x4 MSTORE PUSH1 0x24 PUSH1 0x0 REVERT JUMPDEST MLOAD SWAP1 PUSH1 0x1 PUSH1 0x1 PUSH1 0xA0 SHL SUB DUP3 AND DUP3 SUB PUSH2 0x141 JUMPI JUMP INVALID PUSH1 0x80 PUSH1 0x40 MSTORE PUSH1 0x4 CALLDATASIZE LT ISZERO PUSH2 0x12 JUMPI PUSH1 0x0 DUP1 REVERT JUMPDEST PUSH1 0x0 CALLDATALOAD PUSH1 0xE0 SHR DUP1 PUSH4 0x13D80C1E EQ PUSH2 0x11EC JUMPI DUP1 PUSH4 0x418BD4B6 EQ PUSH2 0xE7E JUMPI DUP1 PUSH4 0x563DD613 EQ PUSH2 0xA29 JUMPI DUP1 PUSH4 0x6D69FCAF EQ PUSH2 0x9BF JUMPI DUP1 PUSH4 0x715018A6 EQ PUSH2 0x950 JUMPI DUP1 PUSH4 0x75F5172E EQ PUSH2 0x915 JUMPI DUP1 PUSH4 0x79BA5097 EQ PUSH2 0x834 JUMPI DUP1 PUSH4 0x8DA5CB5B EQ PUSH2 0x80D JUMPI DUP1 PUSH4 0x9C112790 EQ PUSH2 0x7D4 JUMPI DUP1 PUSH4 0xD80B52B6 EQ PUSH2 0x144 JUMPI DUP1 PUSH4 0xE30C3978 EQ PUSH2 0x11D JUMPI PUSH4 0xF2FDE38B EQ PUSH2 0xA0 JUMPI PUSH1 0x0 DUP1 REVERT JUMPDEST CALLVALUE PUSH2 0x118 JUMPI PUSH1 0x20 CALLDATASIZE PUSH1 0x3 NOT ADD SLT PUSH2 0x118 JUMPI PUSH1 0x4 CALLDATALOAD PUSH1 0x1 PUSH1 0x1 PUSH1 0xA0 SHL SUB DUP1 DUP3 AND DUP1 SWAP3 SUB PUSH2 0x118 JUMPI PUSH2 0xCE PUSH2 0x16B6 JUMP JUMPDEST DUP2 PUSH20 0xFFFFFFFFFFFFFFFFFFFFFFFFFFFFFFFFFFFFFFFF NOT PUSH1 0x1 SLOAD AND OR PUSH1 0x1 SSTORE PUSH1 0x0 SLOAD AND PUSH32 0x38D16B8CAC22D99FC7C124B9CD0DE2D3FA1FAEF420BFE791D8C362D765E22700 PUSH1 0x0 DUP1 LOG3 STOP JUMPDEST PUSH1 0x0 DUP1 REVERT JUMPDEST CALLVALUE PUSH2 0x118 JUMPI PUSH1 0x0 CALLDATASIZE PUSH1 0x3 NOT ADD SLT PUSH2 0x118 JUMPI PUSH1 0x20 PUSH1 0x1 PUSH1 0x1 PUSH1 0xA0 SHL SUB PUSH1 0x1 SLOAD AND PUSH1 0x40 MLOAD SWAP1 DUP2 MSTORE RETURN JUMPDEST PUSH1 0xA0 CALLDATASIZE PUSH1 0x3 NOT ADD SLT PUSH2 0x118 JUMPI PUSH2 0x158 PUSH2 0x13FF JUMP JUMPDEST PUSH1 0x64 SWAP1 PUSH1 0x40 MLOAD SWAP1 PUSH4 0x2E7682C7 PUSH1 0xE1 SHL DUP3 MSTORE PUSH1 0x24 CALLDATALOAD PUSH1 0x4 DUP4 ADD MSTORE PUSH1 0x20 DUP3 PUSH1 0x24 DUP2 PUSH20 0x0 GAS DELEGATECALL SWAP2 DUP3 ISZERO PUSH2 0x5A3 JUMPI PUSH1 0x0 SWAP3 PUSH2 0x7A3 JUMPI JUMPDEST POP PUSH2 0x1A7 DUP3 PUSH2 0x1656 JUMP JUMPDEST ISZERO PUSH2 0x760 JUMPI PUSH1 0x40 MLOAD PUSH4 0x23B872DD PUSH1 0xE0 SHL DUP2 MSTORE CALLER PUSH1 0x4 DUP3 ADD MSTORE ADDRESS PUSH1 0x24 DUP3 ADD MSTORE DUP4 CALLDATALOAD PUSH1 0x44 DUP3 ADD MSTORE SWAP2 PUSH1 0x1 PUSH1 0x1 PUSH1 0xA0 SHL SUB SWAP1 PUSH1 0x20 SWAP1 DUP5 SWAP1 PUSH1 0x64 SWAP1 DUP3 SWAP1 PUSH1 0x0 SWAP1 DUP7 AND GAS CALL SWAP3 DUP4 ISZERO PUSH2 0x5A3 JUMPI DUP5 SWAP4 PUSH2 0x731 JUMPI JUMPDEST POP PUSH1 0x20 DUP2 PUSH1 0xD SLOAD AND PUSH1 0x40 MLOAD SWAP6 DUP7 DUP1 SWAP3 PUSH32 0xF52B31F100000000000000000000000000000000000000000000000000000000 DUP3 MSTORE PUSH1 0x24 CALLDATALOAD PUSH1 0x4 DUP4 ADD MSTORE PUSH1 0x44 CALLDATALOAD PUSH1 0x24 DUP4 ADD MSTORE DUP3 CALLDATALOAD PUSH1 0x44 DUP4 ADD MSTORE GAS STATICCALL SWAP4 DUP5 ISZERO PUSH2 0x5A3 JUMPI PUSH1 0x0 SWAP5 PUSH2 0x6FD JUMPI JUMPDEST POP PUSH1 0xFF PUSH1 0x7 SLOAD AND DUP4 DUP2 GT PUSH2 0x694 JUMPI DUP4 PUSH2 0x26B PUSH2 0x273 SWAP3 DUP8 PUSH2 0x171B JUMP JUMPDEST DIV DUP1 SWAP6 PUSH2 0x170E JUMP JUMPDEST POP PUSH1 0x40 MLOAD SWAP1 PUSH4 0x1A90A219 PUSH1 0xE0 SHL DUP3 MSTORE PUSH1 0x20 DUP3 PUSH1 0x4 DUP2 DUP5 PUSH32 0x0 AND GAS STATICCALL SWAP2 DUP3 ISZERO PUSH2 0x5A3 JUMPI PUSH1 0x0 SWAP3 PUSH2 0x660 JUMPI JUMPDEST POP PUSH2 0x2C9 DUP3 CALLVALUE LT ISZERO PUSH2 0x1543 JUMP JUMPDEST PUSH1 0x40 MLOAD SWAP5 PUSH4 0x82C947B7 PUSH1 0xE0 SHL DUP7 MSTORE ADDRESS PUSH1 0x4 DUP8 ADD MSTORE PUSH1 0x20 DUP7 PUSH1 0x24 DUP2 PUSH20 0x0 GAS DELEGATECALL SWAP6 DUP7 ISZERO PUSH2 0x5A3 JUMPI PUSH1 0x0 SWAP7 PUSH2 0x62C JUMPI JUMPDEST POP PUSH2 0xFFFF DUP5 AND PUSH1 0x0 MSTORE PUSH1 0x8 PUSH1 0x20 MSTORE PUSH1 0x40 PUSH1 0x0 KECCAK256 SLOAD PUSH4 0xFFFFFFFF PUSH1 0x5 SLOAD AND PUSH1 0x40 MLOAD PUSH1 0x20 DUP2 ADD SWAP2 CALLER DUP4 MSTORE PUSH1 0x84 CALLDATALOAD PUSH1 0x40 DUP4 ADD MSTORE PUSH1 0x60 DUP3 ADD MSTORE TIMESTAMP PUSH1 0x80 DUP3 ADD MSTORE PUSH1 0x80 DUP2 MSTORE PUSH2 0x351 DUP2 PUSH2 0x1467 JUMP JUMPDEST MLOAD SWAP1 KECCAK256 SWAP7 PUSH1 0x2 SLOAD SWAP6 PUSH1 0x40 MLOAD SWAP1 PUSH4 0x82C947B7 PUSH1 0xE0 SHL DUP3 MSTORE CALLER PUSH1 0x4 DUP4 ADD MSTORE PUSH1 0x20 DUP3 PUSH1 0x24 DUP2 PUSH20 0x0 GAS DELEGATECALL DUP1 ISZERO PUSH2 0x5A3 JUMPI PUSH1 0x0 SWAP1 PUSH2 0x5F8 JUMPI JUMPDEST PUSH2 0xFFFF SWAP3 POP PUSH1 0x40 MLOAD SWAP9 PUSH1 0x20 DUP11 ADD MSTORE DUP11 PUSH1 0x40 DUP11 ADD MSTORE PUSH1 0x60 DUP10 ADD MSTORE PUSH1 0x84 CALLDATALOAD PUSH1 0x80 DUP10 ADD MSTORE AND PUSH1 0xA0 DUP8 ADD MSTORE PUSH1 0xC0 DUP7 ADD MSTORE PUSH1 0xE0 DUP6 ADD MSTORE PUSH1 0x44 CALLDATALOAD PUSH2 0x100 DUP6 ADD MSTORE PUSH2 0x120 SWAP1 DUP2 DUP6 ADD MSTORE DUP4 MSTORE PUSH2 0x140 SWAP1 DUP2 DUP5 ADD SWAP3 DUP5 DUP5 LT PUSH8 0xFFFFFFFFFFFFFFFF DUP6 GT OR PUSH2 0x5E2 JUMPI PUSH1 0x20 SWAP2 DUP5 DUP1 SWAP3 DUP2 PUSH1 0x40 MSTORE PUSH4 0xFFFFFFFF PUSH1 0x5 SLOAD AND PUSH4 0x58CD21BF PUSH1 0xE1 SHL DUP4 MSTORE DUP9 PUSH2 0x428 DUP2 PUSH2 0x13F NOT SWAP4 PUSH2 0x144 DUP3 ADD PUSH2 0x15AE JUMP JUMPDEST SUB ADD SWAP3 PUSH32 0x0 AND GAS CALL DUP1 ISZERO PUSH2 0x5A3 JUMPI PUSH2 0x5AF JUMPI JUMPDEST POP POP POP PUSH1 0x40 MLOAD SWAP1 PUSH4 0x82C947B7 PUSH1 0xE0 SHL DUP3 MSTORE CALLER PUSH1 0x4 DUP4 ADD MSTORE PUSH1 0x20 DUP3 PUSH1 0x24 DUP2 PUSH20 0x0 GAS DELEGATECALL SWAP2 DUP3 ISZERO PUSH2 0x5A3 JUMPI PUSH1 0x0 SWAP3 PUSH2 0x56F JUMPI JUMPDEST POP PUSH1 0x40 MLOAD SWAP2 PUSH2 0x4AB DUP4 PUSH2 0x1467 JUMP JUMPDEST DUP3 MSTORE PUSH1 0x20 DUP3 ADD SWAP1 PUSH1 0x24 CALLDATALOAD DUP3 MSTORE PUSH1 0x40 DUP4 ADD SWAP1 CALLDATALOAD DUP2 MSTORE PUSH1 0x60 DUP4 ADD SWAP1 PUSH1 0x1 DUP3 MSTORE PUSH1 0x80 DUP5 ADD SWAP3 TIMESTAMP DUP5 MSTORE DUP6 PUSH1 0x0 MSTORE PUSH1 0x9 PUSH1 0x20 MSTORE PUSH1 0x40 PUSH1 0x0 KECCAK256 SWAP5 MLOAD DUP6 SSTORE MLOAD PUSH1 0x1 DUP6 ADD SSTORE MLOAD PUSH1 0x2 DUP5 ADD SSTORE MLOAD SWAP1 PUSH1 0x4 DUP3 LT ISZERO PUSH2 0x559 JUMPI PUSH2 0x508 PUSH1 0x4 SWAP3 PUSH1 0x3 DUP6 ADD PUSH2 0x169E JUMP JUMPDEST MLOAD SWAP2 ADD SSTORE PUSH1 0x5 SLOAD SWAP1 PUSH4 0xFFFFFFFF DUP3 AND SWAP2 PUSH4 0xFFFFFFFF DUP4 EQ PUSH2 0x543 JUMPI PUSH4 0xFFFFFFFF PUSH1 0x1 PUSH1 0x20 SWAP5 ADD AND SWAP1 PUSH4 0xFFFFFFFF NOT AND OR PUSH1 0x5 SSTORE PUSH1 0x40 MLOAD SWAP1 DUP2 MSTORE RETURN JUMPDEST PUSH4 0x4E487B71 PUSH1 0xE0 SHL PUSH1 0x0 MSTORE PUSH1 0x11 PUSH1 0x4 MSTORE PUSH1 0x24 PUSH1 0x0 REVERT JUMPDEST PUSH4 0x4E487B71 PUSH1 0xE0 SHL PUSH1 0x0 MSTORE PUSH1 0x21 PUSH1 0x4 MSTORE PUSH1 0x24 PUSH1 0x0 REVERT JUMPDEST SWAP1 SWAP2 POP PUSH1 0x20 DUP2 RETURNDATASIZE PUSH1 0x20 GT PUSH2 0x59B JUMPI JUMPDEST DUP2 PUSH2 0x58B PUSH1 0x20 SWAP4 DUP4 PUSH2 0x149F JUMP JUMPDEST DUP2 ADD SUB SLT PUSH2 0x118 JUMPI MLOAD SWAP1 DUP4 PUSH2 0x49D JUMP JUMPDEST RETURNDATASIZE SWAP2 POP PUSH2 0x57E JUMP JUMPDEST PUSH1 0x40 MLOAD RETURNDATASIZE PUSH1 0x0 DUP3 RETURNDATACOPY RETURNDATASIZE SWAP1 REVERT JUMPDEST PUSH2 0x5D1 SWAP3 PUSH1 0x20 SWAP1 RETURNDATASIZE PUSH1 0x20 GT PUSH2 0x5DA JUMPI JUMPDEST PUSH2 0x5C9 DUP3 DUP6 PUSH2 0x149F JUMP JUMPDEST ADD ADD SWAP1 PUSH2 0x158E JUMP JUMPDEST POP DUP3 DUP1 DUP1 PUSH2 0x45A JUMP JUMPDEST RETURNDATASIZE SWAP2 POP PUSH2 0x5BF JUMP JUMPDEST PUSH4 0x4E487B71 PUSH1 0xE0 SHL PUSH1 0x0 MSTORE PUSH1 0x41 PUSH1 0x4 MSTORE PUSH1 0x24 PUSH1 0x0 REVERT JUMPDEST POP PUSH1 0x20 DUP3 RETURNDATASIZE PUSH1 0x20 GT PUSH2 0x624 JUMPI JUMPDEST DUP2 PUSH2 0x612 PUSH1 0x20 SWAP4 DUP4 PUSH2 0x149F JUMP JUMPDEST DUP2 ADD SUB SLT PUSH2 0x118 JUMPI PUSH2 0xFFFF SWAP2 MLOAD PUSH2 0x398 JUMP JUMPDEST RETURNDATASIZE SWAP2 POP PUSH2 0x605 JUMP JUMPDEST SWAP1 SWAP6 POP PUSH1 0x20 DUP2 RETURNDATASIZE PUSH1 0x20 GT PUSH2 0x658 JUMPI JUMPDEST DUP2 PUSH2 0x648 PUSH1 0x20 SWAP4 DUP4 PUSH2 0x149F JUMP JUMPDEST DUP2 ADD SUB SLT PUSH2 0x118 JUMPI MLOAD SWAP5 DUP7 PUSH2 0x309 JUMP JUMPDEST RETURNDATASIZE SWAP2 POP PUSH2 0x63B JUMP JUMPDEST SWAP1 SWAP2 POP PUSH1 0x20 DUP2 RETURNDATASIZE PUSH1 0x20 GT PUSH2 0x68C JUMPI JUMPDEST DUP2 PUSH2 0x67C PUSH1 0x20 SWAP4 DUP4 PUSH2 0x149F JUMP JUMPDEST DUP2 ADD SUB SLT PUSH2 0x118 JUMPI MLOAD SWAP1 DUP6 PUSH2 0x2BC JUMP JUMPDEST RETURNDATASIZE SWAP2 POP PUSH2 0x66F JUMP JUMPDEST PUSH1 0x84 DUP5 PUSH32 0x2031303000000000000000000000000000000000000000000000000000000000 PUSH1 0x40 MLOAD SWAP2 PUSH3 0x461BCD PUSH1 0xE5 SHL DUP4 MSTORE PUSH1 0x20 PUSH1 0x4 DUP5 ADD MSTORE PUSH1 0x24 DUP1 DUP5 ADD MSTORE PUSH32 0x50657263656E74616765206D757374206265206265747765656E203020616E64 PUSH1 0x44 DUP5 ADD MSTORE DUP3 ADD MSTORE REVERT JUMPDEST SWAP1 SWAP4 POP PUSH1 0x20 DUP2 RETURNDATASIZE PUSH1 0x20 GT PUSH2 0x729 JUMPI JUMPDEST DUP2 PUSH2 0x719 PUSH1 0x20 SWAP4 DUP4 PUSH2 0x149F JUMP JUMPDEST DUP2 ADD SUB SLT PUSH2 0x118 JUMPI MLOAD SWAP3 DUP5 PUSH2 0x24F JUMP JUMPDEST RETURNDATASIZE SWAP2 POP PUSH2 0x70C JUMP JUMPDEST PUSH2 0x752 SWAP1 PUSH1 0x20 RETURNDATASIZE PUSH1 0x20 GT PUSH2 0x759 JUMPI JUMPDEST PUSH2 0x74A DUP2 DUP4 PUSH2 0x149F JUMP JUMPDEST DUP2 ADD SWAP1 PUSH2 0x152B JUMP JUMPDEST POP DUP5 PUSH2 0x1F5 JUMP JUMPDEST POP RETURNDATASIZE PUSH2 0x740 JUMP JUMPDEST DUP3 PUSH1 0x40 MLOAD PUSH3 0x461BCD PUSH1 0xE5 SHL DUP2 MSTORE PUSH1 0x20 PUSH1 0x4 DUP3 ADD MSTORE PUSH1 0x13 PUSH1 0x24 DUP3 ADD MSTORE PUSH32 0x546F6B656E206E6F7420737570706F7274656400000000000000000000000000 PUSH1 0x44 DUP3 ADD MSTORE REVERT JUMPDEST PUSH2 0x7C6 SWAP2 SWAP3 POP PUSH1 0x20 RETURNDATASIZE PUSH1 0x20 GT PUSH2 0x7CD JUMPI JUMPDEST PUSH2 0x7BE DUP2 DUP4 PUSH2 0x149F JUMP JUMPDEST DUP2 ADD SWAP1 PUSH2 0x150C JUMP JUMPDEST SWAP1 DUP4 PUSH2 0x19D JUMP JUMPDEST POP RETURNDATASIZE PUSH2 0x7B4 JUMP JUMPDEST CALLVALUE PUSH2 0x118 JUMPI PUSH1 0x20 CALLDATASIZE PUSH1 0x3 NOT ADD SLT PUSH2 0x118 JUMPI PUSH1 0x4 CALLDATALOAD PUSH1 0x1 PUSH1 0x1 PUSH1 0xA0 SHL SUB DUP2 AND DUP2 SUB PUSH2 0x118 JUMPI PUSH2 0x803 PUSH1 0x20 SWAP2 PUSH2 0x1656 JUMP JUMPDEST PUSH1 0x40 MLOAD SWAP1 ISZERO ISZERO DUP2 MSTORE RETURN JUMPDEST CALLVALUE PUSH2 0x118 JUMPI PUSH1 0x0 CALLDATASIZE PUSH1 0x3 NOT ADD SLT PUSH2 0x118 JUMPI PUSH1 0x20 PUSH1 0x1 PUSH1 0x1 PUSH1 0xA0 SHL SUB PUSH1 0x0 SLOAD AND PUSH1 0x40 MLOAD SWAP1 DUP2 MSTORE RETURN JUMPDEST CALLVALUE PUSH2 0x118 JUMPI PUSH1 0x0 CALLDATASIZE PUSH1 0x3 NOT ADD SLT PUSH2 0x118 JUMPI PUSH1 0x1 SLOAD PUSH1 0x1 PUSH1 0x1 PUSH1 0xA0 SHL SUB CALLER DUP2 DUP4 AND SUB PUSH2 0x8AB JUMPI PUSH20 0xFFFFFFFFFFFFFFFFFFFFFFFFFFFFFFFFFFFFFFFF NOT DUP1 SWAP3 AND PUSH1 0x1 SSTORE PUSH1 0x0 SLOAD SWAP2 CALLER SWAP1 DUP4 AND OR PUSH1 0x0 SSTORE CALLER SWAP2 AND PUSH32 0x8BE0079C531659141344CD1FD0A4F28419497F9722A3DAAFE3B4186F6B6457E0 PUSH1 0x0 DUP1 LOG3 STOP JUMPDEST PUSH1 0x84 PUSH1 0x40 MLOAD PUSH3 0x461BCD PUSH1 0xE5 SHL DUP2 MSTORE PUSH1 0x20 PUSH1 0x4 DUP3 ADD MSTORE PUSH1 0x29 PUSH1 0x24 DUP3 ADD MSTORE PUSH32 0x4F776E61626C6532537465703A2063616C6C6572206973206E6F742074686520 PUSH1 0x44 DUP3 ADD MSTORE PUSH32 0x6E6577206F776E65720000000000000000000000000000000000000000000000 PUSH1 0x64 DUP3 ADD MSTORE REVERT JUMPDEST CALLVALUE PUSH2 0x118 JUMPI PUSH1 0x40 CALLDATASIZE PUSH1 0x3 NOT ADD SLT PUSH2 0x118 JUMPI PUSH2 0xFFFF PUSH2 0x931 PUSH2 0x13FF JUMP JUMPDEST PUSH2 0x939 PUSH2 0x16B6 JUMP JUMPDEST AND PUSH1 0x0 MSTORE PUSH1 0x8 PUSH1 0x20 MSTORE PUSH1 0x24 CALLDATALOAD PUSH1 0x40 PUSH1 0x0 KECCAK256 SSTORE PUSH1 0x0 DUP1 RETURN JUMPDEST CALLVALUE PUSH2 0x118 JUMPI PUSH1 0x0 CALLDATASIZE PUSH1 0x3 NOT ADD SLT PUSH2 0x118 JUMPI PUSH2 0x969 PUSH2 0x16B6 JUMP JUMPDEST PUSH1 0x0 PUSH1 0x1 PUSH1 0x1 PUSH1 0xA0 SHL SUB PUSH20 0xFFFFFFFFFFFFFFFFFFFFFFFFFFFFFFFFFFFFFFFF NOT DUP1 PUSH1 0x1 SLOAD AND PUSH1 0x1 SSTORE DUP3 SLOAD SWAP1 DUP2 AND DUP4 SSTORE AND PUSH32 0x8BE0079C531659141344CD1FD0A4F28419497F9722A3DAAFE3B4186F6B6457E0 DUP3 DUP1 LOG3 STOP JUMPDEST CALLVALUE PUSH2 0x118 JUMPI PUSH1 0x20 CALLDATASIZE PUSH1 0x3 NOT ADD SLT PUSH2 0x118 JUMPI PUSH1 0x4 CALLDATALOAD PUSH1 0x1 PUSH1 0x1 PUSH1 0xA0 SHL SUB SWAP1 DUP2 DUP2 AND DUP1 SWAP2 SUB PUSH2 0x118 JUMPI PUSH2 0x9EE PUSH2 0x16B6 JUMP JUMPDEST PUSH1 0xC SLOAD PUSH9 0x10000000000000000 DUP2 LT ISZERO PUSH2 0x5E2 JUMPI DUP1 PUSH1 0x1 PUSH2 0xA12 SWAP3 ADD PUSH1 0xC SSTORE PUSH2 0x1609 JUMP JUMPDEST SWAP1 SWAP3 DUP4 SLOAD SWAP2 PUSH1 0x3 SHL SWAP3 DUP4 SHL SWAP3 SHL NOT AND OR SWAP1 SSTORE PUSH1 0x0 DUP1 RETURN JUMPDEST PUSH1 0x20 CALLDATASIZE PUSH1 0x3 NOT ADD SLT PUSH2 0x118 JUMPI PUSH1 0x4 CALLDATALOAD PUSH1 0x0 MSTORE PUSH1 0xA PUSH1 0x20 MSTORE PUSH1 0x40 PUSH1 0x0 KECCAK256 PUSH1 0x6 PUSH1 0x40 MLOAD SWAP2 PUSH2 0xA54 DUP4 PUSH2 0x1483 JUMP JUMPDEST DUP1 SLOAD DUP4 MSTORE PUSH1 0x1 DUP2 ADD SLOAD PUSH1 0x20 DUP5 ADD MSTORE PUSH1 0x2 DUP2 ADD SLOAD PUSH1 0x40 DUP5 ADD MSTORE PUSH2 0xA80 PUSH1 0xFF PUSH1 0x3 DUP4 ADD SLOAD AND PUSH1 0x60 DUP6 ADD PUSH2 0x145B JUMP JUMPDEST PUSH1 0x4 DUP2 ADD SLOAD PUSH1 0x80 DUP5 ADD MSTORE PUSH1 0x5 DUP2 ADD SLOAD PUSH1 0xA0 DUP5 ADD MSTORE PUSH2 0xFFFF SWAP2 DUP3 SWAP2 ADD SLOAD AND PUSH1 0xC0 DUP4 ADD MSTORE PUSH1 0x60 DUP3 ADD MLOAD PUSH1 0x4 DUP2 LT ISZERO PUSH2 0x559 JUMPI PUSH1 0x1 PUSH2 0xABC SWAP2 EQ PUSH2 0x14C1 JUMP JUMPDEST DUP2 MLOAD SWAP2 PUSH1 0x40 MLOAD SWAP3 PUSH4 0x2E7682C7 PUSH1 0xE1 SHL DUP5 MSTORE PUSH1 0x4 DUP5 ADD MSTORE PUSH1 0x24 SWAP3 PUSH1 0x20 DUP2 DUP6 DUP2 PUSH20 0x0 GAS DELEGATECALL SWAP1 DUP2 ISZERO PUSH2 0x5A3 JUMPI PUSH1 0x0 SWAP2 PUSH2 0xE5F JUMPI JUMPDEST POP PUSH1 0x1 PUSH1 0x1 PUSH1 0xA0 SHL SUB SWAP1 DUP2 CALLER SWAP2 AND SUB PUSH2 0xE1B JUMPI PUSH6 0xF7CF9B8D0000 PUSH2 0xB44 PUSH1 0x40 DUP5 ADD MLOAD PUSH2 0xB3F PUSH1 0x80 DUP7 ADD MLOAD PUSH2 0xB39 PUSH1 0xA0 DUP9 ADD MLOAD SWAP2 TIMESTAMP PUSH2 0x170E JUMP JUMPDEST SWAP3 PUSH2 0x171B JUMP JUMPDEST PUSH2 0x171B JUMP JUMPDEST DIV PUSH1 0x40 DUP4 ADD MLOAD SWAP1 DUP2 ADD DUP1 SWAP2 GT PUSH2 0xE06 JUMPI PUSH1 0x20 DUP4 ADD MLOAD SWAP1 PUSH1 0x40 MLOAD SWAP2 PUSH4 0x2E7682C7 PUSH1 0xE1 SHL DUP4 MSTORE PUSH1 0x4 DUP4 ADD MSTORE PUSH1 0x20 DUP3 DUP8 DUP2 PUSH20 0x0 GAS DELEGATECALL SWAP2 DUP3 ISZERO PUSH2 0x5A3 JUMPI DUP4 SWAP3 PUSH1 0x20 SWAP3 PUSH2 0xBD4 SWAP3 PUSH1 0x0 SWAP3 PUSH2 0xDE7 JUMPI JUMPDEST POP PUSH1 0x40 MLOAD PUSH4 0x23B872DD PUSH1 0xE0 SHL DUP2 MSTORE CALLER PUSH1 0x4 DUP3 ADD MSTORE ADDRESS PUSH1 0x24 DUP3 ADD MSTORE PUSH1 0x44 DUP2 ADD SWAP2 SWAP1 SWAP2 MSTORE SWAP4 DUP5 SWAP3 DUP4 SWAP2 PUSH1 0x0 SWAP2 DUP4 SWAP1 PUSH1 0x64 DUP3 ADD SWAP1 JUMP JUMPDEST SUB SWAP4 AND GAS CALL DUP1 ISZERO PUSH2 0x5A3 JUMPI PUSH2 0xDC8 JUMPI JUMPDEST POP PUSH1 0x40 MLOAD PUSH4 0x82C947B7 PUSH1 0xE0 SHL DUP2 MSTORE ADDRESS PUSH1 0x4 DUP3 ADD MSTORE PUSH1 0x20 DUP2 DUP7 DUP2 PUSH20 0x0 GAS DELEGATECALL SWAP1 DUP2 ISZERO PUSH2 0x5A3 JUMPI PUSH1 0x0 SWAP2 PUSH2 0xD96 JUMPI JUMPDEST POP DUP4 PUSH1 0xC0 DUP5 ADD MLOAD AND PUSH1 0x0 MSTORE PUSH1 0x8 PUSH1 0x20 MSTORE PUSH1 0x40 PUSH1 0x0 KECCAK256 SLOAD SWAP2 PUSH32 0x0 AND SWAP2 PUSH1 0x40 MLOAD SWAP2 PUSH4 0x1A90A219 PUSH1 0xE0 SHL DUP4 MSTORE PUSH1 0x20 DUP4 PUSH1 0x4 DUP2 DUP8 GAS STATICCALL SWAP3 DUP4 ISZERO PUSH2 0x5A3 JUMPI PUSH1 0x0 SWAP4 PUSH2 0xD62 JUMPI JUMPDEST POP PUSH2 0xC8F DUP4 CALLVALUE EQ PUSH2 0x1543 JUMP JUMPDEST PUSH1 0x3 SLOAD SWAP6 PUSH1 0xC0 DUP7 ADD MLOAD AND PUSH1 0x40 MLOAD SWAP7 PUSH1 0x20 DUP9 ADD MSTORE PUSH1 0x4 CALLDATALOAD PUSH1 0x40 DUP9 ADD MSTORE PUSH1 0x60 DUP8 ADD MSTORE PUSH1 0x80 DUP7 ADD MSTORE PUSH1 0xA0 DUP6 ADD MSTORE PUSH1 0xA0 DUP5 MSTORE PUSH1 0xC0 DUP5 ADD SWAP5 DUP5 DUP7 LT PUSH8 0xFFFFFFFFFFFFFFFF DUP8 GT OR PUSH2 0xD4E JUMPI POP PUSH1 0x20 SWAP2 DUP6 DUP1 SWAP3 DUP2 PUSH1 0x40 MSTORE PUSH4 0xFFFFFFFF PUSH1 0x5 SLOAD AND PUSH4 0x58CD21BF PUSH1 0xE1 SHL DUP4 MSTORE DUP8 PUSH2 0xD05 DUP2 PUSH1 0xBF NOT SWAP4 PUSH1 0xC4 DUP3 ADD PUSH2 0x15AE JUMP JUMPDEST SUB ADD SWAP3 GAS CALL SWAP2 DUP3 ISZERO PUSH2 0x5A3 JUMPI PUSH1 0x2 SWAP4 PUSH1 0x60 SWAP4 PUSH2 0xD2B JUMPI JUMPDEST POP POP ADD MSTORE PUSH1 0x20 PUSH1 0x40 MLOAD PUSH1 0x1 DUP2 MSTORE RETURN JUMPDEST PUSH1 0xC0 PUSH2 0xD46 SWAP3 PUSH1 0x20 SWAP1 RETURNDATASIZE PUSH1 0x20 GT PUSH2 0x5DA JUMPI PUSH2 0x5C9 DUP3 DUP6 PUSH2 0x149F JUMP JUMPDEST POP DUP4 DUP1 PUSH2 0xD1C JUMP JUMPDEST PUSH4 0x4E487B71 PUSH1 0xE0 SHL PUSH1 0x0 MSTORE PUSH1 0x41 PUSH1 0x4 MSTORE PUSH1 0x0 REVERT JUMPDEST SWAP1 SWAP3 POP PUSH1 0x20 DUP2 RETURNDATASIZE PUSH1 0x20 GT PUSH2 0xD8E JUMPI JUMPDEST DUP2 PUSH2 0xD7E PUSH1 0x20 SWAP4 DUP4 PUSH2 0x149F JUMP JUMPDEST DUP2 ADD SUB SLT PUSH2 0x118 JUMPI MLOAD SWAP2 DUP8 PUSH2 0xC83 JUMP JUMPDEST RETURNDATASIZE SWAP2 POP PUSH2 0xD71 JUMP JUMPDEST SWAP1 POP PUSH1 0x20 DUP2 RETURNDATASIZE PUSH1 0x20 GT PUSH2 0xDC0 JUMPI JUMPDEST DUP2 PUSH2 0xDB1 PUSH1 0x20 SWAP4 DUP4 PUSH2 0x149F JUMP JUMPDEST DUP2 ADD SUB SLT PUSH2 0x118 JUMPI MLOAD DUP6 PUSH2 0xC23 JUMP JUMPDEST RETURNDATASIZE SWAP2 POP PUSH2 0xDA4 JUMP JUMPDEST PUSH2 0xDE0 SWAP1 PUSH1 0x20 RETURNDATASIZE PUSH1 0x20 GT PUSH2 0x759 JUMPI PUSH2 0x74A DUP2 DUP4 PUSH2 0x149F JUMP JUMPDEST POP DUP5 PUSH2 0xBE4 JUMP JUMPDEST PUSH2 0xDFF SWAP2 SWAP3 POP DUP5 RETURNDATASIZE DUP7 GT PUSH2 0x7CD JUMPI PUSH2 0x7BE DUP2 DUP4 PUSH2 0x149F JUMP JUMPDEST SWAP1 DUP10 PUSH2 0xBA1 JUMP JUMPDEST DUP5 PUSH4 0x4E487B71 PUSH1 0xE0 SHL PUSH1 0x0 MSTORE PUSH1 0x11 PUSH1 0x4 MSTORE PUSH1 0x0 REVERT JUMPDEST PUSH1 0x64 DUP5 PUSH1 0x11 PUSH1 0x40 MLOAD SWAP2 PUSH3 0x461BCD PUSH1 0xE5 SHL DUP4 MSTORE PUSH1 0x20 PUSH1 0x4 DUP5 ADD MSTORE DUP3 ADD MSTORE PUSH32 0x556E617574686F72697A6564206C6F616E000000000000000000000000000000 PUSH1 0x44 DUP3 ADD MSTORE REVERT JUMPDEST PUSH2 0xE78 SWAP2 POP PUSH1 0x20 RETURNDATASIZE PUSH1 0x20 GT PUSH2 0x7CD JUMPI PUSH2 0x7BE DUP2 DUP4 PUSH2 0x149F JUMP JUMPDEST DUP5 PUSH2 0xB00 JUMP JUMPDEST CALLVALUE PUSH2 0x118 JUMPI PUSH2 0x100 CALLDATASIZE PUSH1 0x3 NOT ADD SLT PUSH2 0x118 JUMPI PUSH2 0xE98 PUSH2 0x13EC JUMP JUMPDEST PUSH1 0x24 PUSH1 0x44 CALLDATALOAD SWAP1 PUSH1 0x64 CALLDATALOAD SWAP3 PUSH1 0x84 CALLDATALOAD SWAP1 PUSH2 0xFFFF SWAP1 DUP2 DUP4 AND DUP1 SWAP4 SUB PUSH2 0x118 JUMPI PUSH1 0xC4 CALLDATALOAD SWAP5 PUSH4 0xFFFFFFFF PUSH1 0xE4 CALLDATALOAD SWAP3 PUSH2 0xEC9 PUSH2 0x16B6 JUMP JUMPDEST AND SWAP5 DUP6 PUSH1 0x0 MSTORE PUSH1 0x20 SWAP7 PUSH1 0x6 DUP9 MSTORE PUSH2 0xEE8 PUSH1 0xFF PUSH1 0x40 PUSH1 0x0 KECCAK256 SLOAD AND ISZERO PUSH2 0x1410 JUMP JUMPDEST PUSH1 0x2 SLOAD DUP3 CALLDATALOAD SUB PUSH2 0x11A7 JUMPI DUP6 PUSH1 0x0 MSTORE PUSH1 0x8 DUP9 MSTORE PUSH1 0xA4 CALLDATALOAD PUSH1 0x40 PUSH1 0x0 KECCAK256 SLOAD SUB PUSH2 0x1164 JUMPI DUP3 PUSH1 0x0 MSTORE PUSH1 0xA DUP9 MSTORE PUSH1 0xFF PUSH1 0x3 PUSH1 0x40 PUSH1 0x0 KECCAK256 ADD SLOAD AND PUSH1 0x4 DUP2 LT ISZERO PUSH2 0x114F JUMPI PUSH2 0x110C JUMPI PUSH20 0x0 PUSH1 0x40 MLOAD SWAP1 PUSH4 0x2E7682C7 PUSH1 0xE1 SHL SWAP2 DUP3 DUP2 MSTORE DUP4 PUSH1 0x4 DUP3 ADD MSTORE DUP11 DUP2 DUP7 DUP2 DUP6 GAS DELEGATECALL SWAP3 DUP4 ISZERO PUSH2 0x5A3 JUMPI DUP6 DUP14 SWAP2 DUP14 SWAP4 PUSH1 0x0 SWAP7 PUSH2 0x10ED JUMPI JUMPDEST POP PUSH1 0x40 MLOAD SWAP5 DUP6 SWAP4 DUP5 SWAP3 DUP4 MSTORE PUSH1 0x4 DUP4 ADD MSTORE GAS DELEGATECALL SWAP1 DUP2 ISZERO PUSH2 0x5A3 JUMPI PUSH2 0xFD5 SWAP3 DUP12 SWAP3 DUP9 SWAP3 PUSH1 0x0 SWAP2 PUSH2 0x10D0 JUMPI JUMPDEST POP PUSH1 0x0 PUSH1 0x1 PUSH1 0x1 PUSH1 0xA0 SHL SUB PUSH1 0x40 MLOAD DUP1 SWAP8 DUP2 SWAP7 DUP3 SWAP6 PUSH4 0xA9059CBB PUSH1 0xE0 SHL DUP5 MSTORE PUSH1 0x4 DUP5 ADD PUSH1 0x20 SWAP1 SWAP4 SWAP3 SWAP2 SWAP4 PUSH1 0x1 PUSH1 0x1 PUSH1 0xA0 SHL SUB PUSH1 0x40 DUP3 ADD SWAP6 AND DUP2 MSTORE ADD MSTORE JUMP JUMPDEST SUB SWAP4 AND GAS CALL DUP1 ISZERO PUSH2 0x5A3 JUMPI PUSH2 0x10B3 JUMPI JUMPDEST POP DUP1 PUSH1 0x0 MSTORE PUSH1 0xB DUP9 MSTORE PUSH1 0x40 PUSH1 0x0 KECCAK256 SLOAD SWAP4 PUSH1 0x40 MLOAD SWAP10 PUSH2 0x1002 DUP12 PUSH2 0x1483 JUMP JUMPDEST DUP11 MSTORE DUP9 DUP11 ADD SWAP2 DUP3 MSTORE PUSH1 0x40 DUP11 ADD SWAP1 DUP2 MSTORE PUSH1 0x60 DUP11 ADD SWAP2 PUSH1 0x1 DUP4 MSTORE PUSH1 0x80 DUP12 ADD SWAP5 TIMESTAMP DUP7 MSTORE PUSH1 0xA0 DUP13 ADD SWAP7 DUP8 MSTORE PUSH1 0xC0 DUP13 ADD SWAP9 DUP10 MSTORE PUSH1 0x0 MSTORE PUSH1 0xA DUP11 MSTORE PUSH1 0x40 PUSH1 0x0 KECCAK256 SWAP11 MLOAD DUP12 SSTORE MLOAD PUSH1 0x1 DUP12 ADD SSTORE MLOAD PUSH1 0x2 DUP11 ADD SSTORE MLOAD SWAP1 PUSH1 0x4 DUP3 LT ISZERO PUSH2 0x109F JUMPI POP SWAP2 DUP8 SWAP2 PUSH2 0x106C PUSH1 0x6 SWAP10 SWAP5 PUSH1 0x3 DUP12 SWAP7 ADD PUSH2 0x169E JUMP JUMPDEST MLOAD PUSH1 0x4 DUP4 ADD SSTORE MLOAD PUSH1 0x5 DUP3 ADD SSTORE ADD SWAP2 MLOAD AND PUSH2 0xFFFF NOT DUP3 SLOAD AND OR SWAP1 SSTORE PUSH1 0x0 MSTORE MSTORE PUSH1 0x40 PUSH1 0x0 KECCAK256 PUSH1 0x1 PUSH1 0xFF NOT DUP3 SLOAD AND OR SWAP1 SSTORE PUSH1 0x0 DUP1 RETURN JUMPDEST PUSH4 0x4E487B71 PUSH1 0xE0 SHL PUSH1 0x0 MSTORE PUSH1 0x21 PUSH1 0x4 MSTORE PUSH1 0x0 REVERT JUMPDEST PUSH2 0x10C9 SWAP1 DUP10 RETURNDATASIZE DUP12 GT PUSH2 0x759 JUMPI PUSH2 0x74A DUP2 DUP4 PUSH2 0x149F JUMP JUMPDEST POP DUP10 PUSH2 0xFE5 JUMP JUMPDEST PUSH2 0x10E7 SWAP2 POP DUP5 RETURNDATASIZE DUP7 GT PUSH2 0x7CD JUMPI PUSH2 0x7BE DUP2 DUP4 PUSH2 0x149F JUMP JUMPDEST DUP15 PUSH2 0xF98 JUMP JUMPDEST PUSH2 0x1105 SWAP2 SWAP7 POP DUP5 RETURNDATASIZE DUP7 GT PUSH2 0x7CD JUMPI PUSH2 0x7BE DUP2 DUP4 PUSH2 0x149F JUMP JUMPDEST SWAP5 DUP16 PUSH2 0xF6F JUMP JUMPDEST PUSH1 0x64 DUP9 PUSH1 0x14 DUP5 PUSH1 0x40 MLOAD SWAP3 PUSH3 0x461BCD PUSH1 0xE5 SHL DUP5 MSTORE PUSH1 0x4 DUP5 ADD MSTORE DUP3 ADD MSTORE PUSH32 0x4C6F616E20616C72656164792063726561746564000000000000000000000000 PUSH1 0x44 DUP3 ADD MSTORE REVERT JUMPDEST DUP3 PUSH4 0x4E487B71 PUSH1 0xE0 SHL PUSH1 0x0 MSTORE PUSH1 0x21 PUSH1 0x4 MSTORE PUSH1 0x0 REVERT JUMPDEST PUSH1 0x64 DUP9 PUSH1 0x17 DUP5 PUSH1 0x40 MLOAD SWAP3 PUSH3 0x461BCD PUSH1 0xE5 SHL DUP5 MSTORE PUSH1 0x4 DUP5 ADD MSTORE DUP3 ADD MSTORE PUSH32 0x496E76616C696420666F726569676E206F72626974616C000000000000000000 PUSH1 0x44 DUP3 ADD MSTORE REVERT JUMPDEST PUSH1 0x40 MLOAD PUSH3 0x461BCD PUSH1 0xE5 SHL DUP2 MSTORE PUSH1 0x20 PUSH1 0x4 DUP3 ADD MSTORE PUSH1 0x10 PUSH1 0x24 DUP3 ADD MSTORE PUSH32 0x556E646566696E6564206D6574686F6400000000000000000000000000000000 PUSH1 0x44 DUP3 ADD MSTORE PUSH1 0x64 SWAP1 REVERT JUMPDEST CALLVALUE PUSH2 0x118 JUMPI PUSH1 0x60 CALLDATASIZE PUSH1 0x3 NOT ADD SLT PUSH2 0x118 JUMPI PUSH4 0xFFFFFFFF PUSH2 0x120A PUSH2 0x13EC JUMP JUMPDEST PUSH2 0x1212 PUSH2 0x16B6 JUMP JUMPDEST AND DUP1 PUSH1 0x0 MSTORE PUSH1 0x20 PUSH1 0x6 DUP2 MSTORE PUSH2 0x122F PUSH1 0xFF PUSH1 0x40 PUSH1 0x0 KECCAK256 SLOAD AND ISZERO PUSH2 0x1410 JUMP JUMPDEST PUSH1 0x3 SLOAD PUSH1 0x24 CALLDATALOAD SUB PUSH2 0x11A7 JUMPI PUSH1 0x44 CALLDATALOAD PUSH1 0x0 MSTORE PUSH1 0x9 DUP2 MSTORE PUSH1 0x40 PUSH1 0x0 KECCAK256 SWAP2 PUSH1 0x40 MLOAD SWAP3 PUSH2 0x1257 DUP5 PUSH2 0x1467 JUMP JUMPDEST DUP1 SLOAD DUP5 MSTORE PUSH1 0x1 DUP2 ADD SLOAD SWAP4 DUP4 DUP2 ADD SWAP5 DUP6 MSTORE PUSH1 0x2 DUP3 ADD SLOAD SWAP5 PUSH1 0x40 DUP3 ADD SWAP6 DUP7 MSTORE PUSH1 0x4 PUSH1 0xFF PUSH1 0x3 DUP6 ADD SLOAD AND SWAP4 PUSH2 0x128D PUSH1 0x60 DUP6 ADD SWAP6 DUP7 PUSH2 0x145B JUMP JUMPDEST ADD SLOAD PUSH1 0x80 DUP4 ADD MSTORE DUP3 MLOAD PUSH1 0x4 DUP2 LT ISZERO PUSH2 0x559 JUMPI PUSH1 0x1 PUSH2 0x12AB SWAP2 EQ PUSH2 0x14C1 JUMP JUMPDEST MLOAD SWAP1 PUSH20 0x0 SWAP2 PUSH1 0x40 MLOAD SWAP1 PUSH4 0x2E7682C7 PUSH1 0xE1 SHL SWAP1 DUP2 DUP4 MSTORE PUSH1 0x4 DUP4 ADD MSTORE DUP7 DUP3 PUSH1 0x24 DUP2 DUP8 GAS DELEGATECALL SWAP3 DUP4 ISZERO PUSH2 0x5A3 JUMPI DUP8 SWAP3 PUSH1 0x0 SWAP5 PUSH2 0x13CA JUMPI JUMPDEST POP PUSH1 0x24 SWAP1 MLOAD SWAP2 PUSH1 0x40 MLOAD SWAP6 DUP7 SWAP4 DUP5 SWAP3 DUP4 MSTORE PUSH1 0x4 DUP4 ADD MSTORE GAS DELEGATECALL SWAP1 DUP2 ISZERO PUSH2 0x5A3 JUMPI PUSH2 0x135C SWAP7 DUP7 SWAP4 PUSH1 0x0 SWAP4 PUSH2 0x13AB JUMPI JUMPDEST POP MLOAD SWAP2 PUSH1 0x0 PUSH1 0x1 PUSH1 0x1 PUSH1 0xA0 SHL SUB PUSH1 0x40 MLOAD DUP1 SWAP11 DUP2 SWAP7 DUP3 SWAP6 PUSH4 0xA9059CBB PUSH1 0xE0 SHL DUP5 MSTORE PUSH1 0x4 DUP5 ADD PUSH1 0x20 SWAP1 SWAP4 SWAP3 SWAP2 SWAP4 PUSH1 0x1 PUSH1 0x1 PUSH1 0xA0 SHL SUB PUSH1 0x40 DUP3 ADD SWAP6 AND DUP2 MSTORE ADD MSTORE JUMP JUMPDEST SUB SWAP4 AND GAS CALL SWAP1 DUP2 ISZERO PUSH2 0x5A3 JUMPI PUSH1 0x6 SWAP5 PUSH1 0x2 SWAP3 PUSH2 0x138E JUMPI JUMPDEST POP MSTORE PUSH1 0x0 MSTORE MSTORE PUSH1 0x40 PUSH1 0x0 KECCAK256 PUSH1 0x1 PUSH1 0xFF NOT DUP3 SLOAD AND OR SWAP1 SSTORE PUSH1 0x0 DUP1 RETURN JUMPDEST PUSH2 0x13A4 SWAP1 DUP6 RETURNDATASIZE DUP8 GT PUSH2 0x759 JUMPI PUSH2 0x74A DUP2 DUP4 PUSH2 0x149F JUMP JUMPDEST POP DUP6 PUSH2 0x1373 JUMP JUMPDEST PUSH2 0x13C3 SWAP2 SWAP4 POP DUP5 RETURNDATASIZE DUP7 GT PUSH2 0x7CD JUMPI PUSH2 0x7BE DUP2 DUP4 PUSH2 0x149F JUMP JUMPDEST SWAP2 DUP9 PUSH2 0x131D JUMP JUMPDEST PUSH1 0x24 SWAP2 SWAP5 POP PUSH2 0x13E5 SWAP1 DUP5 RETURNDATASIZE DUP7 GT PUSH2 0x7CD JUMPI PUSH2 0x7BE DUP2 DUP4 PUSH2 0x149F JUMP JUMPDEST SWAP4 SWAP1 PUSH2 0x12F1 JUMP JUMPDEST PUSH1 0x4 CALLDATALOAD SWAP1 PUSH4 0xFFFFFFFF DUP3 AND DUP3 SUB PUSH2 0x118 JUMPI JUMP JUMPDEST PUSH1 0x4 CALLDATALOAD SWAP1 PUSH2 0xFFFF DUP3 AND DUP3 SUB PUSH2 0x118 JUMPI JUMP JUMPDEST ISZERO PUSH2 0x1417 JUMPI JUMP JUMPDEST PUSH1 0x64 PUSH1 0x40 MLOAD PUSH3 0x461BCD PUSH1 0xE5 SHL DUP2 MSTORE PUSH1 0x20 PUSH1 0x4 DUP3 ADD MSTORE PUSH1 0x1B PUSH1 0x24 DUP3 ADD MSTORE PUSH32 0x4E6F6E63652077617320616C72656164792065786563757465642E0000000000 PUSH1 0x44 DUP3 ADD MSTORE REVERT JUMPDEST PUSH1 0x4 DUP3 LT ISZERO PUSH2 0x559 JUMPI MSTORE JUMP JUMPDEST PUSH1 0xA0 DUP2 ADD SWAP1 DUP2 LT PUSH8 0xFFFFFFFFFFFFFFFF DUP3 GT OR PUSH2 0x5E2 JUMPI PUSH1 0x40 MSTORE JUMP JUMPDEST PUSH1 0xE0 DUP2 ADD SWAP1 DUP2 LT PUSH8 0xFFFFFFFFFFFFFFFF DUP3 GT OR PUSH2 0x5E2 JUMPI PUSH1 0x40 MSTORE JUMP JUMPDEST SWAP1 PUSH1 0x1F DUP1 NOT SWAP2 ADD AND DUP2 ADD SWAP1 DUP2 LT PUSH8 0xFFFFFFFFFFFFFFFF DUP3 GT OR PUSH2 0x5E2 JUMPI PUSH1 0x40 MSTORE JUMP JUMPDEST ISZERO PUSH2 0x14C8 JUMPI JUMP JUMPDEST PUSH1 0x64 PUSH1 0x40 MLOAD PUSH3 0x461BCD PUSH1 0xE5 SHL DUP2 MSTORE PUSH1 0x20 PUSH1 0x4 DUP3 ADD MSTORE PUSH1 0x12 PUSH1 0x24 DUP3 ADD MSTORE PUSH32 0x4C6F616E206973206E6F74206163746976650000000000000000000000000000 PUSH1 0x44 DUP3 ADD MSTORE REVERT JUMPDEST SWAP1 DUP2 PUSH1 0x20 SWAP2 SUB SLT PUSH2 0x118 JUMPI MLOAD PUSH1 0x1 PUSH1 0x1 PUSH1 0xA0 SHL SUB DUP2 AND DUP2 SUB PUSH2 0x118 JUMPI SWAP1 JUMP JUMPDEST SWAP1 DUP2 PUSH1 0x20 SWAP2 SUB SLT PUSH2 0x118 JUMPI MLOAD DUP1 ISZERO ISZERO DUP2 SUB PUSH2 0x118 JUMPI SWAP1 JUMP JUMPDEST ISZERO PUSH2 0x154A JUMPI JUMP JUMPDEST PUSH1 0x64 PUSH1 0x40 MLOAD PUSH3 0x461BCD PUSH1 0xE5 SHL DUP2 MSTORE PUSH1 0x20 PUSH1 0x4 DUP3 ADD MSTORE PUSH1 0x18 PUSH1 0x24 DUP3 ADD MSTORE PUSH32 0x496E73756666696369656E74206D657373616765206665650000000000000000 PUSH1 0x44 DUP3 ADD MSTORE REVERT JUMPDEST SWAP1 DUP2 PUSH1 0x20 SWAP2 SUB SLT PUSH2 0x118 JUMPI MLOAD PUSH8 0xFFFFFFFFFFFFFFFF DUP2 AND DUP2 SUB PUSH2 0x118 JUMPI SWAP1 JUMP JUMPDEST SWAP3 SWAP2 SWAP1 PUSH4 0xFFFFFFFF AND DUP4 MSTORE PUSH1 0x20 PUSH1 0x60 PUSH1 0x20 DUP6 ADD MSTORE DUP2 MLOAD SWAP2 DUP3 PUSH1 0x60 DUP7 ADD MSTORE PUSH1 0x0 JUMPDEST DUP4 DUP2 LT PUSH2 0x15F5 JUMPI POP POP POP PUSH1 0x40 PUSH1 0x80 DUP3 PUSH1 0x0 DUP3 DUP2 SWAP6 DUP9 ADD ADD MSTORE PUSH1 0x1F DUP1 NOT SWAP2 ADD AND DUP6 ADD ADD SWAP4 ADD MSTORE JUMP JUMPDEST DUP2 DUP2 ADD DUP4 ADD MLOAD DUP7 DUP3 ADD PUSH1 0x80 ADD MSTORE DUP3 ADD PUSH2 0x15CE JUMP JUMPDEST PUSH1 0xC SLOAD DUP2 LT ISZERO PUSH2 0x1640 JUMPI PUSH1 0xC PUSH1 0x0 MSTORE PUSH32 0xDF6966C971051C3D54EC59162606531493A51404A002842F56009D7E5CF4A8C7 ADD SWAP1 PUSH1 0x0 SWAP1 JUMP JUMPDEST PUSH4 0x4E487B71 PUSH1 0xE0 SHL PUSH1 0x0 MSTORE PUSH1 0x32 PUSH1 0x4 MSTORE PUSH1 0x24 PUSH1 0x0 REVERT JUMPDEST PUSH1 0xC SLOAD SWAP1 PUSH1 0x0 JUMPDEST DUP3 DUP2 LT PUSH2 0x166C JUMPI POP POP POP PUSH1 0x0 SWAP1 JUMP JUMPDEST PUSH2 0x1675 DUP2 PUSH2 0x1609 JUMP JUMPDEST SWAP1 PUSH1 0x1 PUSH1 0x1 PUSH1 0xA0 SHL SUB SWAP1 SLOAD DUP2 DUP6 AND SWAP3 PUSH1 0x3 SHL SHR AND EQ PUSH2 0x1696 JUMPI PUSH1 0x1 ADD PUSH2 0x165D JUMP JUMPDEST POP POP POP PUSH1 0x1 SWAP1 JUMP JUMPDEST SWAP1 PUSH1 0x4 DUP2 LT ISZERO PUSH2 0x559 JUMPI PUSH1 0xFF DUP1 NOT DUP4 SLOAD AND SWAP2 AND OR SWAP1 SSTORE JUMP JUMPDEST PUSH1 0x1 PUSH1 0x1 PUSH1 0xA0 SHL SUB PUSH1 0x0 SLOAD AND CALLER SUB PUSH2 0x16CA JUMPI JUMP JUMPDEST PUSH1 0x64 PUSH1 0x40 MLOAD PUSH3 0x461BCD PUSH1 0xE5 SHL DUP2 MSTORE PUSH1 0x20 PUSH1 0x4 DUP3 ADD MSTORE PUSH1 0x20 PUSH1 0x24 DUP3 ADD MSTORE PUSH32 0x4F776E61626C653A2063616C6C6572206973206E6F7420746865206F776E6572 PUSH1 0x44 DUP3 ADD MSTORE REVERT JUMPDEST SWAP2 SWAP1 DUP3 SUB SWAP2 DUP3 GT PUSH2 0x543 JUMPI JUMP JUMPDEST DUP2 DUP2 MUL SWAP3 SWAP2 DUP2 ISZERO SWAP2 DUP5 DIV EQ OR ISZERO PUSH2 0x543 JUMPI JUMP INVALID LOG2 PUSH5 0x6970667358 0x22 SLT KECCAK256 0xEC BYTE 0xFC 0xDA SDIV STOP PUSH20 0x50787E89C8808FD4947B2CD7F785AE2C939B05FF PUSH2 0x51A6 0x4F KECCAK256 PUSH5 0x736F6C6343 STOP ADDMOD XOR STOP CALLER "
        },
        "methodIdentifiers": {
          "_isTokenSupported(address)": "9c112790",
          "acceptOwnership()": "79ba5097",
          "addForeignOrbital(uint16,bytes32)": "75f5172e",
          "addSupportedToken(address)": "6d69fcaf",
          "borrow(uint16,bytes32,bytes32,uint256,bytes32)": "d80b52b6",
          "owner()": "8da5cb5b",
          "pendingOwner()": "e30c3978",
          "receiveOnBorrow(uint32,bytes32,bytes32,bytes32,uint16,bytes32,bytes32,uint256)": "418bd4b6",
          "receiveOnRepay(uint32,bytes32,bytes32)": "13d80c1e",
          "renounceOwnership()": "715018a6",
          "repay(bytes32)": "563dd613",
          "transferOwnership(address)": "f2fde38b"
        }
      }
    }
  }
}