{
  "contracts/Orbital.sol": {
    "Orbital": {
      "abi": [
        {
          "inputs": [
            {
              "internalType": "address",
              "name": "priceFeeds",
              "type": "address"
            },
            {
              "internalType": "address",
              "name": "wormhole",
              "type": "address"
            }
          ],
          "stateMutability": "nonpayable",
          "type": "constructor"
        },
        {
          "anonymous": false,
          "inputs": [
            {
              "indexed": true,
              "internalType": "address",
              "name": "previousOwner",
              "type": "address"
            },
            {
              "indexed": true,
              "internalType": "address",
              "name": "newOwner",
              "type": "address"
            }
          ],
          "name": "OwnershipTransferStarted",
          "type": "event"
        },
        {
          "anonymous": false,
          "inputs": [
            {
              "indexed": true,
              "internalType": "address",
              "name": "previousOwner",
              "type": "address"
            },
            {
              "indexed": true,
              "internalType": "address",
              "name": "newOwner",
              "type": "address"
            }
          ],
          "name": "OwnershipTransferred",
          "type": "event"
        },
        {
          "inputs": [
            {
              "internalType": "bytes32",
              "name": "tokenId",
              "type": "bytes32"
            }
          ],
          "name": "_isTokenSupported",
          "outputs": [
            {
              "internalType": "bool",
              "name": "",
              "type": "bool"
            }
          ],
          "stateMutability": "view",
          "type": "function"
        },
        {
          "inputs": [],
          "name": "acceptOwnership",
          "outputs": [],
          "stateMutability": "nonpayable",
          "type": "function"
        },
        {
          "inputs": [
            {
              "internalType": "uint16",
              "name": "chainId",
              "type": "uint16"
            },
            {
              "internalType": "bytes32",
              "name": "orbital",
              "type": "bytes32"
            }
          ],
          "name": "addForeignOrbital",
          "outputs": [],
          "stateMutability": "nonpayable",
          "type": "function"
        },
        {
          "inputs": [
            {
              "internalType": "address",
              "name": "token",
              "type": "address"
            }
          ],
          "name": "addSupportedToken",
          "outputs": [],
          "stateMutability": "nonpayable",
          "type": "function"
        },
        {
          "inputs": [
            {
              "internalType": "uint16",
              "name": "toChainId",
              "type": "uint16"
            },
            {
              "internalType": "bytes32",
              "name": "tokenIn",
              "type": "bytes32"
            },
            {
              "internalType": "bytes32",
              "name": "tokenOut",
              "type": "bytes32"
            },
            {
              "internalType": "uint256",
              "name": "value",
              "type": "uint256"
            },
            {
              "internalType": "bytes32",
              "name": "receiver",
              "type": "bytes32"
            }
          ],
          "name": "borrow",
          "outputs": [
            {
              "internalType": "bytes32",
              "name": "",
              "type": "bytes32"
            }
          ],
          "stateMutability": "payable",
          "type": "function"
        },
        {
          "inputs": [
            {
              "internalType": "bytes32",
              "name": "tokenIn",
              "type": "bytes32"
            },
            {
              "internalType": "bytes32",
              "name": "tokenOut",
              "type": "bytes32"
            },
            {
              "internalType": "uint256",
              "name": "amountIn",
              "type": "uint256"
            },
            {
              "internalType": "uint8",
              "name": "ltv",
              "type": "uint8"
            }
          ],
          "name": "getAmountOut",
          "outputs": [
            {
              "internalType": "uint256",
              "name": "",
              "type": "uint256"
            }
          ],
          "stateMutability": "view",
          "type": "function"
        },
        {
          "inputs": [],
          "name": "owner",
          "outputs": [
            {
              "internalType": "address",
              "name": "",
              "type": "address"
            }
          ],
          "stateMutability": "view",
          "type": "function"
        },
        {
          "inputs": [],
          "name": "pendingOwner",
          "outputs": [
            {
              "internalType": "address",
              "name": "",
              "type": "address"
            }
          ],
          "stateMutability": "view",
          "type": "function"
        },
        {
          "inputs": [
            {
              "internalType": "uint32",
              "name": "wormholeNonce",
              "type": "uint32"
            },
            {
              "internalType": "bytes32",
              "name": "loanId",
              "type": "bytes32"
            },
            {
              "internalType": "bytes32",
              "name": "receiver",
              "type": "bytes32"
            },
            {
              "internalType": "uint16",
              "name": "fromChainId",
              "type": "uint16"
            },
            {
              "internalType": "bytes32",
              "name": "fromContractId",
              "type": "bytes32"
            },
            {
              "internalType": "bytes32",
              "name": "tokenOut",
              "type": "bytes32"
            },
            {
              "internalType": "uint256",
              "name": "value",
              "type": "uint256"
            }
          ],
          "name": "receiveOnBorrow",
          "outputs": [],
          "stateMutability": "nonpayable",
          "type": "function"
        },
        {
          "inputs": [
            {
              "internalType": "uint32",
              "name": "wormholeNonce",
              "type": "uint32"
            },
            {
              "internalType": "bytes32",
              "name": "loanId",
              "type": "bytes32"
            }
          ],
          "name": "receiveOnRepay",
          "outputs": [],
          "stateMutability": "nonpayable",
          "type": "function"
        },
        {
          "inputs": [
            {
              "internalType": "uint32",
              "name": "wormholeNonce",
              "type": "uint32"
            },
            {
              "internalType": "bytes32",
              "name": "receiver",
              "type": "bytes32"
            },
            {
              "internalType": "bool",
              "name": "status",
              "type": "bool"
            }
          ],
          "name": "receiveOnStakeSuiFrens",
          "outputs": [],
          "stateMutability": "nonpayable",
          "type": "function"
        },
        {
          "inputs": [],
          "name": "renounceOwnership",
          "outputs": [],
          "stateMutability": "nonpayable",
          "type": "function"
        },
        {
          "inputs": [
            {
              "internalType": "bytes32",
              "name": "loanId",
              "type": "bytes32"
            }
          ],
          "name": "repay",
          "outputs": [
            {
              "internalType": "bool",
              "name": "",
              "type": "bool"
            }
          ],
          "stateMutability": "payable",
          "type": "function"
        },
        {
          "inputs": [
            {
              "internalType": "address",
              "name": "newOwner",
              "type": "address"
            }
          ],
          "name": "transferOwnership",
          "outputs": [],
          "stateMutability": "nonpayable",
          "type": "function"
        }
      ],
      "evm": {
        "bytecode": {
          "linkReferences": {
            "contracts/libraries/AddressToBytes32.sol": {
              "AddressToBytes32": [
                {
                  "length": 20,
                  "start": 836
                },
                {
                  "length": 20,
                  "start": 1060
                },
                {
                  "length": 20,
                  "start": 1267
                },
                {
                  "length": 20,
                  "start": 1411
                },
                {
                  "length": 20,
                  "start": 1676
                },
                {
                  "length": 20,
                  "start": 2750
                },
                {
                  "length": 20,
                  "start": 4193
                },
                {
                  "length": 20,
                  "start": 4534
                },
                {
                  "length": 20,
                  "start": 4686
                },
                {
                  "length": 20,
                  "start": 4825
                },
                {
                  "length": 20,
                  "start": 5648
                }
              ]
            }
          },
          "object": "60a03461014157601f611b4a38819003918201601f19168301916001600160401b0383118484101761014657808492604094855283398101031261014157610052602061004b8361015c565b920161015c565b600180546001600160a01b0319908116909155600080543381841681178355604051956001600160a01b0395949386939192918416907f8be0079c531659141344cd1fd0a4f28419497f9722a3daafe3b4186f6b6457e09080a36f13d397d093d49493d5d7d351551213d160821b6002556e13d397d49154105657d351551213d1608a1b6003557013d397d111519055531517d351551213d1607a1b6004556007805460ff191660501790556005805463ffffffff19166001179055600e80549093169116179055166080526119d990816101718239608051818181610328015281816104d001526111a50152f35b600080fd5b634e487b7160e01b600052604160045260246000fd5b51906001600160a01b03821682036101415756fe6080604052600436101561001257600080fd5b60003560e01c80630b3735fb146113e7578063563dd61314610f865780636d69fcaf14610ea8578063715018a614610e3957806375f5172e14610dfe57806379ba509714610d1d5780637b76ba8a14610c5f5780637fc9b2bb14610bd45780638299852c146108ab5780638da5cb5b14610884578063d80b52b614610182578063e30c39781461015b578063f2fde38b146100e35763f770a695146100b657600080fd5b346100de5760203660031901126100de5760206100d460043561185f565b6040519015158152f35b600080fd5b346100de5760203660031901126100de576004356001600160a01b038082168092036100de5761011161189b565b8173ffffffffffffffffffffffffffffffffffffffff196001541617600155600054167f38d16b8cac22d99fc7c124b9cd0de2d3fa1faef420bfe791d8c362d765e22700600080a3005b346100de5760003660031901126100de5760206001600160a01b0360015416604051908152f35b60a03660031901126100de576101966115ef565b6101a160243561185f565b15610840576101b160443561185f565b156107fc57604051632e7682c760e11b8152602435600482015260208160248173__$cd1346a8e2955df852b4501a7004a2b636$__5af4908115610643576000916107cd575b506040516323b872dd60e01b81523360048201523060248201526064803560448301529091602091839182906000906001600160a01b03165af180156106435761079e575b506001600160a01b03600e54166020604051809263f52b31f160e01b82528180610282606435604435602435600485016040919493926060820195825260208201520152565b03915afa9081156106435760009161076c575b5060006040516382c947b760e01b815233600482015260208160248173__$cd1346a8e2955df852b4501a7004a2b636$__5af49081156106435760009161073a575b50600052600b60205260ff60406000205416610732575b60ff806007541691160160ff81116105e55761030991611913565b5090604051631a90a21960e01b81526020816004816001600160a01b037f0000000000000000000000000000000000000000000000000000000000000000165afa90811561064357600091610700575b5061036681341015611734565b604051926382c947b760e01b845230600485015260208460248173__$cd1346a8e2955df852b4501a7004a2b636$__5af4938415610643576000946106cc575b5061ffff8316600052600860205260406000205463ffffffff60055416604051602081019133835260843560408301526060820152426080820152608081526103ee81611657565b5190209460025494604051906382c947b760e01b825233600483015260208260248173__$cd1346a8e2955df852b4501a7004a2b636$__5af4801561064357600090610698575b61ffff9250604051976020890152886040890152606088015260843560808801521660a086015260c085015260e0840152604435610100840152610120908184015282526101408083019183831067ffffffffffffffff8411176106825782602091816040528163ffffffff600554166358cd21bf60e11b8252876104c38161013f1993610144820161179f565b0301916001600160a01b037f0000000000000000000000000000000000000000000000000000000000000000165af180156106435761064f575b5050506040516382c947b760e01b815233600482015260208160248173__$cd1346a8e2955df852b4501a7004a2b636$__5af490811561064357600091610611575b506040519061054d82611657565b81526020810160243581526040820160643581526060830190600182526080840192428452856000526009602052604060002094518555516001850155516002840155519060048210156105fb576105aa60049260038501611847565b519101556005549063ffffffff82169163ffffffff83146105e55763ffffffff600160209401169063ffffffff191617600555604051908152f35b634e487b7160e01b600052601160045260246000fd5b634e487b7160e01b600052602160045260246000fd5b90506020813d60201161063b575b8161062c60209383611690565b810103126100de57518261053f565b3d915061061f565b6040513d6000823e3d90fd5b610671926020903d60201161067a575b6106698285611690565b01019061177f565b508180806104fd565b3d915061065f565b634e487b7160e01b600052604160045260246000fd5b506020823d6020116106c4575b816106b260209383611690565b810103126100de5761ffff9151610435565b3d91506106a5565b9093506020813d6020116106f8575b816106e860209383611690565b810103126100de575192846103a6565b3d91506106db565b90506020813d60201161072a575b8161071b60209383611690565b810103126100de575183610359565b3d915061070e565b50600a6102ee565b90506020813d602011610764575b8161075560209383611690565b810103126100de5751846102d7565b3d9150610748565b90506020813d602011610796575b8161078760209383611690565b810103126100de575182610295565b3d915061077a565b6107bf9060203d6020116107c6575b6107b78183611690565b81019061171c565b508161023c565b503d6107ad565b6107ef915060203d6020116107f5575b6107e78183611690565b8101906116fd565b826101f7565b503d6107dd565b606460405162461bcd60e51b815260206004820152601760248201527f546f6b656e206f7574206e6f7420737570706f727465640000000000000000006044820152fd5b606460405162461bcd60e51b815260206004820152601660248201527f546f6b656e20696e206e6f7420737570706f72746564000000000000000000006044820152fd5b346100de5760003660031901126100de5760206001600160a01b0360005416604051908152f35b346100de5760e03660031901126100de576108c46115dc565b602490813591604435916064359061ffff908183168093036100de5760a4359563ffffffff60c435926108f561189b565b1694856000526020966006885261091460ff6040600020541615611600565b856000526008885260843560406000205403610b915782600052600a885260ff600460406000200154166004811015610b7c57610b395773__$cd1346a8e2955df852b4501a7004a2b636$__60405190632e7682c760e11b918281528b60048201528a818681855af4928315610643578b91600094610b1a575b50856040518094819382528760048301525af4908115610643576109f5928b928892600091610afd575b5060006001600160a01b0360405180978196829563a9059cbb60e01b845260048401602090939291936001600160a01b0360408201951681520152565b0393165af1801561064357610ae0575b5088600052600c88526040600020549360405199610a228b611673565b848b52898b0192835260408b0190815260608b0191825260808b01926001845260a08c019542875260c08d0197885260e08d01998a52600052600a8b5260406000209b518c555160018c01555160028b01555160038a015551906004821015610acc5750918791610a9a600794600460069b01611847565b51600583015551878201550191511661ffff19825416179055600052526040600020600160ff19825416179055600080f35b634e487b7160e01b60005260216004526000fd5b610af690893d8b116107c6576107b78183611690565b5089610a05565b610b149150843d86116107f5576107e78183611690565b8e6109b8565b610b32919450823d84116107f5576107e78183611690565b928d61098e565b6064886014846040519262461bcd60e51b845260048401528201527f4c6f616e20616c726561647920637265617465640000000000000000000000006044820152fd5b82634e487b7160e01b60005260216004526000fd5b6064886017846040519262461bcd60e51b845260048401528201527f496e76616c696420666f726569676e206f72626974616c0000000000000000006044820152fd5b346100de5760603660031901126100de57610bed6115dc565b604435908115158092036100de5763ffffffff90610c0961189b565b16806000526006602052610c2560ff6040600020541615611600565b602435600052600b602052604060002060ff199260ff84835416911617905560005260066020526001604060002091825416179055600080f35b346100de5760803660031901126100de5760643560ff811681036100de576001600160a01b03600e54166020604051809263f52b31f160e01b82528180610cc2604435602435600435600485016040919493926060820195825260208201520152565b03915afa90811561064357600091610cea575b6020610ce18484611913565b50604051908152f35b90506020813d602011610d15575b81610d0560209383611690565b810103126100de57516020610cd5565b3d9150610cf8565b346100de5760003660031901126100de576001546001600160a01b033381831603610d945773ffffffffffffffffffffffffffffffffffffffff198092166001556000549133908316176000553391167f8be0079c531659141344cd1fd0a4f28419497f9722a3daafe3b4186f6b6457e0600080a3005b608460405162461bcd60e51b815260206004820152602960248201527f4f776e61626c6532537465703a2063616c6c6572206973206e6f74207468652060448201527f6e6577206f776e657200000000000000000000000000000000000000000000006064820152fd5b346100de5760403660031901126100de5761ffff610e1a6115ef565b610e2261189b565b166000526008602052602435604060002055600080f35b346100de5760003660031901126100de57610e5261189b565b60006001600160a01b0373ffffffffffffffffffffffffffffffffffffffff19806001541660015582549081168355167f8be0079c531659141344cd1fd0a4f28419497f9722a3daafe3b4186f6b6457e08280a3005b346100de5760203660031901126100de576004356001600160a01b0381168091036100de57610ed561189b565b604051906382c947b760e01b8252600482015260208160248173__$cd1346a8e2955df852b4501a7004a2b636$__5af490811561064357600091610f54575b50600d546801000000000000000081101561068257806001610f399201600d556117fa565b819291549060031b91821b91600019901b1916179055600080f35b90506020813d602011610f7e575b81610f6f60209383611690565b810103126100de575181610f14565b3d9150610f62565b60203660031901126100de57600435600052600a6020526040600020600760405191610fb183611673565b80548352600181015490602084019182526002810154604085015260038101546060850152610fea60ff6004830154166080860161164b565b600581015460a0850152600681015460c085015261ffff92839101541660e0840152608083015160048110156105fb57600161102691146116b2565b519160405192632e7682c760e11b84526004840152602492602081858173__$cd1346a8e2955df852b4501a7004a2b636$__5af4908115610643576000916113c8575b506001600160a01b039081339116036113845765f7cf9b8d00006110ad60608401516110a860a08601516110a260c088015191426118f3565b92611900565b611900565b04606083015190810180911161136f5760408301519060405191632e7682c760e11b83526004830152602082878173__$cd1346a8e2955df852b4501a7004a2b636$__5af491821561064357839260209261113d92600092611350575b506040516323b872dd60e01b81523360048201523060248201526044810191909152938492839160009183906064820190565b0393165af1801561064357611331575b506040516382c947b760e01b8152306004820152602081868173__$cd1346a8e2955df852b4501a7004a2b636$__5af4908115610643576000916112ff575b508360e0840151166000526008602052604060002054917f0000000000000000000000000000000000000000000000000000000000000000169160405191631a90a21960e01b8352602083600481875afa928315610643576000936112cb575b506111f8833414611734565b6003549560e08601511660405196602088015260043560408801526060870152608086015260a085015260a0845260c084019484861067ffffffffffffffff8711176112b757506020918580928160405263ffffffff600554166358cd21bf60e11b83528761126e8160bf199360c4820161179f565b0301925af191821561064357600293608093611294575b50500152602060405160018152f35b60c06112af926020903d60201161067a576106698285611690565b508380611285565b634e487b7160e01b60005260416004526000fd5b9092506020813d6020116112f7575b816112e760209383611690565b810103126100de575191876111ec565b3d91506112da565b90506020813d602011611329575b8161131a60209383611690565b810103126100de57518561118c565b3d915061130d565b6113499060203d6020116107c6576107b78183611690565b508461114d565b611368919250843d86116107f5576107e78183611690565b908961110a565b84634e487b7160e01b60005260116004526000fd5b60648460116040519162461bcd60e51b8352602060048401528201527f556e617574686f72697a6564206c6f616e0000000000000000000000000000006044820152fd5b6113e1915060203d6020116107f5576107e78183611690565b84611069565b346100de5760403660031901126100de5763ffffffff6114056115dc565b61140d61189b565b168060005260206006815261142a60ff6040600020541615611600565b602435600052600981526040600020916040519261144784611657565b8054845260018101549383810194855260028201549460408201958652600460ff6003850154169361147d60608501958661164b565b01546080830152825160048110156105fb57600161149b91146116b2565b519073__$cd1346a8e2955df852b4501a7004a2b636$__9160405190632e7682c760e11b9081835260048301528682602481875af49283156106435787926000946115ba575b5060249051916040519586938492835260048301525af49081156106435761154c96869360009361159b575b50519160006001600160a01b03604051809a8196829563a9059cbb60e01b845260048401602090939291936001600160a01b0360408201951681520152565b0393165af19081156106435760069460029261157e575b5052600052526040600020600160ff19825416179055600080f35b61159490853d87116107c6576107b78183611690565b5085611563565b6115b3919350843d86116107f5576107e78183611690565b918861150d565b60249194506115d590843d86116107f5576107e78183611690565b93906114e1565b6004359063ffffffff821682036100de57565b6004359061ffff821682036100de57565b1561160757565b606460405162461bcd60e51b815260206004820152601b60248201527f4e6f6e63652077617320616c72656164792065786563757465642e00000000006044820152fd5b60048210156105fb5752565b60a0810190811067ffffffffffffffff82111761068257604052565b610100810190811067ffffffffffffffff82111761068257604052565b90601f8019910116810190811067ffffffffffffffff82111761068257604052565b156116b957565b606460405162461bcd60e51b815260206004820152601260248201527f4c6f616e206973206e6f742061637469766500000000000000000000000000006044820152fd5b908160209103126100de57516001600160a01b03811681036100de5790565b908160209103126100de575180151581036100de5790565b1561173b57565b606460405162461bcd60e51b815260206004820152601860248201527f496e73756666696369656e74206d6573736167652066656500000000000000006044820152fd5b908160209103126100de575167ffffffffffffffff811681036100de5790565b92919063ffffffff16835260206060602085015281519182606086015260005b8381106117e6575050506040608082600082819588010152601f8019910116850101930152565b8181018301518682016080015282016117bf565b600d5481101561183157600d6000527fd7b6990105719101dabeb77144f2a3385c8033acd3af97e9423a695e81ad1eb50190600090565b634e487b7160e01b600052603260045260246000fd5b9060048110156105fb5760ff80198354169116179055565b600d549060005b82811061187557505050600090565b8161187f826117fa565b90549060031b1c1461189357600101611866565b505050600190565b6001600160a01b036000541633036118af57565b606460405162461bcd60e51b815260206004820152602060248201527f4f776e61626c653a2063616c6c6572206973206e6f7420746865206f776e65726044820152fd5b919082039182116105e557565b818102929181159184041417156105e557565b919060ff166064811161193a57606461192f6119379285611900565b0480936118f3565b90565b608460405162461bcd60e51b8152602060048201526024808201527f50657263656e74616765206d757374206265206265747765656e203020616e6460448201527f20313030000000000000000000000000000000000000000000000000000000006064820152fdfea26469706673582212204938ed5f0366085334a488ef9553ed5f34fa0cd269225904ceb7589f974c6e5364736f6c63430008180033",
          "opcodes": "PUSH1 0xA0 CALLVALUE PUSH2 0x141 JUMPI PUSH1 0x1F PUSH2 0x1B4A CODESIZE DUP2 SWAP1 SUB SWAP2 DUP3 ADD PUSH1 0x1F NOT AND DUP4 ADD SWAP2 PUSH1 0x1 PUSH1 0x1 PUSH1 0x40 SHL SUB DUP4 GT DUP5 DUP5 LT OR PUSH2 0x146 JUMPI DUP1 DUP5 SWAP3 PUSH1 0x40 SWAP5 DUP6 MSTORE DUP4 CODECOPY DUP2 ADD SUB SLT PUSH2 0x141 JUMPI PUSH2 0x52 PUSH1 0x20 PUSH2 0x4B DUP4 PUSH2 0x15C JUMP JUMPDEST SWAP3 ADD PUSH2 0x15C JUMP JUMPDEST PUSH1 0x1 DUP1 SLOAD PUSH1 0x1 PUSH1 0x1 PUSH1 0xA0 SHL SUB NOT SWAP1 DUP2 AND SWAP1 SWAP2 SSTORE PUSH1 0x0 DUP1 SLOAD CALLER DUP2 DUP5 AND DUP2 OR DUP4 SSTORE PUSH1 0x40 MLOAD SWAP6 PUSH1 0x1 PUSH1 0x1 PUSH1 0xA0 SHL SUB SWAP6 SWAP5 SWAP4 DUP7 SWAP4 SWAP2 SWAP3 SWAP2 DUP5 AND SWAP1 PUSH32 0x8BE0079C531659141344CD1FD0A4F28419497F9722A3DAAFE3B4186F6B6457E0 SWAP1 DUP1 LOG3 PUSH16 0x13D397D093D49493D5D7D351551213D1 PUSH1 0x82 SHL PUSH1 0x2 SSTORE PUSH15 0x13D397D49154105657D351551213D1 PUSH1 0x8A SHL PUSH1 0x3 SSTORE PUSH17 0x13D397D111519055531517D351551213D1 PUSH1 0x7A SHL PUSH1 0x4 SSTORE PUSH1 0x7 DUP1 SLOAD PUSH1 0xFF NOT AND PUSH1 0x50 OR SWAP1 SSTORE PUSH1 0x5 DUP1 SLOAD PUSH4 0xFFFFFFFF NOT AND PUSH1 0x1 OR SWAP1 SSTORE PUSH1 0xE DUP1 SLOAD SWAP1 SWAP4 AND SWAP2 AND OR SWAP1 SSTORE AND PUSH1 0x80 MSTORE PUSH2 0x19D9 SWAP1 DUP2 PUSH2 0x171 DUP3 CODECOPY PUSH1 0x80 MLOAD DUP2 DUP2 DUP2 PUSH2 0x328 ADD MSTORE DUP2 DUP2 PUSH2 0x4D0 ADD MSTORE PUSH2 0x11A5 ADD MSTORE RETURN JUMPDEST PUSH1 0x0 DUP1 REVERT JUMPDEST PUSH4 0x4E487B71 PUSH1 0xE0 SHL PUSH1 0x0 MSTORE PUSH1 0x41 PUSH1 0x4 MSTORE PUSH1 0x24 PUSH1 0x0 REVERT JUMPDEST MLOAD SWAP1 PUSH1 0x1 PUSH1 0x1 PUSH1 0xA0 SHL SUB DUP3 AND DUP3 SUB PUSH2 0x141 JUMPI JUMP INVALID PUSH1 0x80 PUSH1 0x40 MSTORE PUSH1 0x4 CALLDATASIZE LT ISZERO PUSH2 0x12 JUMPI PUSH1 0x0 DUP1 REVERT JUMPDEST PUSH1 0x0 CALLDATALOAD PUSH1 0xE0 SHR DUP1 PUSH4 0xB3735FB EQ PUSH2 0x13E7 JUMPI DUP1 PUSH4 0x563DD613 EQ PUSH2 0xF86 JUMPI DUP1 PUSH4 0x6D69FCAF EQ PUSH2 0xEA8 JUMPI DUP1 PUSH4 0x715018A6 EQ PUSH2 0xE39 JUMPI DUP1 PUSH4 0x75F5172E EQ PUSH2 0xDFE JUMPI DUP1 PUSH4 0x79BA5097 EQ PUSH2 0xD1D JUMPI DUP1 PUSH4 0x7B76BA8A EQ PUSH2 0xC5F JUMPI DUP1 PUSH4 0x7FC9B2BB EQ PUSH2 0xBD4 JUMPI DUP1 PUSH4 0x8299852C EQ PUSH2 0x8AB JUMPI DUP1 PUSH4 0x8DA5CB5B EQ PUSH2 0x884 JUMPI DUP1 PUSH4 0xD80B52B6 EQ PUSH2 0x182 JUMPI DUP1 PUSH4 0xE30C3978 EQ PUSH2 0x15B JUMPI DUP1 PUSH4 0xF2FDE38B EQ PUSH2 0xE3 JUMPI PUSH4 0xF770A695 EQ PUSH2 0xB6 JUMPI PUSH1 0x0 DUP1 REVERT JUMPDEST CALLVALUE PUSH2 0xDE JUMPI PUSH1 0x20 CALLDATASIZE PUSH1 0x3 NOT ADD SLT PUSH2 0xDE JUMPI PUSH1 0x20 PUSH2 0xD4 PUSH1 0x4 CALLDATALOAD PUSH2 0x185F JUMP JUMPDEST PUSH1 0x40 MLOAD SWAP1 ISZERO ISZERO DUP2 MSTORE RETURN JUMPDEST PUSH1 0x0 DUP1 REVERT JUMPDEST CALLVALUE PUSH2 0xDE JUMPI PUSH1 0x20 CALLDATASIZE PUSH1 0x3 NOT ADD SLT PUSH2 0xDE JUMPI PUSH1 0x4 CALLDATALOAD PUSH1 0x1 PUSH1 0x1 PUSH1 0xA0 SHL SUB DUP1 DUP3 AND DUP1 SWAP3 SUB PUSH2 0xDE JUMPI PUSH2 0x111 PUSH2 0x189B JUMP JUMPDEST DUP2 PUSH20 0xFFFFFFFFFFFFFFFFFFFFFFFFFFFFFFFFFFFFFFFF NOT PUSH1 0x1 SLOAD AND OR PUSH1 0x1 SSTORE PUSH1 0x0 SLOAD AND PUSH32 0x38D16B8CAC22D99FC7C124B9CD0DE2D3FA1FAEF420BFE791D8C362D765E22700 PUSH1 0x0 DUP1 LOG3 STOP JUMPDEST CALLVALUE PUSH2 0xDE JUMPI PUSH1 0x0 CALLDATASIZE PUSH1 0x3 NOT ADD SLT PUSH2 0xDE JUMPI PUSH1 0x20 PUSH1 0x1 PUSH1 0x1 PUSH1 0xA0 SHL SUB PUSH1 0x1 SLOAD AND PUSH1 0x40 MLOAD SWAP1 DUP2 MSTORE RETURN JUMPDEST PUSH1 0xA0 CALLDATASIZE PUSH1 0x3 NOT ADD SLT PUSH2 0xDE JUMPI PUSH2 0x196 PUSH2 0x15EF JUMP JUMPDEST PUSH2 0x1A1 PUSH1 0x24 CALLDATALOAD PUSH2 0x185F JUMP JUMPDEST ISZERO PUSH2 0x840 JUMPI PUSH2 0x1B1 PUSH1 0x44 CALLDATALOAD PUSH2 0x185F JUMP JUMPDEST ISZERO PUSH2 0x7FC JUMPI PUSH1 0x40 MLOAD PUSH4 0x2E7682C7 PUSH1 0xE1 SHL DUP2 MSTORE PUSH1 0x24 CALLDATALOAD PUSH1 0x4 DUP3 ADD MSTORE PUSH1 0x20 DUP2 PUSH1 0x24 DUP2 PUSH20 0x0 GAS DELEGATECALL SWAP1 DUP2 ISZERO PUSH2 0x643 JUMPI PUSH1 0x0 SWAP2 PUSH2 0x7CD JUMPI JUMPDEST POP PUSH1 0x40 MLOAD PUSH4 0x23B872DD PUSH1 0xE0 SHL DUP2 MSTORE CALLER PUSH1 0x4 DUP3 ADD MSTORE ADDRESS PUSH1 0x24 DUP3 ADD MSTORE PUSH1 0x64 DUP1 CALLDATALOAD PUSH1 0x44 DUP4 ADD MSTORE SWAP1 SWAP2 PUSH1 0x20 SWAP2 DUP4 SWAP2 DUP3 SWAP1 PUSH1 0x0 SWAP1 PUSH1 0x1 PUSH1 0x1 PUSH1 0xA0 SHL SUB AND GAS CALL DUP1 ISZERO PUSH2 0x643 JUMPI PUSH2 0x79E JUMPI JUMPDEST POP PUSH1 0x1 PUSH1 0x1 PUSH1 0xA0 SHL SUB PUSH1 0xE SLOAD AND PUSH1 0x20 PUSH1 0x40 MLOAD DUP1 SWAP3 PUSH4 0xF52B31F1 PUSH1 0xE0 SHL DUP3 MSTORE DUP2 DUP1 PUSH2 0x282 PUSH1 0x64 CALLDATALOAD PUSH1 0x44 CALLDATALOAD PUSH1 0x24 CALLDATALOAD PUSH1 0x4 DUP6 ADD PUSH1 0x40 SWAP2 SWAP5 SWAP4 SWAP3 PUSH1 0x60 DUP3 ADD SWAP6 DUP3 MSTORE PUSH1 0x20 DUP3 ADD MSTORE ADD MSTORE JUMP JUMPDEST SUB SWAP2 GAS STATICCALL SWAP1 DUP2 ISZERO PUSH2 0x643 JUMPI PUSH1 0x0 SWAP2 PUSH2 0x76C JUMPI JUMPDEST POP PUSH1 0x0 PUSH1 0x40 MLOAD PUSH4 0x82C947B7 PUSH1 0xE0 SHL DUP2 MSTORE CALLER PUSH1 0x4 DUP3 ADD MSTORE PUSH1 0x20 DUP2 PUSH1 0x24 DUP2 PUSH20 0x0 GAS DELEGATECALL SWAP1 DUP2 ISZERO PUSH2 0x643 JUMPI PUSH1 0x0 SWAP2 PUSH2 0x73A JUMPI JUMPDEST POP PUSH1 0x0 MSTORE PUSH1 0xB PUSH1 0x20 MSTORE PUSH1 0xFF PUSH1 0x40 PUSH1 0x0 KECCAK256 SLOAD AND PUSH2 0x732 JUMPI JUMPDEST PUSH1 0xFF DUP1 PUSH1 0x7 SLOAD AND SWAP2 AND ADD PUSH1 0xFF DUP2 GT PUSH2 0x5E5 JUMPI PUSH2 0x309 SWAP2 PUSH2 0x1913 JUMP JUMPDEST POP SWAP1 PUSH1 0x40 MLOAD PUSH4 0x1A90A219 PUSH1 0xE0 SHL DUP2 MSTORE PUSH1 0x20 DUP2 PUSH1 0x4 DUP2 PUSH1 0x1 PUSH1 0x1 PUSH1 0xA0 SHL SUB PUSH32 0x0 AND GAS STATICCALL SWAP1 DUP2 ISZERO PUSH2 0x643 JUMPI PUSH1 0x0 SWAP2 PUSH2 0x700 JUMPI JUMPDEST POP PUSH2 0x366 DUP2 CALLVALUE LT ISZERO PUSH2 0x1734 JUMP JUMPDEST PUSH1 0x40 MLOAD SWAP3 PUSH4 0x82C947B7 PUSH1 0xE0 SHL DUP5 MSTORE ADDRESS PUSH1 0x4 DUP6 ADD MSTORE PUSH1 0x20 DUP5 PUSH1 0x24 DUP2 PUSH20 0x0 GAS DELEGATECALL SWAP4 DUP5 ISZERO PUSH2 0x643 JUMPI PUSH1 0x0 SWAP5 PUSH2 0x6CC JUMPI JUMPDEST POP PUSH2 0xFFFF DUP4 AND PUSH1 0x0 MSTORE PUSH1 0x8 PUSH1 0x20 MSTORE PUSH1 0x40 PUSH1 0x0 KECCAK256 SLOAD PUSH4 0xFFFFFFFF PUSH1 0x5 SLOAD AND PUSH1 0x40 MLOAD PUSH1 0x20 DUP2 ADD SWAP2 CALLER DUP4 MSTORE PUSH1 0x84 CALLDATALOAD PUSH1 0x40 DUP4 ADD MSTORE PUSH1 0x60 DUP3 ADD MSTORE TIMESTAMP PUSH1 0x80 DUP3 ADD MSTORE PUSH1 0x80 DUP2 MSTORE PUSH2 0x3EE DUP2 PUSH2 0x1657 JUMP JUMPDEST MLOAD SWAP1 KECCAK256 SWAP5 PUSH1 0x2 SLOAD SWAP5 PUSH1 0x40 MLOAD SWAP1 PUSH4 0x82C947B7 PUSH1 0xE0 SHL DUP3 MSTORE CALLER PUSH1 0x4 DUP4 ADD MSTORE PUSH1 0x20 DUP3 PUSH1 0x24 DUP2 PUSH20 0x0 GAS DELEGATECALL DUP1 ISZERO PUSH2 0x643 JUMPI PUSH1 0x0 SWAP1 PUSH2 0x698 JUMPI JUMPDEST PUSH2 0xFFFF SWAP3 POP PUSH1 0x40 MLOAD SWAP8 PUSH1 0x20 DUP10 ADD MSTORE DUP9 PUSH1 0x40 DUP10 ADD MSTORE PUSH1 0x60 DUP9 ADD MSTORE PUSH1 0x84 CALLDATALOAD PUSH1 0x80 DUP9 ADD MSTORE AND PUSH1 0xA0 DUP7 ADD MSTORE PUSH1 0xC0 DUP6 ADD MSTORE PUSH1 0xE0 DUP5 ADD MSTORE PUSH1 0x44 CALLDATALOAD PUSH2 0x100 DUP5 ADD MSTORE PUSH2 0x120 SWAP1 DUP2 DUP5 ADD MSTORE DUP3 MSTORE PUSH2 0x140 DUP1 DUP4 ADD SWAP2 DUP4 DUP4 LT PUSH8 0xFFFFFFFFFFFFFFFF DUP5 GT OR PUSH2 0x682 JUMPI DUP3 PUSH1 0x20 SWAP2 DUP2 PUSH1 0x40 MSTORE DUP2 PUSH4 0xFFFFFFFF PUSH1 0x5 SLOAD AND PUSH4 0x58CD21BF PUSH1 0xE1 SHL DUP3 MSTORE DUP8 PUSH2 0x4C3 DUP2 PUSH2 0x13F NOT SWAP4 PUSH2 0x144 DUP3 ADD PUSH2 0x179F JUMP JUMPDEST SUB ADD SWAP2 PUSH1 0x1 PUSH1 0x1 PUSH1 0xA0 SHL SUB PUSH32 0x0 AND GAS CALL DUP1 ISZERO PUSH2 0x643 JUMPI PUSH2 0x64F JUMPI JUMPDEST POP POP POP PUSH1 0x40 MLOAD PUSH4 0x82C947B7 PUSH1 0xE0 SHL DUP2 MSTORE CALLER PUSH1 0x4 DUP3 ADD MSTORE PUSH1 0x20 DUP2 PUSH1 0x24 DUP2 PUSH20 0x0 GAS DELEGATECALL SWAP1 DUP2 ISZERO PUSH2 0x643 JUMPI PUSH1 0x0 SWAP2 PUSH2 0x611 JUMPI JUMPDEST POP PUSH1 0x40 MLOAD SWAP1 PUSH2 0x54D DUP3 PUSH2 0x1657 JUMP JUMPDEST DUP2 MSTORE PUSH1 0x20 DUP2 ADD PUSH1 0x24 CALLDATALOAD DUP2 MSTORE PUSH1 0x40 DUP3 ADD PUSH1 0x64 CALLDATALOAD DUP2 MSTORE PUSH1 0x60 DUP4 ADD SWAP1 PUSH1 0x1 DUP3 MSTORE PUSH1 0x80 DUP5 ADD SWAP3 TIMESTAMP DUP5 MSTORE DUP6 PUSH1 0x0 MSTORE PUSH1 0x9 PUSH1 0x20 MSTORE PUSH1 0x40 PUSH1 0x0 KECCAK256 SWAP5 MLOAD DUP6 SSTORE MLOAD PUSH1 0x1 DUP6 ADD SSTORE MLOAD PUSH1 0x2 DUP5 ADD SSTORE MLOAD SWAP1 PUSH1 0x4 DUP3 LT ISZERO PUSH2 0x5FB JUMPI PUSH2 0x5AA PUSH1 0x4 SWAP3 PUSH1 0x3 DUP6 ADD PUSH2 0x1847 JUMP JUMPDEST MLOAD SWAP2 ADD SSTORE PUSH1 0x5 SLOAD SWAP1 PUSH4 0xFFFFFFFF DUP3 AND SWAP2 PUSH4 0xFFFFFFFF DUP4 EQ PUSH2 0x5E5 JUMPI PUSH4 0xFFFFFFFF PUSH1 0x1 PUSH1 0x20 SWAP5 ADD AND SWAP1 PUSH4 0xFFFFFFFF NOT AND OR PUSH1 0x5 SSTORE PUSH1 0x40 MLOAD SWAP1 DUP2 MSTORE RETURN JUMPDEST PUSH4 0x4E487B71 PUSH1 0xE0 SHL PUSH1 0x0 MSTORE PUSH1 0x11 PUSH1 0x4 MSTORE PUSH1 0x24 PUSH1 0x0 REVERT JUMPDEST PUSH4 0x4E487B71 PUSH1 0xE0 SHL PUSH1 0x0 MSTORE PUSH1 0x21 PUSH1 0x4 MSTORE PUSH1 0x24 PUSH1 0x0 REVERT JUMPDEST SWAP1 POP PUSH1 0x20 DUP2 RETURNDATASIZE PUSH1 0x20 GT PUSH2 0x63B JUMPI JUMPDEST DUP2 PUSH2 0x62C PUSH1 0x20 SWAP4 DUP4 PUSH2 0x1690 JUMP JUMPDEST DUP2 ADD SUB SLT PUSH2 0xDE JUMPI MLOAD DUP3 PUSH2 0x53F JUMP JUMPDEST RETURNDATASIZE SWAP2 POP PUSH2 0x61F JUMP JUMPDEST PUSH1 0x40 MLOAD RETURNDATASIZE PUSH1 0x0 DUP3 RETURNDATACOPY RETURNDATASIZE SWAP1 REVERT JUMPDEST PUSH2 0x671 SWAP3 PUSH1 0x20 SWAP1 RETURNDATASIZE PUSH1 0x20 GT PUSH2 0x67A JUMPI JUMPDEST PUSH2 0x669 DUP3 DUP6 PUSH2 0x1690 JUMP JUMPDEST ADD ADD SWAP1 PUSH2 0x177F JUMP JUMPDEST POP DUP2 DUP1 DUP1 PUSH2 0x4FD JUMP JUMPDEST RETURNDATASIZE SWAP2 POP PUSH2 0x65F JUMP JUMPDEST PUSH4 0x4E487B71 PUSH1 0xE0 SHL PUSH1 0x0 MSTORE PUSH1 0x41 PUSH1 0x4 MSTORE PUSH1 0x24 PUSH1 0x0 REVERT JUMPDEST POP PUSH1 0x20 DUP3 RETURNDATASIZE PUSH1 0x20 GT PUSH2 0x6C4 JUMPI JUMPDEST DUP2 PUSH2 0x6B2 PUSH1 0x20 SWAP4 DUP4 PUSH2 0x1690 JUMP JUMPDEST DUP2 ADD SUB SLT PUSH2 0xDE JUMPI PUSH2 0xFFFF SWAP2 MLOAD PUSH2 0x435 JUMP JUMPDEST RETURNDATASIZE SWAP2 POP PUSH2 0x6A5 JUMP JUMPDEST SWAP1 SWAP4 POP PUSH1 0x20 DUP2 RETURNDATASIZE PUSH1 0x20 GT PUSH2 0x6F8 JUMPI JUMPDEST DUP2 PUSH2 0x6E8 PUSH1 0x20 SWAP4 DUP4 PUSH2 0x1690 JUMP JUMPDEST DUP2 ADD SUB SLT PUSH2 0xDE JUMPI MLOAD SWAP3 DUP5 PUSH2 0x3A6 JUMP JUMPDEST RETURNDATASIZE SWAP2 POP PUSH2 0x6DB JUMP JUMPDEST SWAP1 POP PUSH1 0x20 DUP2 RETURNDATASIZE PUSH1 0x20 GT PUSH2 0x72A JUMPI JUMPDEST DUP2 PUSH2 0x71B PUSH1 0x20 SWAP4 DUP4 PUSH2 0x1690 JUMP JUMPDEST DUP2 ADD SUB SLT PUSH2 0xDE JUMPI MLOAD DUP4 PUSH2 0x359 JUMP JUMPDEST RETURNDATASIZE SWAP2 POP PUSH2 0x70E JUMP JUMPDEST POP PUSH1 0xA PUSH2 0x2EE JUMP JUMPDEST SWAP1 POP PUSH1 0x20 DUP2 RETURNDATASIZE PUSH1 0x20 GT PUSH2 0x764 JUMPI JUMPDEST DUP2 PUSH2 0x755 PUSH1 0x20 SWAP4 DUP4 PUSH2 0x1690 JUMP JUMPDEST DUP2 ADD SUB SLT PUSH2 0xDE JUMPI MLOAD DUP5 PUSH2 0x2D7 JUMP JUMPDEST RETURNDATASIZE SWAP2 POP PUSH2 0x748 JUMP JUMPDEST SWAP1 POP PUSH1 0x20 DUP2 RETURNDATASIZE PUSH1 0x20 GT PUSH2 0x796 JUMPI JUMPDEST DUP2 PUSH2 0x787 PUSH1 0x20 SWAP4 DUP4 PUSH2 0x1690 JUMP JUMPDEST DUP2 ADD SUB SLT PUSH2 0xDE JUMPI MLOAD DUP3 PUSH2 0x295 JUMP JUMPDEST RETURNDATASIZE SWAP2 POP PUSH2 0x77A JUMP JUMPDEST PUSH2 0x7BF SWAP1 PUSH1 0x20 RETURNDATASIZE PUSH1 0x20 GT PUSH2 0x7C6 JUMPI JUMPDEST PUSH2 0x7B7 DUP2 DUP4 PUSH2 0x1690 JUMP JUMPDEST DUP2 ADD SWAP1 PUSH2 0x171C JUMP JUMPDEST POP DUP2 PUSH2 0x23C JUMP JUMPDEST POP RETURNDATASIZE PUSH2 0x7AD JUMP JUMPDEST PUSH2 0x7EF SWAP2 POP PUSH1 0x20 RETURNDATASIZE PUSH1 0x20 GT PUSH2 0x7F5 JUMPI JUMPDEST PUSH2 0x7E7 DUP2 DUP4 PUSH2 0x1690 JUMP JUMPDEST DUP2 ADD SWAP1 PUSH2 0x16FD JUMP JUMPDEST DUP3 PUSH2 0x1F7 JUMP JUMPDEST POP RETURNDATASIZE PUSH2 0x7DD JUMP JUMPDEST PUSH1 0x64 PUSH1 0x40 MLOAD PUSH3 0x461BCD PUSH1 0xE5 SHL DUP2 MSTORE PUSH1 0x20 PUSH1 0x4 DUP3 ADD MSTORE PUSH1 0x17 PUSH1 0x24 DUP3 ADD MSTORE PUSH32 0x546F6B656E206F7574206E6F7420737570706F72746564000000000000000000 PUSH1 0x44 DUP3 ADD MSTORE REVERT JUMPDEST PUSH1 0x64 PUSH1 0x40 MLOAD PUSH3 0x461BCD PUSH1 0xE5 SHL DUP2 MSTORE PUSH1 0x20 PUSH1 0x4 DUP3 ADD MSTORE PUSH1 0x16 PUSH1 0x24 DUP3 ADD MSTORE PUSH32 0x546F6B656E20696E206E6F7420737570706F7274656400000000000000000000 PUSH1 0x44 DUP3 ADD MSTORE REVERT JUMPDEST CALLVALUE PUSH2 0xDE JUMPI PUSH1 0x0 CALLDATASIZE PUSH1 0x3 NOT ADD SLT PUSH2 0xDE JUMPI PUSH1 0x20 PUSH1 0x1 PUSH1 0x1 PUSH1 0xA0 SHL SUB PUSH1 0x0 SLOAD AND PUSH1 0x40 MLOAD SWAP1 DUP2 MSTORE RETURN JUMPDEST CALLVALUE PUSH2 0xDE JUMPI PUSH1 0xE0 CALLDATASIZE PUSH1 0x3 NOT ADD SLT PUSH2 0xDE JUMPI PUSH2 0x8C4 PUSH2 0x15DC JUMP JUMPDEST PUSH1 0x24 SWAP1 DUP2 CALLDATALOAD SWAP2 PUSH1 0x44 CALLDATALOAD SWAP2 PUSH1 0x64 CALLDATALOAD SWAP1 PUSH2 0xFFFF SWAP1 DUP2 DUP4 AND DUP1 SWAP4 SUB PUSH2 0xDE JUMPI PUSH1 0xA4 CALLDATALOAD SWAP6 PUSH4 0xFFFFFFFF PUSH1 0xC4 CALLDATALOAD SWAP3 PUSH2 0x8F5 PUSH2 0x189B JUMP JUMPDEST AND SWAP5 DUP6 PUSH1 0x0 MSTORE PUSH1 0x20 SWAP7 PUSH1 0x6 DUP9 MSTORE PUSH2 0x914 PUSH1 0xFF PUSH1 0x40 PUSH1 0x0 KECCAK256 SLOAD AND ISZERO PUSH2 0x1600 JUMP JUMPDEST DUP6 PUSH1 0x0 MSTORE PUSH1 0x8 DUP9 MSTORE PUSH1 0x84 CALLDATALOAD PUSH1 0x40 PUSH1 0x0 KECCAK256 SLOAD SUB PUSH2 0xB91 JUMPI DUP3 PUSH1 0x0 MSTORE PUSH1 0xA DUP9 MSTORE PUSH1 0xFF PUSH1 0x4 PUSH1 0x40 PUSH1 0x0 KECCAK256 ADD SLOAD AND PUSH1 0x4 DUP2 LT ISZERO PUSH2 0xB7C JUMPI PUSH2 0xB39 JUMPI PUSH20 0x0 PUSH1 0x40 MLOAD SWAP1 PUSH4 0x2E7682C7 PUSH1 0xE1 SHL SWAP2 DUP3 DUP2 MSTORE DUP12 PUSH1 0x4 DUP3 ADD MSTORE DUP11 DUP2 DUP7 DUP2 DUP6 GAS DELEGATECALL SWAP3 DUP4 ISZERO PUSH2 0x643 JUMPI DUP12 SWAP2 PUSH1 0x0 SWAP5 PUSH2 0xB1A JUMPI JUMPDEST POP DUP6 PUSH1 0x40 MLOAD DUP1 SWAP5 DUP2 SWAP4 DUP3 MSTORE DUP8 PUSH1 0x4 DUP4 ADD MSTORE GAS DELEGATECALL SWAP1 DUP2 ISZERO PUSH2 0x643 JUMPI PUSH2 0x9F5 SWAP3 DUP12 SWAP3 DUP9 SWAP3 PUSH1 0x0 SWAP2 PUSH2 0xAFD JUMPI JUMPDEST POP PUSH1 0x0 PUSH1 0x1 PUSH1 0x1 PUSH1 0xA0 SHL SUB PUSH1 0x40 MLOAD DUP1 SWAP8 DUP2 SWAP7 DUP3 SWAP6 PUSH4 0xA9059CBB PUSH1 0xE0 SHL DUP5 MSTORE PUSH1 0x4 DUP5 ADD PUSH1 0x20 SWAP1 SWAP4 SWAP3 SWAP2 SWAP4 PUSH1 0x1 PUSH1 0x1 PUSH1 0xA0 SHL SUB PUSH1 0x40 DUP3 ADD SWAP6 AND DUP2 MSTORE ADD MSTORE JUMP JUMPDEST SUB SWAP4 AND GAS CALL DUP1 ISZERO PUSH2 0x643 JUMPI PUSH2 0xAE0 JUMPI JUMPDEST POP DUP9 PUSH1 0x0 MSTORE PUSH1 0xC DUP9 MSTORE PUSH1 0x40 PUSH1 0x0 KECCAK256 SLOAD SWAP4 PUSH1 0x40 MLOAD SWAP10 PUSH2 0xA22 DUP12 PUSH2 0x1673 JUMP JUMPDEST DUP5 DUP12 MSTORE DUP10 DUP12 ADD SWAP3 DUP4 MSTORE PUSH1 0x40 DUP12 ADD SWAP1 DUP2 MSTORE PUSH1 0x60 DUP12 ADD SWAP2 DUP3 MSTORE PUSH1 0x80 DUP12 ADD SWAP3 PUSH1 0x1 DUP5 MSTORE PUSH1 0xA0 DUP13 ADD SWAP6 TIMESTAMP DUP8 MSTORE PUSH1 0xC0 DUP14 ADD SWAP8 DUP9 MSTORE PUSH1 0xE0 DUP14 ADD SWAP10 DUP11 MSTORE PUSH1 0x0 MSTORE PUSH1 0xA DUP12 MSTORE PUSH1 0x40 PUSH1 0x0 KECCAK256 SWAP12 MLOAD DUP13 SSTORE MLOAD PUSH1 0x1 DUP13 ADD SSTORE MLOAD PUSH1 0x2 DUP12 ADD SSTORE MLOAD PUSH1 0x3 DUP11 ADD SSTORE MLOAD SWAP1 PUSH1 0x4 DUP3 LT ISZERO PUSH2 0xACC JUMPI POP SWAP2 DUP8 SWAP2 PUSH2 0xA9A PUSH1 0x7 SWAP5 PUSH1 0x4 PUSH1 0x6 SWAP12 ADD PUSH2 0x1847 JUMP JUMPDEST MLOAD PUSH1 0x5 DUP4 ADD SSTORE MLOAD DUP8 DUP3 ADD SSTORE ADD SWAP2 MLOAD AND PUSH2 0xFFFF NOT DUP3 SLOAD AND OR SWAP1 SSTORE PUSH1 0x0 MSTORE MSTORE PUSH1 0x40 PUSH1 0x0 KECCAK256 PUSH1 0x1 PUSH1 0xFF NOT DUP3 SLOAD AND OR SWAP1 SSTORE PUSH1 0x0 DUP1 RETURN JUMPDEST PUSH4 0x4E487B71 PUSH1 0xE0 SHL PUSH1 0x0 MSTORE PUSH1 0x21 PUSH1 0x4 MSTORE PUSH1 0x0 REVERT JUMPDEST PUSH2 0xAF6 SWAP1 DUP10 RETURNDATASIZE DUP12 GT PUSH2 0x7C6 JUMPI PUSH2 0x7B7 DUP2 DUP4 PUSH2 0x1690 JUMP JUMPDEST POP DUP10 PUSH2 0xA05 JUMP JUMPDEST PUSH2 0xB14 SWAP2 POP DUP5 RETURNDATASIZE DUP7 GT PUSH2 0x7F5 JUMPI PUSH2 0x7E7 DUP2 DUP4 PUSH2 0x1690 JUMP JUMPDEST DUP15 PUSH2 0x9B8 JUMP JUMPDEST PUSH2 0xB32 SWAP2 SWAP5 POP DUP3 RETURNDATASIZE DUP5 GT PUSH2 0x7F5 JUMPI PUSH2 0x7E7 DUP2 DUP4 PUSH2 0x1690 JUMP JUMPDEST SWAP3 DUP14 PUSH2 0x98E JUMP JUMPDEST PUSH1 0x64 DUP9 PUSH1 0x14 DUP5 PUSH1 0x40 MLOAD SWAP3 PUSH3 0x461BCD PUSH1 0xE5 SHL DUP5 MSTORE PUSH1 0x4 DUP5 ADD MSTORE DUP3 ADD MSTORE PUSH32 0x4C6F616E20616C72656164792063726561746564000000000000000000000000 PUSH1 0x44 DUP3 ADD MSTORE REVERT JUMPDEST DUP3 PUSH4 0x4E487B71 PUSH1 0xE0 SHL PUSH1 0x0 MSTORE PUSH1 0x21 PUSH1 0x4 MSTORE PUSH1 0x0 REVERT JUMPDEST PUSH1 0x64 DUP9 PUSH1 0x17 DUP5 PUSH1 0x40 MLOAD SWAP3 PUSH3 0x461BCD PUSH1 0xE5 SHL DUP5 MSTORE PUSH1 0x4 DUP5 ADD MSTORE DUP3 ADD MSTORE PUSH32 0x496E76616C696420666F726569676E206F72626974616C000000000000000000 PUSH1 0x44 DUP3 ADD MSTORE REVERT JUMPDEST CALLVALUE PUSH2 0xDE JUMPI PUSH1 0x60 CALLDATASIZE PUSH1 0x3 NOT ADD SLT PUSH2 0xDE JUMPI PUSH2 0xBED PUSH2 0x15DC JUMP JUMPDEST PUSH1 0x44 CALLDATALOAD SWAP1 DUP2 ISZERO ISZERO DUP1 SWAP3 SUB PUSH2 0xDE JUMPI PUSH4 0xFFFFFFFF SWAP1 PUSH2 0xC09 PUSH2 0x189B JUMP JUMPDEST AND DUP1 PUSH1 0x0 MSTORE PUSH1 0x6 PUSH1 0x20 MSTORE PUSH2 0xC25 PUSH1 0xFF PUSH1 0x40 PUSH1 0x0 KECCAK256 SLOAD AND ISZERO PUSH2 0x1600 JUMP JUMPDEST PUSH1 0x24 CALLDATALOAD PUSH1 0x0 MSTORE PUSH1 0xB PUSH1 0x20 MSTORE PUSH1 0x40 PUSH1 0x0 KECCAK256 PUSH1 0xFF NOT SWAP3 PUSH1 0xFF DUP5 DUP4 SLOAD AND SWAP2 AND OR SWAP1 SSTORE PUSH1 0x0 MSTORE PUSH1 0x6 PUSH1 0x20 MSTORE PUSH1 0x1 PUSH1 0x40 PUSH1 0x0 KECCAK256 SWAP2 DUP3 SLOAD AND OR SWAP1 SSTORE PUSH1 0x0 DUP1 RETURN JUMPDEST CALLVALUE PUSH2 0xDE JUMPI PUSH1 0x80 CALLDATASIZE PUSH1 0x3 NOT ADD SLT PUSH2 0xDE JUMPI PUSH1 0x64 CALLDATALOAD PUSH1 0xFF DUP2 AND DUP2 SUB PUSH2 0xDE JUMPI PUSH1 0x1 PUSH1 0x1 PUSH1 0xA0 SHL SUB PUSH1 0xE SLOAD AND PUSH1 0x20 PUSH1 0x40 MLOAD DUP1 SWAP3 PUSH4 0xF52B31F1 PUSH1 0xE0 SHL DUP3 MSTORE DUP2 DUP1 PUSH2 0xCC2 PUSH1 0x44 CALLDATALOAD PUSH1 0x24 CALLDATALOAD PUSH1 0x4 CALLDATALOAD PUSH1 0x4 DUP6 ADD PUSH1 0x40 SWAP2 SWAP5 SWAP4 SWAP3 PUSH1 0x60 DUP3 ADD SWAP6 DUP3 MSTORE PUSH1 0x20 DUP3 ADD MSTORE ADD MSTORE JUMP JUMPDEST SUB SWAP2 GAS STATICCALL SWAP1 DUP2 ISZERO PUSH2 0x643 JUMPI PUSH1 0x0 SWAP2 PUSH2 0xCEA JUMPI JUMPDEST PUSH1 0x20 PUSH2 0xCE1 DUP5 DUP5 PUSH2 0x1913 JUMP JUMPDEST POP PUSH1 0x40 MLOAD SWAP1 DUP2 MSTORE RETURN JUMPDEST SWAP1 POP PUSH1 0x20 DUP2 RETURNDATASIZE PUSH1 0x20 GT PUSH2 0xD15 JUMPI JUMPDEST DUP2 PUSH2 0xD05 PUSH1 0x20 SWAP4 DUP4 PUSH2 0x1690 JUMP JUMPDEST DUP2 ADD SUB SLT PUSH2 0xDE JUMPI MLOAD PUSH1 0x20 PUSH2 0xCD5 JUMP JUMPDEST RETURNDATASIZE SWAP2 POP PUSH2 0xCF8 JUMP JUMPDEST CALLVALUE PUSH2 0xDE JUMPI PUSH1 0x0 CALLDATASIZE PUSH1 0x3 NOT ADD SLT PUSH2 0xDE JUMPI PUSH1 0x1 SLOAD PUSH1 0x1 PUSH1 0x1 PUSH1 0xA0 SHL SUB CALLER DUP2 DUP4 AND SUB PUSH2 0xD94 JUMPI PUSH20 0xFFFFFFFFFFFFFFFFFFFFFFFFFFFFFFFFFFFFFFFF NOT DUP1 SWAP3 AND PUSH1 0x1 SSTORE PUSH1 0x0 SLOAD SWAP2 CALLER SWAP1 DUP4 AND OR PUSH1 0x0 SSTORE CALLER SWAP2 AND PUSH32 0x8BE0079C531659141344CD1FD0A4F28419497F9722A3DAAFE3B4186F6B6457E0 PUSH1 0x0 DUP1 LOG3 STOP JUMPDEST PUSH1 0x84 PUSH1 0x40 MLOAD PUSH3 0x461BCD PUSH1 0xE5 SHL DUP2 MSTORE PUSH1 0x20 PUSH1 0x4 DUP3 ADD MSTORE PUSH1 0x29 PUSH1 0x24 DUP3 ADD MSTORE PUSH32 0x4F776E61626C6532537465703A2063616C6C6572206973206E6F742074686520 PUSH1 0x44 DUP3 ADD MSTORE PUSH32 0x6E6577206F776E65720000000000000000000000000000000000000000000000 PUSH1 0x64 DUP3 ADD MSTORE REVERT JUMPDEST CALLVALUE PUSH2 0xDE JUMPI PUSH1 0x40 CALLDATASIZE PUSH1 0x3 NOT ADD SLT PUSH2 0xDE JUMPI PUSH2 0xFFFF PUSH2 0xE1A PUSH2 0x15EF JUMP JUMPDEST PUSH2 0xE22 PUSH2 0x189B JUMP JUMPDEST AND PUSH1 0x0 MSTORE PUSH1 0x8 PUSH1 0x20 MSTORE PUSH1 0x24 CALLDATALOAD PUSH1 0x40 PUSH1 0x0 KECCAK256 SSTORE PUSH1 0x0 DUP1 RETURN JUMPDEST CALLVALUE PUSH2 0xDE JUMPI PUSH1 0x0 CALLDATASIZE PUSH1 0x3 NOT ADD SLT PUSH2 0xDE JUMPI PUSH2 0xE52 PUSH2 0x189B JUMP JUMPDEST PUSH1 0x0 PUSH1 0x1 PUSH1 0x1 PUSH1 0xA0 SHL SUB PUSH20 0xFFFFFFFFFFFFFFFFFFFFFFFFFFFFFFFFFFFFFFFF NOT DUP1 PUSH1 0x1 SLOAD AND PUSH1 0x1 SSTORE DUP3 SLOAD SWAP1 DUP2 AND DUP4 SSTORE AND PUSH32 0x8BE0079C531659141344CD1FD0A4F28419497F9722A3DAAFE3B4186F6B6457E0 DUP3 DUP1 LOG3 STOP JUMPDEST CALLVALUE PUSH2 0xDE JUMPI PUSH1 0x20 CALLDATASIZE PUSH1 0x3 NOT ADD SLT PUSH2 0xDE JUMPI PUSH1 0x4 CALLDATALOAD PUSH1 0x1 PUSH1 0x1 PUSH1 0xA0 SHL SUB DUP2 AND DUP1 SWAP2 SUB PUSH2 0xDE JUMPI PUSH2 0xED5 PUSH2 0x189B JUMP JUMPDEST PUSH1 0x40 MLOAD SWAP1 PUSH4 0x82C947B7 PUSH1 0xE0 SHL DUP3 MSTORE PUSH1 0x4 DUP3 ADD MSTORE PUSH1 0x20 DUP2 PUSH1 0x24 DUP2 PUSH20 0x0 GAS DELEGATECALL SWAP1 DUP2 ISZERO PUSH2 0x643 JUMPI PUSH1 0x0 SWAP2 PUSH2 0xF54 JUMPI JUMPDEST POP PUSH1 0xD SLOAD PUSH9 0x10000000000000000 DUP2 LT ISZERO PUSH2 0x682 JUMPI DUP1 PUSH1 0x1 PUSH2 0xF39 SWAP3 ADD PUSH1 0xD SSTORE PUSH2 0x17FA JUMP JUMPDEST DUP2 SWAP3 SWAP2 SLOAD SWAP1 PUSH1 0x3 SHL SWAP2 DUP3 SHL SWAP2 PUSH1 0x0 NOT SWAP1 SHL NOT AND OR SWAP1 SSTORE PUSH1 0x0 DUP1 RETURN JUMPDEST SWAP1 POP PUSH1 0x20 DUP2 RETURNDATASIZE PUSH1 0x20 GT PUSH2 0xF7E JUMPI JUMPDEST DUP2 PUSH2 0xF6F PUSH1 0x20 SWAP4 DUP4 PUSH2 0x1690 JUMP JUMPDEST DUP2 ADD SUB SLT PUSH2 0xDE JUMPI MLOAD DUP2 PUSH2 0xF14 JUMP JUMPDEST RETURNDATASIZE SWAP2 POP PUSH2 0xF62 JUMP JUMPDEST PUSH1 0x20 CALLDATASIZE PUSH1 0x3 NOT ADD SLT PUSH2 0xDE JUMPI PUSH1 0x4 CALLDATALOAD PUSH1 0x0 MSTORE PUSH1 0xA PUSH1 0x20 MSTORE PUSH1 0x40 PUSH1 0x0 KECCAK256 PUSH1 0x7 PUSH1 0x40 MLOAD SWAP2 PUSH2 0xFB1 DUP4 PUSH2 0x1673 JUMP JUMPDEST DUP1 SLOAD DUP4 MSTORE PUSH1 0x1 DUP2 ADD SLOAD SWAP1 PUSH1 0x20 DUP5 ADD SWAP2 DUP3 MSTORE PUSH1 0x2 DUP2 ADD SLOAD PUSH1 0x40 DUP6 ADD MSTORE PUSH1 0x3 DUP2 ADD SLOAD PUSH1 0x60 DUP6 ADD MSTORE PUSH2 0xFEA PUSH1 0xFF PUSH1 0x4 DUP4 ADD SLOAD AND PUSH1 0x80 DUP7 ADD PUSH2 0x164B JUMP JUMPDEST PUSH1 0x5 DUP2 ADD SLOAD PUSH1 0xA0 DUP6 ADD MSTORE PUSH1 0x6 DUP2 ADD SLOAD PUSH1 0xC0 DUP6 ADD MSTORE PUSH2 0xFFFF SWAP3 DUP4 SWAP2 ADD SLOAD AND PUSH1 0xE0 DUP5 ADD MSTORE PUSH1 0x80 DUP4 ADD MLOAD PUSH1 0x4 DUP2 LT ISZERO PUSH2 0x5FB JUMPI PUSH1 0x1 PUSH2 0x1026 SWAP2 EQ PUSH2 0x16B2 JUMP JUMPDEST MLOAD SWAP2 PUSH1 0x40 MLOAD SWAP3 PUSH4 0x2E7682C7 PUSH1 0xE1 SHL DUP5 MSTORE PUSH1 0x4 DUP5 ADD MSTORE PUSH1 0x24 SWAP3 PUSH1 0x20 DUP2 DUP6 DUP2 PUSH20 0x0 GAS DELEGATECALL SWAP1 DUP2 ISZERO PUSH2 0x643 JUMPI PUSH1 0x0 SWAP2 PUSH2 0x13C8 JUMPI JUMPDEST POP PUSH1 0x1 PUSH1 0x1 PUSH1 0xA0 SHL SUB SWAP1 DUP2 CALLER SWAP2 AND SUB PUSH2 0x1384 JUMPI PUSH6 0xF7CF9B8D0000 PUSH2 0x10AD PUSH1 0x60 DUP5 ADD MLOAD PUSH2 0x10A8 PUSH1 0xA0 DUP7 ADD MLOAD PUSH2 0x10A2 PUSH1 0xC0 DUP9 ADD MLOAD SWAP2 TIMESTAMP PUSH2 0x18F3 JUMP JUMPDEST SWAP3 PUSH2 0x1900 JUMP JUMPDEST PUSH2 0x1900 JUMP JUMPDEST DIV PUSH1 0x60 DUP4 ADD MLOAD SWAP1 DUP2 ADD DUP1 SWAP2 GT PUSH2 0x136F JUMPI PUSH1 0x40 DUP4 ADD MLOAD SWAP1 PUSH1 0x40 MLOAD SWAP2 PUSH4 0x2E7682C7 PUSH1 0xE1 SHL DUP4 MSTORE PUSH1 0x4 DUP4 ADD MSTORE PUSH1 0x20 DUP3 DUP8 DUP2 PUSH20 0x0 GAS DELEGATECALL SWAP2 DUP3 ISZERO PUSH2 0x643 JUMPI DUP4 SWAP3 PUSH1 0x20 SWAP3 PUSH2 0x113D SWAP3 PUSH1 0x0 SWAP3 PUSH2 0x1350 JUMPI JUMPDEST POP PUSH1 0x40 MLOAD PUSH4 0x23B872DD PUSH1 0xE0 SHL DUP2 MSTORE CALLER PUSH1 0x4 DUP3 ADD MSTORE ADDRESS PUSH1 0x24 DUP3 ADD MSTORE PUSH1 0x44 DUP2 ADD SWAP2 SWAP1 SWAP2 MSTORE SWAP4 DUP5 SWAP3 DUP4 SWAP2 PUSH1 0x0 SWAP2 DUP4 SWAP1 PUSH1 0x64 DUP3 ADD SWAP1 JUMP JUMPDEST SUB SWAP4 AND GAS CALL DUP1 ISZERO PUSH2 0x643 JUMPI PUSH2 0x1331 JUMPI JUMPDEST POP PUSH1 0x40 MLOAD PUSH4 0x82C947B7 PUSH1 0xE0 SHL DUP2 MSTORE ADDRESS PUSH1 0x4 DUP3 ADD MSTORE PUSH1 0x20 DUP2 DUP7 DUP2 PUSH20 0x0 GAS DELEGATECALL SWAP1 DUP2 ISZERO PUSH2 0x643 JUMPI PUSH1 0x0 SWAP2 PUSH2 0x12FF JUMPI JUMPDEST POP DUP4 PUSH1 0xE0 DUP5 ADD MLOAD AND PUSH1 0x0 MSTORE PUSH1 0x8 PUSH1 0x20 MSTORE PUSH1 0x40 PUSH1 0x0 KECCAK256 SLOAD SWAP2 PUSH32 0x0 AND SWAP2 PUSH1 0x40 MLOAD SWAP2 PUSH4 0x1A90A219 PUSH1 0xE0 SHL DUP4 MSTORE PUSH1 0x20 DUP4 PUSH1 0x4 DUP2 DUP8 GAS STATICCALL SWAP3 DUP4 ISZERO PUSH2 0x643 JUMPI PUSH1 0x0 SWAP4 PUSH2 0x12CB JUMPI JUMPDEST POP PUSH2 0x11F8 DUP4 CALLVALUE EQ PUSH2 0x1734 JUMP JUMPDEST PUSH1 0x3 SLOAD SWAP6 PUSH1 0xE0 DUP7 ADD MLOAD AND PUSH1 0x40 MLOAD SWAP7 PUSH1 0x20 DUP9 ADD MSTORE PUSH1 0x4 CALLDATALOAD PUSH1 0x40 DUP9 ADD MSTORE PUSH1 0x60 DUP8 ADD MSTORE PUSH1 0x80 DUP7 ADD MSTORE PUSH1 0xA0 DUP6 ADD MSTORE PUSH1 0xA0 DUP5 MSTORE PUSH1 0xC0 DUP5 ADD SWAP5 DUP5 DUP7 LT PUSH8 0xFFFFFFFFFFFFFFFF DUP8 GT OR PUSH2 0x12B7 JUMPI POP PUSH1 0x20 SWAP2 DUP6 DUP1 SWAP3 DUP2 PUSH1 0x40 MSTORE PUSH4 0xFFFFFFFF PUSH1 0x5 SLOAD AND PUSH4 0x58CD21BF PUSH1 0xE1 SHL DUP4 MSTORE DUP8 PUSH2 0x126E DUP2 PUSH1 0xBF NOT SWAP4 PUSH1 0xC4 DUP3 ADD PUSH2 0x179F JUMP JUMPDEST SUB ADD SWAP3 GAS CALL SWAP2 DUP3 ISZERO PUSH2 0x643 JUMPI PUSH1 0x2 SWAP4 PUSH1 0x80 SWAP4 PUSH2 0x1294 JUMPI JUMPDEST POP POP ADD MSTORE PUSH1 0x20 PUSH1 0x40 MLOAD PUSH1 0x1 DUP2 MSTORE RETURN JUMPDEST PUSH1 0xC0 PUSH2 0x12AF SWAP3 PUSH1 0x20 SWAP1 RETURNDATASIZE PUSH1 0x20 GT PUSH2 0x67A JUMPI PUSH2 0x669 DUP3 DUP6 PUSH2 0x1690 JUMP JUMPDEST POP DUP4 DUP1 PUSH2 0x1285 JUMP JUMPDEST PUSH4 0x4E487B71 PUSH1 0xE0 SHL PUSH1 0x0 MSTORE PUSH1 0x41 PUSH1 0x4 MSTORE PUSH1 0x0 REVERT JUMPDEST SWAP1 SWAP3 POP PUSH1 0x20 DUP2 RETURNDATASIZE PUSH1 0x20 GT PUSH2 0x12F7 JUMPI JUMPDEST DUP2 PUSH2 0x12E7 PUSH1 0x20 SWAP4 DUP4 PUSH2 0x1690 JUMP JUMPDEST DUP2 ADD SUB SLT PUSH2 0xDE JUMPI MLOAD SWAP2 DUP8 PUSH2 0x11EC JUMP JUMPDEST RETURNDATASIZE SWAP2 POP PUSH2 0x12DA JUMP JUMPDEST SWAP1 POP PUSH1 0x20 DUP2 RETURNDATASIZE PUSH1 0x20 GT PUSH2 0x1329 JUMPI JUMPDEST DUP2 PUSH2 0x131A PUSH1 0x20 SWAP4 DUP4 PUSH2 0x1690 JUMP JUMPDEST DUP2 ADD SUB SLT PUSH2 0xDE JUMPI MLOAD DUP6 PUSH2 0x118C JUMP JUMPDEST RETURNDATASIZE SWAP2 POP PUSH2 0x130D JUMP JUMPDEST PUSH2 0x1349 SWAP1 PUSH1 0x20 RETURNDATASIZE PUSH1 0x20 GT PUSH2 0x7C6 JUMPI PUSH2 0x7B7 DUP2 DUP4 PUSH2 0x1690 JUMP JUMPDEST POP DUP5 PUSH2 0x114D JUMP JUMPDEST PUSH2 0x1368 SWAP2 SWAP3 POP DUP5 RETURNDATASIZE DUP7 GT PUSH2 0x7F5 JUMPI PUSH2 0x7E7 DUP2 DUP4 PUSH2 0x1690 JUMP JUMPDEST SWAP1 DUP10 PUSH2 0x110A JUMP JUMPDEST DUP5 PUSH4 0x4E487B71 PUSH1 0xE0 SHL PUSH1 0x0 MSTORE PUSH1 0x11 PUSH1 0x4 MSTORE PUSH1 0x0 REVERT JUMPDEST PUSH1 0x64 DUP5 PUSH1 0x11 PUSH1 0x40 MLOAD SWAP2 PUSH3 0x461BCD PUSH1 0xE5 SHL DUP4 MSTORE PUSH1 0x20 PUSH1 0x4 DUP5 ADD MSTORE DUP3 ADD MSTORE PUSH32 0x556E617574686F72697A6564206C6F616E000000000000000000000000000000 PUSH1 0x44 DUP3 ADD MSTORE REVERT JUMPDEST PUSH2 0x13E1 SWAP2 POP PUSH1 0x20 RETURNDATASIZE PUSH1 0x20 GT PUSH2 0x7F5 JUMPI PUSH2 0x7E7 DUP2 DUP4 PUSH2 0x1690 JUMP JUMPDEST DUP5 PUSH2 0x1069 JUMP JUMPDEST CALLVALUE PUSH2 0xDE JUMPI PUSH1 0x40 CALLDATASIZE PUSH1 0x3 NOT ADD SLT PUSH2 0xDE JUMPI PUSH4 0xFFFFFFFF PUSH2 0x1405 PUSH2 0x15DC JUMP JUMPDEST PUSH2 0x140D PUSH2 0x189B JUMP JUMPDEST AND DUP1 PUSH1 0x0 MSTORE PUSH1 0x20 PUSH1 0x6 DUP2 MSTORE PUSH2 0x142A PUSH1 0xFF PUSH1 0x40 PUSH1 0x0 KECCAK256 SLOAD AND ISZERO PUSH2 0x1600 JUMP JUMPDEST PUSH1 0x24 CALLDATALOAD PUSH1 0x0 MSTORE PUSH1 0x9 DUP2 MSTORE PUSH1 0x40 PUSH1 0x0 KECCAK256 SWAP2 PUSH1 0x40 MLOAD SWAP3 PUSH2 0x1447 DUP5 PUSH2 0x1657 JUMP JUMPDEST DUP1 SLOAD DUP5 MSTORE PUSH1 0x1 DUP2 ADD SLOAD SWAP4 DUP4 DUP2 ADD SWAP5 DUP6 MSTORE PUSH1 0x2 DUP3 ADD SLOAD SWAP5 PUSH1 0x40 DUP3 ADD SWAP6 DUP7 MSTORE PUSH1 0x4 PUSH1 0xFF PUSH1 0x3 DUP6 ADD SLOAD AND SWAP4 PUSH2 0x147D PUSH1 0x60 DUP6 ADD SWAP6 DUP7 PUSH2 0x164B JUMP JUMPDEST ADD SLOAD PUSH1 0x80 DUP4 ADD MSTORE DUP3 MLOAD PUSH1 0x4 DUP2 LT ISZERO PUSH2 0x5FB JUMPI PUSH1 0x1 PUSH2 0x149B SWAP2 EQ PUSH2 0x16B2 JUMP JUMPDEST MLOAD SWAP1 PUSH20 0x0 SWAP2 PUSH1 0x40 MLOAD SWAP1 PUSH4 0x2E7682C7 PUSH1 0xE1 SHL SWAP1 DUP2 DUP4 MSTORE PUSH1 0x4 DUP4 ADD MSTORE DUP7 DUP3 PUSH1 0x24 DUP2 DUP8 GAS DELEGATECALL SWAP3 DUP4 ISZERO PUSH2 0x643 JUMPI DUP8 SWAP3 PUSH1 0x0 SWAP5 PUSH2 0x15BA JUMPI JUMPDEST POP PUSH1 0x24 SWAP1 MLOAD SWAP2 PUSH1 0x40 MLOAD SWAP6 DUP7 SWAP4 DUP5 SWAP3 DUP4 MSTORE PUSH1 0x4 DUP4 ADD MSTORE GAS DELEGATECALL SWAP1 DUP2 ISZERO PUSH2 0x643 JUMPI PUSH2 0x154C SWAP7 DUP7 SWAP4 PUSH1 0x0 SWAP4 PUSH2 0x159B JUMPI JUMPDEST POP MLOAD SWAP2 PUSH1 0x0 PUSH1 0x1 PUSH1 0x1 PUSH1 0xA0 SHL SUB PUSH1 0x40 MLOAD DUP1 SWAP11 DUP2 SWAP7 DUP3 SWAP6 PUSH4 0xA9059CBB PUSH1 0xE0 SHL DUP5 MSTORE PUSH1 0x4 DUP5 ADD PUSH1 0x20 SWAP1 SWAP4 SWAP3 SWAP2 SWAP4 PUSH1 0x1 PUSH1 0x1 PUSH1 0xA0 SHL SUB PUSH1 0x40 DUP3 ADD SWAP6 AND DUP2 MSTORE ADD MSTORE JUMP JUMPDEST SUB SWAP4 AND GAS CALL SWAP1 DUP2 ISZERO PUSH2 0x643 JUMPI PUSH1 0x6 SWAP5 PUSH1 0x2 SWAP3 PUSH2 0x157E JUMPI JUMPDEST POP MSTORE PUSH1 0x0 MSTORE MSTORE PUSH1 0x40 PUSH1 0x0 KECCAK256 PUSH1 0x1 PUSH1 0xFF NOT DUP3 SLOAD AND OR SWAP1 SSTORE PUSH1 0x0 DUP1 RETURN JUMPDEST PUSH2 0x1594 SWAP1 DUP6 RETURNDATASIZE DUP8 GT PUSH2 0x7C6 JUMPI PUSH2 0x7B7 DUP2 DUP4 PUSH2 0x1690 JUMP JUMPDEST POP DUP6 PUSH2 0x1563 JUMP JUMPDEST PUSH2 0x15B3 SWAP2 SWAP4 POP DUP5 RETURNDATASIZE DUP7 GT PUSH2 0x7F5 JUMPI PUSH2 0x7E7 DUP2 DUP4 PUSH2 0x1690 JUMP JUMPDEST SWAP2 DUP9 PUSH2 0x150D JUMP JUMPDEST PUSH1 0x24 SWAP2 SWAP5 POP PUSH2 0x15D5 SWAP1 DUP5 RETURNDATASIZE DUP7 GT PUSH2 0x7F5 JUMPI PUSH2 0x7E7 DUP2 DUP4 PUSH2 0x1690 JUMP JUMPDEST SWAP4 SWAP1 PUSH2 0x14E1 JUMP JUMPDEST PUSH1 0x4 CALLDATALOAD SWAP1 PUSH4 0xFFFFFFFF DUP3 AND DUP3 SUB PUSH2 0xDE JUMPI JUMP JUMPDEST PUSH1 0x4 CALLDATALOAD SWAP1 PUSH2 0xFFFF DUP3 AND DUP3 SUB PUSH2 0xDE JUMPI JUMP JUMPDEST ISZERO PUSH2 0x1607 JUMPI JUMP JUMPDEST PUSH1 0x64 PUSH1 0x40 MLOAD PUSH3 0x461BCD PUSH1 0xE5 SHL DUP2 MSTORE PUSH1 0x20 PUSH1 0x4 DUP3 ADD MSTORE PUSH1 0x1B PUSH1 0x24 DUP3 ADD MSTORE PUSH32 0x4E6F6E63652077617320616C72656164792065786563757465642E0000000000 PUSH1 0x44 DUP3 ADD MSTORE REVERT JUMPDEST PUSH1 0x4 DUP3 LT ISZERO PUSH2 0x5FB JUMPI MSTORE JUMP JUMPDEST PUSH1 0xA0 DUP2 ADD SWAP1 DUP2 LT PUSH8 0xFFFFFFFFFFFFFFFF DUP3 GT OR PUSH2 0x682 JUMPI PUSH1 0x40 MSTORE JUMP JUMPDEST PUSH2 0x100 DUP2 ADD SWAP1 DUP2 LT PUSH8 0xFFFFFFFFFFFFFFFF DUP3 GT OR PUSH2 0x682 JUMPI PUSH1 0x40 MSTORE JUMP JUMPDEST SWAP1 PUSH1 0x1F DUP1 NOT SWAP2 ADD AND DUP2 ADD SWAP1 DUP2 LT PUSH8 0xFFFFFFFFFFFFFFFF DUP3 GT OR PUSH2 0x682 JUMPI PUSH1 0x40 MSTORE JUMP JUMPDEST ISZERO PUSH2 0x16B9 JUMPI JUMP JUMPDEST PUSH1 0x64 PUSH1 0x40 MLOAD PUSH3 0x461BCD PUSH1 0xE5 SHL DUP2 MSTORE PUSH1 0x20 PUSH1 0x4 DUP3 ADD MSTORE PUSH1 0x12 PUSH1 0x24 DUP3 ADD MSTORE PUSH32 0x4C6F616E206973206E6F74206163746976650000000000000000000000000000 PUSH1 0x44 DUP3 ADD MSTORE REVERT JUMPDEST SWAP1 DUP2 PUSH1 0x20 SWAP2 SUB SLT PUSH2 0xDE JUMPI MLOAD PUSH1 0x1 PUSH1 0x1 PUSH1 0xA0 SHL SUB DUP2 AND DUP2 SUB PUSH2 0xDE JUMPI SWAP1 JUMP JUMPDEST SWAP1 DUP2 PUSH1 0x20 SWAP2 SUB SLT PUSH2 0xDE JUMPI MLOAD DUP1 ISZERO ISZERO DUP2 SUB PUSH2 0xDE JUMPI SWAP1 JUMP JUMPDEST ISZERO PUSH2 0x173B JUMPI JUMP JUMPDEST PUSH1 0x64 PUSH1 0x40 MLOAD PUSH3 0x461BCD PUSH1 0xE5 SHL DUP2 MSTORE PUSH1 0x20 PUSH1 0x4 DUP3 ADD MSTORE PUSH1 0x18 PUSH1 0x24 DUP3 ADD MSTORE PUSH32 0x496E73756666696369656E74206D657373616765206665650000000000000000 PUSH1 0x44 DUP3 ADD MSTORE REVERT JUMPDEST SWAP1 DUP2 PUSH1 0x20 SWAP2 SUB SLT PUSH2 0xDE JUMPI MLOAD PUSH8 0xFFFFFFFFFFFFFFFF DUP2 AND DUP2 SUB PUSH2 0xDE JUMPI SWAP1 JUMP JUMPDEST SWAP3 SWAP2 SWAP1 PUSH4 0xFFFFFFFF AND DUP4 MSTORE PUSH1 0x20 PUSH1 0x60 PUSH1 0x20 DUP6 ADD MSTORE DUP2 MLOAD SWAP2 DUP3 PUSH1 0x60 DUP7 ADD MSTORE PUSH1 0x0 JUMPDEST DUP4 DUP2 LT PUSH2 0x17E6 JUMPI POP POP POP PUSH1 0x40 PUSH1 0x80 DUP3 PUSH1 0x0 DUP3 DUP2 SWAP6 DUP9 ADD ADD MSTORE PUSH1 0x1F DUP1 NOT SWAP2 ADD AND DUP6 ADD ADD SWAP4 ADD MSTORE JUMP JUMPDEST DUP2 DUP2 ADD DUP4 ADD MLOAD DUP7 DUP3 ADD PUSH1 0x80 ADD MSTORE DUP3 ADD PUSH2 0x17BF JUMP JUMPDEST PUSH1 0xD SLOAD DUP2 LT ISZERO PUSH2 0x1831 JUMPI PUSH1 0xD PUSH1 0x0 MSTORE PUSH32 0xD7B6990105719101DABEB77144F2A3385C8033ACD3AF97E9423A695E81AD1EB5 ADD SWAP1 PUSH1 0x0 SWAP1 JUMP JUMPDEST PUSH4 0x4E487B71 PUSH1 0xE0 SHL PUSH1 0x0 MSTORE PUSH1 0x32 PUSH1 0x4 MSTORE PUSH1 0x24 PUSH1 0x0 REVERT JUMPDEST SWAP1 PUSH1 0x4 DUP2 LT ISZERO PUSH2 0x5FB JUMPI PUSH1 0xFF DUP1 NOT DUP4 SLOAD AND SWAP2 AND OR SWAP1 SSTORE JUMP JUMPDEST PUSH1 0xD SLOAD SWAP1 PUSH1 0x0 JUMPDEST DUP3 DUP2 LT PUSH2 0x1875 JUMPI POP POP POP PUSH1 0x0 SWAP1 JUMP JUMPDEST DUP2 PUSH2 0x187F DUP3 PUSH2 0x17FA JUMP JUMPDEST SWAP1 SLOAD SWAP1 PUSH1 0x3 SHL SHR EQ PUSH2 0x1893 JUMPI PUSH1 0x1 ADD PUSH2 0x1866 JUMP JUMPDEST POP POP POP PUSH1 0x1 SWAP1 JUMP JUMPDEST PUSH1 0x1 PUSH1 0x1 PUSH1 0xA0 SHL SUB PUSH1 0x0 SLOAD AND CALLER SUB PUSH2 0x18AF JUMPI JUMP JUMPDEST PUSH1 0x64 PUSH1 0x40 MLOAD PUSH3 0x461BCD PUSH1 0xE5 SHL DUP2 MSTORE PUSH1 0x20 PUSH1 0x4 DUP3 ADD MSTORE PUSH1 0x20 PUSH1 0x24 DUP3 ADD MSTORE PUSH32 0x4F776E61626C653A2063616C6C6572206973206E6F7420746865206F776E6572 PUSH1 0x44 DUP3 ADD MSTORE REVERT JUMPDEST SWAP2 SWAP1 DUP3 SUB SWAP2 DUP3 GT PUSH2 0x5E5 JUMPI JUMP JUMPDEST DUP2 DUP2 MUL SWAP3 SWAP2 DUP2 ISZERO SWAP2 DUP5 DIV EQ OR ISZERO PUSH2 0x5E5 JUMPI JUMP JUMPDEST SWAP2 SWAP1 PUSH1 0xFF AND PUSH1 0x64 DUP2 GT PUSH2 0x193A JUMPI PUSH1 0x64 PUSH2 0x192F PUSH2 0x1937 SWAP3 DUP6 PUSH2 0x1900 JUMP JUMPDEST DIV DUP1 SWAP4 PUSH2 0x18F3 JUMP JUMPDEST SWAP1 JUMP JUMPDEST PUSH1 0x84 PUSH1 0x40 MLOAD PUSH3 0x461BCD PUSH1 0xE5 SHL DUP2 MSTORE PUSH1 0x20 PUSH1 0x4 DUP3 ADD MSTORE PUSH1 0x24 DUP1 DUP3 ADD MSTORE PUSH32 0x50657263656E74616765206D757374206265206265747765656E203020616E64 PUSH1 0x44 DUP3 ADD MSTORE PUSH32 0x2031303000000000000000000000000000000000000000000000000000000000 PUSH1 0x64 DUP3 ADD MSTORE REVERT INVALID LOG2 PUSH5 0x6970667358 0x22 SLT KECCAK256 BLOBHASH CODESIZE 0xED PUSH0 SUB PUSH7 0x85334A488EF95 MSTORE8 0xED PUSH0 CALLVALUE STATICCALL 0xC 0xD2 PUSH10 0x225904CEB7589F974C6E MSTORE8 PUSH5 0x736F6C6343 STOP ADDMOD XOR STOP CALLER "
        },
        "methodIdentifiers": {
          "_isTokenSupported(bytes32)": "f770a695",
          "acceptOwnership()": "79ba5097",
          "addForeignOrbital(uint16,bytes32)": "75f5172e",
          "addSupportedToken(address)": "6d69fcaf",
          "borrow(uint16,bytes32,bytes32,uint256,bytes32)": "d80b52b6",
          "getAmountOut(bytes32,bytes32,uint256,uint8)": "7b76ba8a",
          "owner()": "8da5cb5b",
          "pendingOwner()": "e30c3978",
          "receiveOnBorrow(uint32,bytes32,bytes32,uint16,bytes32,bytes32,uint256)": "8299852c",
          "receiveOnRepay(uint32,bytes32)": "0b3735fb",
          "receiveOnStakeSuiFrens(uint32,bytes32,bool)": "7fc9b2bb",
          "renounceOwnership()": "715018a6",
          "repay(bytes32)": "563dd613",
          "transferOwnership(address)": "f2fde38b"
        }
      }
    }
  }
}