{
  "contracts/Orbital.sol": {
    "Orbital": {
      "abi": [
        {
          "inputs": [
            {
              "internalType": "address",
              "name": "priceFeeds",
              "type": "address"
            },
            {
              "internalType": "address",
              "name": "wormhole",
              "type": "address"
            }
          ],
          "stateMutability": "nonpayable",
          "type": "constructor"
        },
        {
          "anonymous": false,
          "inputs": [
            {
              "indexed": true,
              "internalType": "address",
              "name": "previousOwner",
              "type": "address"
            },
            {
              "indexed": true,
              "internalType": "address",
              "name": "newOwner",
              "type": "address"
            }
          ],
          "name": "OwnershipTransferStarted",
          "type": "event"
        },
        {
          "anonymous": false,
          "inputs": [
            {
              "indexed": true,
              "internalType": "address",
              "name": "previousOwner",
              "type": "address"
            },
            {
              "indexed": true,
              "internalType": "address",
              "name": "newOwner",
              "type": "address"
            }
          ],
          "name": "OwnershipTransferred",
          "type": "event"
        },
        {
          "inputs": [
            {
              "internalType": "bytes32",
              "name": "tokenId",
              "type": "bytes32"
            }
          ],
          "name": "_isTokenSupported",
          "outputs": [
            {
              "internalType": "bool",
              "name": "",
              "type": "bool"
            }
          ],
          "stateMutability": "view",
          "type": "function"
        },
        {
          "inputs": [],
          "name": "acceptOwnership",
          "outputs": [],
          "stateMutability": "nonpayable",
          "type": "function"
        },
        {
          "inputs": [
            {
              "internalType": "uint16",
              "name": "chainId",
              "type": "uint16"
            },
            {
              "internalType": "bytes32",
              "name": "orbital",
              "type": "bytes32"
            }
          ],
          "name": "addForeignOrbital",
          "outputs": [],
          "stateMutability": "nonpayable",
          "type": "function"
        },
        {
          "inputs": [
            {
              "internalType": "address",
              "name": "token",
              "type": "address"
            }
          ],
          "name": "addSupportedToken",
          "outputs": [],
          "stateMutability": "nonpayable",
          "type": "function"
        },
        {
          "inputs": [
            {
              "internalType": "uint16",
              "name": "toChainId",
              "type": "uint16"
            },
            {
              "internalType": "bytes32",
              "name": "tokenIn",
              "type": "bytes32"
            },
            {
              "internalType": "bytes32",
              "name": "tokenOut",
              "type": "bytes32"
            },
            {
              "internalType": "uint256",
              "name": "value",
              "type": "uint256"
            },
            {
              "internalType": "bytes32",
              "name": "receiver",
              "type": "bytes32"
            }
          ],
          "name": "borrow",
          "outputs": [
            {
              "internalType": "bytes32",
              "name": "",
              "type": "bytes32"
            }
          ],
          "stateMutability": "payable",
          "type": "function"
        },
        {
          "inputs": [
            {
              "internalType": "bytes32",
              "name": "tokenIn",
              "type": "bytes32"
            },
            {
              "internalType": "bytes32",
              "name": "tokenOut",
              "type": "bytes32"
            },
            {
              "internalType": "uint256",
              "name": "amountIn",
              "type": "uint256"
            },
            {
              "internalType": "uint8",
              "name": "ltv",
              "type": "uint8"
            }
          ],
          "name": "getAmountOut",
          "outputs": [
            {
              "internalType": "uint256",
              "name": "",
              "type": "uint256"
            }
          ],
          "stateMutability": "view",
          "type": "function"
        },
        {
          "inputs": [],
          "name": "owner",
          "outputs": [
            {
              "internalType": "address",
              "name": "",
              "type": "address"
            }
          ],
          "stateMutability": "view",
          "type": "function"
        },
        {
          "inputs": [],
          "name": "pendingOwner",
          "outputs": [
            {
              "internalType": "address",
              "name": "",
              "type": "address"
            }
          ],
          "stateMutability": "view",
          "type": "function"
        },
        {
          "inputs": [
            {
              "internalType": "uint32",
              "name": "wormholeNonce",
              "type": "uint32"
            },
            {
              "internalType": "bytes32",
              "name": "method",
              "type": "bytes32"
            },
            {
              "internalType": "bytes32",
              "name": "loanId",
              "type": "bytes32"
            },
            {
              "internalType": "bytes32",
              "name": "receiver",
              "type": "bytes32"
            },
            {
              "internalType": "uint16",
              "name": "fromChainId",
              "type": "uint16"
            },
            {
              "internalType": "bytes32",
              "name": "fromContractId",
              "type": "bytes32"
            },
            {
              "internalType": "bytes32",
              "name": "tokenOut",
              "type": "bytes32"
            },
            {
              "internalType": "uint256",
              "name": "value",
              "type": "uint256"
            }
          ],
          "name": "receiveOnBorrow",
          "outputs": [],
          "stateMutability": "nonpayable",
          "type": "function"
        },
        {
          "inputs": [
            {
              "internalType": "uint32",
              "name": "wormholeNonce",
              "type": "uint32"
            },
            {
              "internalType": "bytes32",
              "name": "method",
              "type": "bytes32"
            },
            {
              "internalType": "bytes32",
              "name": "loanId",
              "type": "bytes32"
            }
          ],
          "name": "receiveOnRepay",
          "outputs": [],
          "stateMutability": "nonpayable",
          "type": "function"
        },
        {
          "inputs": [
            {
              "internalType": "uint32",
              "name": "wormholeNonce",
              "type": "uint32"
            },
            {
              "internalType": "bytes32",
              "name": "method",
              "type": "bytes32"
            },
            {
              "internalType": "bytes32",
              "name": "receiver",
              "type": "bytes32"
            },
            {
              "internalType": "bool",
              "name": "status",
              "type": "bool"
            }
          ],
          "name": "receiveOnStakeSuiFrens",
          "outputs": [],
          "stateMutability": "nonpayable",
          "type": "function"
        },
        {
          "inputs": [],
          "name": "renounceOwnership",
          "outputs": [],
          "stateMutability": "nonpayable",
          "type": "function"
        },
        {
          "inputs": [
            {
              "internalType": "bytes32",
              "name": "loanId",
              "type": "bytes32"
            }
          ],
          "name": "repay",
          "outputs": [
            {
              "internalType": "bool",
              "name": "",
              "type": "bool"
            }
          ],
          "stateMutability": "payable",
          "type": "function"
        },
        {
          "inputs": [
            {
              "internalType": "address",
              "name": "newOwner",
              "type": "address"
            }
          ],
          "name": "transferOwnership",
          "outputs": [],
          "stateMutability": "nonpayable",
          "type": "function"
        }
      ],
      "evm": {
        "bytecode": {
          "linkReferences": {
            "contracts/libraries/AddressToBytes32.sol": {
              "AddressToBytes32": [
                {
                  "length": 20,
                  "start": 838
                },
                {
                  "length": 20,
                  "start": 1062
                },
                {
                  "length": 20,
                  "start": 1269
                },
                {
                  "length": 20,
                  "start": 1413
                },
                {
                  "length": 20,
                  "start": 1678
                },
                {
                  "length": 20,
                  "start": 3466
                },
                {
                  "length": 20,
                  "start": 3807
                },
                {
                  "length": 20,
                  "start": 3959
                },
                {
                  "length": 20,
                  "start": 4098
                },
                {
                  "length": 20,
                  "start": 4911
                },
                {
                  "length": 20,
                  "start": 5753
                }
              ]
            }
          },
          "object": "60a03461014357601f62001bb338819003918201601f19168301916001600160401b0383118484101761014857808492604094855283398101031261014357610053602061004c8361015e565b920161015e565b600180546001600160a01b0319908116909155600080543381841681178355604051956001600160a01b0395949386939192918416907f8be0079c531659141344cd1fd0a4f28419497f9722a3daafe3b4186f6b6457e09080a36f13d397d093d49493d5d7d351551213d160821b6002556e13d397d49154105657d351551213d1608a1b6003557013d397d111519055531517d351551213d1607a1b6004556007805460ff191660501790556005805463ffffffff19166001179055600e8054909316911617905516608052611a409081620001738239608051818181610328015281816104d00152610ecc0152f35b600080fd5b634e487b7160e01b600052604160045260246000fd5b51906001600160a01b03821682036101435756fe6080604052600436101561001257600080fd5b60003560e01c806313d80c1e14611443578063418bd4b61461110e578063563dd61314610cad5780636d69fcaf14610bcf578063715018a614610b60578063722da3c214610a8557806375f5172e14610a4a57806379ba5097146109695780637b76ba8a146108ab5780638da5cb5b14610884578063d80b52b614610182578063e30c39781461015b578063f2fde38b146100e35763f770a695146100b657600080fd5b346100de5760203660031901126100de5760206100d46004356118c6565b6040519015158152f35b600080fd5b346100de5760203660031901126100de576004356001600160a01b038082168092036100de57610111611902565b8173ffffffffffffffffffffffffffffffffffffffff196001541617600155600054167f38d16b8cac22d99fc7c124b9cd0de2d3fa1faef420bfe791d8c362d765e22700600080a3005b346100de5760003660031901126100de5760206001600160a01b0360015416604051908152f35b60a03660031901126100de57610196611656565b6101a16024356118c6565b15610840576101b16044356118c6565b156107fc57604051632e7682c760e11b8152602435600482015260208160248173__$cd1346a8e2955df852b4501a7004a2b636$__5af4908115610643576000916107cd575b506040516323b872dd60e01b81523360048201523060248201526064803560448301529091602091839182906000906001600160a01b03165af180156106435761079e575b506001600160a01b03600e54166020604051809263f52b31f160e01b82528180610282606435604435602435600485016040919493926060820195825260208201520152565b03915afa9081156106435760009161076c575b5060006040516382c947b760e01b815233600482015260208160248173__$cd1346a8e2955df852b4501a7004a2b636$__5af49081156106435760009161073a575b50600052600b60205260ff60406000205416610732575b60ff806007541691160160ff81116105e5576103099161197a565b5090604051631a90a21960e01b81526020816004816001600160a01b037f0000000000000000000000000000000000000000000000000000000000000000165afa90811561064357600091610700575b506103668134101561179b565b604051926382c947b760e01b845230600485015260208460248173__$cd1346a8e2955df852b4501a7004a2b636$__5af4938415610643576000946106cc575b5061ffff8316600052600860205260406000205463ffffffff60055416604051602081019133835260843560408301526060820152426080820152608081526103ee816116be565b5190209460025494604051906382c947b760e01b825233600483015260208260248173__$cd1346a8e2955df852b4501a7004a2b636$__5af4801561064357600090610698575b61ffff9250604051976020890152886040890152606088015260843560808801521660a086015260c085015260e0840152604435610100840152610120908184015282526101408083019183831067ffffffffffffffff8411176106825782602091816040528163ffffffff600554166358cd21bf60e11b8252876104c38161013f19936101448201611806565b0301916001600160a01b037f0000000000000000000000000000000000000000000000000000000000000000165af180156106435761064f575b5050506040516382c947b760e01b815233600482015260208160248173__$cd1346a8e2955df852b4501a7004a2b636$__5af490811561064357600091610611575b506040519061054d826116be565b81526020810160243581526040820160643581526060830190600182526080840192428452856000526009602052604060002094518555516001850155516002840155519060048210156105fb576105aa600492600385016118ae565b519101556005549063ffffffff82169163ffffffff83146105e55763ffffffff600160209401169063ffffffff191617600555604051908152f35b634e487b7160e01b600052601160045260246000fd5b634e487b7160e01b600052602160045260246000fd5b90506020813d60201161063b575b8161062c602093836116f7565b810103126100de57518261053f565b3d915061061f565b6040513d6000823e3d90fd5b610671926020903d60201161067a575b61066982856116f7565b0101906117e6565b508180806104fd565b3d915061065f565b634e487b7160e01b600052604160045260246000fd5b506020823d6020116106c4575b816106b2602093836116f7565b810103126100de5761ffff9151610435565b3d91506106a5565b9093506020813d6020116106f8575b816106e8602093836116f7565b810103126100de575192846103a6565b3d91506106db565b90506020813d60201161072a575b8161071b602093836116f7565b810103126100de575183610359565b3d915061070e565b50600a6102ee565b90506020813d602011610764575b81610755602093836116f7565b810103126100de5751846102d7565b3d9150610748565b90506020813d602011610796575b81610787602093836116f7565b810103126100de575182610295565b3d915061077a565b6107bf9060203d6020116107c6575b6107b781836116f7565b810190611783565b508161023c565b503d6107ad565b6107ef915060203d6020116107f5575b6107e781836116f7565b810190611764565b826101f7565b503d6107dd565b606460405162461bcd60e51b815260206004820152601760248201527f546f6b656e206f7574206e6f7420737570706f727465640000000000000000006044820152fd5b606460405162461bcd60e51b815260206004820152601660248201527f546f6b656e20696e206e6f7420737570706f72746564000000000000000000006044820152fd5b346100de5760003660031901126100de5760206001600160a01b0360005416604051908152f35b346100de5760803660031901126100de5760643560ff811681036100de576001600160a01b03600e54166020604051809263f52b31f160e01b8252818061090e604435602435600435600485016040919493926060820195825260208201520152565b03915afa90811561064357600091610936575b602061092d848461197a565b50604051908152f35b90506020813d602011610961575b81610951602093836116f7565b810103126100de57516020610921565b3d9150610944565b346100de5760003660031901126100de576001546001600160a01b0333818316036109e05773ffffffffffffffffffffffffffffffffffffffff198092166001556000549133908316176000553391167f8be0079c531659141344cd1fd0a4f28419497f9722a3daafe3b4186f6b6457e0600080a3005b608460405162461bcd60e51b815260206004820152602960248201527f4f776e61626c6532537465703a2063616c6c6572206973206e6f74207468652060448201527f6e6577206f776e657200000000000000000000000000000000000000000000006064820152fd5b346100de5760403660031901126100de5761ffff610a66611656565b610a6e611902565b166000526008602052602435604060002055600080f35b346100de5760803660031901126100de57610a9e611643565b606435908115158092036100de5763ffffffff90610aba611902565b16806000526006602052610ad660ff6040600020541615611667565b60035460243503610b1b57604435600052600b602052604060002060ff199260ff84835416911617905560005260066020526001604060002091825416179055600080f35b60405162461bcd60e51b815260206004820152601060248201527f556e646566696e6564206d6574686f64000000000000000000000000000000006044820152606490fd5b346100de5760003660031901126100de57610b79611902565b60006001600160a01b0373ffffffffffffffffffffffffffffffffffffffff19806001541660015582549081168355167f8be0079c531659141344cd1fd0a4f28419497f9722a3daafe3b4186f6b6457e08280a3005b346100de5760203660031901126100de576004356001600160a01b0381168091036100de57610bfc611902565b604051906382c947b760e01b8252600482015260208160248173__$cd1346a8e2955df852b4501a7004a2b636$__5af490811561064357600091610c7b575b50600d546801000000000000000081101561068257806001610c609201600d55611861565b819291549060031b91821b91600019901b1916179055600080f35b90506020813d602011610ca5575b81610c96602093836116f7565b810103126100de575181610c3b565b3d9150610c89565b60203660031901126100de57600435600052600a6020526040600020600760405191610cd8836116da565b80548352600181015490602084019182526002810154604085015260038101546060850152610d1160ff600483015416608086016116b2565b600581015460a0850152600681015460c085015261ffff92839101541660e0840152608083015160048110156105fb576001610d4d9114611719565b519160405192632e7682c760e11b84526004840152602492602081858173__$cd1346a8e2955df852b4501a7004a2b636$__5af4908115610643576000916110ef575b506001600160a01b039081339116036110ab5765f7cf9b8d0000610dd46060840151610dcf60a0860151610dc960c0880151914261195a565b92611967565b611967565b0460608301519081018091116110965760408301519060405191632e7682c760e11b83526004830152602082878173__$cd1346a8e2955df852b4501a7004a2b636$__5af4918215610643578392602092610e6492600092611077575b506040516323b872dd60e01b81523360048201523060248201526044810191909152938492839160009183906064820190565b0393165af1801561064357611058575b506040516382c947b760e01b8152306004820152602081868173__$cd1346a8e2955df852b4501a7004a2b636$__5af490811561064357600091611026575b508360e0840151166000526008602052604060002054917f0000000000000000000000000000000000000000000000000000000000000000169160405191631a90a21960e01b8352602083600481875afa92831561064357600093610ff2575b50610f1f83341461179b565b6003549560e08601511660405196602088015260043560408801526060870152608086015260a085015260a0845260c084019484861067ffffffffffffffff871117610fde57506020918580928160405263ffffffff600554166358cd21bf60e11b835287610f958160bf199360c48201611806565b0301925af191821561064357600293608093610fbb575b50500152602060405160018152f35b60c0610fd6926020903d60201161067a5761066982856116f7565b508380610fac565b634e487b7160e01b60005260416004526000fd5b9092506020813d60201161101e575b8161100e602093836116f7565b810103126100de57519187610f13565b3d9150611001565b90506020813d602011611050575b81611041602093836116f7565b810103126100de575185610eb3565b3d9150611034565b6110709060203d6020116107c6576107b781836116f7565b5084610e74565b61108f919250843d86116107f5576107e781836116f7565b9089610e31565b84634e487b7160e01b60005260116004526000fd5b60648460116040519162461bcd60e51b8352602060048401528201527f556e617574686f72697a6564206c6f616e0000000000000000000000000000006044820152fd5b611108915060203d6020116107f5576107e781836116f7565b84610d90565b346100de576101003660031901126100de57611128611643565b60249060443591606435916084359061ffff908183168093036100de5760c4359563ffffffff60e4359261115a611902565b1694856000526020966006885261117960ff6040600020541615611667565b600254823503610b1b57856000526008885260a435604060002054036114005782600052600a885260ff6004604060002001541660048110156113eb576113a85773__$cd1346a8e2955df852b4501a7004a2b636$__60405190632e7682c760e11b918281528b60048201528a818681855af4928315610643578b91600094611389575b50856040518094819382528760048301525af490811561064357611264928b92889260009161136c575b5060006001600160a01b0360405180978196829563a9059cbb60e01b845260048401602090939291936001600160a01b0360408201951681520152565b0393165af180156106435761134f575b5088600052600c885260406000205493604051996112918b6116da565b848b52898b0192835260408b0190815260608b0191825260808b01926001845260a08c019542875260c08d0197885260e08d01998a52600052600a8b5260406000209b518c555160018c01555160028b01555160038a01555190600482101561133b5750918791611309600794600460069b016118ae565b51600583015551878201550191511661ffff19825416179055600052526040600020600160ff19825416179055600080f35b634e487b7160e01b60005260216004526000fd5b61136590893d8b116107c6576107b781836116f7565b5089611274565b6113839150843d86116107f5576107e781836116f7565b8e611227565b6113a1919450823d84116107f5576107e781836116f7565b928d6111fd565b6064886014846040519262461bcd60e51b845260048401528201527f4c6f616e20616c726561647920637265617465640000000000000000000000006044820152fd5b82634e487b7160e01b60005260216004526000fd5b6064886017846040519262461bcd60e51b845260048401528201527f496e76616c696420666f726569676e206f72626974616c0000000000000000006044820152fd5b346100de5760603660031901126100de5763ffffffff611461611643565b611469611902565b168060005260206006815261148660ff6040600020541615611667565b60035460243503610b1b5760443560005260098152604060002091604051926114ae846116be565b8054845260018101549383810194855260028201549460408201958652600460ff600385015416936114e46060850195866116b2565b01546080830152825160048110156105fb5760016115029114611719565b519073__$cd1346a8e2955df852b4501a7004a2b636$__9160405190632e7682c760e11b9081835260048301528682602481875af4928315610643578792600094611621575b5060249051916040519586938492835260048301525af4908115610643576115b3968693600093611602575b50519160006001600160a01b03604051809a8196829563a9059cbb60e01b845260048401602090939291936001600160a01b0360408201951681520152565b0393165af1908115610643576006946002926115e5575b5052600052526040600020600160ff19825416179055600080f35b6115fb90853d87116107c6576107b781836116f7565b50856115ca565b61161a919350843d86116107f5576107e781836116f7565b9188611574565b602491945061163c90843d86116107f5576107e781836116f7565b9390611548565b6004359063ffffffff821682036100de57565b6004359061ffff821682036100de57565b1561166e57565b606460405162461bcd60e51b815260206004820152601b60248201527f4e6f6e63652077617320616c72656164792065786563757465642e00000000006044820152fd5b60048210156105fb5752565b60a0810190811067ffffffffffffffff82111761068257604052565b610100810190811067ffffffffffffffff82111761068257604052565b90601f8019910116810190811067ffffffffffffffff82111761068257604052565b1561172057565b606460405162461bcd60e51b815260206004820152601260248201527f4c6f616e206973206e6f742061637469766500000000000000000000000000006044820152fd5b908160209103126100de57516001600160a01b03811681036100de5790565b908160209103126100de575180151581036100de5790565b156117a257565b606460405162461bcd60e51b815260206004820152601860248201527f496e73756666696369656e74206d6573736167652066656500000000000000006044820152fd5b908160209103126100de575167ffffffffffffffff811681036100de5790565b92919063ffffffff16835260206060602085015281519182606086015260005b83811061184d575050506040608082600082819588010152601f8019910116850101930152565b818101830151868201608001528201611826565b600d5481101561189857600d6000527fd7b6990105719101dabeb77144f2a3385c8033acd3af97e9423a695e81ad1eb50190600090565b634e487b7160e01b600052603260045260246000fd5b9060048110156105fb5760ff80198354169116179055565b600d549060005b8281106118dc57505050600090565b816118e682611861565b90549060031b1c146118fa576001016118cd565b505050600190565b6001600160a01b0360005416330361191657565b606460405162461bcd60e51b815260206004820152602060248201527f4f776e61626c653a2063616c6c6572206973206e6f7420746865206f776e65726044820152fd5b919082039182116105e557565b818102929181159184041417156105e557565b919060ff16606481116119a157606461199661199e9285611967565b04809361195a565b90565b608460405162461bcd60e51b8152602060048201526024808201527f50657263656e74616765206d757374206265206265747765656e203020616e6460448201527f20313030000000000000000000000000000000000000000000000000000000006064820152fdfea2646970667358221220077b5788c0df9f6aa8782ac004476a4ba58d1799b6de285c94320209278ea8f564736f6c63430008180033",
          "opcodes": "PUSH1 0xA0 CALLVALUE PUSH2 0x143 JUMPI PUSH1 0x1F PUSH3 0x1BB3 CODESIZE DUP2 SWAP1 SUB SWAP2 DUP3 ADD PUSH1 0x1F NOT AND DUP4 ADD SWAP2 PUSH1 0x1 PUSH1 0x1 PUSH1 0x40 SHL SUB DUP4 GT DUP5 DUP5 LT OR PUSH2 0x148 JUMPI DUP1 DUP5 SWAP3 PUSH1 0x40 SWAP5 DUP6 MSTORE DUP4 CODECOPY DUP2 ADD SUB SLT PUSH2 0x143 JUMPI PUSH2 0x53 PUSH1 0x20 PUSH2 0x4C DUP4 PUSH2 0x15E JUMP JUMPDEST SWAP3 ADD PUSH2 0x15E JUMP JUMPDEST PUSH1 0x1 DUP1 SLOAD PUSH1 0x1 PUSH1 0x1 PUSH1 0xA0 SHL SUB NOT SWAP1 DUP2 AND SWAP1 SWAP2 SSTORE PUSH1 0x0 DUP1 SLOAD CALLER DUP2 DUP5 AND DUP2 OR DUP4 SSTORE PUSH1 0x40 MLOAD SWAP6 PUSH1 0x1 PUSH1 0x1 PUSH1 0xA0 SHL SUB SWAP6 SWAP5 SWAP4 DUP7 SWAP4 SWAP2 SWAP3 SWAP2 DUP5 AND SWAP1 PUSH32 0x8BE0079C531659141344CD1FD0A4F28419497F9722A3DAAFE3B4186F6B6457E0 SWAP1 DUP1 LOG3 PUSH16 0x13D397D093D49493D5D7D351551213D1 PUSH1 0x82 SHL PUSH1 0x2 SSTORE PUSH15 0x13D397D49154105657D351551213D1 PUSH1 0x8A SHL PUSH1 0x3 SSTORE PUSH17 0x13D397D111519055531517D351551213D1 PUSH1 0x7A SHL PUSH1 0x4 SSTORE PUSH1 0x7 DUP1 SLOAD PUSH1 0xFF NOT AND PUSH1 0x50 OR SWAP1 SSTORE PUSH1 0x5 DUP1 SLOAD PUSH4 0xFFFFFFFF NOT AND PUSH1 0x1 OR SWAP1 SSTORE PUSH1 0xE DUP1 SLOAD SWAP1 SWAP4 AND SWAP2 AND OR SWAP1 SSTORE AND PUSH1 0x80 MSTORE PUSH2 0x1A40 SWAP1 DUP2 PUSH3 0x173 DUP3 CODECOPY PUSH1 0x80 MLOAD DUP2 DUP2 DUP2 PUSH2 0x328 ADD MSTORE DUP2 DUP2 PUSH2 0x4D0 ADD MSTORE PUSH2 0xECC ADD MSTORE RETURN JUMPDEST PUSH1 0x0 DUP1 REVERT JUMPDEST PUSH4 0x4E487B71 PUSH1 0xE0 SHL PUSH1 0x0 MSTORE PUSH1 0x41 PUSH1 0x4 MSTORE PUSH1 0x24 PUSH1 0x0 REVERT JUMPDEST MLOAD SWAP1 PUSH1 0x1 PUSH1 0x1 PUSH1 0xA0 SHL SUB DUP3 AND DUP3 SUB PUSH2 0x143 JUMPI JUMP INVALID PUSH1 0x80 PUSH1 0x40 MSTORE PUSH1 0x4 CALLDATASIZE LT ISZERO PUSH2 0x12 JUMPI PUSH1 0x0 DUP1 REVERT JUMPDEST PUSH1 0x0 CALLDATALOAD PUSH1 0xE0 SHR DUP1 PUSH4 0x13D80C1E EQ PUSH2 0x1443 JUMPI DUP1 PUSH4 0x418BD4B6 EQ PUSH2 0x110E JUMPI DUP1 PUSH4 0x563DD613 EQ PUSH2 0xCAD JUMPI DUP1 PUSH4 0x6D69FCAF EQ PUSH2 0xBCF JUMPI DUP1 PUSH4 0x715018A6 EQ PUSH2 0xB60 JUMPI DUP1 PUSH4 0x722DA3C2 EQ PUSH2 0xA85 JUMPI DUP1 PUSH4 0x75F5172E EQ PUSH2 0xA4A JUMPI DUP1 PUSH4 0x79BA5097 EQ PUSH2 0x969 JUMPI DUP1 PUSH4 0x7B76BA8A EQ PUSH2 0x8AB JUMPI DUP1 PUSH4 0x8DA5CB5B EQ PUSH2 0x884 JUMPI DUP1 PUSH4 0xD80B52B6 EQ PUSH2 0x182 JUMPI DUP1 PUSH4 0xE30C3978 EQ PUSH2 0x15B JUMPI DUP1 PUSH4 0xF2FDE38B EQ PUSH2 0xE3 JUMPI PUSH4 0xF770A695 EQ PUSH2 0xB6 JUMPI PUSH1 0x0 DUP1 REVERT JUMPDEST CALLVALUE PUSH2 0xDE JUMPI PUSH1 0x20 CALLDATASIZE PUSH1 0x3 NOT ADD SLT PUSH2 0xDE JUMPI PUSH1 0x20 PUSH2 0xD4 PUSH1 0x4 CALLDATALOAD PUSH2 0x18C6 JUMP JUMPDEST PUSH1 0x40 MLOAD SWAP1 ISZERO ISZERO DUP2 MSTORE RETURN JUMPDEST PUSH1 0x0 DUP1 REVERT JUMPDEST CALLVALUE PUSH2 0xDE JUMPI PUSH1 0x20 CALLDATASIZE PUSH1 0x3 NOT ADD SLT PUSH2 0xDE JUMPI PUSH1 0x4 CALLDATALOAD PUSH1 0x1 PUSH1 0x1 PUSH1 0xA0 SHL SUB DUP1 DUP3 AND DUP1 SWAP3 SUB PUSH2 0xDE JUMPI PUSH2 0x111 PUSH2 0x1902 JUMP JUMPDEST DUP2 PUSH20 0xFFFFFFFFFFFFFFFFFFFFFFFFFFFFFFFFFFFFFFFF NOT PUSH1 0x1 SLOAD AND OR PUSH1 0x1 SSTORE PUSH1 0x0 SLOAD AND PUSH32 0x38D16B8CAC22D99FC7C124B9CD0DE2D3FA1FAEF420BFE791D8C362D765E22700 PUSH1 0x0 DUP1 LOG3 STOP JUMPDEST CALLVALUE PUSH2 0xDE JUMPI PUSH1 0x0 CALLDATASIZE PUSH1 0x3 NOT ADD SLT PUSH2 0xDE JUMPI PUSH1 0x20 PUSH1 0x1 PUSH1 0x1 PUSH1 0xA0 SHL SUB PUSH1 0x1 SLOAD AND PUSH1 0x40 MLOAD SWAP1 DUP2 MSTORE RETURN JUMPDEST PUSH1 0xA0 CALLDATASIZE PUSH1 0x3 NOT ADD SLT PUSH2 0xDE JUMPI PUSH2 0x196 PUSH2 0x1656 JUMP JUMPDEST PUSH2 0x1A1 PUSH1 0x24 CALLDATALOAD PUSH2 0x18C6 JUMP JUMPDEST ISZERO PUSH2 0x840 JUMPI PUSH2 0x1B1 PUSH1 0x44 CALLDATALOAD PUSH2 0x18C6 JUMP JUMPDEST ISZERO PUSH2 0x7FC JUMPI PUSH1 0x40 MLOAD PUSH4 0x2E7682C7 PUSH1 0xE1 SHL DUP2 MSTORE PUSH1 0x24 CALLDATALOAD PUSH1 0x4 DUP3 ADD MSTORE PUSH1 0x20 DUP2 PUSH1 0x24 DUP2 PUSH20 0x0 GAS DELEGATECALL SWAP1 DUP2 ISZERO PUSH2 0x643 JUMPI PUSH1 0x0 SWAP2 PUSH2 0x7CD JUMPI JUMPDEST POP PUSH1 0x40 MLOAD PUSH4 0x23B872DD PUSH1 0xE0 SHL DUP2 MSTORE CALLER PUSH1 0x4 DUP3 ADD MSTORE ADDRESS PUSH1 0x24 DUP3 ADD MSTORE PUSH1 0x64 DUP1 CALLDATALOAD PUSH1 0x44 DUP4 ADD MSTORE SWAP1 SWAP2 PUSH1 0x20 SWAP2 DUP4 SWAP2 DUP3 SWAP1 PUSH1 0x0 SWAP1 PUSH1 0x1 PUSH1 0x1 PUSH1 0xA0 SHL SUB AND GAS CALL DUP1 ISZERO PUSH2 0x643 JUMPI PUSH2 0x79E JUMPI JUMPDEST POP PUSH1 0x1 PUSH1 0x1 PUSH1 0xA0 SHL SUB PUSH1 0xE SLOAD AND PUSH1 0x20 PUSH1 0x40 MLOAD DUP1 SWAP3 PUSH4 0xF52B31F1 PUSH1 0xE0 SHL DUP3 MSTORE DUP2 DUP1 PUSH2 0x282 PUSH1 0x64 CALLDATALOAD PUSH1 0x44 CALLDATALOAD PUSH1 0x24 CALLDATALOAD PUSH1 0x4 DUP6 ADD PUSH1 0x40 SWAP2 SWAP5 SWAP4 SWAP3 PUSH1 0x60 DUP3 ADD SWAP6 DUP3 MSTORE PUSH1 0x20 DUP3 ADD MSTORE ADD MSTORE JUMP JUMPDEST SUB SWAP2 GAS STATICCALL SWAP1 DUP2 ISZERO PUSH2 0x643 JUMPI PUSH1 0x0 SWAP2 PUSH2 0x76C JUMPI JUMPDEST POP PUSH1 0x0 PUSH1 0x40 MLOAD PUSH4 0x82C947B7 PUSH1 0xE0 SHL DUP2 MSTORE CALLER PUSH1 0x4 DUP3 ADD MSTORE PUSH1 0x20 DUP2 PUSH1 0x24 DUP2 PUSH20 0x0 GAS DELEGATECALL SWAP1 DUP2 ISZERO PUSH2 0x643 JUMPI PUSH1 0x0 SWAP2 PUSH2 0x73A JUMPI JUMPDEST POP PUSH1 0x0 MSTORE PUSH1 0xB PUSH1 0x20 MSTORE PUSH1 0xFF PUSH1 0x40 PUSH1 0x0 KECCAK256 SLOAD AND PUSH2 0x732 JUMPI JUMPDEST PUSH1 0xFF DUP1 PUSH1 0x7 SLOAD AND SWAP2 AND ADD PUSH1 0xFF DUP2 GT PUSH2 0x5E5 JUMPI PUSH2 0x309 SWAP2 PUSH2 0x197A JUMP JUMPDEST POP SWAP1 PUSH1 0x40 MLOAD PUSH4 0x1A90A219 PUSH1 0xE0 SHL DUP2 MSTORE PUSH1 0x20 DUP2 PUSH1 0x4 DUP2 PUSH1 0x1 PUSH1 0x1 PUSH1 0xA0 SHL SUB PUSH32 0x0 AND GAS STATICCALL SWAP1 DUP2 ISZERO PUSH2 0x643 JUMPI PUSH1 0x0 SWAP2 PUSH2 0x700 JUMPI JUMPDEST POP PUSH2 0x366 DUP2 CALLVALUE LT ISZERO PUSH2 0x179B JUMP JUMPDEST PUSH1 0x40 MLOAD SWAP3 PUSH4 0x82C947B7 PUSH1 0xE0 SHL DUP5 MSTORE ADDRESS PUSH1 0x4 DUP6 ADD MSTORE PUSH1 0x20 DUP5 PUSH1 0x24 DUP2 PUSH20 0x0 GAS DELEGATECALL SWAP4 DUP5 ISZERO PUSH2 0x643 JUMPI PUSH1 0x0 SWAP5 PUSH2 0x6CC JUMPI JUMPDEST POP PUSH2 0xFFFF DUP4 AND PUSH1 0x0 MSTORE PUSH1 0x8 PUSH1 0x20 MSTORE PUSH1 0x40 PUSH1 0x0 KECCAK256 SLOAD PUSH4 0xFFFFFFFF PUSH1 0x5 SLOAD AND PUSH1 0x40 MLOAD PUSH1 0x20 DUP2 ADD SWAP2 CALLER DUP4 MSTORE PUSH1 0x84 CALLDATALOAD PUSH1 0x40 DUP4 ADD MSTORE PUSH1 0x60 DUP3 ADD MSTORE TIMESTAMP PUSH1 0x80 DUP3 ADD MSTORE PUSH1 0x80 DUP2 MSTORE PUSH2 0x3EE DUP2 PUSH2 0x16BE JUMP JUMPDEST MLOAD SWAP1 KECCAK256 SWAP5 PUSH1 0x2 SLOAD SWAP5 PUSH1 0x40 MLOAD SWAP1 PUSH4 0x82C947B7 PUSH1 0xE0 SHL DUP3 MSTORE CALLER PUSH1 0x4 DUP4 ADD MSTORE PUSH1 0x20 DUP3 PUSH1 0x24 DUP2 PUSH20 0x0 GAS DELEGATECALL DUP1 ISZERO PUSH2 0x643 JUMPI PUSH1 0x0 SWAP1 PUSH2 0x698 JUMPI JUMPDEST PUSH2 0xFFFF SWAP3 POP PUSH1 0x40 MLOAD SWAP8 PUSH1 0x20 DUP10 ADD MSTORE DUP9 PUSH1 0x40 DUP10 ADD MSTORE PUSH1 0x60 DUP9 ADD MSTORE PUSH1 0x84 CALLDATALOAD PUSH1 0x80 DUP9 ADD MSTORE AND PUSH1 0xA0 DUP7 ADD MSTORE PUSH1 0xC0 DUP6 ADD MSTORE PUSH1 0xE0 DUP5 ADD MSTORE PUSH1 0x44 CALLDATALOAD PUSH2 0x100 DUP5 ADD MSTORE PUSH2 0x120 SWAP1 DUP2 DUP5 ADD MSTORE DUP3 MSTORE PUSH2 0x140 DUP1 DUP4 ADD SWAP2 DUP4 DUP4 LT PUSH8 0xFFFFFFFFFFFFFFFF DUP5 GT OR PUSH2 0x682 JUMPI DUP3 PUSH1 0x20 SWAP2 DUP2 PUSH1 0x40 MSTORE DUP2 PUSH4 0xFFFFFFFF PUSH1 0x5 SLOAD AND PUSH4 0x58CD21BF PUSH1 0xE1 SHL DUP3 MSTORE DUP8 PUSH2 0x4C3 DUP2 PUSH2 0x13F NOT SWAP4 PUSH2 0x144 DUP3 ADD PUSH2 0x1806 JUMP JUMPDEST SUB ADD SWAP2 PUSH1 0x1 PUSH1 0x1 PUSH1 0xA0 SHL SUB PUSH32 0x0 AND GAS CALL DUP1 ISZERO PUSH2 0x643 JUMPI PUSH2 0x64F JUMPI JUMPDEST POP POP POP PUSH1 0x40 MLOAD PUSH4 0x82C947B7 PUSH1 0xE0 SHL DUP2 MSTORE CALLER PUSH1 0x4 DUP3 ADD MSTORE PUSH1 0x20 DUP2 PUSH1 0x24 DUP2 PUSH20 0x0 GAS DELEGATECALL SWAP1 DUP2 ISZERO PUSH2 0x643 JUMPI PUSH1 0x0 SWAP2 PUSH2 0x611 JUMPI JUMPDEST POP PUSH1 0x40 MLOAD SWAP1 PUSH2 0x54D DUP3 PUSH2 0x16BE JUMP JUMPDEST DUP2 MSTORE PUSH1 0x20 DUP2 ADD PUSH1 0x24 CALLDATALOAD DUP2 MSTORE PUSH1 0x40 DUP3 ADD PUSH1 0x64 CALLDATALOAD DUP2 MSTORE PUSH1 0x60 DUP4 ADD SWAP1 PUSH1 0x1 DUP3 MSTORE PUSH1 0x80 DUP5 ADD SWAP3 TIMESTAMP DUP5 MSTORE DUP6 PUSH1 0x0 MSTORE PUSH1 0x9 PUSH1 0x20 MSTORE PUSH1 0x40 PUSH1 0x0 KECCAK256 SWAP5 MLOAD DUP6 SSTORE MLOAD PUSH1 0x1 DUP6 ADD SSTORE MLOAD PUSH1 0x2 DUP5 ADD SSTORE MLOAD SWAP1 PUSH1 0x4 DUP3 LT ISZERO PUSH2 0x5FB JUMPI PUSH2 0x5AA PUSH1 0x4 SWAP3 PUSH1 0x3 DUP6 ADD PUSH2 0x18AE JUMP JUMPDEST MLOAD SWAP2 ADD SSTORE PUSH1 0x5 SLOAD SWAP1 PUSH4 0xFFFFFFFF DUP3 AND SWAP2 PUSH4 0xFFFFFFFF DUP4 EQ PUSH2 0x5E5 JUMPI PUSH4 0xFFFFFFFF PUSH1 0x1 PUSH1 0x20 SWAP5 ADD AND SWAP1 PUSH4 0xFFFFFFFF NOT AND OR PUSH1 0x5 SSTORE PUSH1 0x40 MLOAD SWAP1 DUP2 MSTORE RETURN JUMPDEST PUSH4 0x4E487B71 PUSH1 0xE0 SHL PUSH1 0x0 MSTORE PUSH1 0x11 PUSH1 0x4 MSTORE PUSH1 0x24 PUSH1 0x0 REVERT JUMPDEST PUSH4 0x4E487B71 PUSH1 0xE0 SHL PUSH1 0x0 MSTORE PUSH1 0x21 PUSH1 0x4 MSTORE PUSH1 0x24 PUSH1 0x0 REVERT JUMPDEST SWAP1 POP PUSH1 0x20 DUP2 RETURNDATASIZE PUSH1 0x20 GT PUSH2 0x63B JUMPI JUMPDEST DUP2 PUSH2 0x62C PUSH1 0x20 SWAP4 DUP4 PUSH2 0x16F7 JUMP JUMPDEST DUP2 ADD SUB SLT PUSH2 0xDE JUMPI MLOAD DUP3 PUSH2 0x53F JUMP JUMPDEST RETURNDATASIZE SWAP2 POP PUSH2 0x61F JUMP JUMPDEST PUSH1 0x40 MLOAD RETURNDATASIZE PUSH1 0x0 DUP3 RETURNDATACOPY RETURNDATASIZE SWAP1 REVERT JUMPDEST PUSH2 0x671 SWAP3 PUSH1 0x20 SWAP1 RETURNDATASIZE PUSH1 0x20 GT PUSH2 0x67A JUMPI JUMPDEST PUSH2 0x669 DUP3 DUP6 PUSH2 0x16F7 JUMP JUMPDEST ADD ADD SWAP1 PUSH2 0x17E6 JUMP JUMPDEST POP DUP2 DUP1 DUP1 PUSH2 0x4FD JUMP JUMPDEST RETURNDATASIZE SWAP2 POP PUSH2 0x65F JUMP JUMPDEST PUSH4 0x4E487B71 PUSH1 0xE0 SHL PUSH1 0x0 MSTORE PUSH1 0x41 PUSH1 0x4 MSTORE PUSH1 0x24 PUSH1 0x0 REVERT JUMPDEST POP PUSH1 0x20 DUP3 RETURNDATASIZE PUSH1 0x20 GT PUSH2 0x6C4 JUMPI JUMPDEST DUP2 PUSH2 0x6B2 PUSH1 0x20 SWAP4 DUP4 PUSH2 0x16F7 JUMP JUMPDEST DUP2 ADD SUB SLT PUSH2 0xDE JUMPI PUSH2 0xFFFF SWAP2 MLOAD PUSH2 0x435 JUMP JUMPDEST RETURNDATASIZE SWAP2 POP PUSH2 0x6A5 JUMP JUMPDEST SWAP1 SWAP4 POP PUSH1 0x20 DUP2 RETURNDATASIZE PUSH1 0x20 GT PUSH2 0x6F8 JUMPI JUMPDEST DUP2 PUSH2 0x6E8 PUSH1 0x20 SWAP4 DUP4 PUSH2 0x16F7 JUMP JUMPDEST DUP2 ADD SUB SLT PUSH2 0xDE JUMPI MLOAD SWAP3 DUP5 PUSH2 0x3A6 JUMP JUMPDEST RETURNDATASIZE SWAP2 POP PUSH2 0x6DB JUMP JUMPDEST SWAP1 POP PUSH1 0x20 DUP2 RETURNDATASIZE PUSH1 0x20 GT PUSH2 0x72A JUMPI JUMPDEST DUP2 PUSH2 0x71B PUSH1 0x20 SWAP4 DUP4 PUSH2 0x16F7 JUMP JUMPDEST DUP2 ADD SUB SLT PUSH2 0xDE JUMPI MLOAD DUP4 PUSH2 0x359 JUMP JUMPDEST RETURNDATASIZE SWAP2 POP PUSH2 0x70E JUMP JUMPDEST POP PUSH1 0xA PUSH2 0x2EE JUMP JUMPDEST SWAP1 POP PUSH1 0x20 DUP2 RETURNDATASIZE PUSH1 0x20 GT PUSH2 0x764 JUMPI JUMPDEST DUP2 PUSH2 0x755 PUSH1 0x20 SWAP4 DUP4 PUSH2 0x16F7 JUMP JUMPDEST DUP2 ADD SUB SLT PUSH2 0xDE JUMPI MLOAD DUP5 PUSH2 0x2D7 JUMP JUMPDEST RETURNDATASIZE SWAP2 POP PUSH2 0x748 JUMP JUMPDEST SWAP1 POP PUSH1 0x20 DUP2 RETURNDATASIZE PUSH1 0x20 GT PUSH2 0x796 JUMPI JUMPDEST DUP2 PUSH2 0x787 PUSH1 0x20 SWAP4 DUP4 PUSH2 0x16F7 JUMP JUMPDEST DUP2 ADD SUB SLT PUSH2 0xDE JUMPI MLOAD DUP3 PUSH2 0x295 JUMP JUMPDEST RETURNDATASIZE SWAP2 POP PUSH2 0x77A JUMP JUMPDEST PUSH2 0x7BF SWAP1 PUSH1 0x20 RETURNDATASIZE PUSH1 0x20 GT PUSH2 0x7C6 JUMPI JUMPDEST PUSH2 0x7B7 DUP2 DUP4 PUSH2 0x16F7 JUMP JUMPDEST DUP2 ADD SWAP1 PUSH2 0x1783 JUMP JUMPDEST POP DUP2 PUSH2 0x23C JUMP JUMPDEST POP RETURNDATASIZE PUSH2 0x7AD JUMP JUMPDEST PUSH2 0x7EF SWAP2 POP PUSH1 0x20 RETURNDATASIZE PUSH1 0x20 GT PUSH2 0x7F5 JUMPI JUMPDEST PUSH2 0x7E7 DUP2 DUP4 PUSH2 0x16F7 JUMP JUMPDEST DUP2 ADD SWAP1 PUSH2 0x1764 JUMP JUMPDEST DUP3 PUSH2 0x1F7 JUMP JUMPDEST POP RETURNDATASIZE PUSH2 0x7DD JUMP JUMPDEST PUSH1 0x64 PUSH1 0x40 MLOAD PUSH3 0x461BCD PUSH1 0xE5 SHL DUP2 MSTORE PUSH1 0x20 PUSH1 0x4 DUP3 ADD MSTORE PUSH1 0x17 PUSH1 0x24 DUP3 ADD MSTORE PUSH32 0x546F6B656E206F7574206E6F7420737570706F72746564000000000000000000 PUSH1 0x44 DUP3 ADD MSTORE REVERT JUMPDEST PUSH1 0x64 PUSH1 0x40 MLOAD PUSH3 0x461BCD PUSH1 0xE5 SHL DUP2 MSTORE PUSH1 0x20 PUSH1 0x4 DUP3 ADD MSTORE PUSH1 0x16 PUSH1 0x24 DUP3 ADD MSTORE PUSH32 0x546F6B656E20696E206E6F7420737570706F7274656400000000000000000000 PUSH1 0x44 DUP3 ADD MSTORE REVERT JUMPDEST CALLVALUE PUSH2 0xDE JUMPI PUSH1 0x0 CALLDATASIZE PUSH1 0x3 NOT ADD SLT PUSH2 0xDE JUMPI PUSH1 0x20 PUSH1 0x1 PUSH1 0x1 PUSH1 0xA0 SHL SUB PUSH1 0x0 SLOAD AND PUSH1 0x40 MLOAD SWAP1 DUP2 MSTORE RETURN JUMPDEST CALLVALUE PUSH2 0xDE JUMPI PUSH1 0x80 CALLDATASIZE PUSH1 0x3 NOT ADD SLT PUSH2 0xDE JUMPI PUSH1 0x64 CALLDATALOAD PUSH1 0xFF DUP2 AND DUP2 SUB PUSH2 0xDE JUMPI PUSH1 0x1 PUSH1 0x1 PUSH1 0xA0 SHL SUB PUSH1 0xE SLOAD AND PUSH1 0x20 PUSH1 0x40 MLOAD DUP1 SWAP3 PUSH4 0xF52B31F1 PUSH1 0xE0 SHL DUP3 MSTORE DUP2 DUP1 PUSH2 0x90E PUSH1 0x44 CALLDATALOAD PUSH1 0x24 CALLDATALOAD PUSH1 0x4 CALLDATALOAD PUSH1 0x4 DUP6 ADD PUSH1 0x40 SWAP2 SWAP5 SWAP4 SWAP3 PUSH1 0x60 DUP3 ADD SWAP6 DUP3 MSTORE PUSH1 0x20 DUP3 ADD MSTORE ADD MSTORE JUMP JUMPDEST SUB SWAP2 GAS STATICCALL SWAP1 DUP2 ISZERO PUSH2 0x643 JUMPI PUSH1 0x0 SWAP2 PUSH2 0x936 JUMPI JUMPDEST PUSH1 0x20 PUSH2 0x92D DUP5 DUP5 PUSH2 0x197A JUMP JUMPDEST POP PUSH1 0x40 MLOAD SWAP1 DUP2 MSTORE RETURN JUMPDEST SWAP1 POP PUSH1 0x20 DUP2 RETURNDATASIZE PUSH1 0x20 GT PUSH2 0x961 JUMPI JUMPDEST DUP2 PUSH2 0x951 PUSH1 0x20 SWAP4 DUP4 PUSH2 0x16F7 JUMP JUMPDEST DUP2 ADD SUB SLT PUSH2 0xDE JUMPI MLOAD PUSH1 0x20 PUSH2 0x921 JUMP JUMPDEST RETURNDATASIZE SWAP2 POP PUSH2 0x944 JUMP JUMPDEST CALLVALUE PUSH2 0xDE JUMPI PUSH1 0x0 CALLDATASIZE PUSH1 0x3 NOT ADD SLT PUSH2 0xDE JUMPI PUSH1 0x1 SLOAD PUSH1 0x1 PUSH1 0x1 PUSH1 0xA0 SHL SUB CALLER DUP2 DUP4 AND SUB PUSH2 0x9E0 JUMPI PUSH20 0xFFFFFFFFFFFFFFFFFFFFFFFFFFFFFFFFFFFFFFFF NOT DUP1 SWAP3 AND PUSH1 0x1 SSTORE PUSH1 0x0 SLOAD SWAP2 CALLER SWAP1 DUP4 AND OR PUSH1 0x0 SSTORE CALLER SWAP2 AND PUSH32 0x8BE0079C531659141344CD1FD0A4F28419497F9722A3DAAFE3B4186F6B6457E0 PUSH1 0x0 DUP1 LOG3 STOP JUMPDEST PUSH1 0x84 PUSH1 0x40 MLOAD PUSH3 0x461BCD PUSH1 0xE5 SHL DUP2 MSTORE PUSH1 0x20 PUSH1 0x4 DUP3 ADD MSTORE PUSH1 0x29 PUSH1 0x24 DUP3 ADD MSTORE PUSH32 0x4F776E61626C6532537465703A2063616C6C6572206973206E6F742074686520 PUSH1 0x44 DUP3 ADD MSTORE PUSH32 0x6E6577206F776E65720000000000000000000000000000000000000000000000 PUSH1 0x64 DUP3 ADD MSTORE REVERT JUMPDEST CALLVALUE PUSH2 0xDE JUMPI PUSH1 0x40 CALLDATASIZE PUSH1 0x3 NOT ADD SLT PUSH2 0xDE JUMPI PUSH2 0xFFFF PUSH2 0xA66 PUSH2 0x1656 JUMP JUMPDEST PUSH2 0xA6E PUSH2 0x1902 JUMP JUMPDEST AND PUSH1 0x0 MSTORE PUSH1 0x8 PUSH1 0x20 MSTORE PUSH1 0x24 CALLDATALOAD PUSH1 0x40 PUSH1 0x0 KECCAK256 SSTORE PUSH1 0x0 DUP1 RETURN JUMPDEST CALLVALUE PUSH2 0xDE JUMPI PUSH1 0x80 CALLDATASIZE PUSH1 0x3 NOT ADD SLT PUSH2 0xDE JUMPI PUSH2 0xA9E PUSH2 0x1643 JUMP JUMPDEST PUSH1 0x64 CALLDATALOAD SWAP1 DUP2 ISZERO ISZERO DUP1 SWAP3 SUB PUSH2 0xDE JUMPI PUSH4 0xFFFFFFFF SWAP1 PUSH2 0xABA PUSH2 0x1902 JUMP JUMPDEST AND DUP1 PUSH1 0x0 MSTORE PUSH1 0x6 PUSH1 0x20 MSTORE PUSH2 0xAD6 PUSH1 0xFF PUSH1 0x40 PUSH1 0x0 KECCAK256 SLOAD AND ISZERO PUSH2 0x1667 JUMP JUMPDEST PUSH1 0x3 SLOAD PUSH1 0x24 CALLDATALOAD SUB PUSH2 0xB1B JUMPI PUSH1 0x44 CALLDATALOAD PUSH1 0x0 MSTORE PUSH1 0xB PUSH1 0x20 MSTORE PUSH1 0x40 PUSH1 0x0 KECCAK256 PUSH1 0xFF NOT SWAP3 PUSH1 0xFF DUP5 DUP4 SLOAD AND SWAP2 AND OR SWAP1 SSTORE PUSH1 0x0 MSTORE PUSH1 0x6 PUSH1 0x20 MSTORE PUSH1 0x1 PUSH1 0x40 PUSH1 0x0 KECCAK256 SWAP2 DUP3 SLOAD AND OR SWAP1 SSTORE PUSH1 0x0 DUP1 RETURN JUMPDEST PUSH1 0x40 MLOAD PUSH3 0x461BCD PUSH1 0xE5 SHL DUP2 MSTORE PUSH1 0x20 PUSH1 0x4 DUP3 ADD MSTORE PUSH1 0x10 PUSH1 0x24 DUP3 ADD MSTORE PUSH32 0x556E646566696E6564206D6574686F6400000000000000000000000000000000 PUSH1 0x44 DUP3 ADD MSTORE PUSH1 0x64 SWAP1 REVERT JUMPDEST CALLVALUE PUSH2 0xDE JUMPI PUSH1 0x0 CALLDATASIZE PUSH1 0x3 NOT ADD SLT PUSH2 0xDE JUMPI PUSH2 0xB79 PUSH2 0x1902 JUMP JUMPDEST PUSH1 0x0 PUSH1 0x1 PUSH1 0x1 PUSH1 0xA0 SHL SUB PUSH20 0xFFFFFFFFFFFFFFFFFFFFFFFFFFFFFFFFFFFFFFFF NOT DUP1 PUSH1 0x1 SLOAD AND PUSH1 0x1 SSTORE DUP3 SLOAD SWAP1 DUP2 AND DUP4 SSTORE AND PUSH32 0x8BE0079C531659141344CD1FD0A4F28419497F9722A3DAAFE3B4186F6B6457E0 DUP3 DUP1 LOG3 STOP JUMPDEST CALLVALUE PUSH2 0xDE JUMPI PUSH1 0x20 CALLDATASIZE PUSH1 0x3 NOT ADD SLT PUSH2 0xDE JUMPI PUSH1 0x4 CALLDATALOAD PUSH1 0x1 PUSH1 0x1 PUSH1 0xA0 SHL SUB DUP2 AND DUP1 SWAP2 SUB PUSH2 0xDE JUMPI PUSH2 0xBFC PUSH2 0x1902 JUMP JUMPDEST PUSH1 0x40 MLOAD SWAP1 PUSH4 0x82C947B7 PUSH1 0xE0 SHL DUP3 MSTORE PUSH1 0x4 DUP3 ADD MSTORE PUSH1 0x20 DUP2 PUSH1 0x24 DUP2 PUSH20 0x0 GAS DELEGATECALL SWAP1 DUP2 ISZERO PUSH2 0x643 JUMPI PUSH1 0x0 SWAP2 PUSH2 0xC7B JUMPI JUMPDEST POP PUSH1 0xD SLOAD PUSH9 0x10000000000000000 DUP2 LT ISZERO PUSH2 0x682 JUMPI DUP1 PUSH1 0x1 PUSH2 0xC60 SWAP3 ADD PUSH1 0xD SSTORE PUSH2 0x1861 JUMP JUMPDEST DUP2 SWAP3 SWAP2 SLOAD SWAP1 PUSH1 0x3 SHL SWAP2 DUP3 SHL SWAP2 PUSH1 0x0 NOT SWAP1 SHL NOT AND OR SWAP1 SSTORE PUSH1 0x0 DUP1 RETURN JUMPDEST SWAP1 POP PUSH1 0x20 DUP2 RETURNDATASIZE PUSH1 0x20 GT PUSH2 0xCA5 JUMPI JUMPDEST DUP2 PUSH2 0xC96 PUSH1 0x20 SWAP4 DUP4 PUSH2 0x16F7 JUMP JUMPDEST DUP2 ADD SUB SLT PUSH2 0xDE JUMPI MLOAD DUP2 PUSH2 0xC3B JUMP JUMPDEST RETURNDATASIZE SWAP2 POP PUSH2 0xC89 JUMP JUMPDEST PUSH1 0x20 CALLDATASIZE PUSH1 0x3 NOT ADD SLT PUSH2 0xDE JUMPI PUSH1 0x4 CALLDATALOAD PUSH1 0x0 MSTORE PUSH1 0xA PUSH1 0x20 MSTORE PUSH1 0x40 PUSH1 0x0 KECCAK256 PUSH1 0x7 PUSH1 0x40 MLOAD SWAP2 PUSH2 0xCD8 DUP4 PUSH2 0x16DA JUMP JUMPDEST DUP1 SLOAD DUP4 MSTORE PUSH1 0x1 DUP2 ADD SLOAD SWAP1 PUSH1 0x20 DUP5 ADD SWAP2 DUP3 MSTORE PUSH1 0x2 DUP2 ADD SLOAD PUSH1 0x40 DUP6 ADD MSTORE PUSH1 0x3 DUP2 ADD SLOAD PUSH1 0x60 DUP6 ADD MSTORE PUSH2 0xD11 PUSH1 0xFF PUSH1 0x4 DUP4 ADD SLOAD AND PUSH1 0x80 DUP7 ADD PUSH2 0x16B2 JUMP JUMPDEST PUSH1 0x5 DUP2 ADD SLOAD PUSH1 0xA0 DUP6 ADD MSTORE PUSH1 0x6 DUP2 ADD SLOAD PUSH1 0xC0 DUP6 ADD MSTORE PUSH2 0xFFFF SWAP3 DUP4 SWAP2 ADD SLOAD AND PUSH1 0xE0 DUP5 ADD MSTORE PUSH1 0x80 DUP4 ADD MLOAD PUSH1 0x4 DUP2 LT ISZERO PUSH2 0x5FB JUMPI PUSH1 0x1 PUSH2 0xD4D SWAP2 EQ PUSH2 0x1719 JUMP JUMPDEST MLOAD SWAP2 PUSH1 0x40 MLOAD SWAP3 PUSH4 0x2E7682C7 PUSH1 0xE1 SHL DUP5 MSTORE PUSH1 0x4 DUP5 ADD MSTORE PUSH1 0x24 SWAP3 PUSH1 0x20 DUP2 DUP6 DUP2 PUSH20 0x0 GAS DELEGATECALL SWAP1 DUP2 ISZERO PUSH2 0x643 JUMPI PUSH1 0x0 SWAP2 PUSH2 0x10EF JUMPI JUMPDEST POP PUSH1 0x1 PUSH1 0x1 PUSH1 0xA0 SHL SUB SWAP1 DUP2 CALLER SWAP2 AND SUB PUSH2 0x10AB JUMPI PUSH6 0xF7CF9B8D0000 PUSH2 0xDD4 PUSH1 0x60 DUP5 ADD MLOAD PUSH2 0xDCF PUSH1 0xA0 DUP7 ADD MLOAD PUSH2 0xDC9 PUSH1 0xC0 DUP9 ADD MLOAD SWAP2 TIMESTAMP PUSH2 0x195A JUMP JUMPDEST SWAP3 PUSH2 0x1967 JUMP JUMPDEST PUSH2 0x1967 JUMP JUMPDEST DIV PUSH1 0x60 DUP4 ADD MLOAD SWAP1 DUP2 ADD DUP1 SWAP2 GT PUSH2 0x1096 JUMPI PUSH1 0x40 DUP4 ADD MLOAD SWAP1 PUSH1 0x40 MLOAD SWAP2 PUSH4 0x2E7682C7 PUSH1 0xE1 SHL DUP4 MSTORE PUSH1 0x4 DUP4 ADD MSTORE PUSH1 0x20 DUP3 DUP8 DUP2 PUSH20 0x0 GAS DELEGATECALL SWAP2 DUP3 ISZERO PUSH2 0x643 JUMPI DUP4 SWAP3 PUSH1 0x20 SWAP3 PUSH2 0xE64 SWAP3 PUSH1 0x0 SWAP3 PUSH2 0x1077 JUMPI JUMPDEST POP PUSH1 0x40 MLOAD PUSH4 0x23B872DD PUSH1 0xE0 SHL DUP2 MSTORE CALLER PUSH1 0x4 DUP3 ADD MSTORE ADDRESS PUSH1 0x24 DUP3 ADD MSTORE PUSH1 0x44 DUP2 ADD SWAP2 SWAP1 SWAP2 MSTORE SWAP4 DUP5 SWAP3 DUP4 SWAP2 PUSH1 0x0 SWAP2 DUP4 SWAP1 PUSH1 0x64 DUP3 ADD SWAP1 JUMP JUMPDEST SUB SWAP4 AND GAS CALL DUP1 ISZERO PUSH2 0x643 JUMPI PUSH2 0x1058 JUMPI JUMPDEST POP PUSH1 0x40 MLOAD PUSH4 0x82C947B7 PUSH1 0xE0 SHL DUP2 MSTORE ADDRESS PUSH1 0x4 DUP3 ADD MSTORE PUSH1 0x20 DUP2 DUP7 DUP2 PUSH20 0x0 GAS DELEGATECALL SWAP1 DUP2 ISZERO PUSH2 0x643 JUMPI PUSH1 0x0 SWAP2 PUSH2 0x1026 JUMPI JUMPDEST POP DUP4 PUSH1 0xE0 DUP5 ADD MLOAD AND PUSH1 0x0 MSTORE PUSH1 0x8 PUSH1 0x20 MSTORE PUSH1 0x40 PUSH1 0x0 KECCAK256 SLOAD SWAP2 PUSH32 0x0 AND SWAP2 PUSH1 0x40 MLOAD SWAP2 PUSH4 0x1A90A219 PUSH1 0xE0 SHL DUP4 MSTORE PUSH1 0x20 DUP4 PUSH1 0x4 DUP2 DUP8 GAS STATICCALL SWAP3 DUP4 ISZERO PUSH2 0x643 JUMPI PUSH1 0x0 SWAP4 PUSH2 0xFF2 JUMPI JUMPDEST POP PUSH2 0xF1F DUP4 CALLVALUE EQ PUSH2 0x179B JUMP JUMPDEST PUSH1 0x3 SLOAD SWAP6 PUSH1 0xE0 DUP7 ADD MLOAD AND PUSH1 0x40 MLOAD SWAP7 PUSH1 0x20 DUP9 ADD MSTORE PUSH1 0x4 CALLDATALOAD PUSH1 0x40 DUP9 ADD MSTORE PUSH1 0x60 DUP8 ADD MSTORE PUSH1 0x80 DUP7 ADD MSTORE PUSH1 0xA0 DUP6 ADD MSTORE PUSH1 0xA0 DUP5 MSTORE PUSH1 0xC0 DUP5 ADD SWAP5 DUP5 DUP7 LT PUSH8 0xFFFFFFFFFFFFFFFF DUP8 GT OR PUSH2 0xFDE JUMPI POP PUSH1 0x20 SWAP2 DUP6 DUP1 SWAP3 DUP2 PUSH1 0x40 MSTORE PUSH4 0xFFFFFFFF PUSH1 0x5 SLOAD AND PUSH4 0x58CD21BF PUSH1 0xE1 SHL DUP4 MSTORE DUP8 PUSH2 0xF95 DUP2 PUSH1 0xBF NOT SWAP4 PUSH1 0xC4 DUP3 ADD PUSH2 0x1806 JUMP JUMPDEST SUB ADD SWAP3 GAS CALL SWAP2 DUP3 ISZERO PUSH2 0x643 JUMPI PUSH1 0x2 SWAP4 PUSH1 0x80 SWAP4 PUSH2 0xFBB JUMPI JUMPDEST POP POP ADD MSTORE PUSH1 0x20 PUSH1 0x40 MLOAD PUSH1 0x1 DUP2 MSTORE RETURN JUMPDEST PUSH1 0xC0 PUSH2 0xFD6 SWAP3 PUSH1 0x20 SWAP1 RETURNDATASIZE PUSH1 0x20 GT PUSH2 0x67A JUMPI PUSH2 0x669 DUP3 DUP6 PUSH2 0x16F7 JUMP JUMPDEST POP DUP4 DUP1 PUSH2 0xFAC JUMP JUMPDEST PUSH4 0x4E487B71 PUSH1 0xE0 SHL PUSH1 0x0 MSTORE PUSH1 0x41 PUSH1 0x4 MSTORE PUSH1 0x0 REVERT JUMPDEST SWAP1 SWAP3 POP PUSH1 0x20 DUP2 RETURNDATASIZE PUSH1 0x20 GT PUSH2 0x101E JUMPI JUMPDEST DUP2 PUSH2 0x100E PUSH1 0x20 SWAP4 DUP4 PUSH2 0x16F7 JUMP JUMPDEST DUP2 ADD SUB SLT PUSH2 0xDE JUMPI MLOAD SWAP2 DUP8 PUSH2 0xF13 JUMP JUMPDEST RETURNDATASIZE SWAP2 POP PUSH2 0x1001 JUMP JUMPDEST SWAP1 POP PUSH1 0x20 DUP2 RETURNDATASIZE PUSH1 0x20 GT PUSH2 0x1050 JUMPI JUMPDEST DUP2 PUSH2 0x1041 PUSH1 0x20 SWAP4 DUP4 PUSH2 0x16F7 JUMP JUMPDEST DUP2 ADD SUB SLT PUSH2 0xDE JUMPI MLOAD DUP6 PUSH2 0xEB3 JUMP JUMPDEST RETURNDATASIZE SWAP2 POP PUSH2 0x1034 JUMP JUMPDEST PUSH2 0x1070 SWAP1 PUSH1 0x20 RETURNDATASIZE PUSH1 0x20 GT PUSH2 0x7C6 JUMPI PUSH2 0x7B7 DUP2 DUP4 PUSH2 0x16F7 JUMP JUMPDEST POP DUP5 PUSH2 0xE74 JUMP JUMPDEST PUSH2 0x108F SWAP2 SWAP3 POP DUP5 RETURNDATASIZE DUP7 GT PUSH2 0x7F5 JUMPI PUSH2 0x7E7 DUP2 DUP4 PUSH2 0x16F7 JUMP JUMPDEST SWAP1 DUP10 PUSH2 0xE31 JUMP JUMPDEST DUP5 PUSH4 0x4E487B71 PUSH1 0xE0 SHL PUSH1 0x0 MSTORE PUSH1 0x11 PUSH1 0x4 MSTORE PUSH1 0x0 REVERT JUMPDEST PUSH1 0x64 DUP5 PUSH1 0x11 PUSH1 0x40 MLOAD SWAP2 PUSH3 0x461BCD PUSH1 0xE5 SHL DUP4 MSTORE PUSH1 0x20 PUSH1 0x4 DUP5 ADD MSTORE DUP3 ADD MSTORE PUSH32 0x556E617574686F72697A6564206C6F616E000000000000000000000000000000 PUSH1 0x44 DUP3 ADD MSTORE REVERT JUMPDEST PUSH2 0x1108 SWAP2 POP PUSH1 0x20 RETURNDATASIZE PUSH1 0x20 GT PUSH2 0x7F5 JUMPI PUSH2 0x7E7 DUP2 DUP4 PUSH2 0x16F7 JUMP JUMPDEST DUP5 PUSH2 0xD90 JUMP JUMPDEST CALLVALUE PUSH2 0xDE JUMPI PUSH2 0x100 CALLDATASIZE PUSH1 0x3 NOT ADD SLT PUSH2 0xDE JUMPI PUSH2 0x1128 PUSH2 0x1643 JUMP JUMPDEST PUSH1 0x24 SWAP1 PUSH1 0x44 CALLDATALOAD SWAP2 PUSH1 0x64 CALLDATALOAD SWAP2 PUSH1 0x84 CALLDATALOAD SWAP1 PUSH2 0xFFFF SWAP1 DUP2 DUP4 AND DUP1 SWAP4 SUB PUSH2 0xDE JUMPI PUSH1 0xC4 CALLDATALOAD SWAP6 PUSH4 0xFFFFFFFF PUSH1 0xE4 CALLDATALOAD SWAP3 PUSH2 0x115A PUSH2 0x1902 JUMP JUMPDEST AND SWAP5 DUP6 PUSH1 0x0 MSTORE PUSH1 0x20 SWAP7 PUSH1 0x6 DUP9 MSTORE PUSH2 0x1179 PUSH1 0xFF PUSH1 0x40 PUSH1 0x0 KECCAK256 SLOAD AND ISZERO PUSH2 0x1667 JUMP JUMPDEST PUSH1 0x2 SLOAD DUP3 CALLDATALOAD SUB PUSH2 0xB1B JUMPI DUP6 PUSH1 0x0 MSTORE PUSH1 0x8 DUP9 MSTORE PUSH1 0xA4 CALLDATALOAD PUSH1 0x40 PUSH1 0x0 KECCAK256 SLOAD SUB PUSH2 0x1400 JUMPI DUP3 PUSH1 0x0 MSTORE PUSH1 0xA DUP9 MSTORE PUSH1 0xFF PUSH1 0x4 PUSH1 0x40 PUSH1 0x0 KECCAK256 ADD SLOAD AND PUSH1 0x4 DUP2 LT ISZERO PUSH2 0x13EB JUMPI PUSH2 0x13A8 JUMPI PUSH20 0x0 PUSH1 0x40 MLOAD SWAP1 PUSH4 0x2E7682C7 PUSH1 0xE1 SHL SWAP2 DUP3 DUP2 MSTORE DUP12 PUSH1 0x4 DUP3 ADD MSTORE DUP11 DUP2 DUP7 DUP2 DUP6 GAS DELEGATECALL SWAP3 DUP4 ISZERO PUSH2 0x643 JUMPI DUP12 SWAP2 PUSH1 0x0 SWAP5 PUSH2 0x1389 JUMPI JUMPDEST POP DUP6 PUSH1 0x40 MLOAD DUP1 SWAP5 DUP2 SWAP4 DUP3 MSTORE DUP8 PUSH1 0x4 DUP4 ADD MSTORE GAS DELEGATECALL SWAP1 DUP2 ISZERO PUSH2 0x643 JUMPI PUSH2 0x1264 SWAP3 DUP12 SWAP3 DUP9 SWAP3 PUSH1 0x0 SWAP2 PUSH2 0x136C JUMPI JUMPDEST POP PUSH1 0x0 PUSH1 0x1 PUSH1 0x1 PUSH1 0xA0 SHL SUB PUSH1 0x40 MLOAD DUP1 SWAP8 DUP2 SWAP7 DUP3 SWAP6 PUSH4 0xA9059CBB PUSH1 0xE0 SHL DUP5 MSTORE PUSH1 0x4 DUP5 ADD PUSH1 0x20 SWAP1 SWAP4 SWAP3 SWAP2 SWAP4 PUSH1 0x1 PUSH1 0x1 PUSH1 0xA0 SHL SUB PUSH1 0x40 DUP3 ADD SWAP6 AND DUP2 MSTORE ADD MSTORE JUMP JUMPDEST SUB SWAP4 AND GAS CALL DUP1 ISZERO PUSH2 0x643 JUMPI PUSH2 0x134F JUMPI JUMPDEST POP DUP9 PUSH1 0x0 MSTORE PUSH1 0xC DUP9 MSTORE PUSH1 0x40 PUSH1 0x0 KECCAK256 SLOAD SWAP4 PUSH1 0x40 MLOAD SWAP10 PUSH2 0x1291 DUP12 PUSH2 0x16DA JUMP JUMPDEST DUP5 DUP12 MSTORE DUP10 DUP12 ADD SWAP3 DUP4 MSTORE PUSH1 0x40 DUP12 ADD SWAP1 DUP2 MSTORE PUSH1 0x60 DUP12 ADD SWAP2 DUP3 MSTORE PUSH1 0x80 DUP12 ADD SWAP3 PUSH1 0x1 DUP5 MSTORE PUSH1 0xA0 DUP13 ADD SWAP6 TIMESTAMP DUP8 MSTORE PUSH1 0xC0 DUP14 ADD SWAP8 DUP9 MSTORE PUSH1 0xE0 DUP14 ADD SWAP10 DUP11 MSTORE PUSH1 0x0 MSTORE PUSH1 0xA DUP12 MSTORE PUSH1 0x40 PUSH1 0x0 KECCAK256 SWAP12 MLOAD DUP13 SSTORE MLOAD PUSH1 0x1 DUP13 ADD SSTORE MLOAD PUSH1 0x2 DUP12 ADD SSTORE MLOAD PUSH1 0x3 DUP11 ADD SSTORE MLOAD SWAP1 PUSH1 0x4 DUP3 LT ISZERO PUSH2 0x133B JUMPI POP SWAP2 DUP8 SWAP2 PUSH2 0x1309 PUSH1 0x7 SWAP5 PUSH1 0x4 PUSH1 0x6 SWAP12 ADD PUSH2 0x18AE JUMP JUMPDEST MLOAD PUSH1 0x5 DUP4 ADD SSTORE MLOAD DUP8 DUP3 ADD SSTORE ADD SWAP2 MLOAD AND PUSH2 0xFFFF NOT DUP3 SLOAD AND OR SWAP1 SSTORE PUSH1 0x0 MSTORE MSTORE PUSH1 0x40 PUSH1 0x0 KECCAK256 PUSH1 0x1 PUSH1 0xFF NOT DUP3 SLOAD AND OR SWAP1 SSTORE PUSH1 0x0 DUP1 RETURN JUMPDEST PUSH4 0x4E487B71 PUSH1 0xE0 SHL PUSH1 0x0 MSTORE PUSH1 0x21 PUSH1 0x4 MSTORE PUSH1 0x0 REVERT JUMPDEST PUSH2 0x1365 SWAP1 DUP10 RETURNDATASIZE DUP12 GT PUSH2 0x7C6 JUMPI PUSH2 0x7B7 DUP2 DUP4 PUSH2 0x16F7 JUMP JUMPDEST POP DUP10 PUSH2 0x1274 JUMP JUMPDEST PUSH2 0x1383 SWAP2 POP DUP5 RETURNDATASIZE DUP7 GT PUSH2 0x7F5 JUMPI PUSH2 0x7E7 DUP2 DUP4 PUSH2 0x16F7 JUMP JUMPDEST DUP15 PUSH2 0x1227 JUMP JUMPDEST PUSH2 0x13A1 SWAP2 SWAP5 POP DUP3 RETURNDATASIZE DUP5 GT PUSH2 0x7F5 JUMPI PUSH2 0x7E7 DUP2 DUP4 PUSH2 0x16F7 JUMP JUMPDEST SWAP3 DUP14 PUSH2 0x11FD JUMP JUMPDEST PUSH1 0x64 DUP9 PUSH1 0x14 DUP5 PUSH1 0x40 MLOAD SWAP3 PUSH3 0x461BCD PUSH1 0xE5 SHL DUP5 MSTORE PUSH1 0x4 DUP5 ADD MSTORE DUP3 ADD MSTORE PUSH32 0x4C6F616E20616C72656164792063726561746564000000000000000000000000 PUSH1 0x44 DUP3 ADD MSTORE REVERT JUMPDEST DUP3 PUSH4 0x4E487B71 PUSH1 0xE0 SHL PUSH1 0x0 MSTORE PUSH1 0x21 PUSH1 0x4 MSTORE PUSH1 0x0 REVERT JUMPDEST PUSH1 0x64 DUP9 PUSH1 0x17 DUP5 PUSH1 0x40 MLOAD SWAP3 PUSH3 0x461BCD PUSH1 0xE5 SHL DUP5 MSTORE PUSH1 0x4 DUP5 ADD MSTORE DUP3 ADD MSTORE PUSH32 0x496E76616C696420666F726569676E206F72626974616C000000000000000000 PUSH1 0x44 DUP3 ADD MSTORE REVERT JUMPDEST CALLVALUE PUSH2 0xDE JUMPI PUSH1 0x60 CALLDATASIZE PUSH1 0x3 NOT ADD SLT PUSH2 0xDE JUMPI PUSH4 0xFFFFFFFF PUSH2 0x1461 PUSH2 0x1643 JUMP JUMPDEST PUSH2 0x1469 PUSH2 0x1902 JUMP JUMPDEST AND DUP1 PUSH1 0x0 MSTORE PUSH1 0x20 PUSH1 0x6 DUP2 MSTORE PUSH2 0x1486 PUSH1 0xFF PUSH1 0x40 PUSH1 0x0 KECCAK256 SLOAD AND ISZERO PUSH2 0x1667 JUMP JUMPDEST PUSH1 0x3 SLOAD PUSH1 0x24 CALLDATALOAD SUB PUSH2 0xB1B JUMPI PUSH1 0x44 CALLDATALOAD PUSH1 0x0 MSTORE PUSH1 0x9 DUP2 MSTORE PUSH1 0x40 PUSH1 0x0 KECCAK256 SWAP2 PUSH1 0x40 MLOAD SWAP3 PUSH2 0x14AE DUP5 PUSH2 0x16BE JUMP JUMPDEST DUP1 SLOAD DUP5 MSTORE PUSH1 0x1 DUP2 ADD SLOAD SWAP4 DUP4 DUP2 ADD SWAP5 DUP6 MSTORE PUSH1 0x2 DUP3 ADD SLOAD SWAP5 PUSH1 0x40 DUP3 ADD SWAP6 DUP7 MSTORE PUSH1 0x4 PUSH1 0xFF PUSH1 0x3 DUP6 ADD SLOAD AND SWAP4 PUSH2 0x14E4 PUSH1 0x60 DUP6 ADD SWAP6 DUP7 PUSH2 0x16B2 JUMP JUMPDEST ADD SLOAD PUSH1 0x80 DUP4 ADD MSTORE DUP3 MLOAD PUSH1 0x4 DUP2 LT ISZERO PUSH2 0x5FB JUMPI PUSH1 0x1 PUSH2 0x1502 SWAP2 EQ PUSH2 0x1719 JUMP JUMPDEST MLOAD SWAP1 PUSH20 0x0 SWAP2 PUSH1 0x40 MLOAD SWAP1 PUSH4 0x2E7682C7 PUSH1 0xE1 SHL SWAP1 DUP2 DUP4 MSTORE PUSH1 0x4 DUP4 ADD MSTORE DUP7 DUP3 PUSH1 0x24 DUP2 DUP8 GAS DELEGATECALL SWAP3 DUP4 ISZERO PUSH2 0x643 JUMPI DUP8 SWAP3 PUSH1 0x0 SWAP5 PUSH2 0x1621 JUMPI JUMPDEST POP PUSH1 0x24 SWAP1 MLOAD SWAP2 PUSH1 0x40 MLOAD SWAP6 DUP7 SWAP4 DUP5 SWAP3 DUP4 MSTORE PUSH1 0x4 DUP4 ADD MSTORE GAS DELEGATECALL SWAP1 DUP2 ISZERO PUSH2 0x643 JUMPI PUSH2 0x15B3 SWAP7 DUP7 SWAP4 PUSH1 0x0 SWAP4 PUSH2 0x1602 JUMPI JUMPDEST POP MLOAD SWAP2 PUSH1 0x0 PUSH1 0x1 PUSH1 0x1 PUSH1 0xA0 SHL SUB PUSH1 0x40 MLOAD DUP1 SWAP11 DUP2 SWAP7 DUP3 SWAP6 PUSH4 0xA9059CBB PUSH1 0xE0 SHL DUP5 MSTORE PUSH1 0x4 DUP5 ADD PUSH1 0x20 SWAP1 SWAP4 SWAP3 SWAP2 SWAP4 PUSH1 0x1 PUSH1 0x1 PUSH1 0xA0 SHL SUB PUSH1 0x40 DUP3 ADD SWAP6 AND DUP2 MSTORE ADD MSTORE JUMP JUMPDEST SUB SWAP4 AND GAS CALL SWAP1 DUP2 ISZERO PUSH2 0x643 JUMPI PUSH1 0x6 SWAP5 PUSH1 0x2 SWAP3 PUSH2 0x15E5 JUMPI JUMPDEST POP MSTORE PUSH1 0x0 MSTORE MSTORE PUSH1 0x40 PUSH1 0x0 KECCAK256 PUSH1 0x1 PUSH1 0xFF NOT DUP3 SLOAD AND OR SWAP1 SSTORE PUSH1 0x0 DUP1 RETURN JUMPDEST PUSH2 0x15FB SWAP1 DUP6 RETURNDATASIZE DUP8 GT PUSH2 0x7C6 JUMPI PUSH2 0x7B7 DUP2 DUP4 PUSH2 0x16F7 JUMP JUMPDEST POP DUP6 PUSH2 0x15CA JUMP JUMPDEST PUSH2 0x161A SWAP2 SWAP4 POP DUP5 RETURNDATASIZE DUP7 GT PUSH2 0x7F5 JUMPI PUSH2 0x7E7 DUP2 DUP4 PUSH2 0x16F7 JUMP JUMPDEST SWAP2 DUP9 PUSH2 0x1574 JUMP JUMPDEST PUSH1 0x24 SWAP2 SWAP5 POP PUSH2 0x163C SWAP1 DUP5 RETURNDATASIZE DUP7 GT PUSH2 0x7F5 JUMPI PUSH2 0x7E7 DUP2 DUP4 PUSH2 0x16F7 JUMP JUMPDEST SWAP4 SWAP1 PUSH2 0x1548 JUMP JUMPDEST PUSH1 0x4 CALLDATALOAD SWAP1 PUSH4 0xFFFFFFFF DUP3 AND DUP3 SUB PUSH2 0xDE JUMPI JUMP JUMPDEST PUSH1 0x4 CALLDATALOAD SWAP1 PUSH2 0xFFFF DUP3 AND DUP3 SUB PUSH2 0xDE JUMPI JUMP JUMPDEST ISZERO PUSH2 0x166E JUMPI JUMP JUMPDEST PUSH1 0x64 PUSH1 0x40 MLOAD PUSH3 0x461BCD PUSH1 0xE5 SHL DUP2 MSTORE PUSH1 0x20 PUSH1 0x4 DUP3 ADD MSTORE PUSH1 0x1B PUSH1 0x24 DUP3 ADD MSTORE PUSH32 0x4E6F6E63652077617320616C72656164792065786563757465642E0000000000 PUSH1 0x44 DUP3 ADD MSTORE REVERT JUMPDEST PUSH1 0x4 DUP3 LT ISZERO PUSH2 0x5FB JUMPI MSTORE JUMP JUMPDEST PUSH1 0xA0 DUP2 ADD SWAP1 DUP2 LT PUSH8 0xFFFFFFFFFFFFFFFF DUP3 GT OR PUSH2 0x682 JUMPI PUSH1 0x40 MSTORE JUMP JUMPDEST PUSH2 0x100 DUP2 ADD SWAP1 DUP2 LT PUSH8 0xFFFFFFFFFFFFFFFF DUP3 GT OR PUSH2 0x682 JUMPI PUSH1 0x40 MSTORE JUMP JUMPDEST SWAP1 PUSH1 0x1F DUP1 NOT SWAP2 ADD AND DUP2 ADD SWAP1 DUP2 LT PUSH8 0xFFFFFFFFFFFFFFFF DUP3 GT OR PUSH2 0x682 JUMPI PUSH1 0x40 MSTORE JUMP JUMPDEST ISZERO PUSH2 0x1720 JUMPI JUMP JUMPDEST PUSH1 0x64 PUSH1 0x40 MLOAD PUSH3 0x461BCD PUSH1 0xE5 SHL DUP2 MSTORE PUSH1 0x20 PUSH1 0x4 DUP3 ADD MSTORE PUSH1 0x12 PUSH1 0x24 DUP3 ADD MSTORE PUSH32 0x4C6F616E206973206E6F74206163746976650000000000000000000000000000 PUSH1 0x44 DUP3 ADD MSTORE REVERT JUMPDEST SWAP1 DUP2 PUSH1 0x20 SWAP2 SUB SLT PUSH2 0xDE JUMPI MLOAD PUSH1 0x1 PUSH1 0x1 PUSH1 0xA0 SHL SUB DUP2 AND DUP2 SUB PUSH2 0xDE JUMPI SWAP1 JUMP JUMPDEST SWAP1 DUP2 PUSH1 0x20 SWAP2 SUB SLT PUSH2 0xDE JUMPI MLOAD DUP1 ISZERO ISZERO DUP2 SUB PUSH2 0xDE JUMPI SWAP1 JUMP JUMPDEST ISZERO PUSH2 0x17A2 JUMPI JUMP JUMPDEST PUSH1 0x64 PUSH1 0x40 MLOAD PUSH3 0x461BCD PUSH1 0xE5 SHL DUP2 MSTORE PUSH1 0x20 PUSH1 0x4 DUP3 ADD MSTORE PUSH1 0x18 PUSH1 0x24 DUP3 ADD MSTORE PUSH32 0x496E73756666696369656E74206D657373616765206665650000000000000000 PUSH1 0x44 DUP3 ADD MSTORE REVERT JUMPDEST SWAP1 DUP2 PUSH1 0x20 SWAP2 SUB SLT PUSH2 0xDE JUMPI MLOAD PUSH8 0xFFFFFFFFFFFFFFFF DUP2 AND DUP2 SUB PUSH2 0xDE JUMPI SWAP1 JUMP JUMPDEST SWAP3 SWAP2 SWAP1 PUSH4 0xFFFFFFFF AND DUP4 MSTORE PUSH1 0x20 PUSH1 0x60 PUSH1 0x20 DUP6 ADD MSTORE DUP2 MLOAD SWAP2 DUP3 PUSH1 0x60 DUP7 ADD MSTORE PUSH1 0x0 JUMPDEST DUP4 DUP2 LT PUSH2 0x184D JUMPI POP POP POP PUSH1 0x40 PUSH1 0x80 DUP3 PUSH1 0x0 DUP3 DUP2 SWAP6 DUP9 ADD ADD MSTORE PUSH1 0x1F DUP1 NOT SWAP2 ADD AND DUP6 ADD ADD SWAP4 ADD MSTORE JUMP JUMPDEST DUP2 DUP2 ADD DUP4 ADD MLOAD DUP7 DUP3 ADD PUSH1 0x80 ADD MSTORE DUP3 ADD PUSH2 0x1826 JUMP JUMPDEST PUSH1 0xD SLOAD DUP2 LT ISZERO PUSH2 0x1898 JUMPI PUSH1 0xD PUSH1 0x0 MSTORE PUSH32 0xD7B6990105719101DABEB77144F2A3385C8033ACD3AF97E9423A695E81AD1EB5 ADD SWAP1 PUSH1 0x0 SWAP1 JUMP JUMPDEST PUSH4 0x4E487B71 PUSH1 0xE0 SHL PUSH1 0x0 MSTORE PUSH1 0x32 PUSH1 0x4 MSTORE PUSH1 0x24 PUSH1 0x0 REVERT JUMPDEST SWAP1 PUSH1 0x4 DUP2 LT ISZERO PUSH2 0x5FB JUMPI PUSH1 0xFF DUP1 NOT DUP4 SLOAD AND SWAP2 AND OR SWAP1 SSTORE JUMP JUMPDEST PUSH1 0xD SLOAD SWAP1 PUSH1 0x0 JUMPDEST DUP3 DUP2 LT PUSH2 0x18DC JUMPI POP POP POP PUSH1 0x0 SWAP1 JUMP JUMPDEST DUP2 PUSH2 0x18E6 DUP3 PUSH2 0x1861 JUMP JUMPDEST SWAP1 SLOAD SWAP1 PUSH1 0x3 SHL SHR EQ PUSH2 0x18FA JUMPI PUSH1 0x1 ADD PUSH2 0x18CD JUMP JUMPDEST POP POP POP PUSH1 0x1 SWAP1 JUMP JUMPDEST PUSH1 0x1 PUSH1 0x1 PUSH1 0xA0 SHL SUB PUSH1 0x0 SLOAD AND CALLER SUB PUSH2 0x1916 JUMPI JUMP JUMPDEST PUSH1 0x64 PUSH1 0x40 MLOAD PUSH3 0x461BCD PUSH1 0xE5 SHL DUP2 MSTORE PUSH1 0x20 PUSH1 0x4 DUP3 ADD MSTORE PUSH1 0x20 PUSH1 0x24 DUP3 ADD MSTORE PUSH32 0x4F776E61626C653A2063616C6C6572206973206E6F7420746865206F776E6572 PUSH1 0x44 DUP3 ADD MSTORE REVERT JUMPDEST SWAP2 SWAP1 DUP3 SUB SWAP2 DUP3 GT PUSH2 0x5E5 JUMPI JUMP JUMPDEST DUP2 DUP2 MUL SWAP3 SWAP2 DUP2 ISZERO SWAP2 DUP5 DIV EQ OR ISZERO PUSH2 0x5E5 JUMPI JUMP JUMPDEST SWAP2 SWAP1 PUSH1 0xFF AND PUSH1 0x64 DUP2 GT PUSH2 0x19A1 JUMPI PUSH1 0x64 PUSH2 0x1996 PUSH2 0x199E SWAP3 DUP6 PUSH2 0x1967 JUMP JUMPDEST DIV DUP1 SWAP4 PUSH2 0x195A JUMP JUMPDEST SWAP1 JUMP JUMPDEST PUSH1 0x84 PUSH1 0x40 MLOAD PUSH3 0x461BCD PUSH1 0xE5 SHL DUP2 MSTORE PUSH1 0x20 PUSH1 0x4 DUP3 ADD MSTORE PUSH1 0x24 DUP1 DUP3 ADD MSTORE PUSH32 0x50657263656E74616765206D757374206265206265747765656E203020616E64 PUSH1 0x44 DUP3 ADD MSTORE PUSH32 0x2031303000000000000000000000000000000000000000000000000000000000 PUSH1 0x64 DUP3 ADD MSTORE REVERT INVALID LOG2 PUSH5 0x6970667358 0x22 SLT KECCAK256 SMOD PUSH28 0x5788C0DF9F6AA8782AC004476A4BA58D1799B6DE285C94320209278E 0xA8 CREATE2 PUSH5 0x736F6C6343 STOP ADDMOD XOR STOP CALLER "
        },
        "methodIdentifiers": {
          "_isTokenSupported(bytes32)": "f770a695",
          "acceptOwnership()": "79ba5097",
          "addForeignOrbital(uint16,bytes32)": "75f5172e",
          "addSupportedToken(address)": "6d69fcaf",
          "borrow(uint16,bytes32,bytes32,uint256,bytes32)": "d80b52b6",
          "getAmountOut(bytes32,bytes32,uint256,uint8)": "7b76ba8a",
          "owner()": "8da5cb5b",
          "pendingOwner()": "e30c3978",
          "receiveOnBorrow(uint32,bytes32,bytes32,bytes32,uint16,bytes32,bytes32,uint256)": "418bd4b6",
          "receiveOnRepay(uint32,bytes32,bytes32)": "13d80c1e",
          "receiveOnStakeSuiFrens(uint32,bytes32,bytes32,bool)": "722da3c2",
          "renounceOwnership()": "715018a6",
          "repay(bytes32)": "563dd613",
          "transferOwnership(address)": "f2fde38b"
        }
      }
    }
  }
}