{
  "contracts/Orbital.sol": {
    "Orbital": {
      "abi": [
        {
          "inputs": [
            {
              "internalType": "address",
              "name": "priceFeeds",
              "type": "address"
            },
            {
              "internalType": "address",
              "name": "wormhole",
              "type": "address"
            }
          ],
          "stateMutability": "nonpayable",
          "type": "constructor"
        },
        {
          "anonymous": false,
          "inputs": [
            {
              "indexed": true,
              "internalType": "address",
              "name": "previousOwner",
              "type": "address"
            },
            {
              "indexed": true,
              "internalType": "address",
              "name": "newOwner",
              "type": "address"
            }
          ],
          "name": "OwnershipTransferStarted",
          "type": "event"
        },
        {
          "anonymous": false,
          "inputs": [
            {
              "indexed": true,
              "internalType": "address",
              "name": "previousOwner",
              "type": "address"
            },
            {
              "indexed": true,
              "internalType": "address",
              "name": "newOwner",
              "type": "address"
            }
          ],
          "name": "OwnershipTransferred",
          "type": "event"
        },
        {
          "inputs": [
            {
              "internalType": "bytes32",
              "name": "tokenId",
              "type": "bytes32"
            }
          ],
          "name": "_isTokenSupported",
          "outputs": [
            {
              "internalType": "bool",
              "name": "",
              "type": "bool"
            }
          ],
          "stateMutability": "view",
          "type": "function"
        },
        {
          "inputs": [],
          "name": "acceptOwnership",
          "outputs": [],
          "stateMutability": "nonpayable",
          "type": "function"
        },
        {
          "inputs": [
            {
              "internalType": "uint16",
              "name": "chainId",
              "type": "uint16"
            },
            {
              "internalType": "bytes32",
              "name": "orbital",
              "type": "bytes32"
            }
          ],
          "name": "addForeignOrbital",
          "outputs": [],
          "stateMutability": "nonpayable",
          "type": "function"
        },
        {
          "inputs": [
            {
              "internalType": "address",
              "name": "token",
              "type": "address"
            }
          ],
          "name": "addSupportedToken",
          "outputs": [],
          "stateMutability": "nonpayable",
          "type": "function"
        },
        {
          "inputs": [
            {
              "internalType": "uint16",
              "name": "toChainId",
              "type": "uint16"
            },
            {
              "internalType": "bytes32",
              "name": "tokenIn",
              "type": "bytes32"
            },
            {
              "internalType": "bytes32",
              "name": "tokenOut",
              "type": "bytes32"
            },
            {
              "internalType": "uint256",
              "name": "value",
              "type": "uint256"
            },
            {
              "internalType": "bytes32",
              "name": "receiver",
              "type": "bytes32"
            }
          ],
          "name": "borrow",
          "outputs": [
            {
              "internalType": "bytes32",
              "name": "",
              "type": "bytes32"
            }
          ],
          "stateMutability": "payable",
          "type": "function"
        },
        {
          "inputs": [
            {
              "internalType": "bytes32",
              "name": "tokenIn",
              "type": "bytes32"
            },
            {
              "internalType": "bytes32",
              "name": "tokenOut",
              "type": "bytes32"
            },
            {
              "internalType": "uint256",
              "name": "amountIn",
              "type": "uint256"
            },
            {
              "internalType": "uint8",
              "name": "ltv",
              "type": "uint8"
            }
          ],
          "name": "getAmountOut",
          "outputs": [
            {
              "internalType": "uint256",
              "name": "",
              "type": "uint256"
            }
          ],
          "stateMutability": "view",
          "type": "function"
        },
        {
          "inputs": [],
          "name": "owner",
          "outputs": [
            {
              "internalType": "address",
              "name": "",
              "type": "address"
            }
          ],
          "stateMutability": "view",
          "type": "function"
        },
        {
          "inputs": [],
          "name": "pendingOwner",
          "outputs": [
            {
              "internalType": "address",
              "name": "",
              "type": "address"
            }
          ],
          "stateMutability": "view",
          "type": "function"
        },
        {
          "inputs": [
            {
              "internalType": "uint32",
              "name": "wormholeNonce",
              "type": "uint32"
            },
            {
              "internalType": "bytes32",
              "name": "loanId",
              "type": "bytes32"
            },
            {
              "internalType": "bytes32",
              "name": "receiver",
              "type": "bytes32"
            },
            {
              "internalType": "uint16",
              "name": "fromChainId",
              "type": "uint16"
            },
            {
              "internalType": "bytes32",
              "name": "fromContractId",
              "type": "bytes32"
            },
            {
              "internalType": "bytes32",
              "name": "tokenIn",
              "type": "bytes32"
            },
            {
              "internalType": "bytes32",
              "name": "tokenOut",
              "type": "bytes32"
            },
            {
              "internalType": "uint256",
              "name": "value",
              "type": "uint256"
            }
          ],
          "name": "receiveOnBorrow",
          "outputs": [],
          "stateMutability": "nonpayable",
          "type": "function"
        },
        {
          "inputs": [
            {
              "internalType": "uint32",
              "name": "wormholeNonce",
              "type": "uint32"
            },
            {
              "internalType": "bytes32",
              "name": "loanId",
              "type": "bytes32"
            }
          ],
          "name": "receiveOnRepay",
          "outputs": [],
          "stateMutability": "nonpayable",
          "type": "function"
        },
        {
          "inputs": [
            {
              "internalType": "uint32",
              "name": "wormholeNonce",
              "type": "uint32"
            },
            {
              "internalType": "bytes32",
              "name": "receiver",
              "type": "bytes32"
            },
            {
              "internalType": "bool",
              "name": "status",
              "type": "bool"
            }
          ],
          "name": "receiveOnStakeSuiFrens",
          "outputs": [],
          "stateMutability": "nonpayable",
          "type": "function"
        },
        {
          "inputs": [],
          "name": "renounceOwnership",
          "outputs": [],
          "stateMutability": "nonpayable",
          "type": "function"
        },
        {
          "inputs": [
            {
              "internalType": "bytes32",
              "name": "loanId",
              "type": "bytes32"
            }
          ],
          "name": "repay",
          "outputs": [
            {
              "internalType": "bool",
              "name": "",
              "type": "bool"
            }
          ],
          "stateMutability": "payable",
          "type": "function"
        },
        {
          "inputs": [
            {
              "internalType": "address",
              "name": "newOwner",
              "type": "address"
            }
          ],
          "name": "transferOwnership",
          "outputs": [],
          "stateMutability": "nonpayable",
          "type": "function"
        }
      ],
      "evm": {
        "bytecode": {
          "linkReferences": {
            "contracts/libraries/AddressToBytes32.sol": {
              "AddressToBytes32": [
                {
                  "length": 20,
                  "start": 838
                },
                {
                  "length": 20,
                  "start": 1063
                },
                {
                  "length": 20,
                  "start": 1267
                },
                {
                  "length": 20,
                  "start": 1411
                },
                {
                  "length": 20,
                  "start": 1676
                },
                {
                  "length": 20,
                  "start": 3386
                },
                {
                  "length": 20,
                  "start": 3698
                },
                {
                  "length": 20,
                  "start": 4755
                },
                {
                  "length": 20,
                  "start": 4907
                },
                {
                  "length": 20,
                  "start": 5046
                },
                {
                  "length": 20,
                  "start": 5848
                }
              ]
            }
          },
          "object": "60a03461014357601f62001c2638819003918201601f19168301916001600160401b0383118484101761014857808492604094855283398101031261014357610053602061004c8361015e565b920161015e565b600180546001600160a01b0319908116909155600080543381841681178355604051956001600160a01b0395949386939192918416907f8be0079c531659141344cd1fd0a4f28419497f9722a3daafe3b4186f6b6457e09080a36f13d397d093d49493d5d7d351551213d160821b6002556e13d397d49154105657d351551213d1608a1b6003557013d397d111519055531517d351551213d1607a1b6004556007805460ff191660501790556005805463ffffffff19166001179055600e8054909316911617905516608052611ab39081620001738239608051818181610326015281816104ce01526112800152f35b600080fd5b634e487b7160e01b600052604160045260246000fd5b51906001600160a01b03821682036101435756fe6080604052600436101561001257600080fd5b60003560e01c80630b3735fb146114ad578063563dd613146110615780635bdea91414610c5d5780636d69fcaf14610b7f578063715018a614610b1057806375f5172e14610ad557806379ba5097146109f45780637b76ba8a146109365780637fc9b2bb146108ab5780638da5cb5b14610884578063d80b52b614610182578063e30c39781461015b578063f2fde38b146100e35763f770a695146100b657600080fd5b346100de5760203660031901126100de5760206100d4600435611939565b6040519015158152f35b600080fd5b346100de5760203660031901126100de576004356001600160a01b038082168092036100de57610111611975565b8173ffffffffffffffffffffffffffffffffffffffff196001541617600155600054167f38d16b8cac22d99fc7c124b9cd0de2d3fa1faef420bfe791d8c362d765e22700600080a3005b346100de5760003660031901126100de5760206001600160a01b0360015416604051908152f35b60a03660031901126100de576101966116b5565b6101a1602435611939565b15610840576101b1604435611939565b156107fc57604051632e7682c760e11b8152602435600482015260208160248173__$cd1346a8e2955df852b4501a7004a2b636$__5af4908115610641576000916107cd575b506040516323b872dd60e01b81523360048201523060248201526064803560448301529091602091839182906000906001600160a01b03165af180156106415761079e575b506001600160a01b03600e54166020604051809263f52b31f160e01b82528180610282606435604435602435600485016040919493926060820195825260208201520152565b03915afa9081156106415760009161076c575b506040516382c947b760e01b815233600482015290600060208360248173__$cd1346a8e2955df852b4501a7004a2b636$__5af4801561064157600090610738575b6103079350600052600b60205260ff60406000205416610730575b6103019060ff6007541661190d565b906119ed565b5090604051631a90a21960e01b81526020816004816001600160a01b037f0000000000000000000000000000000000000000000000000000000000000000165afa908115610641576000916106fe575b50610364813410156117fa565b604051926382c947b760e01b845230600485015260208460248173__$cd1346a8e2955df852b4501a7004a2b636$__5af4938415610641576000946106ca575b5061ffff8316600052600860205260406000205463ffffffff60055416604051602081019133835260843560408301526060820152426080820152608081526103ec8161171d565b5190209460025494604051906382c947b760e01b825233600483015260208260248173__$cd1346a8e2955df852b4501a7004a2b636$__5af4801561064157600090610696575b61ffff9250604051976020890152886040890152606088015260843560808801521660a086015260c085015260e0840152604435610100840152610120908184015282526101408083019183831067ffffffffffffffff8411176106805782602091816040528163ffffffff600554166358cd21bf60e11b8252876104c18161013f19936101448201611865565b0301916001600160a01b037f0000000000000000000000000000000000000000000000000000000000000000165af180156106415761064d575b5050506040516382c947b760e01b815233600482015260208160248173__$cd1346a8e2955df852b4501a7004a2b636$__5af49081156106415760009161060f575b506040519061054b8261171d565b81526020810160243581526040820160643581526060830190600182526080840192428452856000526009602052604060002094518555516001850155516002840155519060048210156105f9576105a860049260038501611921565b519101556005549063ffffffff82169163ffffffff83146105e35763ffffffff600160209401169063ffffffff191617600555604051908152f35b634e487b7160e01b600052601160045260246000fd5b634e487b7160e01b600052602160045260246000fd5b90506020813d602011610639575b8161062a60209383611756565b810103126100de57518261053d565b3d915061061d565b6040513d6000823e3d90fd5b61066f926020903d602011610678575b6106678285611756565b010190611845565b508180806104fb565b3d915061065d565b634e487b7160e01b600052604160045260246000fd5b506020823d6020116106c2575b816106b060209383611756565b810103126100de5761ffff9151610433565b3d91506106a3565b9093506020813d6020116106f6575b816106e660209383611756565b810103126100de575192846103a4565b3d91506106d9565b90506020813d602011610728575b8161071960209383611756565b810103126100de575183610357565b3d915061070c565b50600a6102f2565b506020833d602011610764575b8161075260209383611756565b810103126100de5761030792516102d7565b3d9150610745565b90506020813d602011610796575b8161078760209383611756565b810103126100de575182610295565b3d915061077a565b6107bf9060203d6020116107c6575b6107b78183611756565b8101906117e2565b508161023c565b503d6107ad565b6107ef915060203d6020116107f5575b6107e78183611756565b8101906117c3565b826101f7565b503d6107dd565b606460405162461bcd60e51b815260206004820152601760248201527f546f6b656e206f7574206e6f7420737570706f727465640000000000000000006044820152fd5b606460405162461bcd60e51b815260206004820152601660248201527f546f6b656e20696e206e6f7420737570706f72746564000000000000000000006044820152fd5b346100de5760003660031901126100de5760206001600160a01b0360005416604051908152f35b346100de5760603660031901126100de576108c46116a2565b604435908115158092036100de5763ffffffff906108e0611975565b168060005260066020526108fc60ff60406000205416156116c6565b602435600052600b602052604060002060ff199260ff84835416911617905560005260066020526001604060002091825416179055600080f35b346100de5760803660031901126100de5760643560ff811681036100de576001600160a01b03600e54166020604051809263f52b31f160e01b82528180610999604435602435600435600485016040919493926060820195825260208201520152565b03915afa908115610641576000916109c1575b60206109b884846119ed565b50604051908152f35b90506020813d6020116109ec575b816109dc60209383611756565b810103126100de575160206109ac565b3d91506109cf565b346100de5760003660031901126100de576001546001600160a01b033381831603610a6b5773ffffffffffffffffffffffffffffffffffffffff198092166001556000549133908316176000553391167f8be0079c531659141344cd1fd0a4f28419497f9722a3daafe3b4186f6b6457e0600080a3005b608460405162461bcd60e51b815260206004820152602960248201527f4f776e61626c6532537465703a2063616c6c6572206973206e6f74207468652060448201527f6e6577206f776e657200000000000000000000000000000000000000000000006064820152fd5b346100de5760403660031901126100de5761ffff610af16116b5565b610af9611975565b166000526008602052602435604060002055600080f35b346100de5760003660031901126100de57610b29611975565b60006001600160a01b0373ffffffffffffffffffffffffffffffffffffffff19806001541660015582549081168355167f8be0079c531659141344cd1fd0a4f28419497f9722a3daafe3b4186f6b6457e08280a3005b346100de5760203660031901126100de576004356001600160a01b0381168091036100de57610bac611975565b604051906382c947b760e01b8252600482015260208160248173__$cd1346a8e2955df852b4501a7004a2b636$__5af490811561064157600091610c2b575b50600d546801000000000000000081101561068057806001610c109201600d556118c0565b819291549060031b91821b91600019901b1916179055600080f35b90506020813d602011610c55575b81610c4660209383611756565b810103126100de575181610beb565b3d9150610c39565b346100de576101003660031901126100de57610c776116a2565b6024908135604435906064359061ffff908183168093036100de5760c4359563ffffffff60e43596610ca7611975565b16948560005260209660068852610cc660ff60406000205416156116c6565b85600052600888526084356040600020540361101e5783600052600a885260ff60046040600020015416600481101561100957610fc65773__$cd1346a8e2955df852b4501a7004a2b636$__60405190632e7682c760e11b918281528b60048201528a818781855af4928315610641578b91600094610fa7575b50866040518094819382528860048301525af490811561064157600091610f8a575b50633b9aca0092838102938185041490151715610f7557600e5460405163f52b31f160e01b815260a4356004820152602481018d9052604481019490945292959493926001600160a01b039291908b908890606490829087165afa8015610641578b97600091610f3c575b5091610e349391610dfe600099948a888c52600b875260ff60408d205416610730576103019060ff6007541661190d565b5098899360405180978196829563a9059cbb60e01b845260048401602090939291936001600160a01b0360408201951681520152565b0393165af1801561064157610f1f575b5088600052600c88526040600020549360405199610e618b611739565b848b52898b0192835260408b0190815260608b0191825260808b01926001845260a08c019542875260c08d0197885260e08d01998a52600052600a8b5260406000209b518c555160018c01555160028b01555160038a015551906004821015610f0b5750918791610ed9600794600460069b01611921565b51600583015551878201550191511661ffff19825416179055600052526040600020600160ff19825416179055600080f35b634e487b7160e01b60005260216004526000fd5b610f3590893d8b116107c6576107b78183611756565b5089610e44565b8881949992509492943d8311610f6e575b610f578183611756565b810103126100de5790518a96919290610e34610dcd565b503d610f4d565b84634e487b7160e01b60005260116004526000fd5b610fa191508a3d8c116107f5576107e78183611756565b8b610d62565b610fbf919450823d84116107f5576107e78183611756565b928d610d40565b6064886014856040519262461bcd60e51b845260048401528201527f4c6f616e20616c726561647920637265617465640000000000000000000000006044820152fd5b83634e487b7160e01b60005260216004526000fd5b6064886017856040519262461bcd60e51b845260048401528201527f496e76616c696420666f726569676e206f72626974616c0000000000000000006044820152fd5b60203660031901126100de57600435600052600a602052604060002060076040519161108c83611739565b805483526001810154906020840191825260028101546040850152600381015460608501526110c560ff60048301541660808601611711565b600581015460a0850152600681015460c085015261ffff92839101541660e0840152608083015160048110156105f95760016111019114611778565b519160405192632e7682c760e11b84526004840152602492602081858173__$cd1346a8e2955df852b4501a7004a2b636$__5af49081156106415760009161148e575b506001600160a01b0390813391160361144a5765f7cf9b8d0000611188606084015161118360a086015161117d60c088015191426119cd565b926119da565b6119da565b046060830151908101809111610f755760408301519060405191632e7682c760e11b83526004830152602082878173__$cd1346a8e2955df852b4501a7004a2b636$__5af49182156106415783926020926112189260009261142b575b506040516323b872dd60e01b81523360048201523060248201526044810191909152938492839160009183906064820190565b0393165af180156106415761140c575b506040516382c947b760e01b8152306004820152602081868173__$cd1346a8e2955df852b4501a7004a2b636$__5af4908115610641576000916113da575b508360e0840151166000526008602052604060002054917f0000000000000000000000000000000000000000000000000000000000000000169160405191631a90a21960e01b8352602083600481875afa928315610641576000936113a6575b506112d38334146117fa565b6003549560e08601511660405196602088015260043560408801526060870152608086015260a085015260a0845260c084019484861067ffffffffffffffff87111761139257506020918580928160405263ffffffff600554166358cd21bf60e11b8352876113498160bf199360c48201611865565b0301925af19182156106415760029360809361136f575b50500152602060405160018152f35b60c061138a926020903d602011610678576106678285611756565b508380611360565b634e487b7160e01b60005260416004526000fd5b9092506020813d6020116113d2575b816113c260209383611756565b810103126100de575191876112c7565b3d91506113b5565b90506020813d602011611404575b816113f560209383611756565b810103126100de575185611267565b3d91506113e8565b6114249060203d6020116107c6576107b78183611756565b5084611228565b611443919250843d86116107f5576107e78183611756565b90896111e5565b60648460116040519162461bcd60e51b8352602060048401528201527f556e617574686f72697a6564206c6f616e0000000000000000000000000000006044820152fd5b6114a7915060203d6020116107f5576107e78183611756565b84611144565b346100de5760403660031901126100de5763ffffffff6114cb6116a2565b6114d3611975565b16806000526020600681526114f060ff60406000205416156116c6565b602435600052600981526040600020916040519261150d8461171d565b8054845260018101549383810194855260028201549460408201958652600460ff60038501541693611543606085019586611711565b01546080830152825160048110156105f95760016115619114611778565b519073__$cd1346a8e2955df852b4501a7004a2b636$__9160405190632e7682c760e11b9081835260048301528682602481875af4928315610641578792600094611680575b5060249051916040519586938492835260048301525af490811561064157611612968693600093611661575b50519160006001600160a01b03604051809a8196829563a9059cbb60e01b845260048401602090939291936001600160a01b0360408201951681520152565b0393165af190811561064157600694600292611644575b5052600052526040600020600160ff19825416179055600080f35b61165a90853d87116107c6576107b78183611756565b5085611629565b611679919350843d86116107f5576107e78183611756565b91886115d3565b602491945061169b90843d86116107f5576107e78183611756565b93906115a7565b6004359063ffffffff821682036100de57565b6004359061ffff821682036100de57565b156116cd57565b606460405162461bcd60e51b815260206004820152601b60248201527f4e6f6e63652077617320616c72656164792065786563757465642e00000000006044820152fd5b60048210156105f95752565b60a0810190811067ffffffffffffffff82111761068057604052565b610100810190811067ffffffffffffffff82111761068057604052565b90601f8019910116810190811067ffffffffffffffff82111761068057604052565b1561177f57565b606460405162461bcd60e51b815260206004820152601260248201527f4c6f616e206973206e6f742061637469766500000000000000000000000000006044820152fd5b908160209103126100de57516001600160a01b03811681036100de5790565b908160209103126100de575180151581036100de5790565b1561180157565b606460405162461bcd60e51b815260206004820152601860248201527f496e73756666696369656e74206d6573736167652066656500000000000000006044820152fd5b908160209103126100de575167ffffffffffffffff811681036100de5790565b92919063ffffffff16835260206060602085015281519182606086015260005b8381106118ac575050506040608082600082819588010152601f8019910116850101930152565b818101830151868201608001528201611885565b600d548110156118f757600d6000527fd7b6990105719101dabeb77144f2a3385c8033acd3af97e9423a695e81ad1eb50190600090565b634e487b7160e01b600052603260045260246000fd5b9060ff8091169116019060ff82116105e357565b9060048110156105f95760ff80198354169116179055565b600d549060005b82811061194f57505050600090565b81611959826118c0565b90549060031b1c1461196d57600101611940565b505050600190565b6001600160a01b0360005416330361198957565b606460405162461bcd60e51b815260206004820152602060248201527f4f776e61626c653a2063616c6c6572206973206e6f7420746865206f776e65726044820152fd5b919082039182116105e357565b818102929181159184041417156105e357565b919060ff1660648111611a14576064611a09611a1192856119da565b0480936119cd565b90565b608460405162461bcd60e51b8152602060048201526024808201527f50657263656e74616765206d757374206265206265747765656e203020616e6460448201527f20313030000000000000000000000000000000000000000000000000000000006064820152fdfea264697066735822122061c81190fdd73d9f8284700da2422c54e50aa4308df7da02f87525faa885995464736f6c63430008180033",
          "opcodes": "PUSH1 0xA0 CALLVALUE PUSH2 0x143 JUMPI PUSH1 0x1F PUSH3 0x1C26 CODESIZE DUP2 SWAP1 SUB SWAP2 DUP3 ADD PUSH1 0x1F NOT AND DUP4 ADD SWAP2 PUSH1 0x1 PUSH1 0x1 PUSH1 0x40 SHL SUB DUP4 GT DUP5 DUP5 LT OR PUSH2 0x148 JUMPI DUP1 DUP5 SWAP3 PUSH1 0x40 SWAP5 DUP6 MSTORE DUP4 CODECOPY DUP2 ADD SUB SLT PUSH2 0x143 JUMPI PUSH2 0x53 PUSH1 0x20 PUSH2 0x4C DUP4 PUSH2 0x15E JUMP JUMPDEST SWAP3 ADD PUSH2 0x15E JUMP JUMPDEST PUSH1 0x1 DUP1 SLOAD PUSH1 0x1 PUSH1 0x1 PUSH1 0xA0 SHL SUB NOT SWAP1 DUP2 AND SWAP1 SWAP2 SSTORE PUSH1 0x0 DUP1 SLOAD CALLER DUP2 DUP5 AND DUP2 OR DUP4 SSTORE PUSH1 0x40 MLOAD SWAP6 PUSH1 0x1 PUSH1 0x1 PUSH1 0xA0 SHL SUB SWAP6 SWAP5 SWAP4 DUP7 SWAP4 SWAP2 SWAP3 SWAP2 DUP5 AND SWAP1 PUSH32 0x8BE0079C531659141344CD1FD0A4F28419497F9722A3DAAFE3B4186F6B6457E0 SWAP1 DUP1 LOG3 PUSH16 0x13D397D093D49493D5D7D351551213D1 PUSH1 0x82 SHL PUSH1 0x2 SSTORE PUSH15 0x13D397D49154105657D351551213D1 PUSH1 0x8A SHL PUSH1 0x3 SSTORE PUSH17 0x13D397D111519055531517D351551213D1 PUSH1 0x7A SHL PUSH1 0x4 SSTORE PUSH1 0x7 DUP1 SLOAD PUSH1 0xFF NOT AND PUSH1 0x50 OR SWAP1 SSTORE PUSH1 0x5 DUP1 SLOAD PUSH4 0xFFFFFFFF NOT AND PUSH1 0x1 OR SWAP1 SSTORE PUSH1 0xE DUP1 SLOAD SWAP1 SWAP4 AND SWAP2 AND OR SWAP1 SSTORE AND PUSH1 0x80 MSTORE PUSH2 0x1AB3 SWAP1 DUP2 PUSH3 0x173 DUP3 CODECOPY PUSH1 0x80 MLOAD DUP2 DUP2 DUP2 PUSH2 0x326 ADD MSTORE DUP2 DUP2 PUSH2 0x4CE ADD MSTORE PUSH2 0x1280 ADD MSTORE RETURN JUMPDEST PUSH1 0x0 DUP1 REVERT JUMPDEST PUSH4 0x4E487B71 PUSH1 0xE0 SHL PUSH1 0x0 MSTORE PUSH1 0x41 PUSH1 0x4 MSTORE PUSH1 0x24 PUSH1 0x0 REVERT JUMPDEST MLOAD SWAP1 PUSH1 0x1 PUSH1 0x1 PUSH1 0xA0 SHL SUB DUP3 AND DUP3 SUB PUSH2 0x143 JUMPI JUMP INVALID PUSH1 0x80 PUSH1 0x40 MSTORE PUSH1 0x4 CALLDATASIZE LT ISZERO PUSH2 0x12 JUMPI PUSH1 0x0 DUP1 REVERT JUMPDEST PUSH1 0x0 CALLDATALOAD PUSH1 0xE0 SHR DUP1 PUSH4 0xB3735FB EQ PUSH2 0x14AD JUMPI DUP1 PUSH4 0x563DD613 EQ PUSH2 0x1061 JUMPI DUP1 PUSH4 0x5BDEA914 EQ PUSH2 0xC5D JUMPI DUP1 PUSH4 0x6D69FCAF EQ PUSH2 0xB7F JUMPI DUP1 PUSH4 0x715018A6 EQ PUSH2 0xB10 JUMPI DUP1 PUSH4 0x75F5172E EQ PUSH2 0xAD5 JUMPI DUP1 PUSH4 0x79BA5097 EQ PUSH2 0x9F4 JUMPI DUP1 PUSH4 0x7B76BA8A EQ PUSH2 0x936 JUMPI DUP1 PUSH4 0x7FC9B2BB EQ PUSH2 0x8AB JUMPI DUP1 PUSH4 0x8DA5CB5B EQ PUSH2 0x884 JUMPI DUP1 PUSH4 0xD80B52B6 EQ PUSH2 0x182 JUMPI DUP1 PUSH4 0xE30C3978 EQ PUSH2 0x15B JUMPI DUP1 PUSH4 0xF2FDE38B EQ PUSH2 0xE3 JUMPI PUSH4 0xF770A695 EQ PUSH2 0xB6 JUMPI PUSH1 0x0 DUP1 REVERT JUMPDEST CALLVALUE PUSH2 0xDE JUMPI PUSH1 0x20 CALLDATASIZE PUSH1 0x3 NOT ADD SLT PUSH2 0xDE JUMPI PUSH1 0x20 PUSH2 0xD4 PUSH1 0x4 CALLDATALOAD PUSH2 0x1939 JUMP JUMPDEST PUSH1 0x40 MLOAD SWAP1 ISZERO ISZERO DUP2 MSTORE RETURN JUMPDEST PUSH1 0x0 DUP1 REVERT JUMPDEST CALLVALUE PUSH2 0xDE JUMPI PUSH1 0x20 CALLDATASIZE PUSH1 0x3 NOT ADD SLT PUSH2 0xDE JUMPI PUSH1 0x4 CALLDATALOAD PUSH1 0x1 PUSH1 0x1 PUSH1 0xA0 SHL SUB DUP1 DUP3 AND DUP1 SWAP3 SUB PUSH2 0xDE JUMPI PUSH2 0x111 PUSH2 0x1975 JUMP JUMPDEST DUP2 PUSH20 0xFFFFFFFFFFFFFFFFFFFFFFFFFFFFFFFFFFFFFFFF NOT PUSH1 0x1 SLOAD AND OR PUSH1 0x1 SSTORE PUSH1 0x0 SLOAD AND PUSH32 0x38D16B8CAC22D99FC7C124B9CD0DE2D3FA1FAEF420BFE791D8C362D765E22700 PUSH1 0x0 DUP1 LOG3 STOP JUMPDEST CALLVALUE PUSH2 0xDE JUMPI PUSH1 0x0 CALLDATASIZE PUSH1 0x3 NOT ADD SLT PUSH2 0xDE JUMPI PUSH1 0x20 PUSH1 0x1 PUSH1 0x1 PUSH1 0xA0 SHL SUB PUSH1 0x1 SLOAD AND PUSH1 0x40 MLOAD SWAP1 DUP2 MSTORE RETURN JUMPDEST PUSH1 0xA0 CALLDATASIZE PUSH1 0x3 NOT ADD SLT PUSH2 0xDE JUMPI PUSH2 0x196 PUSH2 0x16B5 JUMP JUMPDEST PUSH2 0x1A1 PUSH1 0x24 CALLDATALOAD PUSH2 0x1939 JUMP JUMPDEST ISZERO PUSH2 0x840 JUMPI PUSH2 0x1B1 PUSH1 0x44 CALLDATALOAD PUSH2 0x1939 JUMP JUMPDEST ISZERO PUSH2 0x7FC JUMPI PUSH1 0x40 MLOAD PUSH4 0x2E7682C7 PUSH1 0xE1 SHL DUP2 MSTORE PUSH1 0x24 CALLDATALOAD PUSH1 0x4 DUP3 ADD MSTORE PUSH1 0x20 DUP2 PUSH1 0x24 DUP2 PUSH20 0x0 GAS DELEGATECALL SWAP1 DUP2 ISZERO PUSH2 0x641 JUMPI PUSH1 0x0 SWAP2 PUSH2 0x7CD JUMPI JUMPDEST POP PUSH1 0x40 MLOAD PUSH4 0x23B872DD PUSH1 0xE0 SHL DUP2 MSTORE CALLER PUSH1 0x4 DUP3 ADD MSTORE ADDRESS PUSH1 0x24 DUP3 ADD MSTORE PUSH1 0x64 DUP1 CALLDATALOAD PUSH1 0x44 DUP4 ADD MSTORE SWAP1 SWAP2 PUSH1 0x20 SWAP2 DUP4 SWAP2 DUP3 SWAP1 PUSH1 0x0 SWAP1 PUSH1 0x1 PUSH1 0x1 PUSH1 0xA0 SHL SUB AND GAS CALL DUP1 ISZERO PUSH2 0x641 JUMPI PUSH2 0x79E JUMPI JUMPDEST POP PUSH1 0x1 PUSH1 0x1 PUSH1 0xA0 SHL SUB PUSH1 0xE SLOAD AND PUSH1 0x20 PUSH1 0x40 MLOAD DUP1 SWAP3 PUSH4 0xF52B31F1 PUSH1 0xE0 SHL DUP3 MSTORE DUP2 DUP1 PUSH2 0x282 PUSH1 0x64 CALLDATALOAD PUSH1 0x44 CALLDATALOAD PUSH1 0x24 CALLDATALOAD PUSH1 0x4 DUP6 ADD PUSH1 0x40 SWAP2 SWAP5 SWAP4 SWAP3 PUSH1 0x60 DUP3 ADD SWAP6 DUP3 MSTORE PUSH1 0x20 DUP3 ADD MSTORE ADD MSTORE JUMP JUMPDEST SUB SWAP2 GAS STATICCALL SWAP1 DUP2 ISZERO PUSH2 0x641 JUMPI PUSH1 0x0 SWAP2 PUSH2 0x76C JUMPI JUMPDEST POP PUSH1 0x40 MLOAD PUSH4 0x82C947B7 PUSH1 0xE0 SHL DUP2 MSTORE CALLER PUSH1 0x4 DUP3 ADD MSTORE SWAP1 PUSH1 0x0 PUSH1 0x20 DUP4 PUSH1 0x24 DUP2 PUSH20 0x0 GAS DELEGATECALL DUP1 ISZERO PUSH2 0x641 JUMPI PUSH1 0x0 SWAP1 PUSH2 0x738 JUMPI JUMPDEST PUSH2 0x307 SWAP4 POP PUSH1 0x0 MSTORE PUSH1 0xB PUSH1 0x20 MSTORE PUSH1 0xFF PUSH1 0x40 PUSH1 0x0 KECCAK256 SLOAD AND PUSH2 0x730 JUMPI JUMPDEST PUSH2 0x301 SWAP1 PUSH1 0xFF PUSH1 0x7 SLOAD AND PUSH2 0x190D JUMP JUMPDEST SWAP1 PUSH2 0x19ED JUMP JUMPDEST POP SWAP1 PUSH1 0x40 MLOAD PUSH4 0x1A90A219 PUSH1 0xE0 SHL DUP2 MSTORE PUSH1 0x20 DUP2 PUSH1 0x4 DUP2 PUSH1 0x1 PUSH1 0x1 PUSH1 0xA0 SHL SUB PUSH32 0x0 AND GAS STATICCALL SWAP1 DUP2 ISZERO PUSH2 0x641 JUMPI PUSH1 0x0 SWAP2 PUSH2 0x6FE JUMPI JUMPDEST POP PUSH2 0x364 DUP2 CALLVALUE LT ISZERO PUSH2 0x17FA JUMP JUMPDEST PUSH1 0x40 MLOAD SWAP3 PUSH4 0x82C947B7 PUSH1 0xE0 SHL DUP5 MSTORE ADDRESS PUSH1 0x4 DUP6 ADD MSTORE PUSH1 0x20 DUP5 PUSH1 0x24 DUP2 PUSH20 0x0 GAS DELEGATECALL SWAP4 DUP5 ISZERO PUSH2 0x641 JUMPI PUSH1 0x0 SWAP5 PUSH2 0x6CA JUMPI JUMPDEST POP PUSH2 0xFFFF DUP4 AND PUSH1 0x0 MSTORE PUSH1 0x8 PUSH1 0x20 MSTORE PUSH1 0x40 PUSH1 0x0 KECCAK256 SLOAD PUSH4 0xFFFFFFFF PUSH1 0x5 SLOAD AND PUSH1 0x40 MLOAD PUSH1 0x20 DUP2 ADD SWAP2 CALLER DUP4 MSTORE PUSH1 0x84 CALLDATALOAD PUSH1 0x40 DUP4 ADD MSTORE PUSH1 0x60 DUP3 ADD MSTORE TIMESTAMP PUSH1 0x80 DUP3 ADD MSTORE PUSH1 0x80 DUP2 MSTORE PUSH2 0x3EC DUP2 PUSH2 0x171D JUMP JUMPDEST MLOAD SWAP1 KECCAK256 SWAP5 PUSH1 0x2 SLOAD SWAP5 PUSH1 0x40 MLOAD SWAP1 PUSH4 0x82C947B7 PUSH1 0xE0 SHL DUP3 MSTORE CALLER PUSH1 0x4 DUP4 ADD MSTORE PUSH1 0x20 DUP3 PUSH1 0x24 DUP2 PUSH20 0x0 GAS DELEGATECALL DUP1 ISZERO PUSH2 0x641 JUMPI PUSH1 0x0 SWAP1 PUSH2 0x696 JUMPI JUMPDEST PUSH2 0xFFFF SWAP3 POP PUSH1 0x40 MLOAD SWAP8 PUSH1 0x20 DUP10 ADD MSTORE DUP9 PUSH1 0x40 DUP10 ADD MSTORE PUSH1 0x60 DUP9 ADD MSTORE PUSH1 0x84 CALLDATALOAD PUSH1 0x80 DUP9 ADD MSTORE AND PUSH1 0xA0 DUP7 ADD MSTORE PUSH1 0xC0 DUP6 ADD MSTORE PUSH1 0xE0 DUP5 ADD MSTORE PUSH1 0x44 CALLDATALOAD PUSH2 0x100 DUP5 ADD MSTORE PUSH2 0x120 SWAP1 DUP2 DUP5 ADD MSTORE DUP3 MSTORE PUSH2 0x140 DUP1 DUP4 ADD SWAP2 DUP4 DUP4 LT PUSH8 0xFFFFFFFFFFFFFFFF DUP5 GT OR PUSH2 0x680 JUMPI DUP3 PUSH1 0x20 SWAP2 DUP2 PUSH1 0x40 MSTORE DUP2 PUSH4 0xFFFFFFFF PUSH1 0x5 SLOAD AND PUSH4 0x58CD21BF PUSH1 0xE1 SHL DUP3 MSTORE DUP8 PUSH2 0x4C1 DUP2 PUSH2 0x13F NOT SWAP4 PUSH2 0x144 DUP3 ADD PUSH2 0x1865 JUMP JUMPDEST SUB ADD SWAP2 PUSH1 0x1 PUSH1 0x1 PUSH1 0xA0 SHL SUB PUSH32 0x0 AND GAS CALL DUP1 ISZERO PUSH2 0x641 JUMPI PUSH2 0x64D JUMPI JUMPDEST POP POP POP PUSH1 0x40 MLOAD PUSH4 0x82C947B7 PUSH1 0xE0 SHL DUP2 MSTORE CALLER PUSH1 0x4 DUP3 ADD MSTORE PUSH1 0x20 DUP2 PUSH1 0x24 DUP2 PUSH20 0x0 GAS DELEGATECALL SWAP1 DUP2 ISZERO PUSH2 0x641 JUMPI PUSH1 0x0 SWAP2 PUSH2 0x60F JUMPI JUMPDEST POP PUSH1 0x40 MLOAD SWAP1 PUSH2 0x54B DUP3 PUSH2 0x171D JUMP JUMPDEST DUP2 MSTORE PUSH1 0x20 DUP2 ADD PUSH1 0x24 CALLDATALOAD DUP2 MSTORE PUSH1 0x40 DUP3 ADD PUSH1 0x64 CALLDATALOAD DUP2 MSTORE PUSH1 0x60 DUP4 ADD SWAP1 PUSH1 0x1 DUP3 MSTORE PUSH1 0x80 DUP5 ADD SWAP3 TIMESTAMP DUP5 MSTORE DUP6 PUSH1 0x0 MSTORE PUSH1 0x9 PUSH1 0x20 MSTORE PUSH1 0x40 PUSH1 0x0 KECCAK256 SWAP5 MLOAD DUP6 SSTORE MLOAD PUSH1 0x1 DUP6 ADD SSTORE MLOAD PUSH1 0x2 DUP5 ADD SSTORE MLOAD SWAP1 PUSH1 0x4 DUP3 LT ISZERO PUSH2 0x5F9 JUMPI PUSH2 0x5A8 PUSH1 0x4 SWAP3 PUSH1 0x3 DUP6 ADD PUSH2 0x1921 JUMP JUMPDEST MLOAD SWAP2 ADD SSTORE PUSH1 0x5 SLOAD SWAP1 PUSH4 0xFFFFFFFF DUP3 AND SWAP2 PUSH4 0xFFFFFFFF DUP4 EQ PUSH2 0x5E3 JUMPI PUSH4 0xFFFFFFFF PUSH1 0x1 PUSH1 0x20 SWAP5 ADD AND SWAP1 PUSH4 0xFFFFFFFF NOT AND OR PUSH1 0x5 SSTORE PUSH1 0x40 MLOAD SWAP1 DUP2 MSTORE RETURN JUMPDEST PUSH4 0x4E487B71 PUSH1 0xE0 SHL PUSH1 0x0 MSTORE PUSH1 0x11 PUSH1 0x4 MSTORE PUSH1 0x24 PUSH1 0x0 REVERT JUMPDEST PUSH4 0x4E487B71 PUSH1 0xE0 SHL PUSH1 0x0 MSTORE PUSH1 0x21 PUSH1 0x4 MSTORE PUSH1 0x24 PUSH1 0x0 REVERT JUMPDEST SWAP1 POP PUSH1 0x20 DUP2 RETURNDATASIZE PUSH1 0x20 GT PUSH2 0x639 JUMPI JUMPDEST DUP2 PUSH2 0x62A PUSH1 0x20 SWAP4 DUP4 PUSH2 0x1756 JUMP JUMPDEST DUP2 ADD SUB SLT PUSH2 0xDE JUMPI MLOAD DUP3 PUSH2 0x53D JUMP JUMPDEST RETURNDATASIZE SWAP2 POP PUSH2 0x61D JUMP JUMPDEST PUSH1 0x40 MLOAD RETURNDATASIZE PUSH1 0x0 DUP3 RETURNDATACOPY RETURNDATASIZE SWAP1 REVERT JUMPDEST PUSH2 0x66F SWAP3 PUSH1 0x20 SWAP1 RETURNDATASIZE PUSH1 0x20 GT PUSH2 0x678 JUMPI JUMPDEST PUSH2 0x667 DUP3 DUP6 PUSH2 0x1756 JUMP JUMPDEST ADD ADD SWAP1 PUSH2 0x1845 JUMP JUMPDEST POP DUP2 DUP1 DUP1 PUSH2 0x4FB JUMP JUMPDEST RETURNDATASIZE SWAP2 POP PUSH2 0x65D JUMP JUMPDEST PUSH4 0x4E487B71 PUSH1 0xE0 SHL PUSH1 0x0 MSTORE PUSH1 0x41 PUSH1 0x4 MSTORE PUSH1 0x24 PUSH1 0x0 REVERT JUMPDEST POP PUSH1 0x20 DUP3 RETURNDATASIZE PUSH1 0x20 GT PUSH2 0x6C2 JUMPI JUMPDEST DUP2 PUSH2 0x6B0 PUSH1 0x20 SWAP4 DUP4 PUSH2 0x1756 JUMP JUMPDEST DUP2 ADD SUB SLT PUSH2 0xDE JUMPI PUSH2 0xFFFF SWAP2 MLOAD PUSH2 0x433 JUMP JUMPDEST RETURNDATASIZE SWAP2 POP PUSH2 0x6A3 JUMP JUMPDEST SWAP1 SWAP4 POP PUSH1 0x20 DUP2 RETURNDATASIZE PUSH1 0x20 GT PUSH2 0x6F6 JUMPI JUMPDEST DUP2 PUSH2 0x6E6 PUSH1 0x20 SWAP4 DUP4 PUSH2 0x1756 JUMP JUMPDEST DUP2 ADD SUB SLT PUSH2 0xDE JUMPI MLOAD SWAP3 DUP5 PUSH2 0x3A4 JUMP JUMPDEST RETURNDATASIZE SWAP2 POP PUSH2 0x6D9 JUMP JUMPDEST SWAP1 POP PUSH1 0x20 DUP2 RETURNDATASIZE PUSH1 0x20 GT PUSH2 0x728 JUMPI JUMPDEST DUP2 PUSH2 0x719 PUSH1 0x20 SWAP4 DUP4 PUSH2 0x1756 JUMP JUMPDEST DUP2 ADD SUB SLT PUSH2 0xDE JUMPI MLOAD DUP4 PUSH2 0x357 JUMP JUMPDEST RETURNDATASIZE SWAP2 POP PUSH2 0x70C JUMP JUMPDEST POP PUSH1 0xA PUSH2 0x2F2 JUMP JUMPDEST POP PUSH1 0x20 DUP4 RETURNDATASIZE PUSH1 0x20 GT PUSH2 0x764 JUMPI JUMPDEST DUP2 PUSH2 0x752 PUSH1 0x20 SWAP4 DUP4 PUSH2 0x1756 JUMP JUMPDEST DUP2 ADD SUB SLT PUSH2 0xDE JUMPI PUSH2 0x307 SWAP3 MLOAD PUSH2 0x2D7 JUMP JUMPDEST RETURNDATASIZE SWAP2 POP PUSH2 0x745 JUMP JUMPDEST SWAP1 POP PUSH1 0x20 DUP2 RETURNDATASIZE PUSH1 0x20 GT PUSH2 0x796 JUMPI JUMPDEST DUP2 PUSH2 0x787 PUSH1 0x20 SWAP4 DUP4 PUSH2 0x1756 JUMP JUMPDEST DUP2 ADD SUB SLT PUSH2 0xDE JUMPI MLOAD DUP3 PUSH2 0x295 JUMP JUMPDEST RETURNDATASIZE SWAP2 POP PUSH2 0x77A JUMP JUMPDEST PUSH2 0x7BF SWAP1 PUSH1 0x20 RETURNDATASIZE PUSH1 0x20 GT PUSH2 0x7C6 JUMPI JUMPDEST PUSH2 0x7B7 DUP2 DUP4 PUSH2 0x1756 JUMP JUMPDEST DUP2 ADD SWAP1 PUSH2 0x17E2 JUMP JUMPDEST POP DUP2 PUSH2 0x23C JUMP JUMPDEST POP RETURNDATASIZE PUSH2 0x7AD JUMP JUMPDEST PUSH2 0x7EF SWAP2 POP PUSH1 0x20 RETURNDATASIZE PUSH1 0x20 GT PUSH2 0x7F5 JUMPI JUMPDEST PUSH2 0x7E7 DUP2 DUP4 PUSH2 0x1756 JUMP JUMPDEST DUP2 ADD SWAP1 PUSH2 0x17C3 JUMP JUMPDEST DUP3 PUSH2 0x1F7 JUMP JUMPDEST POP RETURNDATASIZE PUSH2 0x7DD JUMP JUMPDEST PUSH1 0x64 PUSH1 0x40 MLOAD PUSH3 0x461BCD PUSH1 0xE5 SHL DUP2 MSTORE PUSH1 0x20 PUSH1 0x4 DUP3 ADD MSTORE PUSH1 0x17 PUSH1 0x24 DUP3 ADD MSTORE PUSH32 0x546F6B656E206F7574206E6F7420737570706F72746564000000000000000000 PUSH1 0x44 DUP3 ADD MSTORE REVERT JUMPDEST PUSH1 0x64 PUSH1 0x40 MLOAD PUSH3 0x461BCD PUSH1 0xE5 SHL DUP2 MSTORE PUSH1 0x20 PUSH1 0x4 DUP3 ADD MSTORE PUSH1 0x16 PUSH1 0x24 DUP3 ADD MSTORE PUSH32 0x546F6B656E20696E206E6F7420737570706F7274656400000000000000000000 PUSH1 0x44 DUP3 ADD MSTORE REVERT JUMPDEST CALLVALUE PUSH2 0xDE JUMPI PUSH1 0x0 CALLDATASIZE PUSH1 0x3 NOT ADD SLT PUSH2 0xDE JUMPI PUSH1 0x20 PUSH1 0x1 PUSH1 0x1 PUSH1 0xA0 SHL SUB PUSH1 0x0 SLOAD AND PUSH1 0x40 MLOAD SWAP1 DUP2 MSTORE RETURN JUMPDEST CALLVALUE PUSH2 0xDE JUMPI PUSH1 0x60 CALLDATASIZE PUSH1 0x3 NOT ADD SLT PUSH2 0xDE JUMPI PUSH2 0x8C4 PUSH2 0x16A2 JUMP JUMPDEST PUSH1 0x44 CALLDATALOAD SWAP1 DUP2 ISZERO ISZERO DUP1 SWAP3 SUB PUSH2 0xDE JUMPI PUSH4 0xFFFFFFFF SWAP1 PUSH2 0x8E0 PUSH2 0x1975 JUMP JUMPDEST AND DUP1 PUSH1 0x0 MSTORE PUSH1 0x6 PUSH1 0x20 MSTORE PUSH2 0x8FC PUSH1 0xFF PUSH1 0x40 PUSH1 0x0 KECCAK256 SLOAD AND ISZERO PUSH2 0x16C6 JUMP JUMPDEST PUSH1 0x24 CALLDATALOAD PUSH1 0x0 MSTORE PUSH1 0xB PUSH1 0x20 MSTORE PUSH1 0x40 PUSH1 0x0 KECCAK256 PUSH1 0xFF NOT SWAP3 PUSH1 0xFF DUP5 DUP4 SLOAD AND SWAP2 AND OR SWAP1 SSTORE PUSH1 0x0 MSTORE PUSH1 0x6 PUSH1 0x20 MSTORE PUSH1 0x1 PUSH1 0x40 PUSH1 0x0 KECCAK256 SWAP2 DUP3 SLOAD AND OR SWAP1 SSTORE PUSH1 0x0 DUP1 RETURN JUMPDEST CALLVALUE PUSH2 0xDE JUMPI PUSH1 0x80 CALLDATASIZE PUSH1 0x3 NOT ADD SLT PUSH2 0xDE JUMPI PUSH1 0x64 CALLDATALOAD PUSH1 0xFF DUP2 AND DUP2 SUB PUSH2 0xDE JUMPI PUSH1 0x1 PUSH1 0x1 PUSH1 0xA0 SHL SUB PUSH1 0xE SLOAD AND PUSH1 0x20 PUSH1 0x40 MLOAD DUP1 SWAP3 PUSH4 0xF52B31F1 PUSH1 0xE0 SHL DUP3 MSTORE DUP2 DUP1 PUSH2 0x999 PUSH1 0x44 CALLDATALOAD PUSH1 0x24 CALLDATALOAD PUSH1 0x4 CALLDATALOAD PUSH1 0x4 DUP6 ADD PUSH1 0x40 SWAP2 SWAP5 SWAP4 SWAP3 PUSH1 0x60 DUP3 ADD SWAP6 DUP3 MSTORE PUSH1 0x20 DUP3 ADD MSTORE ADD MSTORE JUMP JUMPDEST SUB SWAP2 GAS STATICCALL SWAP1 DUP2 ISZERO PUSH2 0x641 JUMPI PUSH1 0x0 SWAP2 PUSH2 0x9C1 JUMPI JUMPDEST PUSH1 0x20 PUSH2 0x9B8 DUP5 DUP5 PUSH2 0x19ED JUMP JUMPDEST POP PUSH1 0x40 MLOAD SWAP1 DUP2 MSTORE RETURN JUMPDEST SWAP1 POP PUSH1 0x20 DUP2 RETURNDATASIZE PUSH1 0x20 GT PUSH2 0x9EC JUMPI JUMPDEST DUP2 PUSH2 0x9DC PUSH1 0x20 SWAP4 DUP4 PUSH2 0x1756 JUMP JUMPDEST DUP2 ADD SUB SLT PUSH2 0xDE JUMPI MLOAD PUSH1 0x20 PUSH2 0x9AC JUMP JUMPDEST RETURNDATASIZE SWAP2 POP PUSH2 0x9CF JUMP JUMPDEST CALLVALUE PUSH2 0xDE JUMPI PUSH1 0x0 CALLDATASIZE PUSH1 0x3 NOT ADD SLT PUSH2 0xDE JUMPI PUSH1 0x1 SLOAD PUSH1 0x1 PUSH1 0x1 PUSH1 0xA0 SHL SUB CALLER DUP2 DUP4 AND SUB PUSH2 0xA6B JUMPI PUSH20 0xFFFFFFFFFFFFFFFFFFFFFFFFFFFFFFFFFFFFFFFF NOT DUP1 SWAP3 AND PUSH1 0x1 SSTORE PUSH1 0x0 SLOAD SWAP2 CALLER SWAP1 DUP4 AND OR PUSH1 0x0 SSTORE CALLER SWAP2 AND PUSH32 0x8BE0079C531659141344CD1FD0A4F28419497F9722A3DAAFE3B4186F6B6457E0 PUSH1 0x0 DUP1 LOG3 STOP JUMPDEST PUSH1 0x84 PUSH1 0x40 MLOAD PUSH3 0x461BCD PUSH1 0xE5 SHL DUP2 MSTORE PUSH1 0x20 PUSH1 0x4 DUP3 ADD MSTORE PUSH1 0x29 PUSH1 0x24 DUP3 ADD MSTORE PUSH32 0x4F776E61626C6532537465703A2063616C6C6572206973206E6F742074686520 PUSH1 0x44 DUP3 ADD MSTORE PUSH32 0x6E6577206F776E65720000000000000000000000000000000000000000000000 PUSH1 0x64 DUP3 ADD MSTORE REVERT JUMPDEST CALLVALUE PUSH2 0xDE JUMPI PUSH1 0x40 CALLDATASIZE PUSH1 0x3 NOT ADD SLT PUSH2 0xDE JUMPI PUSH2 0xFFFF PUSH2 0xAF1 PUSH2 0x16B5 JUMP JUMPDEST PUSH2 0xAF9 PUSH2 0x1975 JUMP JUMPDEST AND PUSH1 0x0 MSTORE PUSH1 0x8 PUSH1 0x20 MSTORE PUSH1 0x24 CALLDATALOAD PUSH1 0x40 PUSH1 0x0 KECCAK256 SSTORE PUSH1 0x0 DUP1 RETURN JUMPDEST CALLVALUE PUSH2 0xDE JUMPI PUSH1 0x0 CALLDATASIZE PUSH1 0x3 NOT ADD SLT PUSH2 0xDE JUMPI PUSH2 0xB29 PUSH2 0x1975 JUMP JUMPDEST PUSH1 0x0 PUSH1 0x1 PUSH1 0x1 PUSH1 0xA0 SHL SUB PUSH20 0xFFFFFFFFFFFFFFFFFFFFFFFFFFFFFFFFFFFFFFFF NOT DUP1 PUSH1 0x1 SLOAD AND PUSH1 0x1 SSTORE DUP3 SLOAD SWAP1 DUP2 AND DUP4 SSTORE AND PUSH32 0x8BE0079C531659141344CD1FD0A4F28419497F9722A3DAAFE3B4186F6B6457E0 DUP3 DUP1 LOG3 STOP JUMPDEST CALLVALUE PUSH2 0xDE JUMPI PUSH1 0x20 CALLDATASIZE PUSH1 0x3 NOT ADD SLT PUSH2 0xDE JUMPI PUSH1 0x4 CALLDATALOAD PUSH1 0x1 PUSH1 0x1 PUSH1 0xA0 SHL SUB DUP2 AND DUP1 SWAP2 SUB PUSH2 0xDE JUMPI PUSH2 0xBAC PUSH2 0x1975 JUMP JUMPDEST PUSH1 0x40 MLOAD SWAP1 PUSH4 0x82C947B7 PUSH1 0xE0 SHL DUP3 MSTORE PUSH1 0x4 DUP3 ADD MSTORE PUSH1 0x20 DUP2 PUSH1 0x24 DUP2 PUSH20 0x0 GAS DELEGATECALL SWAP1 DUP2 ISZERO PUSH2 0x641 JUMPI PUSH1 0x0 SWAP2 PUSH2 0xC2B JUMPI JUMPDEST POP PUSH1 0xD SLOAD PUSH9 0x10000000000000000 DUP2 LT ISZERO PUSH2 0x680 JUMPI DUP1 PUSH1 0x1 PUSH2 0xC10 SWAP3 ADD PUSH1 0xD SSTORE PUSH2 0x18C0 JUMP JUMPDEST DUP2 SWAP3 SWAP2 SLOAD SWAP1 PUSH1 0x3 SHL SWAP2 DUP3 SHL SWAP2 PUSH1 0x0 NOT SWAP1 SHL NOT AND OR SWAP1 SSTORE PUSH1 0x0 DUP1 RETURN JUMPDEST SWAP1 POP PUSH1 0x20 DUP2 RETURNDATASIZE PUSH1 0x20 GT PUSH2 0xC55 JUMPI JUMPDEST DUP2 PUSH2 0xC46 PUSH1 0x20 SWAP4 DUP4 PUSH2 0x1756 JUMP JUMPDEST DUP2 ADD SUB SLT PUSH2 0xDE JUMPI MLOAD DUP2 PUSH2 0xBEB JUMP JUMPDEST RETURNDATASIZE SWAP2 POP PUSH2 0xC39 JUMP JUMPDEST CALLVALUE PUSH2 0xDE JUMPI PUSH2 0x100 CALLDATASIZE PUSH1 0x3 NOT ADD SLT PUSH2 0xDE JUMPI PUSH2 0xC77 PUSH2 0x16A2 JUMP JUMPDEST PUSH1 0x24 SWAP1 DUP2 CALLDATALOAD PUSH1 0x44 CALLDATALOAD SWAP1 PUSH1 0x64 CALLDATALOAD SWAP1 PUSH2 0xFFFF SWAP1 DUP2 DUP4 AND DUP1 SWAP4 SUB PUSH2 0xDE JUMPI PUSH1 0xC4 CALLDATALOAD SWAP6 PUSH4 0xFFFFFFFF PUSH1 0xE4 CALLDATALOAD SWAP7 PUSH2 0xCA7 PUSH2 0x1975 JUMP JUMPDEST AND SWAP5 DUP6 PUSH1 0x0 MSTORE PUSH1 0x20 SWAP7 PUSH1 0x6 DUP9 MSTORE PUSH2 0xCC6 PUSH1 0xFF PUSH1 0x40 PUSH1 0x0 KECCAK256 SLOAD AND ISZERO PUSH2 0x16C6 JUMP JUMPDEST DUP6 PUSH1 0x0 MSTORE PUSH1 0x8 DUP9 MSTORE PUSH1 0x84 CALLDATALOAD PUSH1 0x40 PUSH1 0x0 KECCAK256 SLOAD SUB PUSH2 0x101E JUMPI DUP4 PUSH1 0x0 MSTORE PUSH1 0xA DUP9 MSTORE PUSH1 0xFF PUSH1 0x4 PUSH1 0x40 PUSH1 0x0 KECCAK256 ADD SLOAD AND PUSH1 0x4 DUP2 LT ISZERO PUSH2 0x1009 JUMPI PUSH2 0xFC6 JUMPI PUSH20 0x0 PUSH1 0x40 MLOAD SWAP1 PUSH4 0x2E7682C7 PUSH1 0xE1 SHL SWAP2 DUP3 DUP2 MSTORE DUP12 PUSH1 0x4 DUP3 ADD MSTORE DUP11 DUP2 DUP8 DUP2 DUP6 GAS DELEGATECALL SWAP3 DUP4 ISZERO PUSH2 0x641 JUMPI DUP12 SWAP2 PUSH1 0x0 SWAP5 PUSH2 0xFA7 JUMPI JUMPDEST POP DUP7 PUSH1 0x40 MLOAD DUP1 SWAP5 DUP2 SWAP4 DUP3 MSTORE DUP9 PUSH1 0x4 DUP4 ADD MSTORE GAS DELEGATECALL SWAP1 DUP2 ISZERO PUSH2 0x641 JUMPI PUSH1 0x0 SWAP2 PUSH2 0xF8A JUMPI JUMPDEST POP PUSH4 0x3B9ACA00 SWAP3 DUP4 DUP2 MUL SWAP4 DUP2 DUP6 DIV EQ SWAP1 ISZERO OR ISZERO PUSH2 0xF75 JUMPI PUSH1 0xE SLOAD PUSH1 0x40 MLOAD PUSH4 0xF52B31F1 PUSH1 0xE0 SHL DUP2 MSTORE PUSH1 0xA4 CALLDATALOAD PUSH1 0x4 DUP3 ADD MSTORE PUSH1 0x24 DUP2 ADD DUP14 SWAP1 MSTORE PUSH1 0x44 DUP2 ADD SWAP5 SWAP1 SWAP5 MSTORE SWAP3 SWAP6 SWAP5 SWAP4 SWAP3 PUSH1 0x1 PUSH1 0x1 PUSH1 0xA0 SHL SUB SWAP3 SWAP2 SWAP1 DUP12 SWAP1 DUP9 SWAP1 PUSH1 0x64 SWAP1 DUP3 SWAP1 DUP8 AND GAS STATICCALL DUP1 ISZERO PUSH2 0x641 JUMPI DUP12 SWAP8 PUSH1 0x0 SWAP2 PUSH2 0xF3C JUMPI JUMPDEST POP SWAP2 PUSH2 0xE34 SWAP4 SWAP2 PUSH2 0xDFE PUSH1 0x0 SWAP10 SWAP5 DUP11 DUP9 DUP13 MSTORE PUSH1 0xB DUP8 MSTORE PUSH1 0xFF PUSH1 0x40 DUP14 KECCAK256 SLOAD AND PUSH2 0x730 JUMPI PUSH2 0x301 SWAP1 PUSH1 0xFF PUSH1 0x7 SLOAD AND PUSH2 0x190D JUMP JUMPDEST POP SWAP9 DUP10 SWAP4 PUSH1 0x40 MLOAD DUP1 SWAP8 DUP2 SWAP7 DUP3 SWAP6 PUSH4 0xA9059CBB PUSH1 0xE0 SHL DUP5 MSTORE PUSH1 0x4 DUP5 ADD PUSH1 0x20 SWAP1 SWAP4 SWAP3 SWAP2 SWAP4 PUSH1 0x1 PUSH1 0x1 PUSH1 0xA0 SHL SUB PUSH1 0x40 DUP3 ADD SWAP6 AND DUP2 MSTORE ADD MSTORE JUMP JUMPDEST SUB SWAP4 AND GAS CALL DUP1 ISZERO PUSH2 0x641 JUMPI PUSH2 0xF1F JUMPI JUMPDEST POP DUP9 PUSH1 0x0 MSTORE PUSH1 0xC DUP9 MSTORE PUSH1 0x40 PUSH1 0x0 KECCAK256 SLOAD SWAP4 PUSH1 0x40 MLOAD SWAP10 PUSH2 0xE61 DUP12 PUSH2 0x1739 JUMP JUMPDEST DUP5 DUP12 MSTORE DUP10 DUP12 ADD SWAP3 DUP4 MSTORE PUSH1 0x40 DUP12 ADD SWAP1 DUP2 MSTORE PUSH1 0x60 DUP12 ADD SWAP2 DUP3 MSTORE PUSH1 0x80 DUP12 ADD SWAP3 PUSH1 0x1 DUP5 MSTORE PUSH1 0xA0 DUP13 ADD SWAP6 TIMESTAMP DUP8 MSTORE PUSH1 0xC0 DUP14 ADD SWAP8 DUP9 MSTORE PUSH1 0xE0 DUP14 ADD SWAP10 DUP11 MSTORE PUSH1 0x0 MSTORE PUSH1 0xA DUP12 MSTORE PUSH1 0x40 PUSH1 0x0 KECCAK256 SWAP12 MLOAD DUP13 SSTORE MLOAD PUSH1 0x1 DUP13 ADD SSTORE MLOAD PUSH1 0x2 DUP12 ADD SSTORE MLOAD PUSH1 0x3 DUP11 ADD SSTORE MLOAD SWAP1 PUSH1 0x4 DUP3 LT ISZERO PUSH2 0xF0B JUMPI POP SWAP2 DUP8 SWAP2 PUSH2 0xED9 PUSH1 0x7 SWAP5 PUSH1 0x4 PUSH1 0x6 SWAP12 ADD PUSH2 0x1921 JUMP JUMPDEST MLOAD PUSH1 0x5 DUP4 ADD SSTORE MLOAD DUP8 DUP3 ADD SSTORE ADD SWAP2 MLOAD AND PUSH2 0xFFFF NOT DUP3 SLOAD AND OR SWAP1 SSTORE PUSH1 0x0 MSTORE MSTORE PUSH1 0x40 PUSH1 0x0 KECCAK256 PUSH1 0x1 PUSH1 0xFF NOT DUP3 SLOAD AND OR SWAP1 SSTORE PUSH1 0x0 DUP1 RETURN JUMPDEST PUSH4 0x4E487B71 PUSH1 0xE0 SHL PUSH1 0x0 MSTORE PUSH1 0x21 PUSH1 0x4 MSTORE PUSH1 0x0 REVERT JUMPDEST PUSH2 0xF35 SWAP1 DUP10 RETURNDATASIZE DUP12 GT PUSH2 0x7C6 JUMPI PUSH2 0x7B7 DUP2 DUP4 PUSH2 0x1756 JUMP JUMPDEST POP DUP10 PUSH2 0xE44 JUMP JUMPDEST DUP9 DUP2 SWAP5 SWAP10 SWAP3 POP SWAP5 SWAP3 SWAP5 RETURNDATASIZE DUP4 GT PUSH2 0xF6E JUMPI JUMPDEST PUSH2 0xF57 DUP2 DUP4 PUSH2 0x1756 JUMP JUMPDEST DUP2 ADD SUB SLT PUSH2 0xDE JUMPI SWAP1 MLOAD DUP11 SWAP7 SWAP2 SWAP3 SWAP1 PUSH2 0xE34 PUSH2 0xDCD JUMP JUMPDEST POP RETURNDATASIZE PUSH2 0xF4D JUMP JUMPDEST DUP5 PUSH4 0x4E487B71 PUSH1 0xE0 SHL PUSH1 0x0 MSTORE PUSH1 0x11 PUSH1 0x4 MSTORE PUSH1 0x0 REVERT JUMPDEST PUSH2 0xFA1 SWAP2 POP DUP11 RETURNDATASIZE DUP13 GT PUSH2 0x7F5 JUMPI PUSH2 0x7E7 DUP2 DUP4 PUSH2 0x1756 JUMP JUMPDEST DUP12 PUSH2 0xD62 JUMP JUMPDEST PUSH2 0xFBF SWAP2 SWAP5 POP DUP3 RETURNDATASIZE DUP5 GT PUSH2 0x7F5 JUMPI PUSH2 0x7E7 DUP2 DUP4 PUSH2 0x1756 JUMP JUMPDEST SWAP3 DUP14 PUSH2 0xD40 JUMP JUMPDEST PUSH1 0x64 DUP9 PUSH1 0x14 DUP6 PUSH1 0x40 MLOAD SWAP3 PUSH3 0x461BCD PUSH1 0xE5 SHL DUP5 MSTORE PUSH1 0x4 DUP5 ADD MSTORE DUP3 ADD MSTORE PUSH32 0x4C6F616E20616C72656164792063726561746564000000000000000000000000 PUSH1 0x44 DUP3 ADD MSTORE REVERT JUMPDEST DUP4 PUSH4 0x4E487B71 PUSH1 0xE0 SHL PUSH1 0x0 MSTORE PUSH1 0x21 PUSH1 0x4 MSTORE PUSH1 0x0 REVERT JUMPDEST PUSH1 0x64 DUP9 PUSH1 0x17 DUP6 PUSH1 0x40 MLOAD SWAP3 PUSH3 0x461BCD PUSH1 0xE5 SHL DUP5 MSTORE PUSH1 0x4 DUP5 ADD MSTORE DUP3 ADD MSTORE PUSH32 0x496E76616C696420666F726569676E206F72626974616C000000000000000000 PUSH1 0x44 DUP3 ADD MSTORE REVERT JUMPDEST PUSH1 0x20 CALLDATASIZE PUSH1 0x3 NOT ADD SLT PUSH2 0xDE JUMPI PUSH1 0x4 CALLDATALOAD PUSH1 0x0 MSTORE PUSH1 0xA PUSH1 0x20 MSTORE PUSH1 0x40 PUSH1 0x0 KECCAK256 PUSH1 0x7 PUSH1 0x40 MLOAD SWAP2 PUSH2 0x108C DUP4 PUSH2 0x1739 JUMP JUMPDEST DUP1 SLOAD DUP4 MSTORE PUSH1 0x1 DUP2 ADD SLOAD SWAP1 PUSH1 0x20 DUP5 ADD SWAP2 DUP3 MSTORE PUSH1 0x2 DUP2 ADD SLOAD PUSH1 0x40 DUP6 ADD MSTORE PUSH1 0x3 DUP2 ADD SLOAD PUSH1 0x60 DUP6 ADD MSTORE PUSH2 0x10C5 PUSH1 0xFF PUSH1 0x4 DUP4 ADD SLOAD AND PUSH1 0x80 DUP7 ADD PUSH2 0x1711 JUMP JUMPDEST PUSH1 0x5 DUP2 ADD SLOAD PUSH1 0xA0 DUP6 ADD MSTORE PUSH1 0x6 DUP2 ADD SLOAD PUSH1 0xC0 DUP6 ADD MSTORE PUSH2 0xFFFF SWAP3 DUP4 SWAP2 ADD SLOAD AND PUSH1 0xE0 DUP5 ADD MSTORE PUSH1 0x80 DUP4 ADD MLOAD PUSH1 0x4 DUP2 LT ISZERO PUSH2 0x5F9 JUMPI PUSH1 0x1 PUSH2 0x1101 SWAP2 EQ PUSH2 0x1778 JUMP JUMPDEST MLOAD SWAP2 PUSH1 0x40 MLOAD SWAP3 PUSH4 0x2E7682C7 PUSH1 0xE1 SHL DUP5 MSTORE PUSH1 0x4 DUP5 ADD MSTORE PUSH1 0x24 SWAP3 PUSH1 0x20 DUP2 DUP6 DUP2 PUSH20 0x0 GAS DELEGATECALL SWAP1 DUP2 ISZERO PUSH2 0x641 JUMPI PUSH1 0x0 SWAP2 PUSH2 0x148E JUMPI JUMPDEST POP PUSH1 0x1 PUSH1 0x1 PUSH1 0xA0 SHL SUB SWAP1 DUP2 CALLER SWAP2 AND SUB PUSH2 0x144A JUMPI PUSH6 0xF7CF9B8D0000 PUSH2 0x1188 PUSH1 0x60 DUP5 ADD MLOAD PUSH2 0x1183 PUSH1 0xA0 DUP7 ADD MLOAD PUSH2 0x117D PUSH1 0xC0 DUP9 ADD MLOAD SWAP2 TIMESTAMP PUSH2 0x19CD JUMP JUMPDEST SWAP3 PUSH2 0x19DA JUMP JUMPDEST PUSH2 0x19DA JUMP JUMPDEST DIV PUSH1 0x60 DUP4 ADD MLOAD SWAP1 DUP2 ADD DUP1 SWAP2 GT PUSH2 0xF75 JUMPI PUSH1 0x40 DUP4 ADD MLOAD SWAP1 PUSH1 0x40 MLOAD SWAP2 PUSH4 0x2E7682C7 PUSH1 0xE1 SHL DUP4 MSTORE PUSH1 0x4 DUP4 ADD MSTORE PUSH1 0x20 DUP3 DUP8 DUP2 PUSH20 0x0 GAS DELEGATECALL SWAP2 DUP3 ISZERO PUSH2 0x641 JUMPI DUP4 SWAP3 PUSH1 0x20 SWAP3 PUSH2 0x1218 SWAP3 PUSH1 0x0 SWAP3 PUSH2 0x142B JUMPI JUMPDEST POP PUSH1 0x40 MLOAD PUSH4 0x23B872DD PUSH1 0xE0 SHL DUP2 MSTORE CALLER PUSH1 0x4 DUP3 ADD MSTORE ADDRESS PUSH1 0x24 DUP3 ADD MSTORE PUSH1 0x44 DUP2 ADD SWAP2 SWAP1 SWAP2 MSTORE SWAP4 DUP5 SWAP3 DUP4 SWAP2 PUSH1 0x0 SWAP2 DUP4 SWAP1 PUSH1 0x64 DUP3 ADD SWAP1 JUMP JUMPDEST SUB SWAP4 AND GAS CALL DUP1 ISZERO PUSH2 0x641 JUMPI PUSH2 0x140C JUMPI JUMPDEST POP PUSH1 0x40 MLOAD PUSH4 0x82C947B7 PUSH1 0xE0 SHL DUP2 MSTORE ADDRESS PUSH1 0x4 DUP3 ADD MSTORE PUSH1 0x20 DUP2 DUP7 DUP2 PUSH20 0x0 GAS DELEGATECALL SWAP1 DUP2 ISZERO PUSH2 0x641 JUMPI PUSH1 0x0 SWAP2 PUSH2 0x13DA JUMPI JUMPDEST POP DUP4 PUSH1 0xE0 DUP5 ADD MLOAD AND PUSH1 0x0 MSTORE PUSH1 0x8 PUSH1 0x20 MSTORE PUSH1 0x40 PUSH1 0x0 KECCAK256 SLOAD SWAP2 PUSH32 0x0 AND SWAP2 PUSH1 0x40 MLOAD SWAP2 PUSH4 0x1A90A219 PUSH1 0xE0 SHL DUP4 MSTORE PUSH1 0x20 DUP4 PUSH1 0x4 DUP2 DUP8 GAS STATICCALL SWAP3 DUP4 ISZERO PUSH2 0x641 JUMPI PUSH1 0x0 SWAP4 PUSH2 0x13A6 JUMPI JUMPDEST POP PUSH2 0x12D3 DUP4 CALLVALUE EQ PUSH2 0x17FA JUMP JUMPDEST PUSH1 0x3 SLOAD SWAP6 PUSH1 0xE0 DUP7 ADD MLOAD AND PUSH1 0x40 MLOAD SWAP7 PUSH1 0x20 DUP9 ADD MSTORE PUSH1 0x4 CALLDATALOAD PUSH1 0x40 DUP9 ADD MSTORE PUSH1 0x60 DUP8 ADD MSTORE PUSH1 0x80 DUP7 ADD MSTORE PUSH1 0xA0 DUP6 ADD MSTORE PUSH1 0xA0 DUP5 MSTORE PUSH1 0xC0 DUP5 ADD SWAP5 DUP5 DUP7 LT PUSH8 0xFFFFFFFFFFFFFFFF DUP8 GT OR PUSH2 0x1392 JUMPI POP PUSH1 0x20 SWAP2 DUP6 DUP1 SWAP3 DUP2 PUSH1 0x40 MSTORE PUSH4 0xFFFFFFFF PUSH1 0x5 SLOAD AND PUSH4 0x58CD21BF PUSH1 0xE1 SHL DUP4 MSTORE DUP8 PUSH2 0x1349 DUP2 PUSH1 0xBF NOT SWAP4 PUSH1 0xC4 DUP3 ADD PUSH2 0x1865 JUMP JUMPDEST SUB ADD SWAP3 GAS CALL SWAP2 DUP3 ISZERO PUSH2 0x641 JUMPI PUSH1 0x2 SWAP4 PUSH1 0x80 SWAP4 PUSH2 0x136F JUMPI JUMPDEST POP POP ADD MSTORE PUSH1 0x20 PUSH1 0x40 MLOAD PUSH1 0x1 DUP2 MSTORE RETURN JUMPDEST PUSH1 0xC0 PUSH2 0x138A SWAP3 PUSH1 0x20 SWAP1 RETURNDATASIZE PUSH1 0x20 GT PUSH2 0x678 JUMPI PUSH2 0x667 DUP3 DUP6 PUSH2 0x1756 JUMP JUMPDEST POP DUP4 DUP1 PUSH2 0x1360 JUMP JUMPDEST PUSH4 0x4E487B71 PUSH1 0xE0 SHL PUSH1 0x0 MSTORE PUSH1 0x41 PUSH1 0x4 MSTORE PUSH1 0x0 REVERT JUMPDEST SWAP1 SWAP3 POP PUSH1 0x20 DUP2 RETURNDATASIZE PUSH1 0x20 GT PUSH2 0x13D2 JUMPI JUMPDEST DUP2 PUSH2 0x13C2 PUSH1 0x20 SWAP4 DUP4 PUSH2 0x1756 JUMP JUMPDEST DUP2 ADD SUB SLT PUSH2 0xDE JUMPI MLOAD SWAP2 DUP8 PUSH2 0x12C7 JUMP JUMPDEST RETURNDATASIZE SWAP2 POP PUSH2 0x13B5 JUMP JUMPDEST SWAP1 POP PUSH1 0x20 DUP2 RETURNDATASIZE PUSH1 0x20 GT PUSH2 0x1404 JUMPI JUMPDEST DUP2 PUSH2 0x13F5 PUSH1 0x20 SWAP4 DUP4 PUSH2 0x1756 JUMP JUMPDEST DUP2 ADD SUB SLT PUSH2 0xDE JUMPI MLOAD DUP6 PUSH2 0x1267 JUMP JUMPDEST RETURNDATASIZE SWAP2 POP PUSH2 0x13E8 JUMP JUMPDEST PUSH2 0x1424 SWAP1 PUSH1 0x20 RETURNDATASIZE PUSH1 0x20 GT PUSH2 0x7C6 JUMPI PUSH2 0x7B7 DUP2 DUP4 PUSH2 0x1756 JUMP JUMPDEST POP DUP5 PUSH2 0x1228 JUMP JUMPDEST PUSH2 0x1443 SWAP2 SWAP3 POP DUP5 RETURNDATASIZE DUP7 GT PUSH2 0x7F5 JUMPI PUSH2 0x7E7 DUP2 DUP4 PUSH2 0x1756 JUMP JUMPDEST SWAP1 DUP10 PUSH2 0x11E5 JUMP JUMPDEST PUSH1 0x64 DUP5 PUSH1 0x11 PUSH1 0x40 MLOAD SWAP2 PUSH3 0x461BCD PUSH1 0xE5 SHL DUP4 MSTORE PUSH1 0x20 PUSH1 0x4 DUP5 ADD MSTORE DUP3 ADD MSTORE PUSH32 0x556E617574686F72697A6564206C6F616E000000000000000000000000000000 PUSH1 0x44 DUP3 ADD MSTORE REVERT JUMPDEST PUSH2 0x14A7 SWAP2 POP PUSH1 0x20 RETURNDATASIZE PUSH1 0x20 GT PUSH2 0x7F5 JUMPI PUSH2 0x7E7 DUP2 DUP4 PUSH2 0x1756 JUMP JUMPDEST DUP5 PUSH2 0x1144 JUMP JUMPDEST CALLVALUE PUSH2 0xDE JUMPI PUSH1 0x40 CALLDATASIZE PUSH1 0x3 NOT ADD SLT PUSH2 0xDE JUMPI PUSH4 0xFFFFFFFF PUSH2 0x14CB PUSH2 0x16A2 JUMP JUMPDEST PUSH2 0x14D3 PUSH2 0x1975 JUMP JUMPDEST AND DUP1 PUSH1 0x0 MSTORE PUSH1 0x20 PUSH1 0x6 DUP2 MSTORE PUSH2 0x14F0 PUSH1 0xFF PUSH1 0x40 PUSH1 0x0 KECCAK256 SLOAD AND ISZERO PUSH2 0x16C6 JUMP JUMPDEST PUSH1 0x24 CALLDATALOAD PUSH1 0x0 MSTORE PUSH1 0x9 DUP2 MSTORE PUSH1 0x40 PUSH1 0x0 KECCAK256 SWAP2 PUSH1 0x40 MLOAD SWAP3 PUSH2 0x150D DUP5 PUSH2 0x171D JUMP JUMPDEST DUP1 SLOAD DUP5 MSTORE PUSH1 0x1 DUP2 ADD SLOAD SWAP4 DUP4 DUP2 ADD SWAP5 DUP6 MSTORE PUSH1 0x2 DUP3 ADD SLOAD SWAP5 PUSH1 0x40 DUP3 ADD SWAP6 DUP7 MSTORE PUSH1 0x4 PUSH1 0xFF PUSH1 0x3 DUP6 ADD SLOAD AND SWAP4 PUSH2 0x1543 PUSH1 0x60 DUP6 ADD SWAP6 DUP7 PUSH2 0x1711 JUMP JUMPDEST ADD SLOAD PUSH1 0x80 DUP4 ADD MSTORE DUP3 MLOAD PUSH1 0x4 DUP2 LT ISZERO PUSH2 0x5F9 JUMPI PUSH1 0x1 PUSH2 0x1561 SWAP2 EQ PUSH2 0x1778 JUMP JUMPDEST MLOAD SWAP1 PUSH20 0x0 SWAP2 PUSH1 0x40 MLOAD SWAP1 PUSH4 0x2E7682C7 PUSH1 0xE1 SHL SWAP1 DUP2 DUP4 MSTORE PUSH1 0x4 DUP4 ADD MSTORE DUP7 DUP3 PUSH1 0x24 DUP2 DUP8 GAS DELEGATECALL SWAP3 DUP4 ISZERO PUSH2 0x641 JUMPI DUP8 SWAP3 PUSH1 0x0 SWAP5 PUSH2 0x1680 JUMPI JUMPDEST POP PUSH1 0x24 SWAP1 MLOAD SWAP2 PUSH1 0x40 MLOAD SWAP6 DUP7 SWAP4 DUP5 SWAP3 DUP4 MSTORE PUSH1 0x4 DUP4 ADD MSTORE GAS DELEGATECALL SWAP1 DUP2 ISZERO PUSH2 0x641 JUMPI PUSH2 0x1612 SWAP7 DUP7 SWAP4 PUSH1 0x0 SWAP4 PUSH2 0x1661 JUMPI JUMPDEST POP MLOAD SWAP2 PUSH1 0x0 PUSH1 0x1 PUSH1 0x1 PUSH1 0xA0 SHL SUB PUSH1 0x40 MLOAD DUP1 SWAP11 DUP2 SWAP7 DUP3 SWAP6 PUSH4 0xA9059CBB PUSH1 0xE0 SHL DUP5 MSTORE PUSH1 0x4 DUP5 ADD PUSH1 0x20 SWAP1 SWAP4 SWAP3 SWAP2 SWAP4 PUSH1 0x1 PUSH1 0x1 PUSH1 0xA0 SHL SUB PUSH1 0x40 DUP3 ADD SWAP6 AND DUP2 MSTORE ADD MSTORE JUMP JUMPDEST SUB SWAP4 AND GAS CALL SWAP1 DUP2 ISZERO PUSH2 0x641 JUMPI PUSH1 0x6 SWAP5 PUSH1 0x2 SWAP3 PUSH2 0x1644 JUMPI JUMPDEST POP MSTORE PUSH1 0x0 MSTORE MSTORE PUSH1 0x40 PUSH1 0x0 KECCAK256 PUSH1 0x1 PUSH1 0xFF NOT DUP3 SLOAD AND OR SWAP1 SSTORE PUSH1 0x0 DUP1 RETURN JUMPDEST PUSH2 0x165A SWAP1 DUP6 RETURNDATASIZE DUP8 GT PUSH2 0x7C6 JUMPI PUSH2 0x7B7 DUP2 DUP4 PUSH2 0x1756 JUMP JUMPDEST POP DUP6 PUSH2 0x1629 JUMP JUMPDEST PUSH2 0x1679 SWAP2 SWAP4 POP DUP5 RETURNDATASIZE DUP7 GT PUSH2 0x7F5 JUMPI PUSH2 0x7E7 DUP2 DUP4 PUSH2 0x1756 JUMP JUMPDEST SWAP2 DUP9 PUSH2 0x15D3 JUMP JUMPDEST PUSH1 0x24 SWAP2 SWAP5 POP PUSH2 0x169B SWAP1 DUP5 RETURNDATASIZE DUP7 GT PUSH2 0x7F5 JUMPI PUSH2 0x7E7 DUP2 DUP4 PUSH2 0x1756 JUMP JUMPDEST SWAP4 SWAP1 PUSH2 0x15A7 JUMP JUMPDEST PUSH1 0x4 CALLDATALOAD SWAP1 PUSH4 0xFFFFFFFF DUP3 AND DUP3 SUB PUSH2 0xDE JUMPI JUMP JUMPDEST PUSH1 0x4 CALLDATALOAD SWAP1 PUSH2 0xFFFF DUP3 AND DUP3 SUB PUSH2 0xDE JUMPI JUMP JUMPDEST ISZERO PUSH2 0x16CD JUMPI JUMP JUMPDEST PUSH1 0x64 PUSH1 0x40 MLOAD PUSH3 0x461BCD PUSH1 0xE5 SHL DUP2 MSTORE PUSH1 0x20 PUSH1 0x4 DUP3 ADD MSTORE PUSH1 0x1B PUSH1 0x24 DUP3 ADD MSTORE PUSH32 0x4E6F6E63652077617320616C72656164792065786563757465642E0000000000 PUSH1 0x44 DUP3 ADD MSTORE REVERT JUMPDEST PUSH1 0x4 DUP3 LT ISZERO PUSH2 0x5F9 JUMPI MSTORE JUMP JUMPDEST PUSH1 0xA0 DUP2 ADD SWAP1 DUP2 LT PUSH8 0xFFFFFFFFFFFFFFFF DUP3 GT OR PUSH2 0x680 JUMPI PUSH1 0x40 MSTORE JUMP JUMPDEST PUSH2 0x100 DUP2 ADD SWAP1 DUP2 LT PUSH8 0xFFFFFFFFFFFFFFFF DUP3 GT OR PUSH2 0x680 JUMPI PUSH1 0x40 MSTORE JUMP JUMPDEST SWAP1 PUSH1 0x1F DUP1 NOT SWAP2 ADD AND DUP2 ADD SWAP1 DUP2 LT PUSH8 0xFFFFFFFFFFFFFFFF DUP3 GT OR PUSH2 0x680 JUMPI PUSH1 0x40 MSTORE JUMP JUMPDEST ISZERO PUSH2 0x177F JUMPI JUMP JUMPDEST PUSH1 0x64 PUSH1 0x40 MLOAD PUSH3 0x461BCD PUSH1 0xE5 SHL DUP2 MSTORE PUSH1 0x20 PUSH1 0x4 DUP3 ADD MSTORE PUSH1 0x12 PUSH1 0x24 DUP3 ADD MSTORE PUSH32 0x4C6F616E206973206E6F74206163746976650000000000000000000000000000 PUSH1 0x44 DUP3 ADD MSTORE REVERT JUMPDEST SWAP1 DUP2 PUSH1 0x20 SWAP2 SUB SLT PUSH2 0xDE JUMPI MLOAD PUSH1 0x1 PUSH1 0x1 PUSH1 0xA0 SHL SUB DUP2 AND DUP2 SUB PUSH2 0xDE JUMPI SWAP1 JUMP JUMPDEST SWAP1 DUP2 PUSH1 0x20 SWAP2 SUB SLT PUSH2 0xDE JUMPI MLOAD DUP1 ISZERO ISZERO DUP2 SUB PUSH2 0xDE JUMPI SWAP1 JUMP JUMPDEST ISZERO PUSH2 0x1801 JUMPI JUMP JUMPDEST PUSH1 0x64 PUSH1 0x40 MLOAD PUSH3 0x461BCD PUSH1 0xE5 SHL DUP2 MSTORE PUSH1 0x20 PUSH1 0x4 DUP3 ADD MSTORE PUSH1 0x18 PUSH1 0x24 DUP3 ADD MSTORE PUSH32 0x496E73756666696369656E74206D657373616765206665650000000000000000 PUSH1 0x44 DUP3 ADD MSTORE REVERT JUMPDEST SWAP1 DUP2 PUSH1 0x20 SWAP2 SUB SLT PUSH2 0xDE JUMPI MLOAD PUSH8 0xFFFFFFFFFFFFFFFF DUP2 AND DUP2 SUB PUSH2 0xDE JUMPI SWAP1 JUMP JUMPDEST SWAP3 SWAP2 SWAP1 PUSH4 0xFFFFFFFF AND DUP4 MSTORE PUSH1 0x20 PUSH1 0x60 PUSH1 0x20 DUP6 ADD MSTORE DUP2 MLOAD SWAP2 DUP3 PUSH1 0x60 DUP7 ADD MSTORE PUSH1 0x0 JUMPDEST DUP4 DUP2 LT PUSH2 0x18AC JUMPI POP POP POP PUSH1 0x40 PUSH1 0x80 DUP3 PUSH1 0x0 DUP3 DUP2 SWAP6 DUP9 ADD ADD MSTORE PUSH1 0x1F DUP1 NOT SWAP2 ADD AND DUP6 ADD ADD SWAP4 ADD MSTORE JUMP JUMPDEST DUP2 DUP2 ADD DUP4 ADD MLOAD DUP7 DUP3 ADD PUSH1 0x80 ADD MSTORE DUP3 ADD PUSH2 0x1885 JUMP JUMPDEST PUSH1 0xD SLOAD DUP2 LT ISZERO PUSH2 0x18F7 JUMPI PUSH1 0xD PUSH1 0x0 MSTORE PUSH32 0xD7B6990105719101DABEB77144F2A3385C8033ACD3AF97E9423A695E81AD1EB5 ADD SWAP1 PUSH1 0x0 SWAP1 JUMP JUMPDEST PUSH4 0x4E487B71 PUSH1 0xE0 SHL PUSH1 0x0 MSTORE PUSH1 0x32 PUSH1 0x4 MSTORE PUSH1 0x24 PUSH1 0x0 REVERT JUMPDEST SWAP1 PUSH1 0xFF DUP1 SWAP2 AND SWAP2 AND ADD SWAP1 PUSH1 0xFF DUP3 GT PUSH2 0x5E3 JUMPI JUMP JUMPDEST SWAP1 PUSH1 0x4 DUP2 LT ISZERO PUSH2 0x5F9 JUMPI PUSH1 0xFF DUP1 NOT DUP4 SLOAD AND SWAP2 AND OR SWAP1 SSTORE JUMP JUMPDEST PUSH1 0xD SLOAD SWAP1 PUSH1 0x0 JUMPDEST DUP3 DUP2 LT PUSH2 0x194F JUMPI POP POP POP PUSH1 0x0 SWAP1 JUMP JUMPDEST DUP2 PUSH2 0x1959 DUP3 PUSH2 0x18C0 JUMP JUMPDEST SWAP1 SLOAD SWAP1 PUSH1 0x3 SHL SHR EQ PUSH2 0x196D JUMPI PUSH1 0x1 ADD PUSH2 0x1940 JUMP JUMPDEST POP POP POP PUSH1 0x1 SWAP1 JUMP JUMPDEST PUSH1 0x1 PUSH1 0x1 PUSH1 0xA0 SHL SUB PUSH1 0x0 SLOAD AND CALLER SUB PUSH2 0x1989 JUMPI JUMP JUMPDEST PUSH1 0x64 PUSH1 0x40 MLOAD PUSH3 0x461BCD PUSH1 0xE5 SHL DUP2 MSTORE PUSH1 0x20 PUSH1 0x4 DUP3 ADD MSTORE PUSH1 0x20 PUSH1 0x24 DUP3 ADD MSTORE PUSH32 0x4F776E61626C653A2063616C6C6572206973206E6F7420746865206F776E6572 PUSH1 0x44 DUP3 ADD MSTORE REVERT JUMPDEST SWAP2 SWAP1 DUP3 SUB SWAP2 DUP3 GT PUSH2 0x5E3 JUMPI JUMP JUMPDEST DUP2 DUP2 MUL SWAP3 SWAP2 DUP2 ISZERO SWAP2 DUP5 DIV EQ OR ISZERO PUSH2 0x5E3 JUMPI JUMP JUMPDEST SWAP2 SWAP1 PUSH1 0xFF AND PUSH1 0x64 DUP2 GT PUSH2 0x1A14 JUMPI PUSH1 0x64 PUSH2 0x1A09 PUSH2 0x1A11 SWAP3 DUP6 PUSH2 0x19DA JUMP JUMPDEST DIV DUP1 SWAP4 PUSH2 0x19CD JUMP JUMPDEST SWAP1 JUMP JUMPDEST PUSH1 0x84 PUSH1 0x40 MLOAD PUSH3 0x461BCD PUSH1 0xE5 SHL DUP2 MSTORE PUSH1 0x20 PUSH1 0x4 DUP3 ADD MSTORE PUSH1 0x24 DUP1 DUP3 ADD MSTORE PUSH32 0x50657263656E74616765206D757374206265206265747765656E203020616E64 PUSH1 0x44 DUP3 ADD MSTORE PUSH32 0x2031303000000000000000000000000000000000000000000000000000000000 PUSH1 0x64 DUP3 ADD MSTORE REVERT INVALID LOG2 PUSH5 0x6970667358 0x22 SLT KECCAK256 PUSH2 0xC811 SWAP1 REVERT 0xD7 RETURNDATASIZE SWAP16 DUP3 DUP5 PUSH17 0xDA2422C54E50AA4308DF7DA02F87525FA 0xA8 DUP6 SWAP10 SLOAD PUSH5 0x736F6C6343 STOP ADDMOD XOR STOP CALLER "
        },
        "methodIdentifiers": {
          "_isTokenSupported(bytes32)": "f770a695",
          "acceptOwnership()": "79ba5097",
          "addForeignOrbital(uint16,bytes32)": "75f5172e",
          "addSupportedToken(address)": "6d69fcaf",
          "borrow(uint16,bytes32,bytes32,uint256,bytes32)": "d80b52b6",
          "getAmountOut(bytes32,bytes32,uint256,uint8)": "7b76ba8a",
          "owner()": "8da5cb5b",
          "pendingOwner()": "e30c3978",
          "receiveOnBorrow(uint32,bytes32,bytes32,uint16,bytes32,bytes32,bytes32,uint256)": "5bdea914",
          "receiveOnRepay(uint32,bytes32)": "0b3735fb",
          "receiveOnStakeSuiFrens(uint32,bytes32,bool)": "7fc9b2bb",
          "renounceOwnership()": "715018a6",
          "repay(bytes32)": "563dd613",
          "transferOwnership(address)": "f2fde38b"
        }
      }
    }
  }
}