{
  "contracts/Orbital.sol": {
    "Orbital": {
      "abi": [
        {
          "inputs": [
            {
              "internalType": "address",
              "name": "priceFeeds",
              "type": "address"
            },
            {
              "internalType": "address",
              "name": "wormhole",
              "type": "address"
            }
          ],
          "stateMutability": "nonpayable",
          "type": "constructor"
        },
        {
          "anonymous": false,
          "inputs": [
            {
              "indexed": true,
              "internalType": "address",
              "name": "previousOwner",
              "type": "address"
            },
            {
              "indexed": true,
              "internalType": "address",
              "name": "newOwner",
              "type": "address"
            }
          ],
          "name": "OwnershipTransferStarted",
          "type": "event"
        },
        {
          "anonymous": false,
          "inputs": [
            {
              "indexed": true,
              "internalType": "address",
              "name": "previousOwner",
              "type": "address"
            },
            {
              "indexed": true,
              "internalType": "address",
              "name": "newOwner",
              "type": "address"
            }
          ],
          "name": "OwnershipTransferred",
          "type": "event"
        },
        {
          "inputs": [
            {
              "internalType": "bytes32",
              "name": "tokenId",
              "type": "bytes32"
            }
          ],
          "name": "_isTokenSupported",
          "outputs": [
            {
              "internalType": "bool",
              "name": "",
              "type": "bool"
            }
          ],
          "stateMutability": "view",
          "type": "function"
        },
        {
          "inputs": [],
          "name": "acceptOwnership",
          "outputs": [],
          "stateMutability": "nonpayable",
          "type": "function"
        },
        {
          "inputs": [
            {
              "internalType": "uint16",
              "name": "chainId",
              "type": "uint16"
            },
            {
              "internalType": "bytes32",
              "name": "orbital",
              "type": "bytes32"
            }
          ],
          "name": "addForeignOrbital",
          "outputs": [],
          "stateMutability": "nonpayable",
          "type": "function"
        },
        {
          "inputs": [
            {
              "internalType": "address",
              "name": "token",
              "type": "address"
            }
          ],
          "name": "addSupportedToken",
          "outputs": [],
          "stateMutability": "nonpayable",
          "type": "function"
        },
        {
          "inputs": [
            {
              "internalType": "uint16",
              "name": "toChainId",
              "type": "uint16"
            },
            {
              "internalType": "bytes32",
              "name": "tokenIn",
              "type": "bytes32"
            },
            {
              "internalType": "bytes32",
              "name": "tokenOut",
              "type": "bytes32"
            },
            {
              "internalType": "uint256",
              "name": "value",
              "type": "uint256"
            },
            {
              "internalType": "bytes32",
              "name": "receiver",
              "type": "bytes32"
            }
          ],
          "name": "borrow",
          "outputs": [
            {
              "internalType": "bytes32",
              "name": "",
              "type": "bytes32"
            }
          ],
          "stateMutability": "payable",
          "type": "function"
        },
        {
          "inputs": [
            {
              "internalType": "bytes32",
              "name": "tokenIn",
              "type": "bytes32"
            },
            {
              "internalType": "bytes32",
              "name": "tokenOut",
              "type": "bytes32"
            },
            {
              "internalType": "uint256",
              "name": "amountIn",
              "type": "uint256"
            },
            {
              "internalType": "uint8",
              "name": "ltv",
              "type": "uint8"
            }
          ],
          "name": "getAmountOut",
          "outputs": [
            {
              "internalType": "uint256",
              "name": "",
              "type": "uint256"
            }
          ],
          "stateMutability": "view",
          "type": "function"
        },
        {
          "inputs": [],
          "name": "owner",
          "outputs": [
            {
              "internalType": "address",
              "name": "",
              "type": "address"
            }
          ],
          "stateMutability": "view",
          "type": "function"
        },
        {
          "inputs": [],
          "name": "pendingOwner",
          "outputs": [
            {
              "internalType": "address",
              "name": "",
              "type": "address"
            }
          ],
          "stateMutability": "view",
          "type": "function"
        },
        {
          "inputs": [
            {
              "internalType": "uint32",
              "name": "wormholeNonce",
              "type": "uint32"
            },
            {
              "internalType": "bytes32",
              "name": "loanId",
              "type": "bytes32"
            },
            {
              "internalType": "bytes32",
              "name": "receiver",
              "type": "bytes32"
            },
            {
              "internalType": "uint16",
              "name": "fromChainId",
              "type": "uint16"
            },
            {
              "internalType": "bytes32",
              "name": "fromContractId",
              "type": "bytes32"
            },
            {
              "internalType": "bytes32",
              "name": "tokenIn",
              "type": "bytes32"
            },
            {
              "internalType": "bytes32",
              "name": "tokenOut",
              "type": "bytes32"
            },
            {
              "internalType": "uint256",
              "name": "value",
              "type": "uint256"
            }
          ],
          "name": "receiveOnBorrow",
          "outputs": [],
          "stateMutability": "nonpayable",
          "type": "function"
        },
        {
          "inputs": [
            {
              "internalType": "uint32",
              "name": "wormholeNonce",
              "type": "uint32"
            },
            {
              "internalType": "bytes32",
              "name": "loanId",
              "type": "bytes32"
            }
          ],
          "name": "receiveOnRepay",
          "outputs": [],
          "stateMutability": "nonpayable",
          "type": "function"
        },
        {
          "inputs": [],
          "name": "renounceOwnership",
          "outputs": [],
          "stateMutability": "nonpayable",
          "type": "function"
        },
        {
          "inputs": [
            {
              "internalType": "bytes32",
              "name": "loanId",
              "type": "bytes32"
            }
          ],
          "name": "repay",
          "outputs": [
            {
              "internalType": "bool",
              "name": "",
              "type": "bool"
            }
          ],
          "stateMutability": "payable",
          "type": "function"
        },
        {
          "inputs": [
            {
              "internalType": "address",
              "name": "newOwner",
              "type": "address"
            }
          ],
          "name": "transferOwnership",
          "outputs": [],
          "stateMutability": "nonpayable",
          "type": "function"
        }
      ],
      "evm": {
        "bytecode": {
          "linkReferences": {
            "contracts/libraries/AddressToBytes32.sol": {
              "AddressToBytes32": [
                {
                  "length": 20,
                  "start": 826
                },
                {
                  "length": 20,
                  "start": 1144
                },
                {
                  "length": 20,
                  "start": 1288
                },
                {
                  "length": 20,
                  "start": 1548
                },
                {
                  "length": 20,
                  "start": 3033
                },
                {
                  "length": 20,
                  "start": 3345
                },
                {
                  "length": 20,
                  "start": 4378
                },
                {
                  "length": 20,
                  "start": 4530
                },
                {
                  "length": 20,
                  "start": 4670
                },
                {
                  "length": 20,
                  "start": 5506
                }
              ]
            }
          },
          "object": "60a03461014157601f611ae738819003918201601f19168301916001600160401b0383118484101761014657808492604094855283398101031261014157610052602061004b8361015c565b920161015c565b600180546001600160a01b0319908116909155600080543381841681178355604051956001600160a01b0395949386939192918416907f8be0079c531659141344cd1fd0a4f28419497f9722a3daafe3b4186f6b6457e09080a36f13d397d093d49493d5d7d351551213d160821b6002556e13d397d49154105657d351551213d1608a1b6003557013d397d111519055531517d351551213d1607a1b6004556007805460ff191660501790556005805463ffffffff19166001179055600d8054909316911617905516608052611976908161017182396080518181816102ad0152818161044f015261110c0152f35b600080fd5b634e487b7160e01b600052604160045260246000fd5b51906001600160a01b03821682036101415756fe6080604052600436101561001257600080fd5b60003560e01c80630b3735fb14611359578063563dd61314610eeb5780635bdea91414610afe5780636d69fcaf14610a20578063715018a6146109b157806375f5172e1461097657806379ba5097146108955780637b76ba8a146107d75780638da5cb5b146107b0578063d80b52b614610177578063e30c397814610150578063f2fde38b146100d85763f770a695146100ab57600080fd5b346100d35760203660031901126100d35760206100c96004356117fc565b6040519015158152f35b600080fd5b346100d35760203660031901126100d3576004356001600160a01b038082168092036100d357610106611838565b8173ffffffffffffffffffffffffffffffffffffffff196001541617600155600054167f38d16b8cac22d99fc7c124b9cd0de2d3fa1faef420bfe791d8c362d765e22700600080a3005b346100d35760003660031901126100d35760206001600160a01b0360015416604051908152f35b60a03660031901126100d35761018b611561565b6101966024356117fc565b1561076c576101a66044356117fc565b156107285760405190632e7682c760e11b8252602435600483015260208260248173__$cd1346a8e2955df852b4501a7004a2b636$__5af49182156105a3576000926106f7575b506040516323b872dd60e01b81523360048201523060248201526064803560448301526001600160a01b03936020918391829060009088165af180156105a3576106c8575b5081600d54166020604051809263f52b31f160e01b82528180610271606435604435602435600485016040919493926060820195825260208201520152565b03915afa80156105a357600090610694575b610294915060ff60075416906118b0565b509160405190631a90a21960e01b8252602082600481847f0000000000000000000000000000000000000000000000000000000000000000165afa9182156105a357600092610660575b506102eb823410156116a6565b604051936382c947b760e01b855230600486015260208560248173__$cd1346a8e2955df852b4501a7004a2b636$__5af49485156105a35760009561062c575b5061ffff8416600052600860205260406000205463ffffffff6005541660405160208101913383526084356040830152606082015242608082015260808152610373816115c9565b5190209560025495604051906382c947b760e01b825233600483015260208260248173__$cd1346a8e2955df852b4501a7004a2b636$__5af480156105a3576000906105f8575b61ffff92506040519860208a01528960408a0152606089015260843560808901521660a087015260c086015260e085015260443561010085015261012090818501528352610140908184019284841067ffffffffffffffff8511176105e2576020918480928160405263ffffffff600554166358cd21bf60e11b83528861044a8161013f19936101448201611711565b0301927f0000000000000000000000000000000000000000000000000000000000000000165af180156105a3576105af575b505050604051906382c947b760e01b825233600483015260208260248173__$cd1346a8e2955df852b4501a7004a2b636$__5af49182156105a35760009261056f575b50604051916104cd836115c9565b82526020820191602435835260408101606435815260608201906001825260808301944286528460005260096020526040600020935184555160018401555160028301555160048110156105595760209361052d600492600385016117e4565b5191015560055463ffffffff61054481831661176c565b169063ffffffff191617600555604051908152f35b634e487b7160e01b600052602160045260246000fd5b9091506020813d60201161059b575b8161058b60209383611602565b810103126100d3575190826104bf565b3d915061057e565b6040513d6000823e3d90fd5b6105d1926020903d6020116105da575b6105c98285611602565b0101906116f1565b5081808061047c565b3d91506105bf565b634e487b7160e01b600052604160045260246000fd5b506020823d602011610624575b8161061260209383611602565b810103126100d35761ffff91516103ba565b3d9150610605565b9094506020813d602011610658575b8161064860209383611602565b810103126100d35751938561032b565b3d915061063b565b9091506020813d60201161068c575b8161067c60209383611602565b810103126100d3575190846102de565b3d915061066f565b506020813d6020116106c0575b816106ae60209383611602565b810103126100d3576102949051610283565b3d91506106a1565b6106e99060203d6020116106f0575b6106e18183611602565b81019061168e565b5082610232565b503d6106d7565b61071a91925060203d602011610721575b6107128183611602565b81019061166f565b90826101ed565b503d610708565b606460405162461bcd60e51b815260206004820152601760248201527f546f6b656e206f7574206e6f7420737570706f727465640000000000000000006044820152fd5b606460405162461bcd60e51b815260206004820152601660248201527f546f6b656e20696e206e6f7420737570706f72746564000000000000000000006044820152fd5b346100d35760003660031901126100d35760206001600160a01b0360005416604051908152f35b346100d35760803660031901126100d35760643560ff811681036100d3576001600160a01b03600d54166020604051809263f52b31f160e01b8252818061083a604435602435600435600485016040919493926060820195825260208201520152565b03915afa9081156105a357600091610862575b602061085984846118b0565b50604051908152f35b90506020813d60201161088d575b8161087d60209383611602565b810103126100d35751602061084d565b3d9150610870565b346100d35760003660031901126100d3576001546001600160a01b03338183160361090c5773ffffffffffffffffffffffffffffffffffffffff198092166001556000549133908316176000553391167f8be0079c531659141344cd1fd0a4f28419497f9722a3daafe3b4186f6b6457e0600080a3005b608460405162461bcd60e51b815260206004820152602960248201527f4f776e61626c6532537465703a2063616c6c6572206973206e6f74207468652060448201527f6e6577206f776e657200000000000000000000000000000000000000000000006064820152fd5b346100d35760403660031901126100d35761ffff610992611561565b61099a611838565b166000526008602052602435604060002055600080f35b346100d35760003660031901126100d3576109ca611838565b60006001600160a01b0373ffffffffffffffffffffffffffffffffffffffff19806001541660015582549081168355167f8be0079c531659141344cd1fd0a4f28419497f9722a3daafe3b4186f6b6457e08280a3005b346100d35760203660031901126100d3576004356001600160a01b0381168091036100d357610a4d611838565b604051906382c947b760e01b8252600482015260208160248173__$cd1346a8e2955df852b4501a7004a2b636$__5af49081156105a357600091610acc575b50600c54680100000000000000008110156105e257806001610ab19201600c55611797565b819291549060031b91821b91600019901b1916179055600080f35b90506020813d602011610af6575b81610ae760209383611602565b810103126100d3575181610a8c565b3d9150610ada565b346100d3576101003660031901126100d357610b1861154e565b6024908135604435906064359061ffff908183168093036100d35760c4359563ffffffff60e43596610b48611838565b16948560005260209660068852610b6760ff6040600020541615611572565b856000526008885260843560406000205403610ea85783600052600a885260ff600460406000200154166004811015610e9357610e505773__$cd1346a8e2955df852b4501a7004a2b636$__60405190632e7682c760e11b918281528b60048201528a818781855af49283156105a3578b91600094610e31575b50866040518094819382528860048301525af49081156105a357600091610e14575b50633b9aca0092838102938185041490151715610dff57600d5460405163f52b31f160e01b815260a4356004820152602481018d9052604481019490945292959493926001600160a01b039291908b908890606490829087165afa80156105a3578b97600091610dc6575b5091610cbe9391610c886000999460ff60075416906118b0565b5098899360405180978196829563a9059cbb60e01b845260048401602090939291936001600160a01b0360408201951681520152565b0393165af180156105a357610da9575b5088600052600b88526040600020549360405199610ceb8b6115e5565b848b52898b0192835260408b0190815260608b0191825260808b01926001845260a08c019542875260c08d0197885260e08d01998a52600052600a8b5260406000209b518c555160018c01555160028b01555160038a015551906004821015610d955750918791610d63600794600460069b016117e4565b51600583015551878201550191511661ffff19825416179055600052526040600020600160ff19825416179055600080f35b634e487b7160e01b60005260216004526000fd5b610dbf90893d8b116106f0576106e18183611602565b5089610cce565b8881949992509492943d8311610df8575b610de18183611602565b810103126100d35790518a96919290610cbe610c6e565b503d610dd7565b84634e487b7160e01b60005260116004526000fd5b610e2b91508a3d8c11610721576107128183611602565b8b610c03565b610e49919450823d8411610721576107128183611602565b928d610be1565b6064886014856040519262461bcd60e51b845260048401528201527f4c6f616e20616c726561647920637265617465640000000000000000000000006044820152fd5b83634e487b7160e01b60005260216004526000fd5b6064886017856040519262461bcd60e51b845260048401528201527f496e76616c696420666f726569676e206f72626974616c0000000000000000006044820152fd5b60203660031901126100d35760043580600052600a60205260406000209060405191610f16836115e5565b8054835261ffff6007600183015492602086019384526002810154604087015260038101546060870152610f5460ff600483015416608088016115bd565b600581015460a0870152600681015460c087015201541660e084015260808301516004811015610559576001610f8a9114611624565b519160405192632e7682c760e11b84526004840152602492602081858173__$cd1346a8e2955df852b4501a7004a2b636$__5af49081156105a35760009161133a575b506001600160a01b039081339116036112f65765f7cf9b8d0000611011606084015161100c60a086015161100660c08801519142611890565b9261189d565b61189d565b046060830151908101809111610dff5760408301519060405191632e7682c760e11b83526004830152602082878173__$cd1346a8e2955df852b4501a7004a2b636$__5af49182156105a35783926020926110a1926000926112d7575b506040516323b872dd60e01b81523360048201523060248201526044810191909152938492839160009183906064820190565b0393165af180156105a3576112b8575b50604051906382c947b760e01b8252306004830152602082868173__$cd1346a8e2955df852b4501a7004a2b636$__5af49182156105a357600092611284575b5061ffff60e0840151166000526008602052604060002054907f0000000000000000000000000000000000000000000000000000000000000000169060405192631a90a21960e01b8452602084600481865afa9384156105a357600094611250575b5061115f8434146116a6565b6003549561ffff60e0870151169060405197602089015260408801526060870152608086015260a085015260a0845260c084019484861067ffffffffffffffff87111761123c575084602091816040528163ffffffff9485600554166358cd21bf60e11b8352886111d78160bf199360c48201611711565b0301925af19283156105a357600294608094611219575b5050600554906111ff81831661176c565b169063ffffffff1916176005550152602060405160018152f35b60c0611234926020903d6020116105da576105c98285611602565b5084806111ee565b634e487b7160e01b60005260416004526000fd5b9093506020813d60201161127c575b8161126c60209383611602565b810103126100d357519287611153565b3d915061125f565b9091506020813d6020116112b0575b816112a060209383611602565b810103126100d3575190856110f1565b3d9150611293565b6112d09060203d6020116106f0576106e18183611602565b50846110b1565b6112ef919250843d8611610721576107128183611602565b908961106e565b60648460116040519162461bcd60e51b8352602060048401528201527f556e617574686f72697a6564206c6f616e0000000000000000000000000000006044820152fd5b611353915060203d602011610721576107128183611602565b84610fcd565b346100d35760403660031901126100d35763ffffffff61137761154e565b61137f611838565b168060005260206006815261139c60ff6040600020541615611572565b60243560005260098152604060002091604051926113b9846115c9565b8054845260018101549383810194855260028201549460408201958652600460ff600385015416936113ef6060850195866115bd565b015460808301528251600481101561055957600161140d9114611624565b519073__$cd1346a8e2955df852b4501a7004a2b636$__9160405190632e7682c760e11b9081835260048301528682602481875af49283156105a357879260009461152c575b5060249051916040519586938492835260048301525af49081156105a3576114be96869360009361150d575b50519160006001600160a01b03604051809a8196829563a9059cbb60e01b845260048401602090939291936001600160a01b0360408201951681520152565b0393165af19081156105a3576006946002926114f0575b5052600052526040600020600160ff19825416179055600080f35b61150690853d87116106f0576106e18183611602565b50856114d5565b611525919350843d8611610721576107128183611602565b918861147f565b602491945061154790843d8611610721576107128183611602565b9390611453565b6004359063ffffffff821682036100d357565b6004359061ffff821682036100d357565b1561157957565b606460405162461bcd60e51b815260206004820152601b60248201527f4e6f6e63652077617320616c72656164792065786563757465642e00000000006044820152fd5b60048210156105595752565b60a0810190811067ffffffffffffffff8211176105e257604052565b610100810190811067ffffffffffffffff8211176105e257604052565b90601f8019910116810190811067ffffffffffffffff8211176105e257604052565b1561162b57565b606460405162461bcd60e51b815260206004820152601260248201527f4c6f616e206973206e6f742061637469766500000000000000000000000000006044820152fd5b908160209103126100d357516001600160a01b03811681036100d35790565b908160209103126100d3575180151581036100d35790565b156116ad57565b606460405162461bcd60e51b815260206004820152601860248201527f496e73756666696369656e74206d6573736167652066656500000000000000006044820152fd5b908160209103126100d3575167ffffffffffffffff811681036100d35790565b92919063ffffffff16835260206060602085015281519182606086015260005b838110611758575050506040608082600082819588010152601f8019910116850101930152565b818101830151868201608001528201611731565b63ffffffff8091169081146117815760010190565b634e487b7160e01b600052601160045260246000fd5b600c548110156117ce57600c6000527fdf6966c971051c3d54ec59162606531493a51404a002842f56009d7e5cf4a8c70190600090565b634e487b7160e01b600052603260045260246000fd5b9060048110156105595760ff80198354169116179055565b600c549060005b82811061181257505050600090565b8161181c82611797565b90549060031b1c1461183057600101611803565b505050600190565b6001600160a01b0360005416330361184c57565b606460405162461bcd60e51b815260206004820152602060248201527f4f776e61626c653a2063616c6c6572206973206e6f7420746865206f776e65726044820152fd5b9190820391821161178157565b8181029291811591840414171561178157565b919060ff16606481116118d75760646118cc6118d4928561189d565b048093611890565b90565b608460405162461bcd60e51b8152602060048201526024808201527f50657263656e74616765206d757374206265206265747765656e203020616e6460448201527f20313030000000000000000000000000000000000000000000000000000000006064820152fdfea26469706673582212207b24f2512b4dd5eea715867523f8c23aad7b2c5843e236a3b86dd23d6f0f97bb64736f6c63430008180033",
          "opcodes": "PUSH1 0xA0 CALLVALUE PUSH2 0x141 JUMPI PUSH1 0x1F PUSH2 0x1AE7 CODESIZE DUP2 SWAP1 SUB SWAP2 DUP3 ADD PUSH1 0x1F NOT AND DUP4 ADD SWAP2 PUSH1 0x1 PUSH1 0x1 PUSH1 0x40 SHL SUB DUP4 GT DUP5 DUP5 LT OR PUSH2 0x146 JUMPI DUP1 DUP5 SWAP3 PUSH1 0x40 SWAP5 DUP6 MSTORE DUP4 CODECOPY DUP2 ADD SUB SLT PUSH2 0x141 JUMPI PUSH2 0x52 PUSH1 0x20 PUSH2 0x4B DUP4 PUSH2 0x15C JUMP JUMPDEST SWAP3 ADD PUSH2 0x15C JUMP JUMPDEST PUSH1 0x1 DUP1 SLOAD PUSH1 0x1 PUSH1 0x1 PUSH1 0xA0 SHL SUB NOT SWAP1 DUP2 AND SWAP1 SWAP2 SSTORE PUSH1 0x0 DUP1 SLOAD CALLER DUP2 DUP5 AND DUP2 OR DUP4 SSTORE PUSH1 0x40 MLOAD SWAP6 PUSH1 0x1 PUSH1 0x1 PUSH1 0xA0 SHL SUB SWAP6 SWAP5 SWAP4 DUP7 SWAP4 SWAP2 SWAP3 SWAP2 DUP5 AND SWAP1 PUSH32 0x8BE0079C531659141344CD1FD0A4F28419497F9722A3DAAFE3B4186F6B6457E0 SWAP1 DUP1 LOG3 PUSH16 0x13D397D093D49493D5D7D351551213D1 PUSH1 0x82 SHL PUSH1 0x2 SSTORE PUSH15 0x13D397D49154105657D351551213D1 PUSH1 0x8A SHL PUSH1 0x3 SSTORE PUSH17 0x13D397D111519055531517D351551213D1 PUSH1 0x7A SHL PUSH1 0x4 SSTORE PUSH1 0x7 DUP1 SLOAD PUSH1 0xFF NOT AND PUSH1 0x50 OR SWAP1 SSTORE PUSH1 0x5 DUP1 SLOAD PUSH4 0xFFFFFFFF NOT AND PUSH1 0x1 OR SWAP1 SSTORE PUSH1 0xD DUP1 SLOAD SWAP1 SWAP4 AND SWAP2 AND OR SWAP1 SSTORE AND PUSH1 0x80 MSTORE PUSH2 0x1976 SWAP1 DUP2 PUSH2 0x171 DUP3 CODECOPY PUSH1 0x80 MLOAD DUP2 DUP2 DUP2 PUSH2 0x2AD ADD MSTORE DUP2 DUP2 PUSH2 0x44F ADD MSTORE PUSH2 0x110C ADD MSTORE RETURN JUMPDEST PUSH1 0x0 DUP1 REVERT JUMPDEST PUSH4 0x4E487B71 PUSH1 0xE0 SHL PUSH1 0x0 MSTORE PUSH1 0x41 PUSH1 0x4 MSTORE PUSH1 0x24 PUSH1 0x0 REVERT JUMPDEST MLOAD SWAP1 PUSH1 0x1 PUSH1 0x1 PUSH1 0xA0 SHL SUB DUP3 AND DUP3 SUB PUSH2 0x141 JUMPI JUMP INVALID PUSH1 0x80 PUSH1 0x40 MSTORE PUSH1 0x4 CALLDATASIZE LT ISZERO PUSH2 0x12 JUMPI PUSH1 0x0 DUP1 REVERT JUMPDEST PUSH1 0x0 CALLDATALOAD PUSH1 0xE0 SHR DUP1 PUSH4 0xB3735FB EQ PUSH2 0x1359 JUMPI DUP1 PUSH4 0x563DD613 EQ PUSH2 0xEEB JUMPI DUP1 PUSH4 0x5BDEA914 EQ PUSH2 0xAFE JUMPI DUP1 PUSH4 0x6D69FCAF EQ PUSH2 0xA20 JUMPI DUP1 PUSH4 0x715018A6 EQ PUSH2 0x9B1 JUMPI DUP1 PUSH4 0x75F5172E EQ PUSH2 0x976 JUMPI DUP1 PUSH4 0x79BA5097 EQ PUSH2 0x895 JUMPI DUP1 PUSH4 0x7B76BA8A EQ PUSH2 0x7D7 JUMPI DUP1 PUSH4 0x8DA5CB5B EQ PUSH2 0x7B0 JUMPI DUP1 PUSH4 0xD80B52B6 EQ PUSH2 0x177 JUMPI DUP1 PUSH4 0xE30C3978 EQ PUSH2 0x150 JUMPI DUP1 PUSH4 0xF2FDE38B EQ PUSH2 0xD8 JUMPI PUSH4 0xF770A695 EQ PUSH2 0xAB JUMPI PUSH1 0x0 DUP1 REVERT JUMPDEST CALLVALUE PUSH2 0xD3 JUMPI PUSH1 0x20 CALLDATASIZE PUSH1 0x3 NOT ADD SLT PUSH2 0xD3 JUMPI PUSH1 0x20 PUSH2 0xC9 PUSH1 0x4 CALLDATALOAD PUSH2 0x17FC JUMP JUMPDEST PUSH1 0x40 MLOAD SWAP1 ISZERO ISZERO DUP2 MSTORE RETURN JUMPDEST PUSH1 0x0 DUP1 REVERT JUMPDEST CALLVALUE PUSH2 0xD3 JUMPI PUSH1 0x20 CALLDATASIZE PUSH1 0x3 NOT ADD SLT PUSH2 0xD3 JUMPI PUSH1 0x4 CALLDATALOAD PUSH1 0x1 PUSH1 0x1 PUSH1 0xA0 SHL SUB DUP1 DUP3 AND DUP1 SWAP3 SUB PUSH2 0xD3 JUMPI PUSH2 0x106 PUSH2 0x1838 JUMP JUMPDEST DUP2 PUSH20 0xFFFFFFFFFFFFFFFFFFFFFFFFFFFFFFFFFFFFFFFF NOT PUSH1 0x1 SLOAD AND OR PUSH1 0x1 SSTORE PUSH1 0x0 SLOAD AND PUSH32 0x38D16B8CAC22D99FC7C124B9CD0DE2D3FA1FAEF420BFE791D8C362D765E22700 PUSH1 0x0 DUP1 LOG3 STOP JUMPDEST CALLVALUE PUSH2 0xD3 JUMPI PUSH1 0x0 CALLDATASIZE PUSH1 0x3 NOT ADD SLT PUSH2 0xD3 JUMPI PUSH1 0x20 PUSH1 0x1 PUSH1 0x1 PUSH1 0xA0 SHL SUB PUSH1 0x1 SLOAD AND PUSH1 0x40 MLOAD SWAP1 DUP2 MSTORE RETURN JUMPDEST PUSH1 0xA0 CALLDATASIZE PUSH1 0x3 NOT ADD SLT PUSH2 0xD3 JUMPI PUSH2 0x18B PUSH2 0x1561 JUMP JUMPDEST PUSH2 0x196 PUSH1 0x24 CALLDATALOAD PUSH2 0x17FC JUMP JUMPDEST ISZERO PUSH2 0x76C JUMPI PUSH2 0x1A6 PUSH1 0x44 CALLDATALOAD PUSH2 0x17FC JUMP JUMPDEST ISZERO PUSH2 0x728 JUMPI PUSH1 0x40 MLOAD SWAP1 PUSH4 0x2E7682C7 PUSH1 0xE1 SHL DUP3 MSTORE PUSH1 0x24 CALLDATALOAD PUSH1 0x4 DUP4 ADD MSTORE PUSH1 0x20 DUP3 PUSH1 0x24 DUP2 PUSH20 0x0 GAS DELEGATECALL SWAP2 DUP3 ISZERO PUSH2 0x5A3 JUMPI PUSH1 0x0 SWAP3 PUSH2 0x6F7 JUMPI JUMPDEST POP PUSH1 0x40 MLOAD PUSH4 0x23B872DD PUSH1 0xE0 SHL DUP2 MSTORE CALLER PUSH1 0x4 DUP3 ADD MSTORE ADDRESS PUSH1 0x24 DUP3 ADD MSTORE PUSH1 0x64 DUP1 CALLDATALOAD PUSH1 0x44 DUP4 ADD MSTORE PUSH1 0x1 PUSH1 0x1 PUSH1 0xA0 SHL SUB SWAP4 PUSH1 0x20 SWAP2 DUP4 SWAP2 DUP3 SWAP1 PUSH1 0x0 SWAP1 DUP9 AND GAS CALL DUP1 ISZERO PUSH2 0x5A3 JUMPI PUSH2 0x6C8 JUMPI JUMPDEST POP DUP2 PUSH1 0xD SLOAD AND PUSH1 0x20 PUSH1 0x40 MLOAD DUP1 SWAP3 PUSH4 0xF52B31F1 PUSH1 0xE0 SHL DUP3 MSTORE DUP2 DUP1 PUSH2 0x271 PUSH1 0x64 CALLDATALOAD PUSH1 0x44 CALLDATALOAD PUSH1 0x24 CALLDATALOAD PUSH1 0x4 DUP6 ADD PUSH1 0x40 SWAP2 SWAP5 SWAP4 SWAP3 PUSH1 0x60 DUP3 ADD SWAP6 DUP3 MSTORE PUSH1 0x20 DUP3 ADD MSTORE ADD MSTORE JUMP JUMPDEST SUB SWAP2 GAS STATICCALL DUP1 ISZERO PUSH2 0x5A3 JUMPI PUSH1 0x0 SWAP1 PUSH2 0x694 JUMPI JUMPDEST PUSH2 0x294 SWAP2 POP PUSH1 0xFF PUSH1 0x7 SLOAD AND SWAP1 PUSH2 0x18B0 JUMP JUMPDEST POP SWAP2 PUSH1 0x40 MLOAD SWAP1 PUSH4 0x1A90A219 PUSH1 0xE0 SHL DUP3 MSTORE PUSH1 0x20 DUP3 PUSH1 0x4 DUP2 DUP5 PUSH32 0x0 AND GAS STATICCALL SWAP2 DUP3 ISZERO PUSH2 0x5A3 JUMPI PUSH1 0x0 SWAP3 PUSH2 0x660 JUMPI JUMPDEST POP PUSH2 0x2EB DUP3 CALLVALUE LT ISZERO PUSH2 0x16A6 JUMP JUMPDEST PUSH1 0x40 MLOAD SWAP4 PUSH4 0x82C947B7 PUSH1 0xE0 SHL DUP6 MSTORE ADDRESS PUSH1 0x4 DUP7 ADD MSTORE PUSH1 0x20 DUP6 PUSH1 0x24 DUP2 PUSH20 0x0 GAS DELEGATECALL SWAP5 DUP6 ISZERO PUSH2 0x5A3 JUMPI PUSH1 0x0 SWAP6 PUSH2 0x62C JUMPI JUMPDEST POP PUSH2 0xFFFF DUP5 AND PUSH1 0x0 MSTORE PUSH1 0x8 PUSH1 0x20 MSTORE PUSH1 0x40 PUSH1 0x0 KECCAK256 SLOAD PUSH4 0xFFFFFFFF PUSH1 0x5 SLOAD AND PUSH1 0x40 MLOAD PUSH1 0x20 DUP2 ADD SWAP2 CALLER DUP4 MSTORE PUSH1 0x84 CALLDATALOAD PUSH1 0x40 DUP4 ADD MSTORE PUSH1 0x60 DUP3 ADD MSTORE TIMESTAMP PUSH1 0x80 DUP3 ADD MSTORE PUSH1 0x80 DUP2 MSTORE PUSH2 0x373 DUP2 PUSH2 0x15C9 JUMP JUMPDEST MLOAD SWAP1 KECCAK256 SWAP6 PUSH1 0x2 SLOAD SWAP6 PUSH1 0x40 MLOAD SWAP1 PUSH4 0x82C947B7 PUSH1 0xE0 SHL DUP3 MSTORE CALLER PUSH1 0x4 DUP4 ADD MSTORE PUSH1 0x20 DUP3 PUSH1 0x24 DUP2 PUSH20 0x0 GAS DELEGATECALL DUP1 ISZERO PUSH2 0x5A3 JUMPI PUSH1 0x0 SWAP1 PUSH2 0x5F8 JUMPI JUMPDEST PUSH2 0xFFFF SWAP3 POP PUSH1 0x40 MLOAD SWAP9 PUSH1 0x20 DUP11 ADD MSTORE DUP10 PUSH1 0x40 DUP11 ADD MSTORE PUSH1 0x60 DUP10 ADD MSTORE PUSH1 0x84 CALLDATALOAD PUSH1 0x80 DUP10 ADD MSTORE AND PUSH1 0xA0 DUP8 ADD MSTORE PUSH1 0xC0 DUP7 ADD MSTORE PUSH1 0xE0 DUP6 ADD MSTORE PUSH1 0x44 CALLDATALOAD PUSH2 0x100 DUP6 ADD MSTORE PUSH2 0x120 SWAP1 DUP2 DUP6 ADD MSTORE DUP4 MSTORE PUSH2 0x140 SWAP1 DUP2 DUP5 ADD SWAP3 DUP5 DUP5 LT PUSH8 0xFFFFFFFFFFFFFFFF DUP6 GT OR PUSH2 0x5E2 JUMPI PUSH1 0x20 SWAP2 DUP5 DUP1 SWAP3 DUP2 PUSH1 0x40 MSTORE PUSH4 0xFFFFFFFF PUSH1 0x5 SLOAD AND PUSH4 0x58CD21BF PUSH1 0xE1 SHL DUP4 MSTORE DUP9 PUSH2 0x44A DUP2 PUSH2 0x13F NOT SWAP4 PUSH2 0x144 DUP3 ADD PUSH2 0x1711 JUMP JUMPDEST SUB ADD SWAP3 PUSH32 0x0 AND GAS CALL DUP1 ISZERO PUSH2 0x5A3 JUMPI PUSH2 0x5AF JUMPI JUMPDEST POP POP POP PUSH1 0x40 MLOAD SWAP1 PUSH4 0x82C947B7 PUSH1 0xE0 SHL DUP3 MSTORE CALLER PUSH1 0x4 DUP4 ADD MSTORE PUSH1 0x20 DUP3 PUSH1 0x24 DUP2 PUSH20 0x0 GAS DELEGATECALL SWAP2 DUP3 ISZERO PUSH2 0x5A3 JUMPI PUSH1 0x0 SWAP3 PUSH2 0x56F JUMPI JUMPDEST POP PUSH1 0x40 MLOAD SWAP2 PUSH2 0x4CD DUP4 PUSH2 0x15C9 JUMP JUMPDEST DUP3 MSTORE PUSH1 0x20 DUP3 ADD SWAP2 PUSH1 0x24 CALLDATALOAD DUP4 MSTORE PUSH1 0x40 DUP2 ADD PUSH1 0x64 CALLDATALOAD DUP2 MSTORE PUSH1 0x60 DUP3 ADD SWAP1 PUSH1 0x1 DUP3 MSTORE PUSH1 0x80 DUP4 ADD SWAP5 TIMESTAMP DUP7 MSTORE DUP5 PUSH1 0x0 MSTORE PUSH1 0x9 PUSH1 0x20 MSTORE PUSH1 0x40 PUSH1 0x0 KECCAK256 SWAP4 MLOAD DUP5 SSTORE MLOAD PUSH1 0x1 DUP5 ADD SSTORE MLOAD PUSH1 0x2 DUP4 ADD SSTORE MLOAD PUSH1 0x4 DUP2 LT ISZERO PUSH2 0x559 JUMPI PUSH1 0x20 SWAP4 PUSH2 0x52D PUSH1 0x4 SWAP3 PUSH1 0x3 DUP6 ADD PUSH2 0x17E4 JUMP JUMPDEST MLOAD SWAP2 ADD SSTORE PUSH1 0x5 SLOAD PUSH4 0xFFFFFFFF PUSH2 0x544 DUP2 DUP4 AND PUSH2 0x176C JUMP JUMPDEST AND SWAP1 PUSH4 0xFFFFFFFF NOT AND OR PUSH1 0x5 SSTORE PUSH1 0x40 MLOAD SWAP1 DUP2 MSTORE RETURN JUMPDEST PUSH4 0x4E487B71 PUSH1 0xE0 SHL PUSH1 0x0 MSTORE PUSH1 0x21 PUSH1 0x4 MSTORE PUSH1 0x24 PUSH1 0x0 REVERT JUMPDEST SWAP1 SWAP2 POP PUSH1 0x20 DUP2 RETURNDATASIZE PUSH1 0x20 GT PUSH2 0x59B JUMPI JUMPDEST DUP2 PUSH2 0x58B PUSH1 0x20 SWAP4 DUP4 PUSH2 0x1602 JUMP JUMPDEST DUP2 ADD SUB SLT PUSH2 0xD3 JUMPI MLOAD SWAP1 DUP3 PUSH2 0x4BF JUMP JUMPDEST RETURNDATASIZE SWAP2 POP PUSH2 0x57E JUMP JUMPDEST PUSH1 0x40 MLOAD RETURNDATASIZE PUSH1 0x0 DUP3 RETURNDATACOPY RETURNDATASIZE SWAP1 REVERT JUMPDEST PUSH2 0x5D1 SWAP3 PUSH1 0x20 SWAP1 RETURNDATASIZE PUSH1 0x20 GT PUSH2 0x5DA JUMPI JUMPDEST PUSH2 0x5C9 DUP3 DUP6 PUSH2 0x1602 JUMP JUMPDEST ADD ADD SWAP1 PUSH2 0x16F1 JUMP JUMPDEST POP DUP2 DUP1 DUP1 PUSH2 0x47C JUMP JUMPDEST RETURNDATASIZE SWAP2 POP PUSH2 0x5BF JUMP JUMPDEST PUSH4 0x4E487B71 PUSH1 0xE0 SHL PUSH1 0x0 MSTORE PUSH1 0x41 PUSH1 0x4 MSTORE PUSH1 0x24 PUSH1 0x0 REVERT JUMPDEST POP PUSH1 0x20 DUP3 RETURNDATASIZE PUSH1 0x20 GT PUSH2 0x624 JUMPI JUMPDEST DUP2 PUSH2 0x612 PUSH1 0x20 SWAP4 DUP4 PUSH2 0x1602 JUMP JUMPDEST DUP2 ADD SUB SLT PUSH2 0xD3 JUMPI PUSH2 0xFFFF SWAP2 MLOAD PUSH2 0x3BA JUMP JUMPDEST RETURNDATASIZE SWAP2 POP PUSH2 0x605 JUMP JUMPDEST SWAP1 SWAP5 POP PUSH1 0x20 DUP2 RETURNDATASIZE PUSH1 0x20 GT PUSH2 0x658 JUMPI JUMPDEST DUP2 PUSH2 0x648 PUSH1 0x20 SWAP4 DUP4 PUSH2 0x1602 JUMP JUMPDEST DUP2 ADD SUB SLT PUSH2 0xD3 JUMPI MLOAD SWAP4 DUP6 PUSH2 0x32B JUMP JUMPDEST RETURNDATASIZE SWAP2 POP PUSH2 0x63B JUMP JUMPDEST SWAP1 SWAP2 POP PUSH1 0x20 DUP2 RETURNDATASIZE PUSH1 0x20 GT PUSH2 0x68C JUMPI JUMPDEST DUP2 PUSH2 0x67C PUSH1 0x20 SWAP4 DUP4 PUSH2 0x1602 JUMP JUMPDEST DUP2 ADD SUB SLT PUSH2 0xD3 JUMPI MLOAD SWAP1 DUP5 PUSH2 0x2DE JUMP JUMPDEST RETURNDATASIZE SWAP2 POP PUSH2 0x66F JUMP JUMPDEST POP PUSH1 0x20 DUP2 RETURNDATASIZE PUSH1 0x20 GT PUSH2 0x6C0 JUMPI JUMPDEST DUP2 PUSH2 0x6AE PUSH1 0x20 SWAP4 DUP4 PUSH2 0x1602 JUMP JUMPDEST DUP2 ADD SUB SLT PUSH2 0xD3 JUMPI PUSH2 0x294 SWAP1 MLOAD PUSH2 0x283 JUMP JUMPDEST RETURNDATASIZE SWAP2 POP PUSH2 0x6A1 JUMP JUMPDEST PUSH2 0x6E9 SWAP1 PUSH1 0x20 RETURNDATASIZE PUSH1 0x20 GT PUSH2 0x6F0 JUMPI JUMPDEST PUSH2 0x6E1 DUP2 DUP4 PUSH2 0x1602 JUMP JUMPDEST DUP2 ADD SWAP1 PUSH2 0x168E JUMP JUMPDEST POP DUP3 PUSH2 0x232 JUMP JUMPDEST POP RETURNDATASIZE PUSH2 0x6D7 JUMP JUMPDEST PUSH2 0x71A SWAP2 SWAP3 POP PUSH1 0x20 RETURNDATASIZE PUSH1 0x20 GT PUSH2 0x721 JUMPI JUMPDEST PUSH2 0x712 DUP2 DUP4 PUSH2 0x1602 JUMP JUMPDEST DUP2 ADD SWAP1 PUSH2 0x166F JUMP JUMPDEST SWAP1 DUP3 PUSH2 0x1ED JUMP JUMPDEST POP RETURNDATASIZE PUSH2 0x708 JUMP JUMPDEST PUSH1 0x64 PUSH1 0x40 MLOAD PUSH3 0x461BCD PUSH1 0xE5 SHL DUP2 MSTORE PUSH1 0x20 PUSH1 0x4 DUP3 ADD MSTORE PUSH1 0x17 PUSH1 0x24 DUP3 ADD MSTORE PUSH32 0x546F6B656E206F7574206E6F7420737570706F72746564000000000000000000 PUSH1 0x44 DUP3 ADD MSTORE REVERT JUMPDEST PUSH1 0x64 PUSH1 0x40 MLOAD PUSH3 0x461BCD PUSH1 0xE5 SHL DUP2 MSTORE PUSH1 0x20 PUSH1 0x4 DUP3 ADD MSTORE PUSH1 0x16 PUSH1 0x24 DUP3 ADD MSTORE PUSH32 0x546F6B656E20696E206E6F7420737570706F7274656400000000000000000000 PUSH1 0x44 DUP3 ADD MSTORE REVERT JUMPDEST CALLVALUE PUSH2 0xD3 JUMPI PUSH1 0x0 CALLDATASIZE PUSH1 0x3 NOT ADD SLT PUSH2 0xD3 JUMPI PUSH1 0x20 PUSH1 0x1 PUSH1 0x1 PUSH1 0xA0 SHL SUB PUSH1 0x0 SLOAD AND PUSH1 0x40 MLOAD SWAP1 DUP2 MSTORE RETURN JUMPDEST CALLVALUE PUSH2 0xD3 JUMPI PUSH1 0x80 CALLDATASIZE PUSH1 0x3 NOT ADD SLT PUSH2 0xD3 JUMPI PUSH1 0x64 CALLDATALOAD PUSH1 0xFF DUP2 AND DUP2 SUB PUSH2 0xD3 JUMPI PUSH1 0x1 PUSH1 0x1 PUSH1 0xA0 SHL SUB PUSH1 0xD SLOAD AND PUSH1 0x20 PUSH1 0x40 MLOAD DUP1 SWAP3 PUSH4 0xF52B31F1 PUSH1 0xE0 SHL DUP3 MSTORE DUP2 DUP1 PUSH2 0x83A PUSH1 0x44 CALLDATALOAD PUSH1 0x24 CALLDATALOAD PUSH1 0x4 CALLDATALOAD PUSH1 0x4 DUP6 ADD PUSH1 0x40 SWAP2 SWAP5 SWAP4 SWAP3 PUSH1 0x60 DUP3 ADD SWAP6 DUP3 MSTORE PUSH1 0x20 DUP3 ADD MSTORE ADD MSTORE JUMP JUMPDEST SUB SWAP2 GAS STATICCALL SWAP1 DUP2 ISZERO PUSH2 0x5A3 JUMPI PUSH1 0x0 SWAP2 PUSH2 0x862 JUMPI JUMPDEST PUSH1 0x20 PUSH2 0x859 DUP5 DUP5 PUSH2 0x18B0 JUMP JUMPDEST POP PUSH1 0x40 MLOAD SWAP1 DUP2 MSTORE RETURN JUMPDEST SWAP1 POP PUSH1 0x20 DUP2 RETURNDATASIZE PUSH1 0x20 GT PUSH2 0x88D JUMPI JUMPDEST DUP2 PUSH2 0x87D PUSH1 0x20 SWAP4 DUP4 PUSH2 0x1602 JUMP JUMPDEST DUP2 ADD SUB SLT PUSH2 0xD3 JUMPI MLOAD PUSH1 0x20 PUSH2 0x84D JUMP JUMPDEST RETURNDATASIZE SWAP2 POP PUSH2 0x870 JUMP JUMPDEST CALLVALUE PUSH2 0xD3 JUMPI PUSH1 0x0 CALLDATASIZE PUSH1 0x3 NOT ADD SLT PUSH2 0xD3 JUMPI PUSH1 0x1 SLOAD PUSH1 0x1 PUSH1 0x1 PUSH1 0xA0 SHL SUB CALLER DUP2 DUP4 AND SUB PUSH2 0x90C JUMPI PUSH20 0xFFFFFFFFFFFFFFFFFFFFFFFFFFFFFFFFFFFFFFFF NOT DUP1 SWAP3 AND PUSH1 0x1 SSTORE PUSH1 0x0 SLOAD SWAP2 CALLER SWAP1 DUP4 AND OR PUSH1 0x0 SSTORE CALLER SWAP2 AND PUSH32 0x8BE0079C531659141344CD1FD0A4F28419497F9722A3DAAFE3B4186F6B6457E0 PUSH1 0x0 DUP1 LOG3 STOP JUMPDEST PUSH1 0x84 PUSH1 0x40 MLOAD PUSH3 0x461BCD PUSH1 0xE5 SHL DUP2 MSTORE PUSH1 0x20 PUSH1 0x4 DUP3 ADD MSTORE PUSH1 0x29 PUSH1 0x24 DUP3 ADD MSTORE PUSH32 0x4F776E61626C6532537465703A2063616C6C6572206973206E6F742074686520 PUSH1 0x44 DUP3 ADD MSTORE PUSH32 0x6E6577206F776E65720000000000000000000000000000000000000000000000 PUSH1 0x64 DUP3 ADD MSTORE REVERT JUMPDEST CALLVALUE PUSH2 0xD3 JUMPI PUSH1 0x40 CALLDATASIZE PUSH1 0x3 NOT ADD SLT PUSH2 0xD3 JUMPI PUSH2 0xFFFF PUSH2 0x992 PUSH2 0x1561 JUMP JUMPDEST PUSH2 0x99A PUSH2 0x1838 JUMP JUMPDEST AND PUSH1 0x0 MSTORE PUSH1 0x8 PUSH1 0x20 MSTORE PUSH1 0x24 CALLDATALOAD PUSH1 0x40 PUSH1 0x0 KECCAK256 SSTORE PUSH1 0x0 DUP1 RETURN JUMPDEST CALLVALUE PUSH2 0xD3 JUMPI PUSH1 0x0 CALLDATASIZE PUSH1 0x3 NOT ADD SLT PUSH2 0xD3 JUMPI PUSH2 0x9CA PUSH2 0x1838 JUMP JUMPDEST PUSH1 0x0 PUSH1 0x1 PUSH1 0x1 PUSH1 0xA0 SHL SUB PUSH20 0xFFFFFFFFFFFFFFFFFFFFFFFFFFFFFFFFFFFFFFFF NOT DUP1 PUSH1 0x1 SLOAD AND PUSH1 0x1 SSTORE DUP3 SLOAD SWAP1 DUP2 AND DUP4 SSTORE AND PUSH32 0x8BE0079C531659141344CD1FD0A4F28419497F9722A3DAAFE3B4186F6B6457E0 DUP3 DUP1 LOG3 STOP JUMPDEST CALLVALUE PUSH2 0xD3 JUMPI PUSH1 0x20 CALLDATASIZE PUSH1 0x3 NOT ADD SLT PUSH2 0xD3 JUMPI PUSH1 0x4 CALLDATALOAD PUSH1 0x1 PUSH1 0x1 PUSH1 0xA0 SHL SUB DUP2 AND DUP1 SWAP2 SUB PUSH2 0xD3 JUMPI PUSH2 0xA4D PUSH2 0x1838 JUMP JUMPDEST PUSH1 0x40 MLOAD SWAP1 PUSH4 0x82C947B7 PUSH1 0xE0 SHL DUP3 MSTORE PUSH1 0x4 DUP3 ADD MSTORE PUSH1 0x20 DUP2 PUSH1 0x24 DUP2 PUSH20 0x0 GAS DELEGATECALL SWAP1 DUP2 ISZERO PUSH2 0x5A3 JUMPI PUSH1 0x0 SWAP2 PUSH2 0xACC JUMPI JUMPDEST POP PUSH1 0xC SLOAD PUSH9 0x10000000000000000 DUP2 LT ISZERO PUSH2 0x5E2 JUMPI DUP1 PUSH1 0x1 PUSH2 0xAB1 SWAP3 ADD PUSH1 0xC SSTORE PUSH2 0x1797 JUMP JUMPDEST DUP2 SWAP3 SWAP2 SLOAD SWAP1 PUSH1 0x3 SHL SWAP2 DUP3 SHL SWAP2 PUSH1 0x0 NOT SWAP1 SHL NOT AND OR SWAP1 SSTORE PUSH1 0x0 DUP1 RETURN JUMPDEST SWAP1 POP PUSH1 0x20 DUP2 RETURNDATASIZE PUSH1 0x20 GT PUSH2 0xAF6 JUMPI JUMPDEST DUP2 PUSH2 0xAE7 PUSH1 0x20 SWAP4 DUP4 PUSH2 0x1602 JUMP JUMPDEST DUP2 ADD SUB SLT PUSH2 0xD3 JUMPI MLOAD DUP2 PUSH2 0xA8C JUMP JUMPDEST RETURNDATASIZE SWAP2 POP PUSH2 0xADA JUMP JUMPDEST CALLVALUE PUSH2 0xD3 JUMPI PUSH2 0x100 CALLDATASIZE PUSH1 0x3 NOT ADD SLT PUSH2 0xD3 JUMPI PUSH2 0xB18 PUSH2 0x154E JUMP JUMPDEST PUSH1 0x24 SWAP1 DUP2 CALLDATALOAD PUSH1 0x44 CALLDATALOAD SWAP1 PUSH1 0x64 CALLDATALOAD SWAP1 PUSH2 0xFFFF SWAP1 DUP2 DUP4 AND DUP1 SWAP4 SUB PUSH2 0xD3 JUMPI PUSH1 0xC4 CALLDATALOAD SWAP6 PUSH4 0xFFFFFFFF PUSH1 0xE4 CALLDATALOAD SWAP7 PUSH2 0xB48 PUSH2 0x1838 JUMP JUMPDEST AND SWAP5 DUP6 PUSH1 0x0 MSTORE PUSH1 0x20 SWAP7 PUSH1 0x6 DUP9 MSTORE PUSH2 0xB67 PUSH1 0xFF PUSH1 0x40 PUSH1 0x0 KECCAK256 SLOAD AND ISZERO PUSH2 0x1572 JUMP JUMPDEST DUP6 PUSH1 0x0 MSTORE PUSH1 0x8 DUP9 MSTORE PUSH1 0x84 CALLDATALOAD PUSH1 0x40 PUSH1 0x0 KECCAK256 SLOAD SUB PUSH2 0xEA8 JUMPI DUP4 PUSH1 0x0 MSTORE PUSH1 0xA DUP9 MSTORE PUSH1 0xFF PUSH1 0x4 PUSH1 0x40 PUSH1 0x0 KECCAK256 ADD SLOAD AND PUSH1 0x4 DUP2 LT ISZERO PUSH2 0xE93 JUMPI PUSH2 0xE50 JUMPI PUSH20 0x0 PUSH1 0x40 MLOAD SWAP1 PUSH4 0x2E7682C7 PUSH1 0xE1 SHL SWAP2 DUP3 DUP2 MSTORE DUP12 PUSH1 0x4 DUP3 ADD MSTORE DUP11 DUP2 DUP8 DUP2 DUP6 GAS DELEGATECALL SWAP3 DUP4 ISZERO PUSH2 0x5A3 JUMPI DUP12 SWAP2 PUSH1 0x0 SWAP5 PUSH2 0xE31 JUMPI JUMPDEST POP DUP7 PUSH1 0x40 MLOAD DUP1 SWAP5 DUP2 SWAP4 DUP3 MSTORE DUP9 PUSH1 0x4 DUP4 ADD MSTORE GAS DELEGATECALL SWAP1 DUP2 ISZERO PUSH2 0x5A3 JUMPI PUSH1 0x0 SWAP2 PUSH2 0xE14 JUMPI JUMPDEST POP PUSH4 0x3B9ACA00 SWAP3 DUP4 DUP2 MUL SWAP4 DUP2 DUP6 DIV EQ SWAP1 ISZERO OR ISZERO PUSH2 0xDFF JUMPI PUSH1 0xD SLOAD PUSH1 0x40 MLOAD PUSH4 0xF52B31F1 PUSH1 0xE0 SHL DUP2 MSTORE PUSH1 0xA4 CALLDATALOAD PUSH1 0x4 DUP3 ADD MSTORE PUSH1 0x24 DUP2 ADD DUP14 SWAP1 MSTORE PUSH1 0x44 DUP2 ADD SWAP5 SWAP1 SWAP5 MSTORE SWAP3 SWAP6 SWAP5 SWAP4 SWAP3 PUSH1 0x1 PUSH1 0x1 PUSH1 0xA0 SHL SUB SWAP3 SWAP2 SWAP1 DUP12 SWAP1 DUP9 SWAP1 PUSH1 0x64 SWAP1 DUP3 SWAP1 DUP8 AND GAS STATICCALL DUP1 ISZERO PUSH2 0x5A3 JUMPI DUP12 SWAP8 PUSH1 0x0 SWAP2 PUSH2 0xDC6 JUMPI JUMPDEST POP SWAP2 PUSH2 0xCBE SWAP4 SWAP2 PUSH2 0xC88 PUSH1 0x0 SWAP10 SWAP5 PUSH1 0xFF PUSH1 0x7 SLOAD AND SWAP1 PUSH2 0x18B0 JUMP JUMPDEST POP SWAP9 DUP10 SWAP4 PUSH1 0x40 MLOAD DUP1 SWAP8 DUP2 SWAP7 DUP3 SWAP6 PUSH4 0xA9059CBB PUSH1 0xE0 SHL DUP5 MSTORE PUSH1 0x4 DUP5 ADD PUSH1 0x20 SWAP1 SWAP4 SWAP3 SWAP2 SWAP4 PUSH1 0x1 PUSH1 0x1 PUSH1 0xA0 SHL SUB PUSH1 0x40 DUP3 ADD SWAP6 AND DUP2 MSTORE ADD MSTORE JUMP JUMPDEST SUB SWAP4 AND GAS CALL DUP1 ISZERO PUSH2 0x5A3 JUMPI PUSH2 0xDA9 JUMPI JUMPDEST POP DUP9 PUSH1 0x0 MSTORE PUSH1 0xB DUP9 MSTORE PUSH1 0x40 PUSH1 0x0 KECCAK256 SLOAD SWAP4 PUSH1 0x40 MLOAD SWAP10 PUSH2 0xCEB DUP12 PUSH2 0x15E5 JUMP JUMPDEST DUP5 DUP12 MSTORE DUP10 DUP12 ADD SWAP3 DUP4 MSTORE PUSH1 0x40 DUP12 ADD SWAP1 DUP2 MSTORE PUSH1 0x60 DUP12 ADD SWAP2 DUP3 MSTORE PUSH1 0x80 DUP12 ADD SWAP3 PUSH1 0x1 DUP5 MSTORE PUSH1 0xA0 DUP13 ADD SWAP6 TIMESTAMP DUP8 MSTORE PUSH1 0xC0 DUP14 ADD SWAP8 DUP9 MSTORE PUSH1 0xE0 DUP14 ADD SWAP10 DUP11 MSTORE PUSH1 0x0 MSTORE PUSH1 0xA DUP12 MSTORE PUSH1 0x40 PUSH1 0x0 KECCAK256 SWAP12 MLOAD DUP13 SSTORE MLOAD PUSH1 0x1 DUP13 ADD SSTORE MLOAD PUSH1 0x2 DUP12 ADD SSTORE MLOAD PUSH1 0x3 DUP11 ADD SSTORE MLOAD SWAP1 PUSH1 0x4 DUP3 LT ISZERO PUSH2 0xD95 JUMPI POP SWAP2 DUP8 SWAP2 PUSH2 0xD63 PUSH1 0x7 SWAP5 PUSH1 0x4 PUSH1 0x6 SWAP12 ADD PUSH2 0x17E4 JUMP JUMPDEST MLOAD PUSH1 0x5 DUP4 ADD SSTORE MLOAD DUP8 DUP3 ADD SSTORE ADD SWAP2 MLOAD AND PUSH2 0xFFFF NOT DUP3 SLOAD AND OR SWAP1 SSTORE PUSH1 0x0 MSTORE MSTORE PUSH1 0x40 PUSH1 0x0 KECCAK256 PUSH1 0x1 PUSH1 0xFF NOT DUP3 SLOAD AND OR SWAP1 SSTORE PUSH1 0x0 DUP1 RETURN JUMPDEST PUSH4 0x4E487B71 PUSH1 0xE0 SHL PUSH1 0x0 MSTORE PUSH1 0x21 PUSH1 0x4 MSTORE PUSH1 0x0 REVERT JUMPDEST PUSH2 0xDBF SWAP1 DUP10 RETURNDATASIZE DUP12 GT PUSH2 0x6F0 JUMPI PUSH2 0x6E1 DUP2 DUP4 PUSH2 0x1602 JUMP JUMPDEST POP DUP10 PUSH2 0xCCE JUMP JUMPDEST DUP9 DUP2 SWAP5 SWAP10 SWAP3 POP SWAP5 SWAP3 SWAP5 RETURNDATASIZE DUP4 GT PUSH2 0xDF8 JUMPI JUMPDEST PUSH2 0xDE1 DUP2 DUP4 PUSH2 0x1602 JUMP JUMPDEST DUP2 ADD SUB SLT PUSH2 0xD3 JUMPI SWAP1 MLOAD DUP11 SWAP7 SWAP2 SWAP3 SWAP1 PUSH2 0xCBE PUSH2 0xC6E JUMP JUMPDEST POP RETURNDATASIZE PUSH2 0xDD7 JUMP JUMPDEST DUP5 PUSH4 0x4E487B71 PUSH1 0xE0 SHL PUSH1 0x0 MSTORE PUSH1 0x11 PUSH1 0x4 MSTORE PUSH1 0x0 REVERT JUMPDEST PUSH2 0xE2B SWAP2 POP DUP11 RETURNDATASIZE DUP13 GT PUSH2 0x721 JUMPI PUSH2 0x712 DUP2 DUP4 PUSH2 0x1602 JUMP JUMPDEST DUP12 PUSH2 0xC03 JUMP JUMPDEST PUSH2 0xE49 SWAP2 SWAP5 POP DUP3 RETURNDATASIZE DUP5 GT PUSH2 0x721 JUMPI PUSH2 0x712 DUP2 DUP4 PUSH2 0x1602 JUMP JUMPDEST SWAP3 DUP14 PUSH2 0xBE1 JUMP JUMPDEST PUSH1 0x64 DUP9 PUSH1 0x14 DUP6 PUSH1 0x40 MLOAD SWAP3 PUSH3 0x461BCD PUSH1 0xE5 SHL DUP5 MSTORE PUSH1 0x4 DUP5 ADD MSTORE DUP3 ADD MSTORE PUSH32 0x4C6F616E20616C72656164792063726561746564000000000000000000000000 PUSH1 0x44 DUP3 ADD MSTORE REVERT JUMPDEST DUP4 PUSH4 0x4E487B71 PUSH1 0xE0 SHL PUSH1 0x0 MSTORE PUSH1 0x21 PUSH1 0x4 MSTORE PUSH1 0x0 REVERT JUMPDEST PUSH1 0x64 DUP9 PUSH1 0x17 DUP6 PUSH1 0x40 MLOAD SWAP3 PUSH3 0x461BCD PUSH1 0xE5 SHL DUP5 MSTORE PUSH1 0x4 DUP5 ADD MSTORE DUP3 ADD MSTORE PUSH32 0x496E76616C696420666F726569676E206F72626974616C000000000000000000 PUSH1 0x44 DUP3 ADD MSTORE REVERT JUMPDEST PUSH1 0x20 CALLDATASIZE PUSH1 0x3 NOT ADD SLT PUSH2 0xD3 JUMPI PUSH1 0x4 CALLDATALOAD DUP1 PUSH1 0x0 MSTORE PUSH1 0xA PUSH1 0x20 MSTORE PUSH1 0x40 PUSH1 0x0 KECCAK256 SWAP1 PUSH1 0x40 MLOAD SWAP2 PUSH2 0xF16 DUP4 PUSH2 0x15E5 JUMP JUMPDEST DUP1 SLOAD DUP4 MSTORE PUSH2 0xFFFF PUSH1 0x7 PUSH1 0x1 DUP4 ADD SLOAD SWAP3 PUSH1 0x20 DUP7 ADD SWAP4 DUP5 MSTORE PUSH1 0x2 DUP2 ADD SLOAD PUSH1 0x40 DUP8 ADD MSTORE PUSH1 0x3 DUP2 ADD SLOAD PUSH1 0x60 DUP8 ADD MSTORE PUSH2 0xF54 PUSH1 0xFF PUSH1 0x4 DUP4 ADD SLOAD AND PUSH1 0x80 DUP9 ADD PUSH2 0x15BD JUMP JUMPDEST PUSH1 0x5 DUP2 ADD SLOAD PUSH1 0xA0 DUP8 ADD MSTORE PUSH1 0x6 DUP2 ADD SLOAD PUSH1 0xC0 DUP8 ADD MSTORE ADD SLOAD AND PUSH1 0xE0 DUP5 ADD MSTORE PUSH1 0x80 DUP4 ADD MLOAD PUSH1 0x4 DUP2 LT ISZERO PUSH2 0x559 JUMPI PUSH1 0x1 PUSH2 0xF8A SWAP2 EQ PUSH2 0x1624 JUMP JUMPDEST MLOAD SWAP2 PUSH1 0x40 MLOAD SWAP3 PUSH4 0x2E7682C7 PUSH1 0xE1 SHL DUP5 MSTORE PUSH1 0x4 DUP5 ADD MSTORE PUSH1 0x24 SWAP3 PUSH1 0x20 DUP2 DUP6 DUP2 PUSH20 0x0 GAS DELEGATECALL SWAP1 DUP2 ISZERO PUSH2 0x5A3 JUMPI PUSH1 0x0 SWAP2 PUSH2 0x133A JUMPI JUMPDEST POP PUSH1 0x1 PUSH1 0x1 PUSH1 0xA0 SHL SUB SWAP1 DUP2 CALLER SWAP2 AND SUB PUSH2 0x12F6 JUMPI PUSH6 0xF7CF9B8D0000 PUSH2 0x1011 PUSH1 0x60 DUP5 ADD MLOAD PUSH2 0x100C PUSH1 0xA0 DUP7 ADD MLOAD PUSH2 0x1006 PUSH1 0xC0 DUP9 ADD MLOAD SWAP2 TIMESTAMP PUSH2 0x1890 JUMP JUMPDEST SWAP3 PUSH2 0x189D JUMP JUMPDEST PUSH2 0x189D JUMP JUMPDEST DIV PUSH1 0x60 DUP4 ADD MLOAD SWAP1 DUP2 ADD DUP1 SWAP2 GT PUSH2 0xDFF JUMPI PUSH1 0x40 DUP4 ADD MLOAD SWAP1 PUSH1 0x40 MLOAD SWAP2 PUSH4 0x2E7682C7 PUSH1 0xE1 SHL DUP4 MSTORE PUSH1 0x4 DUP4 ADD MSTORE PUSH1 0x20 DUP3 DUP8 DUP2 PUSH20 0x0 GAS DELEGATECALL SWAP2 DUP3 ISZERO PUSH2 0x5A3 JUMPI DUP4 SWAP3 PUSH1 0x20 SWAP3 PUSH2 0x10A1 SWAP3 PUSH1 0x0 SWAP3 PUSH2 0x12D7 JUMPI JUMPDEST POP PUSH1 0x40 MLOAD PUSH4 0x23B872DD PUSH1 0xE0 SHL DUP2 MSTORE CALLER PUSH1 0x4 DUP3 ADD MSTORE ADDRESS PUSH1 0x24 DUP3 ADD MSTORE PUSH1 0x44 DUP2 ADD SWAP2 SWAP1 SWAP2 MSTORE SWAP4 DUP5 SWAP3 DUP4 SWAP2 PUSH1 0x0 SWAP2 DUP4 SWAP1 PUSH1 0x64 DUP3 ADD SWAP1 JUMP JUMPDEST SUB SWAP4 AND GAS CALL DUP1 ISZERO PUSH2 0x5A3 JUMPI PUSH2 0x12B8 JUMPI JUMPDEST POP PUSH1 0x40 MLOAD SWAP1 PUSH4 0x82C947B7 PUSH1 0xE0 SHL DUP3 MSTORE ADDRESS PUSH1 0x4 DUP4 ADD MSTORE PUSH1 0x20 DUP3 DUP7 DUP2 PUSH20 0x0 GAS DELEGATECALL SWAP2 DUP3 ISZERO PUSH2 0x5A3 JUMPI PUSH1 0x0 SWAP3 PUSH2 0x1284 JUMPI JUMPDEST POP PUSH2 0xFFFF PUSH1 0xE0 DUP5 ADD MLOAD AND PUSH1 0x0 MSTORE PUSH1 0x8 PUSH1 0x20 MSTORE PUSH1 0x40 PUSH1 0x0 KECCAK256 SLOAD SWAP1 PUSH32 0x0 AND SWAP1 PUSH1 0x40 MLOAD SWAP3 PUSH4 0x1A90A219 PUSH1 0xE0 SHL DUP5 MSTORE PUSH1 0x20 DUP5 PUSH1 0x4 DUP2 DUP7 GAS STATICCALL SWAP4 DUP5 ISZERO PUSH2 0x5A3 JUMPI PUSH1 0x0 SWAP5 PUSH2 0x1250 JUMPI JUMPDEST POP PUSH2 0x115F DUP5 CALLVALUE EQ PUSH2 0x16A6 JUMP JUMPDEST PUSH1 0x3 SLOAD SWAP6 PUSH2 0xFFFF PUSH1 0xE0 DUP8 ADD MLOAD AND SWAP1 PUSH1 0x40 MLOAD SWAP8 PUSH1 0x20 DUP10 ADD MSTORE PUSH1 0x40 DUP9 ADD MSTORE PUSH1 0x60 DUP8 ADD MSTORE PUSH1 0x80 DUP7 ADD MSTORE PUSH1 0xA0 DUP6 ADD MSTORE PUSH1 0xA0 DUP5 MSTORE PUSH1 0xC0 DUP5 ADD SWAP5 DUP5 DUP7 LT PUSH8 0xFFFFFFFFFFFFFFFF DUP8 GT OR PUSH2 0x123C JUMPI POP DUP5 PUSH1 0x20 SWAP2 DUP2 PUSH1 0x40 MSTORE DUP2 PUSH4 0xFFFFFFFF SWAP5 DUP6 PUSH1 0x5 SLOAD AND PUSH4 0x58CD21BF PUSH1 0xE1 SHL DUP4 MSTORE DUP9 PUSH2 0x11D7 DUP2 PUSH1 0xBF NOT SWAP4 PUSH1 0xC4 DUP3 ADD PUSH2 0x1711 JUMP JUMPDEST SUB ADD SWAP3 GAS CALL SWAP3 DUP4 ISZERO PUSH2 0x5A3 JUMPI PUSH1 0x2 SWAP5 PUSH1 0x80 SWAP5 PUSH2 0x1219 JUMPI JUMPDEST POP POP PUSH1 0x5 SLOAD SWAP1 PUSH2 0x11FF DUP2 DUP4 AND PUSH2 0x176C JUMP JUMPDEST AND SWAP1 PUSH4 0xFFFFFFFF NOT AND OR PUSH1 0x5 SSTORE ADD MSTORE PUSH1 0x20 PUSH1 0x40 MLOAD PUSH1 0x1 DUP2 MSTORE RETURN JUMPDEST PUSH1 0xC0 PUSH2 0x1234 SWAP3 PUSH1 0x20 SWAP1 RETURNDATASIZE PUSH1 0x20 GT PUSH2 0x5DA JUMPI PUSH2 0x5C9 DUP3 DUP6 PUSH2 0x1602 JUMP JUMPDEST POP DUP5 DUP1 PUSH2 0x11EE JUMP JUMPDEST PUSH4 0x4E487B71 PUSH1 0xE0 SHL PUSH1 0x0 MSTORE PUSH1 0x41 PUSH1 0x4 MSTORE PUSH1 0x0 REVERT JUMPDEST SWAP1 SWAP4 POP PUSH1 0x20 DUP2 RETURNDATASIZE PUSH1 0x20 GT PUSH2 0x127C JUMPI JUMPDEST DUP2 PUSH2 0x126C PUSH1 0x20 SWAP4 DUP4 PUSH2 0x1602 JUMP JUMPDEST DUP2 ADD SUB SLT PUSH2 0xD3 JUMPI MLOAD SWAP3 DUP8 PUSH2 0x1153 JUMP JUMPDEST RETURNDATASIZE SWAP2 POP PUSH2 0x125F JUMP JUMPDEST SWAP1 SWAP2 POP PUSH1 0x20 DUP2 RETURNDATASIZE PUSH1 0x20 GT PUSH2 0x12B0 JUMPI JUMPDEST DUP2 PUSH2 0x12A0 PUSH1 0x20 SWAP4 DUP4 PUSH2 0x1602 JUMP JUMPDEST DUP2 ADD SUB SLT PUSH2 0xD3 JUMPI MLOAD SWAP1 DUP6 PUSH2 0x10F1 JUMP JUMPDEST RETURNDATASIZE SWAP2 POP PUSH2 0x1293 JUMP JUMPDEST PUSH2 0x12D0 SWAP1 PUSH1 0x20 RETURNDATASIZE PUSH1 0x20 GT PUSH2 0x6F0 JUMPI PUSH2 0x6E1 DUP2 DUP4 PUSH2 0x1602 JUMP JUMPDEST POP DUP5 PUSH2 0x10B1 JUMP JUMPDEST PUSH2 0x12EF SWAP2 SWAP3 POP DUP5 RETURNDATASIZE DUP7 GT PUSH2 0x721 JUMPI PUSH2 0x712 DUP2 DUP4 PUSH2 0x1602 JUMP JUMPDEST SWAP1 DUP10 PUSH2 0x106E JUMP JUMPDEST PUSH1 0x64 DUP5 PUSH1 0x11 PUSH1 0x40 MLOAD SWAP2 PUSH3 0x461BCD PUSH1 0xE5 SHL DUP4 MSTORE PUSH1 0x20 PUSH1 0x4 DUP5 ADD MSTORE DUP3 ADD MSTORE PUSH32 0x556E617574686F72697A6564206C6F616E000000000000000000000000000000 PUSH1 0x44 DUP3 ADD MSTORE REVERT JUMPDEST PUSH2 0x1353 SWAP2 POP PUSH1 0x20 RETURNDATASIZE PUSH1 0x20 GT PUSH2 0x721 JUMPI PUSH2 0x712 DUP2 DUP4 PUSH2 0x1602 JUMP JUMPDEST DUP5 PUSH2 0xFCD JUMP JUMPDEST CALLVALUE PUSH2 0xD3 JUMPI PUSH1 0x40 CALLDATASIZE PUSH1 0x3 NOT ADD SLT PUSH2 0xD3 JUMPI PUSH4 0xFFFFFFFF PUSH2 0x1377 PUSH2 0x154E JUMP JUMPDEST PUSH2 0x137F PUSH2 0x1838 JUMP JUMPDEST AND DUP1 PUSH1 0x0 MSTORE PUSH1 0x20 PUSH1 0x6 DUP2 MSTORE PUSH2 0x139C PUSH1 0xFF PUSH1 0x40 PUSH1 0x0 KECCAK256 SLOAD AND ISZERO PUSH2 0x1572 JUMP JUMPDEST PUSH1 0x24 CALLDATALOAD PUSH1 0x0 MSTORE PUSH1 0x9 DUP2 MSTORE PUSH1 0x40 PUSH1 0x0 KECCAK256 SWAP2 PUSH1 0x40 MLOAD SWAP3 PUSH2 0x13B9 DUP5 PUSH2 0x15C9 JUMP JUMPDEST DUP1 SLOAD DUP5 MSTORE PUSH1 0x1 DUP2 ADD SLOAD SWAP4 DUP4 DUP2 ADD SWAP5 DUP6 MSTORE PUSH1 0x2 DUP3 ADD SLOAD SWAP5 PUSH1 0x40 DUP3 ADD SWAP6 DUP7 MSTORE PUSH1 0x4 PUSH1 0xFF PUSH1 0x3 DUP6 ADD SLOAD AND SWAP4 PUSH2 0x13EF PUSH1 0x60 DUP6 ADD SWAP6 DUP7 PUSH2 0x15BD JUMP JUMPDEST ADD SLOAD PUSH1 0x80 DUP4 ADD MSTORE DUP3 MLOAD PUSH1 0x4 DUP2 LT ISZERO PUSH2 0x559 JUMPI PUSH1 0x1 PUSH2 0x140D SWAP2 EQ PUSH2 0x1624 JUMP JUMPDEST MLOAD SWAP1 PUSH20 0x0 SWAP2 PUSH1 0x40 MLOAD SWAP1 PUSH4 0x2E7682C7 PUSH1 0xE1 SHL SWAP1 DUP2 DUP4 MSTORE PUSH1 0x4 DUP4 ADD MSTORE DUP7 DUP3 PUSH1 0x24 DUP2 DUP8 GAS DELEGATECALL SWAP3 DUP4 ISZERO PUSH2 0x5A3 JUMPI DUP8 SWAP3 PUSH1 0x0 SWAP5 PUSH2 0x152C JUMPI JUMPDEST POP PUSH1 0x24 SWAP1 MLOAD SWAP2 PUSH1 0x40 MLOAD SWAP6 DUP7 SWAP4 DUP5 SWAP3 DUP4 MSTORE PUSH1 0x4 DUP4 ADD MSTORE GAS DELEGATECALL SWAP1 DUP2 ISZERO PUSH2 0x5A3 JUMPI PUSH2 0x14BE SWAP7 DUP7 SWAP4 PUSH1 0x0 SWAP4 PUSH2 0x150D JUMPI JUMPDEST POP MLOAD SWAP2 PUSH1 0x0 PUSH1 0x1 PUSH1 0x1 PUSH1 0xA0 SHL SUB PUSH1 0x40 MLOAD DUP1 SWAP11 DUP2 SWAP7 DUP3 SWAP6 PUSH4 0xA9059CBB PUSH1 0xE0 SHL DUP5 MSTORE PUSH1 0x4 DUP5 ADD PUSH1 0x20 SWAP1 SWAP4 SWAP3 SWAP2 SWAP4 PUSH1 0x1 PUSH1 0x1 PUSH1 0xA0 SHL SUB PUSH1 0x40 DUP3 ADD SWAP6 AND DUP2 MSTORE ADD MSTORE JUMP JUMPDEST SUB SWAP4 AND GAS CALL SWAP1 DUP2 ISZERO PUSH2 0x5A3 JUMPI PUSH1 0x6 SWAP5 PUSH1 0x2 SWAP3 PUSH2 0x14F0 JUMPI JUMPDEST POP MSTORE PUSH1 0x0 MSTORE MSTORE PUSH1 0x40 PUSH1 0x0 KECCAK256 PUSH1 0x1 PUSH1 0xFF NOT DUP3 SLOAD AND OR SWAP1 SSTORE PUSH1 0x0 DUP1 RETURN JUMPDEST PUSH2 0x1506 SWAP1 DUP6 RETURNDATASIZE DUP8 GT PUSH2 0x6F0 JUMPI PUSH2 0x6E1 DUP2 DUP4 PUSH2 0x1602 JUMP JUMPDEST POP DUP6 PUSH2 0x14D5 JUMP JUMPDEST PUSH2 0x1525 SWAP2 SWAP4 POP DUP5 RETURNDATASIZE DUP7 GT PUSH2 0x721 JUMPI PUSH2 0x712 DUP2 DUP4 PUSH2 0x1602 JUMP JUMPDEST SWAP2 DUP9 PUSH2 0x147F JUMP JUMPDEST PUSH1 0x24 SWAP2 SWAP5 POP PUSH2 0x1547 SWAP1 DUP5 RETURNDATASIZE DUP7 GT PUSH2 0x721 JUMPI PUSH2 0x712 DUP2 DUP4 PUSH2 0x1602 JUMP JUMPDEST SWAP4 SWAP1 PUSH2 0x1453 JUMP JUMPDEST PUSH1 0x4 CALLDATALOAD SWAP1 PUSH4 0xFFFFFFFF DUP3 AND DUP3 SUB PUSH2 0xD3 JUMPI JUMP JUMPDEST PUSH1 0x4 CALLDATALOAD SWAP1 PUSH2 0xFFFF DUP3 AND DUP3 SUB PUSH2 0xD3 JUMPI JUMP JUMPDEST ISZERO PUSH2 0x1579 JUMPI JUMP JUMPDEST PUSH1 0x64 PUSH1 0x40 MLOAD PUSH3 0x461BCD PUSH1 0xE5 SHL DUP2 MSTORE PUSH1 0x20 PUSH1 0x4 DUP3 ADD MSTORE PUSH1 0x1B PUSH1 0x24 DUP3 ADD MSTORE PUSH32 0x4E6F6E63652077617320616C72656164792065786563757465642E0000000000 PUSH1 0x44 DUP3 ADD MSTORE REVERT JUMPDEST PUSH1 0x4 DUP3 LT ISZERO PUSH2 0x559 JUMPI MSTORE JUMP JUMPDEST PUSH1 0xA0 DUP2 ADD SWAP1 DUP2 LT PUSH8 0xFFFFFFFFFFFFFFFF DUP3 GT OR PUSH2 0x5E2 JUMPI PUSH1 0x40 MSTORE JUMP JUMPDEST PUSH2 0x100 DUP2 ADD SWAP1 DUP2 LT PUSH8 0xFFFFFFFFFFFFFFFF DUP3 GT OR PUSH2 0x5E2 JUMPI PUSH1 0x40 MSTORE JUMP JUMPDEST SWAP1 PUSH1 0x1F DUP1 NOT SWAP2 ADD AND DUP2 ADD SWAP1 DUP2 LT PUSH8 0xFFFFFFFFFFFFFFFF DUP3 GT OR PUSH2 0x5E2 JUMPI PUSH1 0x40 MSTORE JUMP JUMPDEST ISZERO PUSH2 0x162B JUMPI JUMP JUMPDEST PUSH1 0x64 PUSH1 0x40 MLOAD PUSH3 0x461BCD PUSH1 0xE5 SHL DUP2 MSTORE PUSH1 0x20 PUSH1 0x4 DUP3 ADD MSTORE PUSH1 0x12 PUSH1 0x24 DUP3 ADD MSTORE PUSH32 0x4C6F616E206973206E6F74206163746976650000000000000000000000000000 PUSH1 0x44 DUP3 ADD MSTORE REVERT JUMPDEST SWAP1 DUP2 PUSH1 0x20 SWAP2 SUB SLT PUSH2 0xD3 JUMPI MLOAD PUSH1 0x1 PUSH1 0x1 PUSH1 0xA0 SHL SUB DUP2 AND DUP2 SUB PUSH2 0xD3 JUMPI SWAP1 JUMP JUMPDEST SWAP1 DUP2 PUSH1 0x20 SWAP2 SUB SLT PUSH2 0xD3 JUMPI MLOAD DUP1 ISZERO ISZERO DUP2 SUB PUSH2 0xD3 JUMPI SWAP1 JUMP JUMPDEST ISZERO PUSH2 0x16AD JUMPI JUMP JUMPDEST PUSH1 0x64 PUSH1 0x40 MLOAD PUSH3 0x461BCD PUSH1 0xE5 SHL DUP2 MSTORE PUSH1 0x20 PUSH1 0x4 DUP3 ADD MSTORE PUSH1 0x18 PUSH1 0x24 DUP3 ADD MSTORE PUSH32 0x496E73756666696369656E74206D657373616765206665650000000000000000 PUSH1 0x44 DUP3 ADD MSTORE REVERT JUMPDEST SWAP1 DUP2 PUSH1 0x20 SWAP2 SUB SLT PUSH2 0xD3 JUMPI MLOAD PUSH8 0xFFFFFFFFFFFFFFFF DUP2 AND DUP2 SUB PUSH2 0xD3 JUMPI SWAP1 JUMP JUMPDEST SWAP3 SWAP2 SWAP1 PUSH4 0xFFFFFFFF AND DUP4 MSTORE PUSH1 0x20 PUSH1 0x60 PUSH1 0x20 DUP6 ADD MSTORE DUP2 MLOAD SWAP2 DUP3 PUSH1 0x60 DUP7 ADD MSTORE PUSH1 0x0 JUMPDEST DUP4 DUP2 LT PUSH2 0x1758 JUMPI POP POP POP PUSH1 0x40 PUSH1 0x80 DUP3 PUSH1 0x0 DUP3 DUP2 SWAP6 DUP9 ADD ADD MSTORE PUSH1 0x1F DUP1 NOT SWAP2 ADD AND DUP6 ADD ADD SWAP4 ADD MSTORE JUMP JUMPDEST DUP2 DUP2 ADD DUP4 ADD MLOAD DUP7 DUP3 ADD PUSH1 0x80 ADD MSTORE DUP3 ADD PUSH2 0x1731 JUMP JUMPDEST PUSH4 0xFFFFFFFF DUP1 SWAP2 AND SWAP1 DUP2 EQ PUSH2 0x1781 JUMPI PUSH1 0x1 ADD SWAP1 JUMP JUMPDEST PUSH4 0x4E487B71 PUSH1 0xE0 SHL PUSH1 0x0 MSTORE PUSH1 0x11 PUSH1 0x4 MSTORE PUSH1 0x24 PUSH1 0x0 REVERT JUMPDEST PUSH1 0xC SLOAD DUP2 LT ISZERO PUSH2 0x17CE JUMPI PUSH1 0xC PUSH1 0x0 MSTORE PUSH32 0xDF6966C971051C3D54EC59162606531493A51404A002842F56009D7E5CF4A8C7 ADD SWAP1 PUSH1 0x0 SWAP1 JUMP JUMPDEST PUSH4 0x4E487B71 PUSH1 0xE0 SHL PUSH1 0x0 MSTORE PUSH1 0x32 PUSH1 0x4 MSTORE PUSH1 0x24 PUSH1 0x0 REVERT JUMPDEST SWAP1 PUSH1 0x4 DUP2 LT ISZERO PUSH2 0x559 JUMPI PUSH1 0xFF DUP1 NOT DUP4 SLOAD AND SWAP2 AND OR SWAP1 SSTORE JUMP JUMPDEST PUSH1 0xC SLOAD SWAP1 PUSH1 0x0 JUMPDEST DUP3 DUP2 LT PUSH2 0x1812 JUMPI POP POP POP PUSH1 0x0 SWAP1 JUMP JUMPDEST DUP2 PUSH2 0x181C DUP3 PUSH2 0x1797 JUMP JUMPDEST SWAP1 SLOAD SWAP1 PUSH1 0x3 SHL SHR EQ PUSH2 0x1830 JUMPI PUSH1 0x1 ADD PUSH2 0x1803 JUMP JUMPDEST POP POP POP PUSH1 0x1 SWAP1 JUMP JUMPDEST PUSH1 0x1 PUSH1 0x1 PUSH1 0xA0 SHL SUB PUSH1 0x0 SLOAD AND CALLER SUB PUSH2 0x184C JUMPI JUMP JUMPDEST PUSH1 0x64 PUSH1 0x40 MLOAD PUSH3 0x461BCD PUSH1 0xE5 SHL DUP2 MSTORE PUSH1 0x20 PUSH1 0x4 DUP3 ADD MSTORE PUSH1 0x20 PUSH1 0x24 DUP3 ADD MSTORE PUSH32 0x4F776E61626C653A2063616C6C6572206973206E6F7420746865206F776E6572 PUSH1 0x44 DUP3 ADD MSTORE REVERT JUMPDEST SWAP2 SWAP1 DUP3 SUB SWAP2 DUP3 GT PUSH2 0x1781 JUMPI JUMP JUMPDEST DUP2 DUP2 MUL SWAP3 SWAP2 DUP2 ISZERO SWAP2 DUP5 DIV EQ OR ISZERO PUSH2 0x1781 JUMPI JUMP JUMPDEST SWAP2 SWAP1 PUSH1 0xFF AND PUSH1 0x64 DUP2 GT PUSH2 0x18D7 JUMPI PUSH1 0x64 PUSH2 0x18CC PUSH2 0x18D4 SWAP3 DUP6 PUSH2 0x189D JUMP JUMPDEST DIV DUP1 SWAP4 PUSH2 0x1890 JUMP JUMPDEST SWAP1 JUMP JUMPDEST PUSH1 0x84 PUSH1 0x40 MLOAD PUSH3 0x461BCD PUSH1 0xE5 SHL DUP2 MSTORE PUSH1 0x20 PUSH1 0x4 DUP3 ADD MSTORE PUSH1 0x24 DUP1 DUP3 ADD MSTORE PUSH32 0x50657263656E74616765206D757374206265206265747765656E203020616E64 PUSH1 0x44 DUP3 ADD MSTORE PUSH32 0x2031303000000000000000000000000000000000000000000000000000000000 PUSH1 0x64 DUP3 ADD MSTORE REVERT INVALID LOG2 PUSH5 0x6970667358 0x22 SLT KECCAK256 PUSH28 0x24F2512B4DD5EEA715867523F8C23AAD7B2C5843E236A3B86DD23D6F 0xF SWAP8 0xBB PUSH5 0x736F6C6343 STOP ADDMOD XOR STOP CALLER "
        },
        "methodIdentifiers": {
          "_isTokenSupported(bytes32)": "f770a695",
          "acceptOwnership()": "79ba5097",
          "addForeignOrbital(uint16,bytes32)": "75f5172e",
          "addSupportedToken(address)": "6d69fcaf",
          "borrow(uint16,bytes32,bytes32,uint256,bytes32)": "d80b52b6",
          "getAmountOut(bytes32,bytes32,uint256,uint8)": "7b76ba8a",
          "owner()": "8da5cb5b",
          "pendingOwner()": "e30c3978",
          "receiveOnBorrow(uint32,bytes32,bytes32,uint16,bytes32,bytes32,bytes32,uint256)": "5bdea914",
          "receiveOnRepay(uint32,bytes32)": "0b3735fb",
          "renounceOwnership()": "715018a6",
          "repay(bytes32)": "563dd613",
          "transferOwnership(address)": "f2fde38b"
        }
      }
    }
  }
}