{
  "contracts/libraries/AddressToBytes32.sol": {
    "AddressToBytes32": {
      "abi": [
        {
          "inputs": [
            {
              "internalType": "address",
              "name": "_address",
              "type": "address"
            }
          ],
          "name": "addressToBytes32",
          "outputs": [
            {
              "internalType": "bytes32",
              "name": "",
              "type": "bytes32"
            }
          ],
          "stateMutability": "pure",
          "type": "function"
        },
        {
          "inputs": [
            {
              "internalType": "bytes32",
              "name": "_bytes",
              "type": "bytes32"
            }
          ],
          "name": "bytes32ToAddress",
          "outputs": [
            {
              "internalType": "address",
              "name": "",
              "type": "address"
            }
          ],
          "stateMutability": "pure",
          "type": "function"
        }
      ],
      "evm": {
        "bytecode": {
          "linkReferences": {},
          "object": "608080604052346100195760d4908161001f823930815050f35b600080fdfe6080806040526004361015601257600080fd5b600090813560e01c9081635ced058e14607157506382c947b714603457600080fd5b6020366003190112606e5760043573ffffffffffffffffffffffffffffffffffffffff8116809103606a57602090604051908152f35b5080fd5b80fd5b90506020366003190112606a5760209073ffffffffffffffffffffffffffffffffffffffff600435168152f3fea2646970667358221220df7900857bb6a0cc13ccacea32adf7d5c6290e7ae20043215c37a9af6582229364736f6c63430008180033",
          "opcodes": "PUSH1 0x80 DUP1 PUSH1 0x40 MSTORE CALLVALUE PUSH2 0x19 JUMPI PUSH1 0xD4 SWAP1 DUP2 PUSH2 0x1F DUP3 CODECOPY ADDRESS DUP2 POP POP RETURN JUMPDEST PUSH1 0x0 DUP1 REVERT INVALID PUSH1 0x80 DUP1 PUSH1 0x40 MSTORE PUSH1 0x4 CALLDATASIZE LT ISZERO PUSH1 0x12 JUMPI PUSH1 0x0 DUP1 REVERT JUMPDEST PUSH1 0x0 SWAP1 DUP2 CALLDATALOAD PUSH1 0xE0 SHR SWAP1 DUP2 PUSH4 0x5CED058E EQ PUSH1 0x71 JUMPI POP PUSH4 0x82C947B7 EQ PUSH1 0x34 JUMPI PUSH1 0x0 DUP1 REVERT JUMPDEST PUSH1 0x20 CALLDATASIZE PUSH1 0x3 NOT ADD SLT PUSH1 0x6E JUMPI PUSH1 0x4 CALLDATALOAD PUSH20 0xFFFFFFFFFFFFFFFFFFFFFFFFFFFFFFFFFFFFFFFF DUP2 AND DUP1 SWAP2 SUB PUSH1 0x6A JUMPI PUSH1 0x20 SWAP1 PUSH1 0x40 MLOAD SWAP1 DUP2 MSTORE RETURN JUMPDEST POP DUP1 REVERT JUMPDEST DUP1 REVERT JUMPDEST SWAP1 POP PUSH1 0x20 CALLDATASIZE PUSH1 0x3 NOT ADD SLT PUSH1 0x6A JUMPI PUSH1 0x20 SWAP1 PUSH20 0xFFFFFFFFFFFFFFFFFFFFFFFFFFFFFFFFFFFFFFFF PUSH1 0x4 CALLDATALOAD AND DUP2 MSTORE RETURN INVALID LOG2 PUSH5 0x6970667358 0x22 SLT KECCAK256 0xDF PUSH26 0x857BB6A0CC13CCACEA32ADF7D5C6290E7AE20043215C37A9AF PUSH6 0x82229364736F PUSH13 0x63430008180033000000000000 "
        },
        "methodIdentifiers": {
          "addressToBytes32(address)": "82c947b7",
          "bytes32ToAddress(bytes32)": "5ced058e"
        }
      }
    }
  }
}