{
  "contracts/Orbital.sol": {
    "Orbital": {
      "abi": [
        {
          "inputs": [
            {
              "internalType": "address",
              "name": "priceFeeds",
              "type": "address"
            },
            {
              "internalType": "address",
              "name": "wormhole",
              "type": "address"
            }
          ],
          "stateMutability": "nonpayable",
          "type": "constructor"
        },
        {
          "anonymous": false,
          "inputs": [
            {
              "indexed": true,
              "internalType": "address",
              "name": "previousOwner",
              "type": "address"
            },
            {
              "indexed": true,
              "internalType": "address",
              "name": "newOwner",
              "type": "address"
            }
          ],
          "name": "OwnershipTransferStarted",
          "type": "event"
        },
        {
          "anonymous": false,
          "inputs": [
            {
              "indexed": true,
              "internalType": "address",
              "name": "previousOwner",
              "type": "address"
            },
            {
              "indexed": true,
              "internalType": "address",
              "name": "newOwner",
              "type": "address"
            }
          ],
          "name": "OwnershipTransferred",
          "type": "event"
        },
        {
          "inputs": [
            {
              "internalType": "bytes32",
              "name": "tokenId",
              "type": "bytes32"
            }
          ],
          "name": "_isTokenSupported",
          "outputs": [
            {
              "internalType": "bool",
              "name": "",
              "type": "bool"
            }
          ],
          "stateMutability": "view",
          "type": "function"
        },
        {
          "inputs": [],
          "name": "acceptOwnership",
          "outputs": [],
          "stateMutability": "nonpayable",
          "type": "function"
        },
        {
          "inputs": [
            {
              "internalType": "uint16",
              "name": "chainId",
              "type": "uint16"
            },
            {
              "internalType": "bytes32",
              "name": "orbital",
              "type": "bytes32"
            }
          ],
          "name": "addForeignOrbital",
          "outputs": [],
          "stateMutability": "nonpayable",
          "type": "function"
        },
        {
          "inputs": [
            {
              "internalType": "address",
              "name": "token",
              "type": "address"
            },
            {
              "internalType": "uint256",
              "name": "interestRate",
              "type": "uint256"
            }
          ],
          "name": "addSupportedToken",
          "outputs": [],
          "stateMutability": "nonpayable",
          "type": "function"
        },
        {
          "inputs": [
            {
              "internalType": "uint16",
              "name": "toChainId",
              "type": "uint16"
            },
            {
              "internalType": "bytes32",
              "name": "tokenIn",
              "type": "bytes32"
            },
            {
              "internalType": "bytes32",
              "name": "tokenOut",
              "type": "bytes32"
            },
            {
              "internalType": "uint256",
              "name": "value",
              "type": "uint256"
            },
            {
              "internalType": "bytes32",
              "name": "receiver",
              "type": "bytes32"
            }
          ],
          "name": "borrow",
          "outputs": [
            {
              "internalType": "bytes32",
              "name": "",
              "type": "bytes32"
            }
          ],
          "stateMutability": "payable",
          "type": "function"
        },
        {
          "inputs": [
            {
              "internalType": "bytes32",
              "name": "tokenIn",
              "type": "bytes32"
            },
            {
              "internalType": "bytes32",
              "name": "tokenOut",
              "type": "bytes32"
            },
            {
              "internalType": "uint256",
              "name": "amountIn",
              "type": "uint256"
            },
            {
              "internalType": "uint8",
              "name": "ltv",
              "type": "uint8"
            }
          ],
          "name": "getAmountOut",
          "outputs": [
            {
              "internalType": "uint256",
              "name": "",
              "type": "uint256"
            }
          ],
          "stateMutability": "view",
          "type": "function"
        },
        {
          "inputs": [],
          "name": "owner",
          "outputs": [
            {
              "internalType": "address",
              "name": "",
              "type": "address"
            }
          ],
          "stateMutability": "view",
          "type": "function"
        },
        {
          "inputs": [],
          "name": "pendingOwner",
          "outputs": [
            {
              "internalType": "address",
              "name": "",
              "type": "address"
            }
          ],
          "stateMutability": "view",
          "type": "function"
        },
        {
          "inputs": [
            {
              "internalType": "uint32",
              "name": "wormholeNonce",
              "type": "uint32"
            },
            {
              "internalType": "bytes32",
              "name": "loanId",
              "type": "bytes32"
            },
            {
              "internalType": "bytes32",
              "name": "receiver",
              "type": "bytes32"
            },
            {
              "internalType": "uint16",
              "name": "fromChainId",
              "type": "uint16"
            },
            {
              "internalType": "bytes32",
              "name": "fromContractId",
              "type": "bytes32"
            },
            {
              "internalType": "bytes32",
              "name": "tokenIn",
              "type": "bytes32"
            },
            {
              "internalType": "bytes32",
              "name": "tokenOut",
              "type": "bytes32"
            },
            {
              "internalType": "uint256",
              "name": "value",
              "type": "uint256"
            }
          ],
          "name": "receiveOnBorrow",
          "outputs": [],
          "stateMutability": "nonpayable",
          "type": "function"
        },
        {
          "inputs": [
            {
              "internalType": "uint32",
              "name": "wormholeNonce",
              "type": "uint32"
            },
            {
              "internalType": "bytes32",
              "name": "loanId",
              "type": "bytes32"
            }
          ],
          "name": "receiveOnRepay",
          "outputs": [],
          "stateMutability": "nonpayable",
          "type": "function"
        },
        {
          "inputs": [],
          "name": "renounceOwnership",
          "outputs": [],
          "stateMutability": "nonpayable",
          "type": "function"
        },
        {
          "inputs": [
            {
              "internalType": "bytes32",
              "name": "loanId",
              "type": "bytes32"
            }
          ],
          "name": "repay",
          "outputs": [
            {
              "internalType": "bool",
              "name": "",
              "type": "bool"
            }
          ],
          "stateMutability": "payable",
          "type": "function"
        },
        {
          "inputs": [
            {
              "internalType": "address",
              "name": "newOwner",
              "type": "address"
            }
          ],
          "name": "transferOwnership",
          "outputs": [],
          "stateMutability": "nonpayable",
          "type": "function"
        }
      ],
      "evm": {
        "bytecode": {
          "linkReferences": {
            "contracts/libraries/AddressToBytes32.sol": {
              "AddressToBytes32": [
                {
                  "length": 20,
                  "start": 825
                },
                {
                  "length": 20,
                  "start": 1143
                },
                {
                  "length": 20,
                  "start": 1287
                },
                {
                  "length": 20,
                  "start": 1547
                },
                {
                  "length": 20,
                  "start": 3122
                },
                {
                  "length": 20,
                  "start": 4155
                },
                {
                  "length": 20,
                  "start": 4307
                },
                {
                  "length": 20,
                  "start": 4447
                },
                {
                  "length": 20,
                  "start": 5134
                },
                {
                  "length": 20,
                  "start": 5604
                }
              ]
            }
          },
          "object": "60a03461014157601f611b5f38819003918201601f19168301916001600160401b0383118484101761014657808492604094855283398101031261014157610052602061004b8361015c565b920161015c565b600180546001600160a01b0319908116909155600080543381841681178355604051956001600160a01b0395949386939192918416907f8be0079c531659141344cd1fd0a4f28419497f9722a3daafe3b4186f6b6457e09080a36f13d397d093d49493d5d7d351551213d160821b6002556e13d397d49154105657d351551213d1608a1b6003557013d397d111519055531517d351551213d1607a1b6004556007805460ff191660501790556005805463ffffffff19166001179055600d80549093169116179055166080526119ee908161017182396080518181816102ac0152818161044e015261102d0152f35b600080fd5b634e487b7160e01b600052604160045260246000fd5b51906001600160a01b03821682036101415756fe6080604052600436101561001257600080fd5b60003560e01c80630b3735fb146113bb5780634d8e3d3b1461127a578063563dd61314610e0c5780635bdea91414610a1f578063715018a6146109b057806375f5172e1461097557806379ba5097146108945780637b76ba8a146107d65780638da5cb5b146107af578063d80b52b614610176578063e30c39781461014f578063f2fde38b146100d85763f770a695146100ab57600080fd5b346100d35760203660031901126100d35760206100c9600435611874565b6040519015158152f35b600080fd5b346100d35760203660031901126100d3576100f16115c3565b6100f96118b0565b6001600160a01b03809116908173ffffffffffffffffffffffffffffffffffffffff196001541617600155600054167f38d16b8cac22d99fc7c124b9cd0de2d3fa1faef420bfe791d8c362d765e22700600080a3005b346100d35760003660031901126100d35760206001600160a01b0360015416604051908152f35b60a03660031901126100d35761018a6115d9565b610195602435611874565b1561076b576101a5604435611874565b156107275760405190632e7682c760e11b8252602435600483015260208260248173__$cd1346a8e2955df852b4501a7004a2b636$__5af49182156105a2576000926106f6575b506040516323b872dd60e01b81523360048201523060248201526064803560448301526001600160a01b03936020918391829060009088165af180156105a2576106c7575b5081600d54166020604051809263f52b31f160e01b82528180610270606435604435602435600485016040919493926060820195825260208201520152565b03915afa80156105a257600090610693575b610293915060ff6007541690611928565b509160405190631a90a21960e01b8252602082600481847f0000000000000000000000000000000000000000000000000000000000000000165afa9182156105a25760009261065f575b506102ea8234101561176b565b604051936382c947b760e01b855230600486015260208560248173__$cd1346a8e2955df852b4501a7004a2b636$__5af49485156105a25760009561062b575b5061ffff8416600052600860205260406000205463ffffffff600554166040516020810191338352608435604083015260608201524260808201526080815261037281611635565b5190209560025495604051906382c947b760e01b825233600483015260208260248173__$cd1346a8e2955df852b4501a7004a2b636$__5af480156105a2576000906105f7575b61ffff92506040519860208a01528960408a0152606089015260843560808901521660a087015260c086015260e085015260443561010085015261012090818501528352610140908184019284841067ffffffffffffffff8511176105e1576020918480928160405263ffffffff600554166358cd21bf60e11b8352886104498161013f199361014482016117d6565b0301927f0000000000000000000000000000000000000000000000000000000000000000165af180156105a2576105ae575b505050604051906382c947b760e01b825233600483015260208260248173__$cd1346a8e2955df852b4501a7004a2b636$__5af49182156105a25760009261056e575b50604051916104cc83611635565b82526020820191602435835260408101606435815260608201906001825260808301944286528460005260096020526040600020935184555160018401555160028301555160048110156105585760209361052c6004926003850161185c565b5191015560055463ffffffff610543818316611831565b169063ffffffff191617600555604051908152f35b634e487b7160e01b600052602160045260246000fd5b9091506020813d60201161059a575b8161058a6020938361166e565b810103126100d3575190826104be565b3d915061057d565b6040513d6000823e3d90fd5b6105d0926020903d6020116105d9575b6105c8828561166e565b0101906117b6565b5081808061047b565b3d91506105be565b634e487b7160e01b600052604160045260246000fd5b506020823d602011610623575b816106116020938361166e565b810103126100d35761ffff91516103b9565b3d9150610604565b9094506020813d602011610657575b816106476020938361166e565b810103126100d35751938561032a565b3d915061063a565b9091506020813d60201161068b575b8161067b6020938361166e565b810103126100d3575190846102dd565b3d915061066e565b506020813d6020116106bf575b816106ad6020938361166e565b810103126100d3576102939051610282565b3d91506106a0565b6106e89060203d6020116106ef575b6106e0818361166e565b810190611753565b5082610231565b503d6106d6565b61071991925060203d602011610720575b610711818361166e565b810190611734565b90826101ec565b503d610707565b606460405162461bcd60e51b815260206004820152601760248201527f546f6b656e206f7574206e6f7420737570706f727465640000000000000000006044820152fd5b606460405162461bcd60e51b815260206004820152601660248201527f546f6b656e20696e206e6f7420737570706f72746564000000000000000000006044820152fd5b346100d35760003660031901126100d35760206001600160a01b0360005416604051908152f35b346100d35760803660031901126100d35760643560ff811681036100d3576001600160a01b03600d54166020604051809263f52b31f160e01b82528180610839604435602435600435600485016040919493926060820195825260208201520152565b03915afa9081156105a257600091610861575b60206108588484611928565b50604051908152f35b90506020813d60201161088c575b8161087c6020938361166e565b810103126100d35751602061084c565b3d915061086f565b346100d35760003660031901126100d3576001546001600160a01b03338183160361090b5773ffffffffffffffffffffffffffffffffffffffff198092166001556000549133908316176000553391167f8be0079c531659141344cd1fd0a4f28419497f9722a3daafe3b4186f6b6457e0600080a3005b608460405162461bcd60e51b815260206004820152602960248201527f4f776e61626c6532537465703a2063616c6c6572206973206e6f74207468652060448201527f6e6577206f776e657200000000000000000000000000000000000000000000006064820152fd5b346100d35760403660031901126100d35761ffff6109916115d9565b6109996118b0565b166000526008602052602435604060002055600080f35b346100d35760003660031901126100d3576109c96118b0565b60006001600160a01b0373ffffffffffffffffffffffffffffffffffffffff19806001541660015582549081168355167f8be0079c531659141344cd1fd0a4f28419497f9722a3daafe3b4186f6b6457e08280a3005b346100d3576101003660031901126100d357610a396115b0565b6024908135604435906064359061ffff908183168093036100d35760c4359563ffffffff60e43596610a696118b0565b16948560005260209660068852610a8860ff60406000205416156115ea565b856000526008885260843560406000205403610dc95783600052600a885260ff600460406000200154166004811015610db457610d715773__$cd1346a8e2955df852b4501a7004a2b636$__60405190632e7682c760e11b918281528b60048201528a818781855af49283156105a2578b91600094610d52575b50866040518094819382528860048301525af49081156105a257600091610d35575b50633b9aca0092838102938185041490151715610d2057600d5460405163f52b31f160e01b815260a4356004820152602481018d9052604481019490945292959493926001600160a01b039291908b908890606490829087165afa80156105a2578b97600091610ce7575b5091610bdf9391610ba96000999460ff6007541690611928565b5098899360405180978196829563a9059cbb60e01b845260048401602090939291936001600160a01b0360408201951681520152565b0393165af180156105a257610cca575b5088600052600b88526040600020549360405199610c0c8b611651565b848b52898b0192835260408b0190815260608b0191825260808b01926001845260a08c019542875260c08d0197885260e08d01998a52600052600a8b5260406000209b518c555160018c01555160028b01555160038a015551906004821015610cb65750918791610c84600794600460069b0161185c565b51600583015551878201550191511661ffff19825416179055600052526040600020600160ff19825416179055600080f35b634e487b7160e01b60005260216004526000fd5b610ce090893d8b116106ef576106e0818361166e565b5089610bef565b8881949992509492943d8311610d19575b610d02818361166e565b810103126100d35790518a96919290610bdf610b8f565b503d610cf8565b84634e487b7160e01b60005260116004526000fd5b610d4c91508a3d8c1161072057610711818361166e565b8b610b24565b610d6a919450823d841161072057610711818361166e565b928d610b02565b6064886014856040519262461bcd60e51b845260048401528201527f4c6f616e20616c726561647920637265617465640000000000000000000000006044820152fd5b83634e487b7160e01b60005260216004526000fd5b6064886017856040519262461bcd60e51b845260048401528201527f496e76616c696420666f726569676e206f72626974616c0000000000000000006044820152fd5b60203660031901126100d35760043580600052600a60205260406000209060405191610e3783611651565b8054835261ffff6007600183015492602086019384526002810154604087015260038101546060870152610e7560ff600483015416608088016116dd565b600581015460a0870152600681015460c087015201541660e084015260808301516004811015610558576001610eab91146116e9565b519160405192632e7682c760e11b84526004840152602492602081858173__$cd1346a8e2955df852b4501a7004a2b636$__5af49081156105a25760009161125b575b506001600160a01b039081339116036112175765f7cf9b8d0000610f326060840151610f2d60a0860151610f2760c08801519142611908565b92611915565b611915565b046060830151908101809111610d205760408301519060405191632e7682c760e11b83526004830152602082878173__$cd1346a8e2955df852b4501a7004a2b636$__5af49182156105a2578392602092610fc2926000926111f8575b506040516323b872dd60e01b81523360048201523060248201526044810191909152938492839160009183906064820190565b0393165af180156105a2576111d9575b50604051906382c947b760e01b8252306004830152602082868173__$cd1346a8e2955df852b4501a7004a2b636$__5af49182156105a2576000926111a5575b5061ffff60e0840151166000526008602052604060002054907f0000000000000000000000000000000000000000000000000000000000000000169060405192631a90a21960e01b8452602084600481865afa9384156105a257600094611171575b5061108084341461176b565b6003549561ffff60e0870151169060405197602089015260408801526060870152608086015260a085015260a0845260c084019484861067ffffffffffffffff87111761115d575084602091816040528163ffffffff9485600554166358cd21bf60e11b8352886110f88160bf199360c482016117d6565b0301925af19283156105a25760029460809461113a575b505060055490611120818316611831565b169063ffffffff1916176005550152602060405160018152f35b60c0611155926020903d6020116105d9576105c8828561166e565b50848061110f565b634e487b7160e01b60005260416004526000fd5b9093506020813d60201161119d575b8161118d6020938361166e565b810103126100d357519287611074565b3d9150611180565b9091506020813d6020116111d1575b816111c16020938361166e565b810103126100d357519085611012565b3d91506111b4565b6111f19060203d6020116106ef576106e0818361166e565b5084610fd2565b611210919250843d861161072057610711818361166e565b9089610f8f565b60648460116040519162461bcd60e51b8352602060048401528201527f556e617574686f72697a6564206c6f616e0000000000000000000000000000006044820152fd5b611274915060203d60201161072057610711818361166e565b84610eee565b346100d35760403660031901126100d3576112936115c3565b61129b6118b0565b73__$cd1346a8e2955df852b4501a7004a2b636$__906040516001600160a01b036382c947b760e01b92838352168060048301526020928383602481885af49283156105a25760009361138c575b50600c5490680100000000000000008210156105e157849361131383600160249501600c55611690565b819291549060031b91821b91600019901b19161790556040519586938492835260048301525af480156105a25760009061135e575b600b925060005252602435604060002055600080f35b508082813d8311611385575b611374818361166e565b810103126100d357600b9151611348565b503d61136a565b9092508381813d83116113b4575b6113a4818361166e565b810103126100d3575191856112e9565b503d61139a565b346100d35760403660031901126100d35763ffffffff6113d96115b0565b6113e16118b0565b16806000526020600681526113fe60ff60406000205416156115ea565b602435600052600981526040600020916040519261141b84611635565b8054845260018101549383810194855260028201549460408201958652600460ff600385015416936114516060850195866116dd565b015460808301528251600481101561055857600161146f91146116e9565b519073__$cd1346a8e2955df852b4501a7004a2b636$__9160405190632e7682c760e11b9081835260048301528682602481875af49283156105a257879260009461158e575b5060249051916040519586938492835260048301525af49081156105a25761152096869360009361156f575b50519160006001600160a01b03604051809a8196829563a9059cbb60e01b845260048401602090939291936001600160a01b0360408201951681520152565b0393165af19081156105a257600694600292611552575b5052600052526040600020600160ff19825416179055600080f35b61156890853d87116106ef576106e0818361166e565b5085611537565b611587919350843d861161072057610711818361166e565b91886114e1565b60249194506115a990843d861161072057610711818361166e565b93906114b5565b6004359063ffffffff821682036100d357565b600435906001600160a01b03821682036100d357565b6004359061ffff821682036100d357565b156115f157565b606460405162461bcd60e51b815260206004820152601b60248201527f4e6f6e63652077617320616c72656164792065786563757465642e00000000006044820152fd5b60a0810190811067ffffffffffffffff8211176105e157604052565b610100810190811067ffffffffffffffff8211176105e157604052565b90601f8019910116810190811067ffffffffffffffff8211176105e157604052565b600c548110156116c757600c6000527fdf6966c971051c3d54ec59162606531493a51404a002842f56009d7e5cf4a8c70190600090565b634e487b7160e01b600052603260045260246000fd5b60048210156105585752565b156116f057565b606460405162461bcd60e51b815260206004820152601260248201527f4c6f616e206973206e6f742061637469766500000000000000000000000000006044820152fd5b908160209103126100d357516001600160a01b03811681036100d35790565b908160209103126100d3575180151581036100d35790565b1561177257565b606460405162461bcd60e51b815260206004820152601860248201527f496e73756666696369656e74206d6573736167652066656500000000000000006044820152fd5b908160209103126100d3575167ffffffffffffffff811681036100d35790565b92919063ffffffff16835260206060602085015281519182606086015260005b83811061181d575050506040608082600082819588010152601f8019910116850101930152565b8181018301518682016080015282016117f6565b63ffffffff8091169081146118465760010190565b634e487b7160e01b600052601160045260246000fd5b9060048110156105585760ff80198354169116179055565b600c549060005b82811061188a57505050600090565b8161189482611690565b90549060031b1c146118a85760010161187b565b505050600190565b6001600160a01b036000541633036118c457565b606460405162461bcd60e51b815260206004820152602060248201527f4f776e61626c653a2063616c6c6572206973206e6f7420746865206f776e65726044820152fd5b9190820391821161184657565b8181029291811591840414171561184657565b919060ff166064811161194f57606461194461194c9285611915565b048093611908565b90565b608460405162461bcd60e51b8152602060048201526024808201527f50657263656e74616765206d757374206265206265747765656e203020616e6460448201527f20313030000000000000000000000000000000000000000000000000000000006064820152fdfea264697066735822122060f27c5f7c78ae7dd5100f0f779a8fa68aaab84bc7b6890cdb6504ebde678ef164736f6c63430008180033",
          "opcodes": "PUSH1 0xA0 CALLVALUE PUSH2 0x141 JUMPI PUSH1 0x1F PUSH2 0x1B5F CODESIZE DUP2 SWAP1 SUB SWAP2 DUP3 ADD PUSH1 0x1F NOT AND DUP4 ADD SWAP2 PUSH1 0x1 PUSH1 0x1 PUSH1 0x40 SHL SUB DUP4 GT DUP5 DUP5 LT OR PUSH2 0x146 JUMPI DUP1 DUP5 SWAP3 PUSH1 0x40 SWAP5 DUP6 MSTORE DUP4 CODECOPY DUP2 ADD SUB SLT PUSH2 0x141 JUMPI PUSH2 0x52 PUSH1 0x20 PUSH2 0x4B DUP4 PUSH2 0x15C JUMP JUMPDEST SWAP3 ADD PUSH2 0x15C JUMP JUMPDEST PUSH1 0x1 DUP1 SLOAD PUSH1 0x1 PUSH1 0x1 PUSH1 0xA0 SHL SUB NOT SWAP1 DUP2 AND SWAP1 SWAP2 SSTORE PUSH1 0x0 DUP1 SLOAD CALLER DUP2 DUP5 AND DUP2 OR DUP4 SSTORE PUSH1 0x40 MLOAD SWAP6 PUSH1 0x1 PUSH1 0x1 PUSH1 0xA0 SHL SUB SWAP6 SWAP5 SWAP4 DUP7 SWAP4 SWAP2 SWAP3 SWAP2 DUP5 AND SWAP1 PUSH32 0x8BE0079C531659141344CD1FD0A4F28419497F9722A3DAAFE3B4186F6B6457E0 SWAP1 DUP1 LOG3 PUSH16 0x13D397D093D49493D5D7D351551213D1 PUSH1 0x82 SHL PUSH1 0x2 SSTORE PUSH15 0x13D397D49154105657D351551213D1 PUSH1 0x8A SHL PUSH1 0x3 SSTORE PUSH17 0x13D397D111519055531517D351551213D1 PUSH1 0x7A SHL PUSH1 0x4 SSTORE PUSH1 0x7 DUP1 SLOAD PUSH1 0xFF NOT AND PUSH1 0x50 OR SWAP1 SSTORE PUSH1 0x5 DUP1 SLOAD PUSH4 0xFFFFFFFF NOT AND PUSH1 0x1 OR SWAP1 SSTORE PUSH1 0xD DUP1 SLOAD SWAP1 SWAP4 AND SWAP2 AND OR SWAP1 SSTORE AND PUSH1 0x80 MSTORE PUSH2 0x19EE SWAP1 DUP2 PUSH2 0x171 DUP3 CODECOPY PUSH1 0x80 MLOAD DUP2 DUP2 DUP2 PUSH2 0x2AC ADD MSTORE DUP2 DUP2 PUSH2 0x44E ADD MSTORE PUSH2 0x102D ADD MSTORE RETURN JUMPDEST PUSH1 0x0 DUP1 REVERT JUMPDEST PUSH4 0x4E487B71 PUSH1 0xE0 SHL PUSH1 0x0 MSTORE PUSH1 0x41 PUSH1 0x4 MSTORE PUSH1 0x24 PUSH1 0x0 REVERT JUMPDEST MLOAD SWAP1 PUSH1 0x1 PUSH1 0x1 PUSH1 0xA0 SHL SUB DUP3 AND DUP3 SUB PUSH2 0x141 JUMPI JUMP INVALID PUSH1 0x80 PUSH1 0x40 MSTORE PUSH1 0x4 CALLDATASIZE LT ISZERO PUSH2 0x12 JUMPI PUSH1 0x0 DUP1 REVERT JUMPDEST PUSH1 0x0 CALLDATALOAD PUSH1 0xE0 SHR DUP1 PUSH4 0xB3735FB EQ PUSH2 0x13BB JUMPI DUP1 PUSH4 0x4D8E3D3B EQ PUSH2 0x127A JUMPI DUP1 PUSH4 0x563DD613 EQ PUSH2 0xE0C JUMPI DUP1 PUSH4 0x5BDEA914 EQ PUSH2 0xA1F JUMPI DUP1 PUSH4 0x715018A6 EQ PUSH2 0x9B0 JUMPI DUP1 PUSH4 0x75F5172E EQ PUSH2 0x975 JUMPI DUP1 PUSH4 0x79BA5097 EQ PUSH2 0x894 JUMPI DUP1 PUSH4 0x7B76BA8A EQ PUSH2 0x7D6 JUMPI DUP1 PUSH4 0x8DA5CB5B EQ PUSH2 0x7AF JUMPI DUP1 PUSH4 0xD80B52B6 EQ PUSH2 0x176 JUMPI DUP1 PUSH4 0xE30C3978 EQ PUSH2 0x14F JUMPI DUP1 PUSH4 0xF2FDE38B EQ PUSH2 0xD8 JUMPI PUSH4 0xF770A695 EQ PUSH2 0xAB JUMPI PUSH1 0x0 DUP1 REVERT JUMPDEST CALLVALUE PUSH2 0xD3 JUMPI PUSH1 0x20 CALLDATASIZE PUSH1 0x3 NOT ADD SLT PUSH2 0xD3 JUMPI PUSH1 0x20 PUSH2 0xC9 PUSH1 0x4 CALLDATALOAD PUSH2 0x1874 JUMP JUMPDEST PUSH1 0x40 MLOAD SWAP1 ISZERO ISZERO DUP2 MSTORE RETURN JUMPDEST PUSH1 0x0 DUP1 REVERT JUMPDEST CALLVALUE PUSH2 0xD3 JUMPI PUSH1 0x20 CALLDATASIZE PUSH1 0x3 NOT ADD SLT PUSH2 0xD3 JUMPI PUSH2 0xF1 PUSH2 0x15C3 JUMP JUMPDEST PUSH2 0xF9 PUSH2 0x18B0 JUMP JUMPDEST PUSH1 0x1 PUSH1 0x1 PUSH1 0xA0 SHL SUB DUP1 SWAP2 AND SWAP1 DUP2 PUSH20 0xFFFFFFFFFFFFFFFFFFFFFFFFFFFFFFFFFFFFFFFF NOT PUSH1 0x1 SLOAD AND OR PUSH1 0x1 SSTORE PUSH1 0x0 SLOAD AND PUSH32 0x38D16B8CAC22D99FC7C124B9CD0DE2D3FA1FAEF420BFE791D8C362D765E22700 PUSH1 0x0 DUP1 LOG3 STOP JUMPDEST CALLVALUE PUSH2 0xD3 JUMPI PUSH1 0x0 CALLDATASIZE PUSH1 0x3 NOT ADD SLT PUSH2 0xD3 JUMPI PUSH1 0x20 PUSH1 0x1 PUSH1 0x1 PUSH1 0xA0 SHL SUB PUSH1 0x1 SLOAD AND PUSH1 0x40 MLOAD SWAP1 DUP2 MSTORE RETURN JUMPDEST PUSH1 0xA0 CALLDATASIZE PUSH1 0x3 NOT ADD SLT PUSH2 0xD3 JUMPI PUSH2 0x18A PUSH2 0x15D9 JUMP JUMPDEST PUSH2 0x195 PUSH1 0x24 CALLDATALOAD PUSH2 0x1874 JUMP JUMPDEST ISZERO PUSH2 0x76B JUMPI PUSH2 0x1A5 PUSH1 0x44 CALLDATALOAD PUSH2 0x1874 JUMP JUMPDEST ISZERO PUSH2 0x727 JUMPI PUSH1 0x40 MLOAD SWAP1 PUSH4 0x2E7682C7 PUSH1 0xE1 SHL DUP3 MSTORE PUSH1 0x24 CALLDATALOAD PUSH1 0x4 DUP4 ADD MSTORE PUSH1 0x20 DUP3 PUSH1 0x24 DUP2 PUSH20 0x0 GAS DELEGATECALL SWAP2 DUP3 ISZERO PUSH2 0x5A2 JUMPI PUSH1 0x0 SWAP3 PUSH2 0x6F6 JUMPI JUMPDEST POP PUSH1 0x40 MLOAD PUSH4 0x23B872DD PUSH1 0xE0 SHL DUP2 MSTORE CALLER PUSH1 0x4 DUP3 ADD MSTORE ADDRESS PUSH1 0x24 DUP3 ADD MSTORE PUSH1 0x64 DUP1 CALLDATALOAD PUSH1 0x44 DUP4 ADD MSTORE PUSH1 0x1 PUSH1 0x1 PUSH1 0xA0 SHL SUB SWAP4 PUSH1 0x20 SWAP2 DUP4 SWAP2 DUP3 SWAP1 PUSH1 0x0 SWAP1 DUP9 AND GAS CALL DUP1 ISZERO PUSH2 0x5A2 JUMPI PUSH2 0x6C7 JUMPI JUMPDEST POP DUP2 PUSH1 0xD SLOAD AND PUSH1 0x20 PUSH1 0x40 MLOAD DUP1 SWAP3 PUSH4 0xF52B31F1 PUSH1 0xE0 SHL DUP3 MSTORE DUP2 DUP1 PUSH2 0x270 PUSH1 0x64 CALLDATALOAD PUSH1 0x44 CALLDATALOAD PUSH1 0x24 CALLDATALOAD PUSH1 0x4 DUP6 ADD PUSH1 0x40 SWAP2 SWAP5 SWAP4 SWAP3 PUSH1 0x60 DUP3 ADD SWAP6 DUP3 MSTORE PUSH1 0x20 DUP3 ADD MSTORE ADD MSTORE JUMP JUMPDEST SUB SWAP2 GAS STATICCALL DUP1 ISZERO PUSH2 0x5A2 JUMPI PUSH1 0x0 SWAP1 PUSH2 0x693 JUMPI JUMPDEST PUSH2 0x293 SWAP2 POP PUSH1 0xFF PUSH1 0x7 SLOAD AND SWAP1 PUSH2 0x1928 JUMP JUMPDEST POP SWAP2 PUSH1 0x40 MLOAD SWAP1 PUSH4 0x1A90A219 PUSH1 0xE0 SHL DUP3 MSTORE PUSH1 0x20 DUP3 PUSH1 0x4 DUP2 DUP5 PUSH32 0x0 AND GAS STATICCALL SWAP2 DUP3 ISZERO PUSH2 0x5A2 JUMPI PUSH1 0x0 SWAP3 PUSH2 0x65F JUMPI JUMPDEST POP PUSH2 0x2EA DUP3 CALLVALUE LT ISZERO PUSH2 0x176B JUMP JUMPDEST PUSH1 0x40 MLOAD SWAP4 PUSH4 0x82C947B7 PUSH1 0xE0 SHL DUP6 MSTORE ADDRESS PUSH1 0x4 DUP7 ADD MSTORE PUSH1 0x20 DUP6 PUSH1 0x24 DUP2 PUSH20 0x0 GAS DELEGATECALL SWAP5 DUP6 ISZERO PUSH2 0x5A2 JUMPI PUSH1 0x0 SWAP6 PUSH2 0x62B JUMPI JUMPDEST POP PUSH2 0xFFFF DUP5 AND PUSH1 0x0 MSTORE PUSH1 0x8 PUSH1 0x20 MSTORE PUSH1 0x40 PUSH1 0x0 KECCAK256 SLOAD PUSH4 0xFFFFFFFF PUSH1 0x5 SLOAD AND PUSH1 0x40 MLOAD PUSH1 0x20 DUP2 ADD SWAP2 CALLER DUP4 MSTORE PUSH1 0x84 CALLDATALOAD PUSH1 0x40 DUP4 ADD MSTORE PUSH1 0x60 DUP3 ADD MSTORE TIMESTAMP PUSH1 0x80 DUP3 ADD MSTORE PUSH1 0x80 DUP2 MSTORE PUSH2 0x372 DUP2 PUSH2 0x1635 JUMP JUMPDEST MLOAD SWAP1 KECCAK256 SWAP6 PUSH1 0x2 SLOAD SWAP6 PUSH1 0x40 MLOAD SWAP1 PUSH4 0x82C947B7 PUSH1 0xE0 SHL DUP3 MSTORE CALLER PUSH1 0x4 DUP4 ADD MSTORE PUSH1 0x20 DUP3 PUSH1 0x24 DUP2 PUSH20 0x0 GAS DELEGATECALL DUP1 ISZERO PUSH2 0x5A2 JUMPI PUSH1 0x0 SWAP1 PUSH2 0x5F7 JUMPI JUMPDEST PUSH2 0xFFFF SWAP3 POP PUSH1 0x40 MLOAD SWAP9 PUSH1 0x20 DUP11 ADD MSTORE DUP10 PUSH1 0x40 DUP11 ADD MSTORE PUSH1 0x60 DUP10 ADD MSTORE PUSH1 0x84 CALLDATALOAD PUSH1 0x80 DUP10 ADD MSTORE AND PUSH1 0xA0 DUP8 ADD MSTORE PUSH1 0xC0 DUP7 ADD MSTORE PUSH1 0xE0 DUP6 ADD MSTORE PUSH1 0x44 CALLDATALOAD PUSH2 0x100 DUP6 ADD MSTORE PUSH2 0x120 SWAP1 DUP2 DUP6 ADD MSTORE DUP4 MSTORE PUSH2 0x140 SWAP1 DUP2 DUP5 ADD SWAP3 DUP5 DUP5 LT PUSH8 0xFFFFFFFFFFFFFFFF DUP6 GT OR PUSH2 0x5E1 JUMPI PUSH1 0x20 SWAP2 DUP5 DUP1 SWAP3 DUP2 PUSH1 0x40 MSTORE PUSH4 0xFFFFFFFF PUSH1 0x5 SLOAD AND PUSH4 0x58CD21BF PUSH1 0xE1 SHL DUP4 MSTORE DUP9 PUSH2 0x449 DUP2 PUSH2 0x13F NOT SWAP4 PUSH2 0x144 DUP3 ADD PUSH2 0x17D6 JUMP JUMPDEST SUB ADD SWAP3 PUSH32 0x0 AND GAS CALL DUP1 ISZERO PUSH2 0x5A2 JUMPI PUSH2 0x5AE JUMPI JUMPDEST POP POP POP PUSH1 0x40 MLOAD SWAP1 PUSH4 0x82C947B7 PUSH1 0xE0 SHL DUP3 MSTORE CALLER PUSH1 0x4 DUP4 ADD MSTORE PUSH1 0x20 DUP3 PUSH1 0x24 DUP2 PUSH20 0x0 GAS DELEGATECALL SWAP2 DUP3 ISZERO PUSH2 0x5A2 JUMPI PUSH1 0x0 SWAP3 PUSH2 0x56E JUMPI JUMPDEST POP PUSH1 0x40 MLOAD SWAP2 PUSH2 0x4CC DUP4 PUSH2 0x1635 JUMP JUMPDEST DUP3 MSTORE PUSH1 0x20 DUP3 ADD SWAP2 PUSH1 0x24 CALLDATALOAD DUP4 MSTORE PUSH1 0x40 DUP2 ADD PUSH1 0x64 CALLDATALOAD DUP2 MSTORE PUSH1 0x60 DUP3 ADD SWAP1 PUSH1 0x1 DUP3 MSTORE PUSH1 0x80 DUP4 ADD SWAP5 TIMESTAMP DUP7 MSTORE DUP5 PUSH1 0x0 MSTORE PUSH1 0x9 PUSH1 0x20 MSTORE PUSH1 0x40 PUSH1 0x0 KECCAK256 SWAP4 MLOAD DUP5 SSTORE MLOAD PUSH1 0x1 DUP5 ADD SSTORE MLOAD PUSH1 0x2 DUP4 ADD SSTORE MLOAD PUSH1 0x4 DUP2 LT ISZERO PUSH2 0x558 JUMPI PUSH1 0x20 SWAP4 PUSH2 0x52C PUSH1 0x4 SWAP3 PUSH1 0x3 DUP6 ADD PUSH2 0x185C JUMP JUMPDEST MLOAD SWAP2 ADD SSTORE PUSH1 0x5 SLOAD PUSH4 0xFFFFFFFF PUSH2 0x543 DUP2 DUP4 AND PUSH2 0x1831 JUMP JUMPDEST AND SWAP1 PUSH4 0xFFFFFFFF NOT AND OR PUSH1 0x5 SSTORE PUSH1 0x40 MLOAD SWAP1 DUP2 MSTORE RETURN JUMPDEST PUSH4 0x4E487B71 PUSH1 0xE0 SHL PUSH1 0x0 MSTORE PUSH1 0x21 PUSH1 0x4 MSTORE PUSH1 0x24 PUSH1 0x0 REVERT JUMPDEST SWAP1 SWAP2 POP PUSH1 0x20 DUP2 RETURNDATASIZE PUSH1 0x20 GT PUSH2 0x59A JUMPI JUMPDEST DUP2 PUSH2 0x58A PUSH1 0x20 SWAP4 DUP4 PUSH2 0x166E JUMP JUMPDEST DUP2 ADD SUB SLT PUSH2 0xD3 JUMPI MLOAD SWAP1 DUP3 PUSH2 0x4BE JUMP JUMPDEST RETURNDATASIZE SWAP2 POP PUSH2 0x57D JUMP JUMPDEST PUSH1 0x40 MLOAD RETURNDATASIZE PUSH1 0x0 DUP3 RETURNDATACOPY RETURNDATASIZE SWAP1 REVERT JUMPDEST PUSH2 0x5D0 SWAP3 PUSH1 0x20 SWAP1 RETURNDATASIZE PUSH1 0x20 GT PUSH2 0x5D9 JUMPI JUMPDEST PUSH2 0x5C8 DUP3 DUP6 PUSH2 0x166E JUMP JUMPDEST ADD ADD SWAP1 PUSH2 0x17B6 JUMP JUMPDEST POP DUP2 DUP1 DUP1 PUSH2 0x47B JUMP JUMPDEST RETURNDATASIZE SWAP2 POP PUSH2 0x5BE JUMP JUMPDEST PUSH4 0x4E487B71 PUSH1 0xE0 SHL PUSH1 0x0 MSTORE PUSH1 0x41 PUSH1 0x4 MSTORE PUSH1 0x24 PUSH1 0x0 REVERT JUMPDEST POP PUSH1 0x20 DUP3 RETURNDATASIZE PUSH1 0x20 GT PUSH2 0x623 JUMPI JUMPDEST DUP2 PUSH2 0x611 PUSH1 0x20 SWAP4 DUP4 PUSH2 0x166E JUMP JUMPDEST DUP2 ADD SUB SLT PUSH2 0xD3 JUMPI PUSH2 0xFFFF SWAP2 MLOAD PUSH2 0x3B9 JUMP JUMPDEST RETURNDATASIZE SWAP2 POP PUSH2 0x604 JUMP JUMPDEST SWAP1 SWAP5 POP PUSH1 0x20 DUP2 RETURNDATASIZE PUSH1 0x20 GT PUSH2 0x657 JUMPI JUMPDEST DUP2 PUSH2 0x647 PUSH1 0x20 SWAP4 DUP4 PUSH2 0x166E JUMP JUMPDEST DUP2 ADD SUB SLT PUSH2 0xD3 JUMPI MLOAD SWAP4 DUP6 PUSH2 0x32A JUMP JUMPDEST RETURNDATASIZE SWAP2 POP PUSH2 0x63A JUMP JUMPDEST SWAP1 SWAP2 POP PUSH1 0x20 DUP2 RETURNDATASIZE PUSH1 0x20 GT PUSH2 0x68B JUMPI JUMPDEST DUP2 PUSH2 0x67B PUSH1 0x20 SWAP4 DUP4 PUSH2 0x166E JUMP JUMPDEST DUP2 ADD SUB SLT PUSH2 0xD3 JUMPI MLOAD SWAP1 DUP5 PUSH2 0x2DD JUMP JUMPDEST RETURNDATASIZE SWAP2 POP PUSH2 0x66E JUMP JUMPDEST POP PUSH1 0x20 DUP2 RETURNDATASIZE PUSH1 0x20 GT PUSH2 0x6BF JUMPI JUMPDEST DUP2 PUSH2 0x6AD PUSH1 0x20 SWAP4 DUP4 PUSH2 0x166E JUMP JUMPDEST DUP2 ADD SUB SLT PUSH2 0xD3 JUMPI PUSH2 0x293 SWAP1 MLOAD PUSH2 0x282 JUMP JUMPDEST RETURNDATASIZE SWAP2 POP PUSH2 0x6A0 JUMP JUMPDEST PUSH2 0x6E8 SWAP1 PUSH1 0x20 RETURNDATASIZE PUSH1 0x20 GT PUSH2 0x6EF JUMPI JUMPDEST PUSH2 0x6E0 DUP2 DUP4 PUSH2 0x166E JUMP JUMPDEST DUP2 ADD SWAP1 PUSH2 0x1753 JUMP JUMPDEST POP DUP3 PUSH2 0x231 JUMP JUMPDEST POP RETURNDATASIZE PUSH2 0x6D6 JUMP JUMPDEST PUSH2 0x719 SWAP2 SWAP3 POP PUSH1 0x20 RETURNDATASIZE PUSH1 0x20 GT PUSH2 0x720 JUMPI JUMPDEST PUSH2 0x711 DUP2 DUP4 PUSH2 0x166E JUMP JUMPDEST DUP2 ADD SWAP1 PUSH2 0x1734 JUMP JUMPDEST SWAP1 DUP3 PUSH2 0x1EC JUMP JUMPDEST POP RETURNDATASIZE PUSH2 0x707 JUMP JUMPDEST PUSH1 0x64 PUSH1 0x40 MLOAD PUSH3 0x461BCD PUSH1 0xE5 SHL DUP2 MSTORE PUSH1 0x20 PUSH1 0x4 DUP3 ADD MSTORE PUSH1 0x17 PUSH1 0x24 DUP3 ADD MSTORE PUSH32 0x546F6B656E206F7574206E6F7420737570706F72746564000000000000000000 PUSH1 0x44 DUP3 ADD MSTORE REVERT JUMPDEST PUSH1 0x64 PUSH1 0x40 MLOAD PUSH3 0x461BCD PUSH1 0xE5 SHL DUP2 MSTORE PUSH1 0x20 PUSH1 0x4 DUP3 ADD MSTORE PUSH1 0x16 PUSH1 0x24 DUP3 ADD MSTORE PUSH32 0x546F6B656E20696E206E6F7420737570706F7274656400000000000000000000 PUSH1 0x44 DUP3 ADD MSTORE REVERT JUMPDEST CALLVALUE PUSH2 0xD3 JUMPI PUSH1 0x0 CALLDATASIZE PUSH1 0x3 NOT ADD SLT PUSH2 0xD3 JUMPI PUSH1 0x20 PUSH1 0x1 PUSH1 0x1 PUSH1 0xA0 SHL SUB PUSH1 0x0 SLOAD AND PUSH1 0x40 MLOAD SWAP1 DUP2 MSTORE RETURN JUMPDEST CALLVALUE PUSH2 0xD3 JUMPI PUSH1 0x80 CALLDATASIZE PUSH1 0x3 NOT ADD SLT PUSH2 0xD3 JUMPI PUSH1 0x64 CALLDATALOAD PUSH1 0xFF DUP2 AND DUP2 SUB PUSH2 0xD3 JUMPI PUSH1 0x1 PUSH1 0x1 PUSH1 0xA0 SHL SUB PUSH1 0xD SLOAD AND PUSH1 0x20 PUSH1 0x40 MLOAD DUP1 SWAP3 PUSH4 0xF52B31F1 PUSH1 0xE0 SHL DUP3 MSTORE DUP2 DUP1 PUSH2 0x839 PUSH1 0x44 CALLDATALOAD PUSH1 0x24 CALLDATALOAD PUSH1 0x4 CALLDATALOAD PUSH1 0x4 DUP6 ADD PUSH1 0x40 SWAP2 SWAP5 SWAP4 SWAP3 PUSH1 0x60 DUP3 ADD SWAP6 DUP3 MSTORE PUSH1 0x20 DUP3 ADD MSTORE ADD MSTORE JUMP JUMPDEST SUB SWAP2 GAS STATICCALL SWAP1 DUP2 ISZERO PUSH2 0x5A2 JUMPI PUSH1 0x0 SWAP2 PUSH2 0x861 JUMPI JUMPDEST PUSH1 0x20 PUSH2 0x858 DUP5 DUP5 PUSH2 0x1928 JUMP JUMPDEST POP PUSH1 0x40 MLOAD SWAP1 DUP2 MSTORE RETURN JUMPDEST SWAP1 POP PUSH1 0x20 DUP2 RETURNDATASIZE PUSH1 0x20 GT PUSH2 0x88C JUMPI JUMPDEST DUP2 PUSH2 0x87C PUSH1 0x20 SWAP4 DUP4 PUSH2 0x166E JUMP JUMPDEST DUP2 ADD SUB SLT PUSH2 0xD3 JUMPI MLOAD PUSH1 0x20 PUSH2 0x84C JUMP JUMPDEST RETURNDATASIZE SWAP2 POP PUSH2 0x86F JUMP JUMPDEST CALLVALUE PUSH2 0xD3 JUMPI PUSH1 0x0 CALLDATASIZE PUSH1 0x3 NOT ADD SLT PUSH2 0xD3 JUMPI PUSH1 0x1 SLOAD PUSH1 0x1 PUSH1 0x1 PUSH1 0xA0 SHL SUB CALLER DUP2 DUP4 AND SUB PUSH2 0x90B JUMPI PUSH20 0xFFFFFFFFFFFFFFFFFFFFFFFFFFFFFFFFFFFFFFFF NOT DUP1 SWAP3 AND PUSH1 0x1 SSTORE PUSH1 0x0 SLOAD SWAP2 CALLER SWAP1 DUP4 AND OR PUSH1 0x0 SSTORE CALLER SWAP2 AND PUSH32 0x8BE0079C531659141344CD1FD0A4F28419497F9722A3DAAFE3B4186F6B6457E0 PUSH1 0x0 DUP1 LOG3 STOP JUMPDEST PUSH1 0x84 PUSH1 0x40 MLOAD PUSH3 0x461BCD PUSH1 0xE5 SHL DUP2 MSTORE PUSH1 0x20 PUSH1 0x4 DUP3 ADD MSTORE PUSH1 0x29 PUSH1 0x24 DUP3 ADD MSTORE PUSH32 0x4F776E61626C6532537465703A2063616C6C6572206973206E6F742074686520 PUSH1 0x44 DUP3 ADD MSTORE PUSH32 0x6E6577206F776E65720000000000000000000000000000000000000000000000 PUSH1 0x64 DUP3 ADD MSTORE REVERT JUMPDEST CALLVALUE PUSH2 0xD3 JUMPI PUSH1 0x40 CALLDATASIZE PUSH1 0x3 NOT ADD SLT PUSH2 0xD3 JUMPI PUSH2 0xFFFF PUSH2 0x991 PUSH2 0x15D9 JUMP JUMPDEST PUSH2 0x999 PUSH2 0x18B0 JUMP JUMPDEST AND PUSH1 0x0 MSTORE PUSH1 0x8 PUSH1 0x20 MSTORE PUSH1 0x24 CALLDATALOAD PUSH1 0x40 PUSH1 0x0 KECCAK256 SSTORE PUSH1 0x0 DUP1 RETURN JUMPDEST CALLVALUE PUSH2 0xD3 JUMPI PUSH1 0x0 CALLDATASIZE PUSH1 0x3 NOT ADD SLT PUSH2 0xD3 JUMPI PUSH2 0x9C9 PUSH2 0x18B0 JUMP JUMPDEST PUSH1 0x0 PUSH1 0x1 PUSH1 0x1 PUSH1 0xA0 SHL SUB PUSH20 0xFFFFFFFFFFFFFFFFFFFFFFFFFFFFFFFFFFFFFFFF NOT DUP1 PUSH1 0x1 SLOAD AND PUSH1 0x1 SSTORE DUP3 SLOAD SWAP1 DUP2 AND DUP4 SSTORE AND PUSH32 0x8BE0079C531659141344CD1FD0A4F28419497F9722A3DAAFE3B4186F6B6457E0 DUP3 DUP1 LOG3 STOP JUMPDEST CALLVALUE PUSH2 0xD3 JUMPI PUSH2 0x100 CALLDATASIZE PUSH1 0x3 NOT ADD SLT PUSH2 0xD3 JUMPI PUSH2 0xA39 PUSH2 0x15B0 JUMP JUMPDEST PUSH1 0x24 SWAP1 DUP2 CALLDATALOAD PUSH1 0x44 CALLDATALOAD SWAP1 PUSH1 0x64 CALLDATALOAD SWAP1 PUSH2 0xFFFF SWAP1 DUP2 DUP4 AND DUP1 SWAP4 SUB PUSH2 0xD3 JUMPI PUSH1 0xC4 CALLDATALOAD SWAP6 PUSH4 0xFFFFFFFF PUSH1 0xE4 CALLDATALOAD SWAP7 PUSH2 0xA69 PUSH2 0x18B0 JUMP JUMPDEST AND SWAP5 DUP6 PUSH1 0x0 MSTORE PUSH1 0x20 SWAP7 PUSH1 0x6 DUP9 MSTORE PUSH2 0xA88 PUSH1 0xFF PUSH1 0x40 PUSH1 0x0 KECCAK256 SLOAD AND ISZERO PUSH2 0x15EA JUMP JUMPDEST DUP6 PUSH1 0x0 MSTORE PUSH1 0x8 DUP9 MSTORE PUSH1 0x84 CALLDATALOAD PUSH1 0x40 PUSH1 0x0 KECCAK256 SLOAD SUB PUSH2 0xDC9 JUMPI DUP4 PUSH1 0x0 MSTORE PUSH1 0xA DUP9 MSTORE PUSH1 0xFF PUSH1 0x4 PUSH1 0x40 PUSH1 0x0 KECCAK256 ADD SLOAD AND PUSH1 0x4 DUP2 LT ISZERO PUSH2 0xDB4 JUMPI PUSH2 0xD71 JUMPI PUSH20 0x0 PUSH1 0x40 MLOAD SWAP1 PUSH4 0x2E7682C7 PUSH1 0xE1 SHL SWAP2 DUP3 DUP2 MSTORE DUP12 PUSH1 0x4 DUP3 ADD MSTORE DUP11 DUP2 DUP8 DUP2 DUP6 GAS DELEGATECALL SWAP3 DUP4 ISZERO PUSH2 0x5A2 JUMPI DUP12 SWAP2 PUSH1 0x0 SWAP5 PUSH2 0xD52 JUMPI JUMPDEST POP DUP7 PUSH1 0x40 MLOAD DUP1 SWAP5 DUP2 SWAP4 DUP3 MSTORE DUP9 PUSH1 0x4 DUP4 ADD MSTORE GAS DELEGATECALL SWAP1 DUP2 ISZERO PUSH2 0x5A2 JUMPI PUSH1 0x0 SWAP2 PUSH2 0xD35 JUMPI JUMPDEST POP PUSH4 0x3B9ACA00 SWAP3 DUP4 DUP2 MUL SWAP4 DUP2 DUP6 DIV EQ SWAP1 ISZERO OR ISZERO PUSH2 0xD20 JUMPI PUSH1 0xD SLOAD PUSH1 0x40 MLOAD PUSH4 0xF52B31F1 PUSH1 0xE0 SHL DUP2 MSTORE PUSH1 0xA4 CALLDATALOAD PUSH1 0x4 DUP3 ADD MSTORE PUSH1 0x24 DUP2 ADD DUP14 SWAP1 MSTORE PUSH1 0x44 DUP2 ADD SWAP5 SWAP1 SWAP5 MSTORE SWAP3 SWAP6 SWAP5 SWAP4 SWAP3 PUSH1 0x1 PUSH1 0x1 PUSH1 0xA0 SHL SUB SWAP3 SWAP2 SWAP1 DUP12 SWAP1 DUP9 SWAP1 PUSH1 0x64 SWAP1 DUP3 SWAP1 DUP8 AND GAS STATICCALL DUP1 ISZERO PUSH2 0x5A2 JUMPI DUP12 SWAP8 PUSH1 0x0 SWAP2 PUSH2 0xCE7 JUMPI JUMPDEST POP SWAP2 PUSH2 0xBDF SWAP4 SWAP2 PUSH2 0xBA9 PUSH1 0x0 SWAP10 SWAP5 PUSH1 0xFF PUSH1 0x7 SLOAD AND SWAP1 PUSH2 0x1928 JUMP JUMPDEST POP SWAP9 DUP10 SWAP4 PUSH1 0x40 MLOAD DUP1 SWAP8 DUP2 SWAP7 DUP3 SWAP6 PUSH4 0xA9059CBB PUSH1 0xE0 SHL DUP5 MSTORE PUSH1 0x4 DUP5 ADD PUSH1 0x20 SWAP1 SWAP4 SWAP3 SWAP2 SWAP4 PUSH1 0x1 PUSH1 0x1 PUSH1 0xA0 SHL SUB PUSH1 0x40 DUP3 ADD SWAP6 AND DUP2 MSTORE ADD MSTORE JUMP JUMPDEST SUB SWAP4 AND GAS CALL DUP1 ISZERO PUSH2 0x5A2 JUMPI PUSH2 0xCCA JUMPI JUMPDEST POP DUP9 PUSH1 0x0 MSTORE PUSH1 0xB DUP9 MSTORE PUSH1 0x40 PUSH1 0x0 KECCAK256 SLOAD SWAP4 PUSH1 0x40 MLOAD SWAP10 PUSH2 0xC0C DUP12 PUSH2 0x1651 JUMP JUMPDEST DUP5 DUP12 MSTORE DUP10 DUP12 ADD SWAP3 DUP4 MSTORE PUSH1 0x40 DUP12 ADD SWAP1 DUP2 MSTORE PUSH1 0x60 DUP12 ADD SWAP2 DUP3 MSTORE PUSH1 0x80 DUP12 ADD SWAP3 PUSH1 0x1 DUP5 MSTORE PUSH1 0xA0 DUP13 ADD SWAP6 TIMESTAMP DUP8 MSTORE PUSH1 0xC0 DUP14 ADD SWAP8 DUP9 MSTORE PUSH1 0xE0 DUP14 ADD SWAP10 DUP11 MSTORE PUSH1 0x0 MSTORE PUSH1 0xA DUP12 MSTORE PUSH1 0x40 PUSH1 0x0 KECCAK256 SWAP12 MLOAD DUP13 SSTORE MLOAD PUSH1 0x1 DUP13 ADD SSTORE MLOAD PUSH1 0x2 DUP12 ADD SSTORE MLOAD PUSH1 0x3 DUP11 ADD SSTORE MLOAD SWAP1 PUSH1 0x4 DUP3 LT ISZERO PUSH2 0xCB6 JUMPI POP SWAP2 DUP8 SWAP2 PUSH2 0xC84 PUSH1 0x7 SWAP5 PUSH1 0x4 PUSH1 0x6 SWAP12 ADD PUSH2 0x185C JUMP JUMPDEST MLOAD PUSH1 0x5 DUP4 ADD SSTORE MLOAD DUP8 DUP3 ADD SSTORE ADD SWAP2 MLOAD AND PUSH2 0xFFFF NOT DUP3 SLOAD AND OR SWAP1 SSTORE PUSH1 0x0 MSTORE MSTORE PUSH1 0x40 PUSH1 0x0 KECCAK256 PUSH1 0x1 PUSH1 0xFF NOT DUP3 SLOAD AND OR SWAP1 SSTORE PUSH1 0x0 DUP1 RETURN JUMPDEST PUSH4 0x4E487B71 PUSH1 0xE0 SHL PUSH1 0x0 MSTORE PUSH1 0x21 PUSH1 0x4 MSTORE PUSH1 0x0 REVERT JUMPDEST PUSH2 0xCE0 SWAP1 DUP10 RETURNDATASIZE DUP12 GT PUSH2 0x6EF JUMPI PUSH2 0x6E0 DUP2 DUP4 PUSH2 0x166E JUMP JUMPDEST POP DUP10 PUSH2 0xBEF JUMP JUMPDEST DUP9 DUP2 SWAP5 SWAP10 SWAP3 POP SWAP5 SWAP3 SWAP5 RETURNDATASIZE DUP4 GT PUSH2 0xD19 JUMPI JUMPDEST PUSH2 0xD02 DUP2 DUP4 PUSH2 0x166E JUMP JUMPDEST DUP2 ADD SUB SLT PUSH2 0xD3 JUMPI SWAP1 MLOAD DUP11 SWAP7 SWAP2 SWAP3 SWAP1 PUSH2 0xBDF PUSH2 0xB8F JUMP JUMPDEST POP RETURNDATASIZE PUSH2 0xCF8 JUMP JUMPDEST DUP5 PUSH4 0x4E487B71 PUSH1 0xE0 SHL PUSH1 0x0 MSTORE PUSH1 0x11 PUSH1 0x4 MSTORE PUSH1 0x0 REVERT JUMPDEST PUSH2 0xD4C SWAP2 POP DUP11 RETURNDATASIZE DUP13 GT PUSH2 0x720 JUMPI PUSH2 0x711 DUP2 DUP4 PUSH2 0x166E JUMP JUMPDEST DUP12 PUSH2 0xB24 JUMP JUMPDEST PUSH2 0xD6A SWAP2 SWAP5 POP DUP3 RETURNDATASIZE DUP5 GT PUSH2 0x720 JUMPI PUSH2 0x711 DUP2 DUP4 PUSH2 0x166E JUMP JUMPDEST SWAP3 DUP14 PUSH2 0xB02 JUMP JUMPDEST PUSH1 0x64 DUP9 PUSH1 0x14 DUP6 PUSH1 0x40 MLOAD SWAP3 PUSH3 0x461BCD PUSH1 0xE5 SHL DUP5 MSTORE PUSH1 0x4 DUP5 ADD MSTORE DUP3 ADD MSTORE PUSH32 0x4C6F616E20616C72656164792063726561746564000000000000000000000000 PUSH1 0x44 DUP3 ADD MSTORE REVERT JUMPDEST DUP4 PUSH4 0x4E487B71 PUSH1 0xE0 SHL PUSH1 0x0 MSTORE PUSH1 0x21 PUSH1 0x4 MSTORE PUSH1 0x0 REVERT JUMPDEST PUSH1 0x64 DUP9 PUSH1 0x17 DUP6 PUSH1 0x40 MLOAD SWAP3 PUSH3 0x461BCD PUSH1 0xE5 SHL DUP5 MSTORE PUSH1 0x4 DUP5 ADD MSTORE DUP3 ADD MSTORE PUSH32 0x496E76616C696420666F726569676E206F72626974616C000000000000000000 PUSH1 0x44 DUP3 ADD MSTORE REVERT JUMPDEST PUSH1 0x20 CALLDATASIZE PUSH1 0x3 NOT ADD SLT PUSH2 0xD3 JUMPI PUSH1 0x4 CALLDATALOAD DUP1 PUSH1 0x0 MSTORE PUSH1 0xA PUSH1 0x20 MSTORE PUSH1 0x40 PUSH1 0x0 KECCAK256 SWAP1 PUSH1 0x40 MLOAD SWAP2 PUSH2 0xE37 DUP4 PUSH2 0x1651 JUMP JUMPDEST DUP1 SLOAD DUP4 MSTORE PUSH2 0xFFFF PUSH1 0x7 PUSH1 0x1 DUP4 ADD SLOAD SWAP3 PUSH1 0x20 DUP7 ADD SWAP4 DUP5 MSTORE PUSH1 0x2 DUP2 ADD SLOAD PUSH1 0x40 DUP8 ADD MSTORE PUSH1 0x3 DUP2 ADD SLOAD PUSH1 0x60 DUP8 ADD MSTORE PUSH2 0xE75 PUSH1 0xFF PUSH1 0x4 DUP4 ADD SLOAD AND PUSH1 0x80 DUP9 ADD PUSH2 0x16DD JUMP JUMPDEST PUSH1 0x5 DUP2 ADD SLOAD PUSH1 0xA0 DUP8 ADD MSTORE PUSH1 0x6 DUP2 ADD SLOAD PUSH1 0xC0 DUP8 ADD MSTORE ADD SLOAD AND PUSH1 0xE0 DUP5 ADD MSTORE PUSH1 0x80 DUP4 ADD MLOAD PUSH1 0x4 DUP2 LT ISZERO PUSH2 0x558 JUMPI PUSH1 0x1 PUSH2 0xEAB SWAP2 EQ PUSH2 0x16E9 JUMP JUMPDEST MLOAD SWAP2 PUSH1 0x40 MLOAD SWAP3 PUSH4 0x2E7682C7 PUSH1 0xE1 SHL DUP5 MSTORE PUSH1 0x4 DUP5 ADD MSTORE PUSH1 0x24 SWAP3 PUSH1 0x20 DUP2 DUP6 DUP2 PUSH20 0x0 GAS DELEGATECALL SWAP1 DUP2 ISZERO PUSH2 0x5A2 JUMPI PUSH1 0x0 SWAP2 PUSH2 0x125B JUMPI JUMPDEST POP PUSH1 0x1 PUSH1 0x1 PUSH1 0xA0 SHL SUB SWAP1 DUP2 CALLER SWAP2 AND SUB PUSH2 0x1217 JUMPI PUSH6 0xF7CF9B8D0000 PUSH2 0xF32 PUSH1 0x60 DUP5 ADD MLOAD PUSH2 0xF2D PUSH1 0xA0 DUP7 ADD MLOAD PUSH2 0xF27 PUSH1 0xC0 DUP9 ADD MLOAD SWAP2 TIMESTAMP PUSH2 0x1908 JUMP JUMPDEST SWAP3 PUSH2 0x1915 JUMP JUMPDEST PUSH2 0x1915 JUMP JUMPDEST DIV PUSH1 0x60 DUP4 ADD MLOAD SWAP1 DUP2 ADD DUP1 SWAP2 GT PUSH2 0xD20 JUMPI PUSH1 0x40 DUP4 ADD MLOAD SWAP1 PUSH1 0x40 MLOAD SWAP2 PUSH4 0x2E7682C7 PUSH1 0xE1 SHL DUP4 MSTORE PUSH1 0x4 DUP4 ADD MSTORE PUSH1 0x20 DUP3 DUP8 DUP2 PUSH20 0x0 GAS DELEGATECALL SWAP2 DUP3 ISZERO PUSH2 0x5A2 JUMPI DUP4 SWAP3 PUSH1 0x20 SWAP3 PUSH2 0xFC2 SWAP3 PUSH1 0x0 SWAP3 PUSH2 0x11F8 JUMPI JUMPDEST POP PUSH1 0x40 MLOAD PUSH4 0x23B872DD PUSH1 0xE0 SHL DUP2 MSTORE CALLER PUSH1 0x4 DUP3 ADD MSTORE ADDRESS PUSH1 0x24 DUP3 ADD MSTORE PUSH1 0x44 DUP2 ADD SWAP2 SWAP1 SWAP2 MSTORE SWAP4 DUP5 SWAP3 DUP4 SWAP2 PUSH1 0x0 SWAP2 DUP4 SWAP1 PUSH1 0x64 DUP3 ADD SWAP1 JUMP JUMPDEST SUB SWAP4 AND GAS CALL DUP1 ISZERO PUSH2 0x5A2 JUMPI PUSH2 0x11D9 JUMPI JUMPDEST POP PUSH1 0x40 MLOAD SWAP1 PUSH4 0x82C947B7 PUSH1 0xE0 SHL DUP3 MSTORE ADDRESS PUSH1 0x4 DUP4 ADD MSTORE PUSH1 0x20 DUP3 DUP7 DUP2 PUSH20 0x0 GAS DELEGATECALL SWAP2 DUP3 ISZERO PUSH2 0x5A2 JUMPI PUSH1 0x0 SWAP3 PUSH2 0x11A5 JUMPI JUMPDEST POP PUSH2 0xFFFF PUSH1 0xE0 DUP5 ADD MLOAD AND PUSH1 0x0 MSTORE PUSH1 0x8 PUSH1 0x20 MSTORE PUSH1 0x40 PUSH1 0x0 KECCAK256 SLOAD SWAP1 PUSH32 0x0 AND SWAP1 PUSH1 0x40 MLOAD SWAP3 PUSH4 0x1A90A219 PUSH1 0xE0 SHL DUP5 MSTORE PUSH1 0x20 DUP5 PUSH1 0x4 DUP2 DUP7 GAS STATICCALL SWAP4 DUP5 ISZERO PUSH2 0x5A2 JUMPI PUSH1 0x0 SWAP5 PUSH2 0x1171 JUMPI JUMPDEST POP PUSH2 0x1080 DUP5 CALLVALUE EQ PUSH2 0x176B JUMP JUMPDEST PUSH1 0x3 SLOAD SWAP6 PUSH2 0xFFFF PUSH1 0xE0 DUP8 ADD MLOAD AND SWAP1 PUSH1 0x40 MLOAD SWAP8 PUSH1 0x20 DUP10 ADD MSTORE PUSH1 0x40 DUP9 ADD MSTORE PUSH1 0x60 DUP8 ADD MSTORE PUSH1 0x80 DUP7 ADD MSTORE PUSH1 0xA0 DUP6 ADD MSTORE PUSH1 0xA0 DUP5 MSTORE PUSH1 0xC0 DUP5 ADD SWAP5 DUP5 DUP7 LT PUSH8 0xFFFFFFFFFFFFFFFF DUP8 GT OR PUSH2 0x115D JUMPI POP DUP5 PUSH1 0x20 SWAP2 DUP2 PUSH1 0x40 MSTORE DUP2 PUSH4 0xFFFFFFFF SWAP5 DUP6 PUSH1 0x5 SLOAD AND PUSH4 0x58CD21BF PUSH1 0xE1 SHL DUP4 MSTORE DUP9 PUSH2 0x10F8 DUP2 PUSH1 0xBF NOT SWAP4 PUSH1 0xC4 DUP3 ADD PUSH2 0x17D6 JUMP JUMPDEST SUB ADD SWAP3 GAS CALL SWAP3 DUP4 ISZERO PUSH2 0x5A2 JUMPI PUSH1 0x2 SWAP5 PUSH1 0x80 SWAP5 PUSH2 0x113A JUMPI JUMPDEST POP POP PUSH1 0x5 SLOAD SWAP1 PUSH2 0x1120 DUP2 DUP4 AND PUSH2 0x1831 JUMP JUMPDEST AND SWAP1 PUSH4 0xFFFFFFFF NOT AND OR PUSH1 0x5 SSTORE ADD MSTORE PUSH1 0x20 PUSH1 0x40 MLOAD PUSH1 0x1 DUP2 MSTORE RETURN JUMPDEST PUSH1 0xC0 PUSH2 0x1155 SWAP3 PUSH1 0x20 SWAP1 RETURNDATASIZE PUSH1 0x20 GT PUSH2 0x5D9 JUMPI PUSH2 0x5C8 DUP3 DUP6 PUSH2 0x166E JUMP JUMPDEST POP DUP5 DUP1 PUSH2 0x110F JUMP JUMPDEST PUSH4 0x4E487B71 PUSH1 0xE0 SHL PUSH1 0x0 MSTORE PUSH1 0x41 PUSH1 0x4 MSTORE PUSH1 0x0 REVERT JUMPDEST SWAP1 SWAP4 POP PUSH1 0x20 DUP2 RETURNDATASIZE PUSH1 0x20 GT PUSH2 0x119D JUMPI JUMPDEST DUP2 PUSH2 0x118D PUSH1 0x20 SWAP4 DUP4 PUSH2 0x166E JUMP JUMPDEST DUP2 ADD SUB SLT PUSH2 0xD3 JUMPI MLOAD SWAP3 DUP8 PUSH2 0x1074 JUMP JUMPDEST RETURNDATASIZE SWAP2 POP PUSH2 0x1180 JUMP JUMPDEST SWAP1 SWAP2 POP PUSH1 0x20 DUP2 RETURNDATASIZE PUSH1 0x20 GT PUSH2 0x11D1 JUMPI JUMPDEST DUP2 PUSH2 0x11C1 PUSH1 0x20 SWAP4 DUP4 PUSH2 0x166E JUMP JUMPDEST DUP2 ADD SUB SLT PUSH2 0xD3 JUMPI MLOAD SWAP1 DUP6 PUSH2 0x1012 JUMP JUMPDEST RETURNDATASIZE SWAP2 POP PUSH2 0x11B4 JUMP JUMPDEST PUSH2 0x11F1 SWAP1 PUSH1 0x20 RETURNDATASIZE PUSH1 0x20 GT PUSH2 0x6EF JUMPI PUSH2 0x6E0 DUP2 DUP4 PUSH2 0x166E JUMP JUMPDEST POP DUP5 PUSH2 0xFD2 JUMP JUMPDEST PUSH2 0x1210 SWAP2 SWAP3 POP DUP5 RETURNDATASIZE DUP7 GT PUSH2 0x720 JUMPI PUSH2 0x711 DUP2 DUP4 PUSH2 0x166E JUMP JUMPDEST SWAP1 DUP10 PUSH2 0xF8F JUMP JUMPDEST PUSH1 0x64 DUP5 PUSH1 0x11 PUSH1 0x40 MLOAD SWAP2 PUSH3 0x461BCD PUSH1 0xE5 SHL DUP4 MSTORE PUSH1 0x20 PUSH1 0x4 DUP5 ADD MSTORE DUP3 ADD MSTORE PUSH32 0x556E617574686F72697A6564206C6F616E000000000000000000000000000000 PUSH1 0x44 DUP3 ADD MSTORE REVERT JUMPDEST PUSH2 0x1274 SWAP2 POP PUSH1 0x20 RETURNDATASIZE PUSH1 0x20 GT PUSH2 0x720 JUMPI PUSH2 0x711 DUP2 DUP4 PUSH2 0x166E JUMP JUMPDEST DUP5 PUSH2 0xEEE JUMP JUMPDEST CALLVALUE PUSH2 0xD3 JUMPI PUSH1 0x40 CALLDATASIZE PUSH1 0x3 NOT ADD SLT PUSH2 0xD3 JUMPI PUSH2 0x1293 PUSH2 0x15C3 JUMP JUMPDEST PUSH2 0x129B PUSH2 0x18B0 JUMP JUMPDEST PUSH20 0x0 SWAP1 PUSH1 0x40 MLOAD PUSH1 0x1 PUSH1 0x1 PUSH1 0xA0 SHL SUB PUSH4 0x82C947B7 PUSH1 0xE0 SHL SWAP3 DUP4 DUP4 MSTORE AND DUP1 PUSH1 0x4 DUP4 ADD MSTORE PUSH1 0x20 SWAP3 DUP4 DUP4 PUSH1 0x24 DUP2 DUP9 GAS DELEGATECALL SWAP3 DUP4 ISZERO PUSH2 0x5A2 JUMPI PUSH1 0x0 SWAP4 PUSH2 0x138C JUMPI JUMPDEST POP PUSH1 0xC SLOAD SWAP1 PUSH9 0x10000000000000000 DUP3 LT ISZERO PUSH2 0x5E1 JUMPI DUP5 SWAP4 PUSH2 0x1313 DUP4 PUSH1 0x1 PUSH1 0x24 SWAP6 ADD PUSH1 0xC SSTORE PUSH2 0x1690 JUMP JUMPDEST DUP2 SWAP3 SWAP2 SLOAD SWAP1 PUSH1 0x3 SHL SWAP2 DUP3 SHL SWAP2 PUSH1 0x0 NOT SWAP1 SHL NOT AND OR SWAP1 SSTORE PUSH1 0x40 MLOAD SWAP6 DUP7 SWAP4 DUP5 SWAP3 DUP4 MSTORE PUSH1 0x4 DUP4 ADD MSTORE GAS DELEGATECALL DUP1 ISZERO PUSH2 0x5A2 JUMPI PUSH1 0x0 SWAP1 PUSH2 0x135E JUMPI JUMPDEST PUSH1 0xB SWAP3 POP PUSH1 0x0 MSTORE MSTORE PUSH1 0x24 CALLDATALOAD PUSH1 0x40 PUSH1 0x0 KECCAK256 SSTORE PUSH1 0x0 DUP1 RETURN JUMPDEST POP DUP1 DUP3 DUP2 RETURNDATASIZE DUP4 GT PUSH2 0x1385 JUMPI JUMPDEST PUSH2 0x1374 DUP2 DUP4 PUSH2 0x166E JUMP JUMPDEST DUP2 ADD SUB SLT PUSH2 0xD3 JUMPI PUSH1 0xB SWAP2 MLOAD PUSH2 0x1348 JUMP JUMPDEST POP RETURNDATASIZE PUSH2 0x136A JUMP JUMPDEST SWAP1 SWAP3 POP DUP4 DUP2 DUP2 RETURNDATASIZE DUP4 GT PUSH2 0x13B4 JUMPI JUMPDEST PUSH2 0x13A4 DUP2 DUP4 PUSH2 0x166E JUMP JUMPDEST DUP2 ADD SUB SLT PUSH2 0xD3 JUMPI MLOAD SWAP2 DUP6 PUSH2 0x12E9 JUMP JUMPDEST POP RETURNDATASIZE PUSH2 0x139A JUMP JUMPDEST CALLVALUE PUSH2 0xD3 JUMPI PUSH1 0x40 CALLDATASIZE PUSH1 0x3 NOT ADD SLT PUSH2 0xD3 JUMPI PUSH4 0xFFFFFFFF PUSH2 0x13D9 PUSH2 0x15B0 JUMP JUMPDEST PUSH2 0x13E1 PUSH2 0x18B0 JUMP JUMPDEST AND DUP1 PUSH1 0x0 MSTORE PUSH1 0x20 PUSH1 0x6 DUP2 MSTORE PUSH2 0x13FE PUSH1 0xFF PUSH1 0x40 PUSH1 0x0 KECCAK256 SLOAD AND ISZERO PUSH2 0x15EA JUMP JUMPDEST PUSH1 0x24 CALLDATALOAD PUSH1 0x0 MSTORE PUSH1 0x9 DUP2 MSTORE PUSH1 0x40 PUSH1 0x0 KECCAK256 SWAP2 PUSH1 0x40 MLOAD SWAP3 PUSH2 0x141B DUP5 PUSH2 0x1635 JUMP JUMPDEST DUP1 SLOAD DUP5 MSTORE PUSH1 0x1 DUP2 ADD SLOAD SWAP4 DUP4 DUP2 ADD SWAP5 DUP6 MSTORE PUSH1 0x2 DUP3 ADD SLOAD SWAP5 PUSH1 0x40 DUP3 ADD SWAP6 DUP7 MSTORE PUSH1 0x4 PUSH1 0xFF PUSH1 0x3 DUP6 ADD SLOAD AND SWAP4 PUSH2 0x1451 PUSH1 0x60 DUP6 ADD SWAP6 DUP7 PUSH2 0x16DD JUMP JUMPDEST ADD SLOAD PUSH1 0x80 DUP4 ADD MSTORE DUP3 MLOAD PUSH1 0x4 DUP2 LT ISZERO PUSH2 0x558 JUMPI PUSH1 0x1 PUSH2 0x146F SWAP2 EQ PUSH2 0x16E9 JUMP JUMPDEST MLOAD SWAP1 PUSH20 0x0 SWAP2 PUSH1 0x40 MLOAD SWAP1 PUSH4 0x2E7682C7 PUSH1 0xE1 SHL SWAP1 DUP2 DUP4 MSTORE PUSH1 0x4 DUP4 ADD MSTORE DUP7 DUP3 PUSH1 0x24 DUP2 DUP8 GAS DELEGATECALL SWAP3 DUP4 ISZERO PUSH2 0x5A2 JUMPI DUP8 SWAP3 PUSH1 0x0 SWAP5 PUSH2 0x158E JUMPI JUMPDEST POP PUSH1 0x24 SWAP1 MLOAD SWAP2 PUSH1 0x40 MLOAD SWAP6 DUP7 SWAP4 DUP5 SWAP3 DUP4 MSTORE PUSH1 0x4 DUP4 ADD MSTORE GAS DELEGATECALL SWAP1 DUP2 ISZERO PUSH2 0x5A2 JUMPI PUSH2 0x1520 SWAP7 DUP7 SWAP4 PUSH1 0x0 SWAP4 PUSH2 0x156F JUMPI JUMPDEST POP MLOAD SWAP2 PUSH1 0x0 PUSH1 0x1 PUSH1 0x1 PUSH1 0xA0 SHL SUB PUSH1 0x40 MLOAD DUP1 SWAP11 DUP2 SWAP7 DUP3 SWAP6 PUSH4 0xA9059CBB PUSH1 0xE0 SHL DUP5 MSTORE PUSH1 0x4 DUP5 ADD PUSH1 0x20 SWAP1 SWAP4 SWAP3 SWAP2 SWAP4 PUSH1 0x1 PUSH1 0x1 PUSH1 0xA0 SHL SUB PUSH1 0x40 DUP3 ADD SWAP6 AND DUP2 MSTORE ADD MSTORE JUMP JUMPDEST SUB SWAP4 AND GAS CALL SWAP1 DUP2 ISZERO PUSH2 0x5A2 JUMPI PUSH1 0x6 SWAP5 PUSH1 0x2 SWAP3 PUSH2 0x1552 JUMPI JUMPDEST POP MSTORE PUSH1 0x0 MSTORE MSTORE PUSH1 0x40 PUSH1 0x0 KECCAK256 PUSH1 0x1 PUSH1 0xFF NOT DUP3 SLOAD AND OR SWAP1 SSTORE PUSH1 0x0 DUP1 RETURN JUMPDEST PUSH2 0x1568 SWAP1 DUP6 RETURNDATASIZE DUP8 GT PUSH2 0x6EF JUMPI PUSH2 0x6E0 DUP2 DUP4 PUSH2 0x166E JUMP JUMPDEST POP DUP6 PUSH2 0x1537 JUMP JUMPDEST PUSH2 0x1587 SWAP2 SWAP4 POP DUP5 RETURNDATASIZE DUP7 GT PUSH2 0x720 JUMPI PUSH2 0x711 DUP2 DUP4 PUSH2 0x166E JUMP JUMPDEST SWAP2 DUP9 PUSH2 0x14E1 JUMP JUMPDEST PUSH1 0x24 SWAP2 SWAP5 POP PUSH2 0x15A9 SWAP1 DUP5 RETURNDATASIZE DUP7 GT PUSH2 0x720 JUMPI PUSH2 0x711 DUP2 DUP4 PUSH2 0x166E JUMP JUMPDEST SWAP4 SWAP1 PUSH2 0x14B5 JUMP JUMPDEST PUSH1 0x4 CALLDATALOAD SWAP1 PUSH4 0xFFFFFFFF DUP3 AND DUP3 SUB PUSH2 0xD3 JUMPI JUMP JUMPDEST PUSH1 0x4 CALLDATALOAD SWAP1 PUSH1 0x1 PUSH1 0x1 PUSH1 0xA0 SHL SUB DUP3 AND DUP3 SUB PUSH2 0xD3 JUMPI JUMP JUMPDEST PUSH1 0x4 CALLDATALOAD SWAP1 PUSH2 0xFFFF DUP3 AND DUP3 SUB PUSH2 0xD3 JUMPI JUMP JUMPDEST ISZERO PUSH2 0x15F1 JUMPI JUMP JUMPDEST PUSH1 0x64 PUSH1 0x40 MLOAD PUSH3 0x461BCD PUSH1 0xE5 SHL DUP2 MSTORE PUSH1 0x20 PUSH1 0x4 DUP3 ADD MSTORE PUSH1 0x1B PUSH1 0x24 DUP3 ADD MSTORE PUSH32 0x4E6F6E63652077617320616C72656164792065786563757465642E0000000000 PUSH1 0x44 DUP3 ADD MSTORE REVERT JUMPDEST PUSH1 0xA0 DUP2 ADD SWAP1 DUP2 LT PUSH8 0xFFFFFFFFFFFFFFFF DUP3 GT OR PUSH2 0x5E1 JUMPI PUSH1 0x40 MSTORE JUMP JUMPDEST PUSH2 0x100 DUP2 ADD SWAP1 DUP2 LT PUSH8 0xFFFFFFFFFFFFFFFF DUP3 GT OR PUSH2 0x5E1 JUMPI PUSH1 0x40 MSTORE JUMP JUMPDEST SWAP1 PUSH1 0x1F DUP1 NOT SWAP2 ADD AND DUP2 ADD SWAP1 DUP2 LT PUSH8 0xFFFFFFFFFFFFFFFF DUP3 GT OR PUSH2 0x5E1 JUMPI PUSH1 0x40 MSTORE JUMP JUMPDEST PUSH1 0xC SLOAD DUP2 LT ISZERO PUSH2 0x16C7 JUMPI PUSH1 0xC PUSH1 0x0 MSTORE PUSH32 0xDF6966C971051C3D54EC59162606531493A51404A002842F56009D7E5CF4A8C7 ADD SWAP1 PUSH1 0x0 SWAP1 JUMP JUMPDEST PUSH4 0x4E487B71 PUSH1 0xE0 SHL PUSH1 0x0 MSTORE PUSH1 0x32 PUSH1 0x4 MSTORE PUSH1 0x24 PUSH1 0x0 REVERT JUMPDEST PUSH1 0x4 DUP3 LT ISZERO PUSH2 0x558 JUMPI MSTORE JUMP JUMPDEST ISZERO PUSH2 0x16F0 JUMPI JUMP JUMPDEST PUSH1 0x64 PUSH1 0x40 MLOAD PUSH3 0x461BCD PUSH1 0xE5 SHL DUP2 MSTORE PUSH1 0x20 PUSH1 0x4 DUP3 ADD MSTORE PUSH1 0x12 PUSH1 0x24 DUP3 ADD MSTORE PUSH32 0x4C6F616E206973206E6F74206163746976650000000000000000000000000000 PUSH1 0x44 DUP3 ADD MSTORE REVERT JUMPDEST SWAP1 DUP2 PUSH1 0x20 SWAP2 SUB SLT PUSH2 0xD3 JUMPI MLOAD PUSH1 0x1 PUSH1 0x1 PUSH1 0xA0 SHL SUB DUP2 AND DUP2 SUB PUSH2 0xD3 JUMPI SWAP1 JUMP JUMPDEST SWAP1 DUP2 PUSH1 0x20 SWAP2 SUB SLT PUSH2 0xD3 JUMPI MLOAD DUP1 ISZERO ISZERO DUP2 SUB PUSH2 0xD3 JUMPI SWAP1 JUMP JUMPDEST ISZERO PUSH2 0x1772 JUMPI JUMP JUMPDEST PUSH1 0x64 PUSH1 0x40 MLOAD PUSH3 0x461BCD PUSH1 0xE5 SHL DUP2 MSTORE PUSH1 0x20 PUSH1 0x4 DUP3 ADD MSTORE PUSH1 0x18 PUSH1 0x24 DUP3 ADD MSTORE PUSH32 0x496E73756666696369656E74206D657373616765206665650000000000000000 PUSH1 0x44 DUP3 ADD MSTORE REVERT JUMPDEST SWAP1 DUP2 PUSH1 0x20 SWAP2 SUB SLT PUSH2 0xD3 JUMPI MLOAD PUSH8 0xFFFFFFFFFFFFFFFF DUP2 AND DUP2 SUB PUSH2 0xD3 JUMPI SWAP1 JUMP JUMPDEST SWAP3 SWAP2 SWAP1 PUSH4 0xFFFFFFFF AND DUP4 MSTORE PUSH1 0x20 PUSH1 0x60 PUSH1 0x20 DUP6 ADD MSTORE DUP2 MLOAD SWAP2 DUP3 PUSH1 0x60 DUP7 ADD MSTORE PUSH1 0x0 JUMPDEST DUP4 DUP2 LT PUSH2 0x181D JUMPI POP POP POP PUSH1 0x40 PUSH1 0x80 DUP3 PUSH1 0x0 DUP3 DUP2 SWAP6 DUP9 ADD ADD MSTORE PUSH1 0x1F DUP1 NOT SWAP2 ADD AND DUP6 ADD ADD SWAP4 ADD MSTORE JUMP JUMPDEST DUP2 DUP2 ADD DUP4 ADD MLOAD DUP7 DUP3 ADD PUSH1 0x80 ADD MSTORE DUP3 ADD PUSH2 0x17F6 JUMP JUMPDEST PUSH4 0xFFFFFFFF DUP1 SWAP2 AND SWAP1 DUP2 EQ PUSH2 0x1846 JUMPI PUSH1 0x1 ADD SWAP1 JUMP JUMPDEST PUSH4 0x4E487B71 PUSH1 0xE0 SHL PUSH1 0x0 MSTORE PUSH1 0x11 PUSH1 0x4 MSTORE PUSH1 0x24 PUSH1 0x0 REVERT JUMPDEST SWAP1 PUSH1 0x4 DUP2 LT ISZERO PUSH2 0x558 JUMPI PUSH1 0xFF DUP1 NOT DUP4 SLOAD AND SWAP2 AND OR SWAP1 SSTORE JUMP JUMPDEST PUSH1 0xC SLOAD SWAP1 PUSH1 0x0 JUMPDEST DUP3 DUP2 LT PUSH2 0x188A JUMPI POP POP POP PUSH1 0x0 SWAP1 JUMP JUMPDEST DUP2 PUSH2 0x1894 DUP3 PUSH2 0x1690 JUMP JUMPDEST SWAP1 SLOAD SWAP1 PUSH1 0x3 SHL SHR EQ PUSH2 0x18A8 JUMPI PUSH1 0x1 ADD PUSH2 0x187B JUMP JUMPDEST POP POP POP PUSH1 0x1 SWAP1 JUMP JUMPDEST PUSH1 0x1 PUSH1 0x1 PUSH1 0xA0 SHL SUB PUSH1 0x0 SLOAD AND CALLER SUB PUSH2 0x18C4 JUMPI JUMP JUMPDEST PUSH1 0x64 PUSH1 0x40 MLOAD PUSH3 0x461BCD PUSH1 0xE5 SHL DUP2 MSTORE PUSH1 0x20 PUSH1 0x4 DUP3 ADD MSTORE PUSH1 0x20 PUSH1 0x24 DUP3 ADD MSTORE PUSH32 0x4F776E61626C653A2063616C6C6572206973206E6F7420746865206F776E6572 PUSH1 0x44 DUP3 ADD MSTORE REVERT JUMPDEST SWAP2 SWAP1 DUP3 SUB SWAP2 DUP3 GT PUSH2 0x1846 JUMPI JUMP JUMPDEST DUP2 DUP2 MUL SWAP3 SWAP2 DUP2 ISZERO SWAP2 DUP5 DIV EQ OR ISZERO PUSH2 0x1846 JUMPI JUMP JUMPDEST SWAP2 SWAP1 PUSH1 0xFF AND PUSH1 0x64 DUP2 GT PUSH2 0x194F JUMPI PUSH1 0x64 PUSH2 0x1944 PUSH2 0x194C SWAP3 DUP6 PUSH2 0x1915 JUMP JUMPDEST DIV DUP1 SWAP4 PUSH2 0x1908 JUMP JUMPDEST SWAP1 JUMP JUMPDEST PUSH1 0x84 PUSH1 0x40 MLOAD PUSH3 0x461BCD PUSH1 0xE5 SHL DUP2 MSTORE PUSH1 0x20 PUSH1 0x4 DUP3 ADD MSTORE PUSH1 0x24 DUP1 DUP3 ADD MSTORE PUSH32 0x50657263656E74616765206D757374206265206265747765656E203020616E64 PUSH1 0x44 DUP3 ADD MSTORE PUSH32 0x2031303000000000000000000000000000000000000000000000000000000000 PUSH1 0x64 DUP3 ADD MSTORE REVERT INVALID LOG2 PUSH5 0x6970667358 0x22 SLT KECCAK256 PUSH1 0xF2 PUSH29 0x5F7C78AE7DD5100F0F779A8FA68AAAB84BC7B6890CDB6504EBDE678EF1 PUSH5 0x736F6C6343 STOP ADDMOD XOR STOP CALLER "
        },
        "methodIdentifiers": {
          "_isTokenSupported(bytes32)": "f770a695",
          "acceptOwnership()": "79ba5097",
          "addForeignOrbital(uint16,bytes32)": "75f5172e",
          "addSupportedToken(address,uint256)": "4d8e3d3b",
          "borrow(uint16,bytes32,bytes32,uint256,bytes32)": "d80b52b6",
          "getAmountOut(bytes32,bytes32,uint256,uint8)": "7b76ba8a",
          "owner()": "8da5cb5b",
          "pendingOwner()": "e30c3978",
          "receiveOnBorrow(uint32,bytes32,bytes32,uint16,bytes32,bytes32,bytes32,uint256)": "5bdea914",
          "receiveOnRepay(uint32,bytes32)": "0b3735fb",
          "renounceOwnership()": "715018a6",
          "repay(bytes32)": "563dd613",
          "transferOwnership(address)": "f2fde38b"
        }
      }
    }
  }
}