{
  "contracts/Orbital.sol": {
    "Orbital": {
      "abi": [
        {
          "inputs": [
            {
              "internalType": "address",
              "name": "priceFeeds",
              "type": "address"
            },
            {
              "internalType": "address",
              "name": "wormhole",
              "type": "address"
            }
          ],
          "stateMutability": "nonpayable",
          "type": "constructor"
        },
        {
          "anonymous": false,
          "inputs": [
            {
              "indexed": true,
              "internalType": "address",
              "name": "previousOwner",
              "type": "address"
            },
            {
              "indexed": true,
              "internalType": "address",
              "name": "newOwner",
              "type": "address"
            }
          ],
          "name": "OwnershipTransferStarted",
          "type": "event"
        },
        {
          "anonymous": false,
          "inputs": [
            {
              "indexed": true,
              "internalType": "address",
              "name": "previousOwner",
              "type": "address"
            },
            {
              "indexed": true,
              "internalType": "address",
              "name": "newOwner",
              "type": "address"
            }
          ],
          "name": "OwnershipTransferred",
          "type": "event"
        },
        {
          "inputs": [
            {
              "internalType": "address",
              "name": "tokenId",
              "type": "address"
            }
          ],
          "name": "_isNftSupported",
          "outputs": [
            {
              "internalType": "bool",
              "name": "",
              "type": "bool"
            }
          ],
          "stateMutability": "view",
          "type": "function"
        },
        {
          "inputs": [
            {
              "internalType": "address",
              "name": "tokenId",
              "type": "address"
            }
          ],
          "name": "_isTokenSupported",
          "outputs": [
            {
              "internalType": "bool",
              "name": "",
              "type": "bool"
            }
          ],
          "stateMutability": "view",
          "type": "function"
        },
        {
          "inputs": [],
          "name": "acceptOwnership",
          "outputs": [],
          "stateMutability": "nonpayable",
          "type": "function"
        },
        {
          "inputs": [
            {
              "internalType": "uint16",
              "name": "toChainId",
              "type": "uint16"
            },
            {
              "internalType": "bytes32",
              "name": "tokenIn",
              "type": "bytes32"
            },
            {
              "internalType": "bytes32",
              "name": "tokenOut",
              "type": "bytes32"
            },
            {
              "internalType": "enum IOrbital.TokenType",
              "name": "tokenType",
              "type": "uint8"
            },
            {
              "internalType": "uint256",
              "name": "value",
              "type": "uint256"
            },
            {
              "internalType": "bytes32",
              "name": "receiver",
              "type": "bytes32"
            }
          ],
          "name": "borrow",
          "outputs": [
            {
              "internalType": "bytes32",
              "name": "",
              "type": "bytes32"
            }
          ],
          "stateMutability": "payable",
          "type": "function"
        },
        {
          "inputs": [],
          "name": "owner",
          "outputs": [
            {
              "internalType": "address",
              "name": "",
              "type": "address"
            }
          ],
          "stateMutability": "view",
          "type": "function"
        },
        {
          "inputs": [],
          "name": "pendingOwner",
          "outputs": [
            {
              "internalType": "address",
              "name": "",
              "type": "address"
            }
          ],
          "stateMutability": "view",
          "type": "function"
        },
        {
          "inputs": [
            {
              "internalType": "uint32",
              "name": "wormholeNonce",
              "type": "uint32"
            },
            {
              "internalType": "bytes32",
              "name": "method",
              "type": "bytes32"
            },
            {
              "internalType": "bytes32",
              "name": "loanId",
              "type": "bytes32"
            },
            {
              "internalType": "bytes32",
              "name": "receiver",
              "type": "bytes32"
            },
            {
              "internalType": "uint16",
              "name": "fromChainId",
              "type": "uint16"
            },
            {
              "internalType": "bytes32",
              "name": "fromContractId",
              "type": "bytes32"
            },
            {
              "internalType": "bytes32",
              "name": "tokenOut",
              "type": "bytes32"
            },
            {
              "internalType": "enum IOrbital.TokenType",
              "name": "tokenType",
              "type": "uint8"
            },
            {
              "internalType": "uint256",
              "name": "value",
              "type": "uint256"
            }
          ],
          "name": "receiveOnBorrow",
          "outputs": [],
          "stateMutability": "nonpayable",
          "type": "function"
        },
        {
          "inputs": [
            {
              "internalType": "uint32",
              "name": "wormholeNonce",
              "type": "uint32"
            },
            {
              "internalType": "bytes32",
              "name": "method",
              "type": "bytes32"
            },
            {
              "internalType": "bytes32",
              "name": "loanId",
              "type": "bytes32"
            }
          ],
          "name": "receiveOnRepay",
          "outputs": [],
          "stateMutability": "nonpayable",
          "type": "function"
        },
        {
          "inputs": [],
          "name": "renounceOwnership",
          "outputs": [],
          "stateMutability": "nonpayable",
          "type": "function"
        },
        {
          "inputs": [
            {
              "internalType": "bytes32",
              "name": "loanId",
              "type": "bytes32"
            }
          ],
          "name": "repay",
          "outputs": [
            {
              "internalType": "bool",
              "name": "",
              "type": "bool"
            }
          ],
          "stateMutability": "payable",
          "type": "function"
        },
        {
          "inputs": [
            {
              "internalType": "address",
              "name": "newOwner",
              "type": "address"
            }
          ],
          "name": "transferOwnership",
          "outputs": [],
          "stateMutability": "nonpayable",
          "type": "function"
        }
      ],
      "evm": {
        "bytecode": {
          "linkReferences": {
            "contracts/libraries/AddressToBytes32.sol": {
              "AddressToBytes32": [
                {
                  "length": 20,
                  "start": 863
                },
                {
                  "length": 20,
                  "start": 929
                },
                {
                  "length": 20,
                  "start": 2643
                },
                {
                  "length": 20,
                  "start": 2954
                },
                {
                  "length": 20,
                  "start": 3108
                },
                {
                  "length": 20,
                  "start": 3368
                },
                {
                  "length": 20,
                  "start": 4109
                },
                {
                  "length": 20,
                  "start": 4423
                },
                {
                  "length": 20,
                  "start": 4567
                },
                {
                  "length": 20,
                  "start": 4779
                },
                {
                  "length": 20,
                  "start": 5723
                },
                {
                  "length": 20,
                  "start": 7085
                },
                {
                  "length": 20,
                  "start": 7433
                }
              ]
            }
          },
          "object": "60a0346200015857601f6200211338819003918201601f19168301916001600160401b038311848410176200015d57808492604094855283398101031262000158576200005a6020620000528362000173565b920162000173565b600180546001600160a01b0319908116909155600080543381841681178355604051956001600160a01b0395949386939192918416907f8be0079c531659141344cd1fd0a4f28419497f9722a3daafe3b4186f6b6457e09080a36f13d397d093d49493d5d7d351551213d160821b6002556e13d397d49154105657d351551213d1608a1b6003557013d397d111519055531517d351551213d1607a1b6004556007805460ff191660501790556005805463ffffffff19166001179055600e8054909316911617905516608052611f8a90816200018982396080518181816109a901528181610b5501528181610f66015281816110d801526116340152f35b600080fd5b634e487b7160e01b600052604160045260246000fd5b51906001600160a01b0382168203620001585756fe6080604052600436101561001257600080fd5b60003560e01c806305bd0120146107a257806313d80c1e1461072e5780632e9ce2b4146106e3578063563dd613146106ca578063715018a61461065b57806379ba50971461057a5780638da5cb5b146105535780639c1127901461051a578063e30c3978146104f3578063f2b2aaa4146101125763f2fde38b1461009557600080fd5b3461010d57602036600319011261010d576004356001600160a01b0380821680920361010d576100c3611928565b8173ffffffffffffffffffffffffffffffffffffffff196001541617600155600054167f38d16b8cac22d99fc7c124b9cd0de2d3fa1faef420bfe791d8c362d765e22700600080a3005b600080fd5b3461010d5761012036600319011261010d5761012c6107d1565b6084359061ffff8216820361010d57600260e435101561010d5761014e611928565b63ffffffff8116600052600660205261016f60ff604060002054161561084a565b600254602435036104b75761ffff8216600052600860205260a4356040600020540361047357604435600052600a60205260ff6004604060002001541660048110156103925761042f57604051632e7682c760e11b815260c435600482015260208160248173__$cd1346a8e2955df852b4501a7004a2b636$__5af49081156103d757600091610410575b50604051632e7682c760e11b8152606435600482015260208160248173__$cd1346a8e2955df852b4501a7004a2b636$__5af49081156103d7576001600160a01b0392602092610284926000916103e3575b5060405163a9059cbb60e01b81526001600160a01b039091166004820152610104356024820152938492839160009183906044820190565b0393165af180156103d7576103a8575b5060c435600052600b602052604060002054916040516102b381611341565b606435815260208101906102c960e43583611329565b6040810160c43581526060820161010435815260808301916001835260a084019442865260c0850198895261ffff60e0860197168752604435600052600a6020526040600020945185555160028110156103925761032a9060018601611e31565b516002840155516003830155519060048210156103925763ffffffff9561ffff9361035a60079460048501611e49565b5160058301555160068201550191511661ffff198254161790551660005260066020526040600020600160ff19825416179055600080f35b634e487b7160e01b600052602160045260246000fd5b6103c99060203d6020116103d0575b6103c181836113a4565b810190611e8c565b5082610294565b503d6103b7565b6040513d6000823e3d90fd5b6104039150843d8611610409575b6103fb81836113a4565b810190611411565b8761024c565b503d6103f1565b610429915060203d602011610409576103fb81836113a4565b836101fa565b606460405162461bcd60e51b815260206004820152601460248201527f4c6f616e20616c726561647920637265617465640000000000000000000000006044820152fd5b606460405162461bcd60e51b815260206004820152601760248201527f496e76616c696420666f726569676e206f72626974616c0000000000000000006044820152fd5b60405162461bcd60e51b815260206004820152601060248201526f155b9919599a5b9959081b595d1a1bd960821b6044820152606490fd5b0390fd5b3461010d57600036600319011261010d5760206001600160a01b0360015416604051908152f35b3461010d57602036600319011261010d576004356001600160a01b038116810361010d576105496020916118cc565b6040519015158152f35b3461010d57600036600319011261010d5760206001600160a01b0360005416604051908152f35b3461010d57600036600319011261010d576001546001600160a01b0333818316036105f15773ffffffffffffffffffffffffffffffffffffffff198092166001556000549133908316176000553391167f8be0079c531659141344cd1fd0a4f28419497f9722a3daafe3b4186f6b6457e0600080a3005b608460405162461bcd60e51b815260206004820152602960248201527f4f776e61626c6532537465703a2063616c6c6572206973206e6f74207468652060448201527f6e6577206f776e657200000000000000000000000000000000000000000000006064820152fd5b3461010d57600036600319011261010d57610674611928565b60006001600160a01b0373ffffffffffffffffffffffffffffffffffffffff19806001541660015582549081168355167f8be0079c531659141344cd1fd0a4f28419497f9722a3daafe3b4186f6b6457e08280a3005b602036600319011261010d576020610549600435611430565b60c036600319011261010d5760043561ffff8116810361010d5760643590600282101561010d576020916107269160a43591608435916044359060243590610895565b604051908152f35b3461010d57606036600319011261010d5763ffffffff61074c6107d1565b610754611928565b1680600052600660205261077060ff604060002054161561084a565b600354602435036104b757610786604435611980565b506000908152600660205260409020805460ff19166001179055005b3461010d57602036600319011261010d576004356001600160a01b038116810361010d576105496020916107e4565b6004359063ffffffff8216820361010d57565b600d805491906000805b8481106107ff575050505050600090565b8282526001600160a01b0380827fd7b6990105719101dabeb77144f2a3385c8033acd3af97e9423a695e81ad1eb501541690851614610840576001016107ee565b5050505050600190565b1561085157565b606460405162461bcd60e51b815260206004820152601b60248201527f4e6f6e63652077617320616c72656164792065786563757465642e00000000006044820152fd5b939195949592909260009160028110156113155780610e625750604051632e7682c760e11b815284600482015260208160248173__$cd1346a8e2955df852b4501a7004a2b636$__5af4908115610e57578391610e38575b506108ff6108fa826118cc565b611d1f565b6040516323b872dd60e01b8152336004820152306024820152604481018590526001600160a01b039160209082906064908290889087165af18015610e0e57610e19575b506064602082600e54166040519283809263f52b31f160e01b82528a60048301528760248301528960448301525afa8015610e0e578490610dda575b610990915060ff6007541690611ec4565b509760405190631a90a21960e01b8252602082600481867f0000000000000000000000000000000000000000000000000000000000000000165afa918215610dcf578592610d9b575b506109e5823414611d6a565b604051996382c947b760e01b8b523060048c015260208b60248173__$cd1346a8e2955df852b4501a7004a2b636$__5af4948515610d90578695610d5b575b61ffff8a1687526008602090815260408089205460055482513381860190815293810188905263ffffffff9091166060820152426080820152929e509791610a798160a081015b03601f1981018352826113a4565b5190209a600254946040519e8f6382c947b760e01b815233600482015260248173__$cd1346a8e2955df852b4501a7004a2b636$__5af48015610d50578d9e9f8b9c9d9e9a9b91610d05575b50604080516020818101999099529081019a909a5260608a0152608089015261ffff1660a088015260c087015260e0860196909652610100850195909552610120840194909452610b5193929190610b2b8361014081015b03601f1981018552846113a4565b63ffffffff60055416906040518096819582946358cd21bf60e11b845260048401611dd5565b03927f0000000000000000000000000000000000000000000000000000000000000000165af18015610ccb57610cd6575b50604051926382c947b760e01b845233600485015260208460248173__$cd1346a8e2955df852b4501a7004a2b636$__5af4938415610ccb578294610c97575b5060405193610bd085611388565b84526020840192828452604085019182526060850190815260808501916001835260a086019442865287855260096020526040852096518755516002811015610c8357610c209060018801611e31565b51600286015551600385015551906004821015610c6f575090610c4860059260048501611e49565b5191015560055463ffffffff610c5f818316611e61565b169063ffffffff19161760055590565b80634e487b7160e01b602492526021600452fd5b602485634e487b7160e01b81526021600452fd5b9093506020813d602011610cc3575b81610cb3602093836113a4565b8101031261010d57519238610bc2565b3d9150610ca6565b6040513d84823e3d90fd5b610cf79060203d602011610cfe575b610cef81836113a4565b810190611db5565b5038610b82565b503d610ce5565b939950509390969594926020833d602011610d48575b81610d28602093836113a4565b8101031261010d5791518d98969795969395919492939290610b1d610ac5565b3d9150610d1b565b6040513d8c823e3d90fd5b945060208b3d602011610d88575b81610d76602093836113a4565b8101031261010d5760209a5194610a24565b3d9150610d69565b6040513d88823e3d90fd5b9091506020813d602011610dc7575b81610db7602093836113a4565b8101031261010d575190386109d9565b3d9150610daa565b6040513d87823e3d90fd5b506020813d602011610e06575b81610df4602093836113a4565b8101031261010d57610990905161097f565b3d9150610de7565b6040513d86823e3d90fd5b610e319060203d6020116103d0576103c181836113a4565b5038610943565b610e51915060203d602011610409576103fb81836113a4565b386108ed565b6040513d85823e3d90fd5b6001036104b757604051632e7682c760e11b815284600482015260208160248173__$cd1346a8e2955df852b4501a7004a2b636$__5af4908115610e575783916112f6575b50610eb46108fa826107e4565b6001600160a01b03809116803b156112f2576040516323b872dd60e01b8152336004820152306024820152604481018690529084908290606490829084905af18015610e0e576112df575b506064602082600e54166040519283809263f52b31f160e01b82528a6004830152876024830152600160448301525afa8015610e0e5784906112ab575b610f4d915060ff6007541690611ec4565b509760405190631a90a21960e01b8252602082600481867f0000000000000000000000000000000000000000000000000000000000000000165afa918215610dcf578592611277575b50610fa2823414611d6a565b604051996382c947b760e01b8b523060048c015260208b60248173__$cd1346a8e2955df852b4501a7004a2b636$__5af4948515610d90578695611242575b61ffff8a1687526008602090815260408089205460055482513381860190815293810188905263ffffffff9091166060820152426080820152929e50979161102c8160a08101610a6b565b5190209a600354946040519e8f6382c947b760e01b815233600482015260248173__$cd1346a8e2955df852b4501a7004a2b636$__5af48015610d50578d9e9f8b9c9d9e9a9b916111f7575b50604080516020818101999099529081019a909a5260608a0152608089015261ffff1660a088015260c087015260e08601969096526101008501959095526101208401949094526110d493929190610b2b836101408101610b1d565b03927f0000000000000000000000000000000000000000000000000000000000000000165af18015610ccb576111d8575b50604051926382c947b760e01b845233600485015260208460248173__$cd1346a8e2955df852b4501a7004a2b636$__5af4938415610ccb5782946111a4575b506040519361115385611388565b8452602084019260018452604085019182526060850190815260808501916001835260a086019442865287855260096020526040852096518755516002811015610c8357610c209060018801611e31565b9093506020813d6020116111d0575b816111c0602093836113a4565b8101031261010d57519238611145565b3d91506111b3565b6111f09060203d602011610cfe57610cef81836113a4565b5038611105565b939950509390969594926020833d60201161123a575b8161121a602093836113a4565b8101031261010d5791518d98969795969395919492939290610b1d611078565b3d915061120d565b945060208b3d60201161126f575b8161125d602093836113a4565b8101031261010d5760209a5194610fe1565b3d9150611250565b9091506020813d6020116112a3575b81611293602093836113a4565b8101031261010d57519038610f96565b3d9150611286565b506020813d6020116112d7575b816112c5602093836113a4565b8101031261010d57610f4d9051610f3c565b3d91506112b8565b6112eb90939193611374565b9138610eff565b8380fd5b61130f915060203d602011610409576103fb81836113a4565b38610ea7565b602483634e487b7160e01b81526021600452fd5b60028210156103925752565b60048210156103925752565b610100810190811067ffffffffffffffff82111761135e57604052565b634e487b7160e01b600052604160045260246000fd5b67ffffffffffffffff811161135e57604052565b60c0810190811067ffffffffffffffff82111761135e57604052565b90601f8019910116810190811067ffffffffffffffff82111761135e57604052565b156113cd57565b606460405162461bcd60e51b815260206004820152601260248201527f4c6f616e206973206e6f742061637469766500000000000000000000000000006044820152fd5b9081602091031261010d57516001600160a01b038116810361010d5790565b6007600091808352602090600a825260408085209481519261145184611341565b8654845260ff6001880154169361146b8682019586611329565b6002880154848201526003880154606082015260049760ff898201541690611497608084019283611335565b600581015460a0840152600681015460c084015261ffff98899101541660e083015251888110156118b95760016114ce91146113c6565b519573__$cd1346a8e2955df852b4501a7004a2b636$__90845191632e7682c760e11b988984528a84015260249688848981855af493841561176f57869461189a575b506001600160a01b03938433911603611859575160028110156118475761180857838552600a88528585209860038a01549065f7cf9b8d00006115718c61156c611565600660058401549301549242611eb7565b9186611ea4565b611ea4565b0482018092116117f65760028b015488519182528c82015289818a81865af49081156117ec57918a916115e49389916117cf575b508d89888c518097819682956323b872dd60e01b84523090339085016040919493929460608201956001600160a01b0380921683521660208201520152565b0393165af1801561176f57908992916117b2575b508651978880926382c947b760e01b82528d30908301525af49586156117a8578496611779575b506007880154168084526008875284842054917f00000000000000000000000000000000000000000000000000000000000000001691855196631a90a21960e01b885288888c81875afa92831561176f5790899594939291879361172b575b6116de995061168e843414611d6a565b6003549589519688880152898701526060860152608085015260a084015260a083526116b983611388565b63ffffffff60055416908a8751988995869485936358cd21bf60e11b85528401611dd5565b03925af1918215611721575050611703575b505001805460ff19166002179055600190565b8161171992903d10610cfe57610cef81836113a4565b5038806116f0565b51903d90823e3d90fd5b9496979886819395979294503d8311611768575b61174981836113a4565b8101031261176457916116de9796959391899593519261167e565b8680fd5b503d61173f565b87513d88823e3d90fd5b9095508681813d83116117a1575b61179181836113a4565b810103126112f25751943861161f565b503d611787565b85513d86823e3d90fd5b6117c890833d85116103d0576103c181836113a4565b50386115f8565b6117e69150833d8511610409576103fb81836113a4565b386115a5565b88513d89823e3d90fd5b888760118e634e487b7160e01b835252fd5b6104ef8a875191829162461bcd60e51b8352820160609060208152601060208201526f155b9919599a5b9959081b595d1a1bd960821b60408201520190565b878660218d634e487b7160e01b835252fd5b60648b60118a8c8b519362461bcd60e51b85528401528201527f556e617574686f72697a6564206c6f616e0000000000000000000000000000006044820152fd5b6118b2919450893d8b11610409576103fb81836113a4565b9238611511565b60248460218b634e487b7160e01b835252fd5b600c805491906000805b8481106118e7575050505050600090565b8282526001600160a01b0380827fdf6966c971051c3d54ec59162606531493a51404a002842f56009d7e5cf4a8c701541690851614610840576001016118d6565b6001600160a01b0360005416330361193c57565b606460405162461bcd60e51b815260206004820152602060248201527f4f776e61626c653a2063616c6c6572206973206e6f7420746865206f776e65726044820152fd5b60009080825260209160098352604092838220938051936119a085611388565b8554855260ff6001870154166119b98487019182611329565b60029687810154848801526003810154606088015260049660a0600560ff8a85015416936119eb608085019586611335565b01549101525186811015611d0c576001611a0591146113c6565b805187811015611d0c57611b5c5750835260098252808320928584015473__$cd1346a8e2955df852b4501a7004a2b636$__90835190632e7682c760e11b90818352888301528582602481865af49182156117a8579086918593611b3d575b5060248854918751958693849283528c8301525af4918215611b33579185918493611ad1969592611b14575b50600388015491846001600160a01b038b8851998a968795869363a9059cbb60e01b85528401602090939291936001600160a01b0360408201951681520152565b0393165af1918215611721575050611af6575b5050019060ff19825416179055600190565b81611b0c92903d106103d0576103c181836113a4565b503880611ae4565b611b2c919250833d8511610409576103fb81836113a4565b9038611a90565b84513d85823e3d90fd5b611b55919350823d8411610409576103fb81836113a4565b9138611a64565b939192935186811015611cf957600103611cba57815260098352818120928584015473__$cd1346a8e2955df852b4501a7004a2b636$__845191632e7682c760e11b90818452888401528383602481855af4928315611cb0579084918694611c91575b5060248854918851948593849283528c8301525af49283156117a8578493611c67575b50506001600160a01b0316600385015491813b156112f25784516323b872dd60e01b81526001600160a01b0390911681880190815230602082015260408101939093529392918291859182908490829060600103925af1918215611721575050611c58575b50019060ff19825416179055600190565b611c6190611374565b38611c47565b6001600160a01b039293509081611c8992903d10610409576103fb81836113a4565b919038611be2565b611ca9919450823d8411610409576103fb81836113a4565b9238611bbf565b86513d87823e3d90fd5b6104ef85845191829162461bcd60e51b8352820160609060208152601060208201526f155b9919599a5b9959081b595d1a1bd960821b60408201520190565b602483602188634e487b7160e01b835252fd5b602486602189634e487b7160e01b835252fd5b15611d2657565b606460405162461bcd60e51b815260206004820152601360248201527f546f6b656e206e6f7420737570706f72746564000000000000000000000000006044820152fd5b15611d7157565b606460405162461bcd60e51b815260206004820152601860248201527f496e73756666696369656e74206d6573736167652066656500000000000000006044820152fd5b9081602091031261010d575167ffffffffffffffff8116810361010d5790565b92919063ffffffff16835260206060602085015281519182606086015260005b838110611e1d57505050604060808260008260c89588010152601f8019910116850101930152565b818101830151868201608001528201611df5565b9060028110156103925760ff80198354169116179055565b9060048110156103925760ff80198354169116179055565b63ffffffff809116908114611e765760010190565b634e487b7160e01b600052601160045260246000fd5b9081602091031261010d5751801515810361010d5790565b81810292918115918404141715611e7657565b91908203918211611e7657565b919060ff1660648111611eeb576064611ee0611ee89285611ea4565b048093611eb7565b90565b608460405162461bcd60e51b8152602060048201526024808201527f50657263656e74616765206d757374206265206265747765656e203020616e6460448201527f20313030000000000000000000000000000000000000000000000000000000006064820152fdfea2646970667358221220bc4065c9b318d2e77d6e7c67640c2f551799296922693922ec72d9ca9794392464736f6c63430008180033",
          "opcodes": "PUSH1 0xA0 CALLVALUE PUSH3 0x158 JUMPI PUSH1 0x1F PUSH3 0x2113 CODESIZE DUP2 SWAP1 SUB SWAP2 DUP3 ADD PUSH1 0x1F NOT AND DUP4 ADD SWAP2 PUSH1 0x1 PUSH1 0x1 PUSH1 0x40 SHL SUB DUP4 GT DUP5 DUP5 LT OR PUSH3 0x15D JUMPI DUP1 DUP5 SWAP3 PUSH1 0x40 SWAP5 DUP6 MSTORE DUP4 CODECOPY DUP2 ADD SUB SLT PUSH3 0x158 JUMPI PUSH3 0x5A PUSH1 0x20 PUSH3 0x52 DUP4 PUSH3 0x173 JUMP JUMPDEST SWAP3 ADD PUSH3 0x173 JUMP JUMPDEST PUSH1 0x1 DUP1 SLOAD PUSH1 0x1 PUSH1 0x1 PUSH1 0xA0 SHL SUB NOT SWAP1 DUP2 AND SWAP1 SWAP2 SSTORE PUSH1 0x0 DUP1 SLOAD CALLER DUP2 DUP5 AND DUP2 OR DUP4 SSTORE PUSH1 0x40 MLOAD SWAP6 PUSH1 0x1 PUSH1 0x1 PUSH1 0xA0 SHL SUB SWAP6 SWAP5 SWAP4 DUP7 SWAP4 SWAP2 SWAP3 SWAP2 DUP5 AND SWAP1 PUSH32 0x8BE0079C531659141344CD1FD0A4F28419497F9722A3DAAFE3B4186F6B6457E0 SWAP1 DUP1 LOG3 PUSH16 0x13D397D093D49493D5D7D351551213D1 PUSH1 0x82 SHL PUSH1 0x2 SSTORE PUSH15 0x13D397D49154105657D351551213D1 PUSH1 0x8A SHL PUSH1 0x3 SSTORE PUSH17 0x13D397D111519055531517D351551213D1 PUSH1 0x7A SHL PUSH1 0x4 SSTORE PUSH1 0x7 DUP1 SLOAD PUSH1 0xFF NOT AND PUSH1 0x50 OR SWAP1 SSTORE PUSH1 0x5 DUP1 SLOAD PUSH4 0xFFFFFFFF NOT AND PUSH1 0x1 OR SWAP1 SSTORE PUSH1 0xE DUP1 SLOAD SWAP1 SWAP4 AND SWAP2 AND OR SWAP1 SSTORE AND PUSH1 0x80 MSTORE PUSH2 0x1F8A SWAP1 DUP2 PUSH3 0x189 DUP3 CODECOPY PUSH1 0x80 MLOAD DUP2 DUP2 DUP2 PUSH2 0x9A9 ADD MSTORE DUP2 DUP2 PUSH2 0xB55 ADD MSTORE DUP2 DUP2 PUSH2 0xF66 ADD MSTORE DUP2 DUP2 PUSH2 0x10D8 ADD MSTORE PUSH2 0x1634 ADD MSTORE RETURN JUMPDEST PUSH1 0x0 DUP1 REVERT JUMPDEST PUSH4 0x4E487B71 PUSH1 0xE0 SHL PUSH1 0x0 MSTORE PUSH1 0x41 PUSH1 0x4 MSTORE PUSH1 0x24 PUSH1 0x0 REVERT JUMPDEST MLOAD SWAP1 PUSH1 0x1 PUSH1 0x1 PUSH1 0xA0 SHL SUB DUP3 AND DUP3 SUB PUSH3 0x158 JUMPI JUMP INVALID PUSH1 0x80 PUSH1 0x40 MSTORE PUSH1 0x4 CALLDATASIZE LT ISZERO PUSH2 0x12 JUMPI PUSH1 0x0 DUP1 REVERT JUMPDEST PUSH1 0x0 CALLDATALOAD PUSH1 0xE0 SHR DUP1 PUSH4 0x5BD0120 EQ PUSH2 0x7A2 JUMPI DUP1 PUSH4 0x13D80C1E EQ PUSH2 0x72E JUMPI DUP1 PUSH4 0x2E9CE2B4 EQ PUSH2 0x6E3 JUMPI DUP1 PUSH4 0x563DD613 EQ PUSH2 0x6CA JUMPI DUP1 PUSH4 0x715018A6 EQ PUSH2 0x65B JUMPI DUP1 PUSH4 0x79BA5097 EQ PUSH2 0x57A JUMPI DUP1 PUSH4 0x8DA5CB5B EQ PUSH2 0x553 JUMPI DUP1 PUSH4 0x9C112790 EQ PUSH2 0x51A JUMPI DUP1 PUSH4 0xE30C3978 EQ PUSH2 0x4F3 JUMPI DUP1 PUSH4 0xF2B2AAA4 EQ PUSH2 0x112 JUMPI PUSH4 0xF2FDE38B EQ PUSH2 0x95 JUMPI PUSH1 0x0 DUP1 REVERT JUMPDEST CALLVALUE PUSH2 0x10D JUMPI PUSH1 0x20 CALLDATASIZE PUSH1 0x3 NOT ADD SLT PUSH2 0x10D JUMPI PUSH1 0x4 CALLDATALOAD PUSH1 0x1 PUSH1 0x1 PUSH1 0xA0 SHL SUB DUP1 DUP3 AND DUP1 SWAP3 SUB PUSH2 0x10D JUMPI PUSH2 0xC3 PUSH2 0x1928 JUMP JUMPDEST DUP2 PUSH20 0xFFFFFFFFFFFFFFFFFFFFFFFFFFFFFFFFFFFFFFFF NOT PUSH1 0x1 SLOAD AND OR PUSH1 0x1 SSTORE PUSH1 0x0 SLOAD AND PUSH32 0x38D16B8CAC22D99FC7C124B9CD0DE2D3FA1FAEF420BFE791D8C362D765E22700 PUSH1 0x0 DUP1 LOG3 STOP JUMPDEST PUSH1 0x0 DUP1 REVERT JUMPDEST CALLVALUE PUSH2 0x10D JUMPI PUSH2 0x120 CALLDATASIZE PUSH1 0x3 NOT ADD SLT PUSH2 0x10D JUMPI PUSH2 0x12C PUSH2 0x7D1 JUMP JUMPDEST PUSH1 0x84 CALLDATALOAD SWAP1 PUSH2 0xFFFF DUP3 AND DUP3 SUB PUSH2 0x10D JUMPI PUSH1 0x2 PUSH1 0xE4 CALLDATALOAD LT ISZERO PUSH2 0x10D JUMPI PUSH2 0x14E PUSH2 0x1928 JUMP JUMPDEST PUSH4 0xFFFFFFFF DUP2 AND PUSH1 0x0 MSTORE PUSH1 0x6 PUSH1 0x20 MSTORE PUSH2 0x16F PUSH1 0xFF PUSH1 0x40 PUSH1 0x0 KECCAK256 SLOAD AND ISZERO PUSH2 0x84A JUMP JUMPDEST PUSH1 0x2 SLOAD PUSH1 0x24 CALLDATALOAD SUB PUSH2 0x4B7 JUMPI PUSH2 0xFFFF DUP3 AND PUSH1 0x0 MSTORE PUSH1 0x8 PUSH1 0x20 MSTORE PUSH1 0xA4 CALLDATALOAD PUSH1 0x40 PUSH1 0x0 KECCAK256 SLOAD SUB PUSH2 0x473 JUMPI PUSH1 0x44 CALLDATALOAD PUSH1 0x0 MSTORE PUSH1 0xA PUSH1 0x20 MSTORE PUSH1 0xFF PUSH1 0x4 PUSH1 0x40 PUSH1 0x0 KECCAK256 ADD SLOAD AND PUSH1 0x4 DUP2 LT ISZERO PUSH2 0x392 JUMPI PUSH2 0x42F JUMPI PUSH1 0x40 MLOAD PUSH4 0x2E7682C7 PUSH1 0xE1 SHL DUP2 MSTORE PUSH1 0xC4 CALLDATALOAD PUSH1 0x4 DUP3 ADD MSTORE PUSH1 0x20 DUP2 PUSH1 0x24 DUP2 PUSH20 0x0 GAS DELEGATECALL SWAP1 DUP2 ISZERO PUSH2 0x3D7 JUMPI PUSH1 0x0 SWAP2 PUSH2 0x410 JUMPI JUMPDEST POP PUSH1 0x40 MLOAD PUSH4 0x2E7682C7 PUSH1 0xE1 SHL DUP2 MSTORE PUSH1 0x64 CALLDATALOAD PUSH1 0x4 DUP3 ADD MSTORE PUSH1 0x20 DUP2 PUSH1 0x24 DUP2 PUSH20 0x0 GAS DELEGATECALL SWAP1 DUP2 ISZERO PUSH2 0x3D7 JUMPI PUSH1 0x1 PUSH1 0x1 PUSH1 0xA0 SHL SUB SWAP3 PUSH1 0x20 SWAP3 PUSH2 0x284 SWAP3 PUSH1 0x0 SWAP2 PUSH2 0x3E3 JUMPI JUMPDEST POP PUSH1 0x40 MLOAD PUSH4 0xA9059CBB PUSH1 0xE0 SHL DUP2 MSTORE PUSH1 0x1 PUSH1 0x1 PUSH1 0xA0 SHL SUB SWAP1 SWAP2 AND PUSH1 0x4 DUP3 ADD MSTORE PUSH2 0x104 CALLDATALOAD PUSH1 0x24 DUP3 ADD MSTORE SWAP4 DUP5 SWAP3 DUP4 SWAP2 PUSH1 0x0 SWAP2 DUP4 SWAP1 PUSH1 0x44 DUP3 ADD SWAP1 JUMP JUMPDEST SUB SWAP4 AND GAS CALL DUP1 ISZERO PUSH2 0x3D7 JUMPI PUSH2 0x3A8 JUMPI JUMPDEST POP PUSH1 0xC4 CALLDATALOAD PUSH1 0x0 MSTORE PUSH1 0xB PUSH1 0x20 MSTORE PUSH1 0x40 PUSH1 0x0 KECCAK256 SLOAD SWAP2 PUSH1 0x40 MLOAD PUSH2 0x2B3 DUP2 PUSH2 0x1341 JUMP JUMPDEST PUSH1 0x64 CALLDATALOAD DUP2 MSTORE PUSH1 0x20 DUP2 ADD SWAP1 PUSH2 0x2C9 PUSH1 0xE4 CALLDATALOAD DUP4 PUSH2 0x1329 JUMP JUMPDEST PUSH1 0x40 DUP2 ADD PUSH1 0xC4 CALLDATALOAD DUP2 MSTORE PUSH1 0x60 DUP3 ADD PUSH2 0x104 CALLDATALOAD DUP2 MSTORE PUSH1 0x80 DUP4 ADD SWAP2 PUSH1 0x1 DUP4 MSTORE PUSH1 0xA0 DUP5 ADD SWAP5 TIMESTAMP DUP7 MSTORE PUSH1 0xC0 DUP6 ADD SWAP9 DUP10 MSTORE PUSH2 0xFFFF PUSH1 0xE0 DUP7 ADD SWAP8 AND DUP8 MSTORE PUSH1 0x44 CALLDATALOAD PUSH1 0x0 MSTORE PUSH1 0xA PUSH1 0x20 MSTORE PUSH1 0x40 PUSH1 0x0 KECCAK256 SWAP5 MLOAD DUP6 SSTORE MLOAD PUSH1 0x2 DUP2 LT ISZERO PUSH2 0x392 JUMPI PUSH2 0x32A SWAP1 PUSH1 0x1 DUP7 ADD PUSH2 0x1E31 JUMP JUMPDEST MLOAD PUSH1 0x2 DUP5 ADD SSTORE MLOAD PUSH1 0x3 DUP4 ADD SSTORE MLOAD SWAP1 PUSH1 0x4 DUP3 LT ISZERO PUSH2 0x392 JUMPI PUSH4 0xFFFFFFFF SWAP6 PUSH2 0xFFFF SWAP4 PUSH2 0x35A PUSH1 0x7 SWAP5 PUSH1 0x4 DUP6 ADD PUSH2 0x1E49 JUMP JUMPDEST MLOAD PUSH1 0x5 DUP4 ADD SSTORE MLOAD PUSH1 0x6 DUP3 ADD SSTORE ADD SWAP2 MLOAD AND PUSH2 0xFFFF NOT DUP3 SLOAD AND OR SWAP1 SSTORE AND PUSH1 0x0 MSTORE PUSH1 0x6 PUSH1 0x20 MSTORE PUSH1 0x40 PUSH1 0x0 KECCAK256 PUSH1 0x1 PUSH1 0xFF NOT DUP3 SLOAD AND OR SWAP1 SSTORE PUSH1 0x0 DUP1 RETURN JUMPDEST PUSH4 0x4E487B71 PUSH1 0xE0 SHL PUSH1 0x0 MSTORE PUSH1 0x21 PUSH1 0x4 MSTORE PUSH1 0x24 PUSH1 0x0 REVERT JUMPDEST PUSH2 0x3C9 SWAP1 PUSH1 0x20 RETURNDATASIZE PUSH1 0x20 GT PUSH2 0x3D0 JUMPI JUMPDEST PUSH2 0x3C1 DUP2 DUP4 PUSH2 0x13A4 JUMP JUMPDEST DUP2 ADD SWAP1 PUSH2 0x1E8C JUMP JUMPDEST POP DUP3 PUSH2 0x294 JUMP JUMPDEST POP RETURNDATASIZE PUSH2 0x3B7 JUMP JUMPDEST PUSH1 0x40 MLOAD RETURNDATASIZE PUSH1 0x0 DUP3 RETURNDATACOPY RETURNDATASIZE SWAP1 REVERT JUMPDEST PUSH2 0x403 SWAP2 POP DUP5 RETURNDATASIZE DUP7 GT PUSH2 0x409 JUMPI JUMPDEST PUSH2 0x3FB DUP2 DUP4 PUSH2 0x13A4 JUMP JUMPDEST DUP2 ADD SWAP1 PUSH2 0x1411 JUMP JUMPDEST DUP8 PUSH2 0x24C JUMP JUMPDEST POP RETURNDATASIZE PUSH2 0x3F1 JUMP JUMPDEST PUSH2 0x429 SWAP2 POP PUSH1 0x20 RETURNDATASIZE PUSH1 0x20 GT PUSH2 0x409 JUMPI PUSH2 0x3FB DUP2 DUP4 PUSH2 0x13A4 JUMP JUMPDEST DUP4 PUSH2 0x1FA JUMP JUMPDEST PUSH1 0x64 PUSH1 0x40 MLOAD PUSH3 0x461BCD PUSH1 0xE5 SHL DUP2 MSTORE PUSH1 0x20 PUSH1 0x4 DUP3 ADD MSTORE PUSH1 0x14 PUSH1 0x24 DUP3 ADD MSTORE PUSH32 0x4C6F616E20616C72656164792063726561746564000000000000000000000000 PUSH1 0x44 DUP3 ADD MSTORE REVERT JUMPDEST PUSH1 0x64 PUSH1 0x40 MLOAD PUSH3 0x461BCD PUSH1 0xE5 SHL DUP2 MSTORE PUSH1 0x20 PUSH1 0x4 DUP3 ADD MSTORE PUSH1 0x17 PUSH1 0x24 DUP3 ADD MSTORE PUSH32 0x496E76616C696420666F726569676E206F72626974616C000000000000000000 PUSH1 0x44 DUP3 ADD MSTORE REVERT JUMPDEST PUSH1 0x40 MLOAD PUSH3 0x461BCD PUSH1 0xE5 SHL DUP2 MSTORE PUSH1 0x20 PUSH1 0x4 DUP3 ADD MSTORE PUSH1 0x10 PUSH1 0x24 DUP3 ADD MSTORE PUSH16 0x155B9919599A5B9959081B595D1A1BD9 PUSH1 0x82 SHL PUSH1 0x44 DUP3 ADD MSTORE PUSH1 0x64 SWAP1 REVERT JUMPDEST SUB SWAP1 REVERT JUMPDEST CALLVALUE PUSH2 0x10D JUMPI PUSH1 0x0 CALLDATASIZE PUSH1 0x3 NOT ADD SLT PUSH2 0x10D JUMPI PUSH1 0x20 PUSH1 0x1 PUSH1 0x1 PUSH1 0xA0 SHL SUB PUSH1 0x1 SLOAD AND PUSH1 0x40 MLOAD SWAP1 DUP2 MSTORE RETURN JUMPDEST CALLVALUE PUSH2 0x10D JUMPI PUSH1 0x20 CALLDATASIZE PUSH1 0x3 NOT ADD SLT PUSH2 0x10D JUMPI PUSH1 0x4 CALLDATALOAD PUSH1 0x1 PUSH1 0x1 PUSH1 0xA0 SHL SUB DUP2 AND DUP2 SUB PUSH2 0x10D JUMPI PUSH2 0x549 PUSH1 0x20 SWAP2 PUSH2 0x18CC JUMP JUMPDEST PUSH1 0x40 MLOAD SWAP1 ISZERO ISZERO DUP2 MSTORE RETURN JUMPDEST CALLVALUE PUSH2 0x10D JUMPI PUSH1 0x0 CALLDATASIZE PUSH1 0x3 NOT ADD SLT PUSH2 0x10D JUMPI PUSH1 0x20 PUSH1 0x1 PUSH1 0x1 PUSH1 0xA0 SHL SUB PUSH1 0x0 SLOAD AND PUSH1 0x40 MLOAD SWAP1 DUP2 MSTORE RETURN JUMPDEST CALLVALUE PUSH2 0x10D JUMPI PUSH1 0x0 CALLDATASIZE PUSH1 0x3 NOT ADD SLT PUSH2 0x10D JUMPI PUSH1 0x1 SLOAD PUSH1 0x1 PUSH1 0x1 PUSH1 0xA0 SHL SUB CALLER DUP2 DUP4 AND SUB PUSH2 0x5F1 JUMPI PUSH20 0xFFFFFFFFFFFFFFFFFFFFFFFFFFFFFFFFFFFFFFFF NOT DUP1 SWAP3 AND PUSH1 0x1 SSTORE PUSH1 0x0 SLOAD SWAP2 CALLER SWAP1 DUP4 AND OR PUSH1 0x0 SSTORE CALLER SWAP2 AND PUSH32 0x8BE0079C531659141344CD1FD0A4F28419497F9722A3DAAFE3B4186F6B6457E0 PUSH1 0x0 DUP1 LOG3 STOP JUMPDEST PUSH1 0x84 PUSH1 0x40 MLOAD PUSH3 0x461BCD PUSH1 0xE5 SHL DUP2 MSTORE PUSH1 0x20 PUSH1 0x4 DUP3 ADD MSTORE PUSH1 0x29 PUSH1 0x24 DUP3 ADD MSTORE PUSH32 0x4F776E61626C6532537465703A2063616C6C6572206973206E6F742074686520 PUSH1 0x44 DUP3 ADD MSTORE PUSH32 0x6E6577206F776E65720000000000000000000000000000000000000000000000 PUSH1 0x64 DUP3 ADD MSTORE REVERT JUMPDEST CALLVALUE PUSH2 0x10D JUMPI PUSH1 0x0 CALLDATASIZE PUSH1 0x3 NOT ADD SLT PUSH2 0x10D JUMPI PUSH2 0x674 PUSH2 0x1928 JUMP JUMPDEST PUSH1 0x0 PUSH1 0x1 PUSH1 0x1 PUSH1 0xA0 SHL SUB PUSH20 0xFFFFFFFFFFFFFFFFFFFFFFFFFFFFFFFFFFFFFFFF NOT DUP1 PUSH1 0x1 SLOAD AND PUSH1 0x1 SSTORE DUP3 SLOAD SWAP1 DUP2 AND DUP4 SSTORE AND PUSH32 0x8BE0079C531659141344CD1FD0A4F28419497F9722A3DAAFE3B4186F6B6457E0 DUP3 DUP1 LOG3 STOP JUMPDEST PUSH1 0x20 CALLDATASIZE PUSH1 0x3 NOT ADD SLT PUSH2 0x10D JUMPI PUSH1 0x20 PUSH2 0x549 PUSH1 0x4 CALLDATALOAD PUSH2 0x1430 JUMP JUMPDEST PUSH1 0xC0 CALLDATASIZE PUSH1 0x3 NOT ADD SLT PUSH2 0x10D JUMPI PUSH1 0x4 CALLDATALOAD PUSH2 0xFFFF DUP2 AND DUP2 SUB PUSH2 0x10D JUMPI PUSH1 0x64 CALLDATALOAD SWAP1 PUSH1 0x2 DUP3 LT ISZERO PUSH2 0x10D JUMPI PUSH1 0x20 SWAP2 PUSH2 0x726 SWAP2 PUSH1 0xA4 CALLDATALOAD SWAP2 PUSH1 0x84 CALLDATALOAD SWAP2 PUSH1 0x44 CALLDATALOAD SWAP1 PUSH1 0x24 CALLDATALOAD SWAP1 PUSH2 0x895 JUMP JUMPDEST PUSH1 0x40 MLOAD SWAP1 DUP2 MSTORE RETURN JUMPDEST CALLVALUE PUSH2 0x10D JUMPI PUSH1 0x60 CALLDATASIZE PUSH1 0x3 NOT ADD SLT PUSH2 0x10D JUMPI PUSH4 0xFFFFFFFF PUSH2 0x74C PUSH2 0x7D1 JUMP JUMPDEST PUSH2 0x754 PUSH2 0x1928 JUMP JUMPDEST AND DUP1 PUSH1 0x0 MSTORE PUSH1 0x6 PUSH1 0x20 MSTORE PUSH2 0x770 PUSH1 0xFF PUSH1 0x40 PUSH1 0x0 KECCAK256 SLOAD AND ISZERO PUSH2 0x84A JUMP JUMPDEST PUSH1 0x3 SLOAD PUSH1 0x24 CALLDATALOAD SUB PUSH2 0x4B7 JUMPI PUSH2 0x786 PUSH1 0x44 CALLDATALOAD PUSH2 0x1980 JUMP JUMPDEST POP PUSH1 0x0 SWAP1 DUP2 MSTORE PUSH1 0x6 PUSH1 0x20 MSTORE PUSH1 0x40 SWAP1 KECCAK256 DUP1 SLOAD PUSH1 0xFF NOT AND PUSH1 0x1 OR SWAP1 SSTORE STOP JUMPDEST CALLVALUE PUSH2 0x10D JUMPI PUSH1 0x20 CALLDATASIZE PUSH1 0x3 NOT ADD SLT PUSH2 0x10D JUMPI PUSH1 0x4 CALLDATALOAD PUSH1 0x1 PUSH1 0x1 PUSH1 0xA0 SHL SUB DUP2 AND DUP2 SUB PUSH2 0x10D JUMPI PUSH2 0x549 PUSH1 0x20 SWAP2 PUSH2 0x7E4 JUMP JUMPDEST PUSH1 0x4 CALLDATALOAD SWAP1 PUSH4 0xFFFFFFFF DUP3 AND DUP3 SUB PUSH2 0x10D JUMPI JUMP JUMPDEST PUSH1 0xD DUP1 SLOAD SWAP2 SWAP1 PUSH1 0x0 DUP1 JUMPDEST DUP5 DUP2 LT PUSH2 0x7FF JUMPI POP POP POP POP POP PUSH1 0x0 SWAP1 JUMP JUMPDEST DUP3 DUP3 MSTORE PUSH1 0x1 PUSH1 0x1 PUSH1 0xA0 SHL SUB DUP1 DUP3 PUSH32 0xD7B6990105719101DABEB77144F2A3385C8033ACD3AF97E9423A695E81AD1EB5 ADD SLOAD AND SWAP1 DUP6 AND EQ PUSH2 0x840 JUMPI PUSH1 0x1 ADD PUSH2 0x7EE JUMP JUMPDEST POP POP POP POP POP PUSH1 0x1 SWAP1 JUMP JUMPDEST ISZERO PUSH2 0x851 JUMPI JUMP JUMPDEST PUSH1 0x64 PUSH1 0x40 MLOAD PUSH3 0x461BCD PUSH1 0xE5 SHL DUP2 MSTORE PUSH1 0x20 PUSH1 0x4 DUP3 ADD MSTORE PUSH1 0x1B PUSH1 0x24 DUP3 ADD MSTORE PUSH32 0x4E6F6E63652077617320616C72656164792065786563757465642E0000000000 PUSH1 0x44 DUP3 ADD MSTORE REVERT JUMPDEST SWAP4 SWAP2 SWAP6 SWAP5 SWAP6 SWAP3 SWAP1 SWAP3 PUSH1 0x0 SWAP2 PUSH1 0x2 DUP2 LT ISZERO PUSH2 0x1315 JUMPI DUP1 PUSH2 0xE62 JUMPI POP PUSH1 0x40 MLOAD PUSH4 0x2E7682C7 PUSH1 0xE1 SHL DUP2 MSTORE DUP5 PUSH1 0x4 DUP3 ADD MSTORE PUSH1 0x20 DUP2 PUSH1 0x24 DUP2 PUSH20 0x0 GAS DELEGATECALL SWAP1 DUP2 ISZERO PUSH2 0xE57 JUMPI DUP4 SWAP2 PUSH2 0xE38 JUMPI JUMPDEST POP PUSH2 0x8FF PUSH2 0x8FA DUP3 PUSH2 0x18CC JUMP JUMPDEST PUSH2 0x1D1F JUMP JUMPDEST PUSH1 0x40 MLOAD PUSH4 0x23B872DD PUSH1 0xE0 SHL DUP2 MSTORE CALLER PUSH1 0x4 DUP3 ADD MSTORE ADDRESS PUSH1 0x24 DUP3 ADD MSTORE PUSH1 0x44 DUP2 ADD DUP6 SWAP1 MSTORE PUSH1 0x1 PUSH1 0x1 PUSH1 0xA0 SHL SUB SWAP2 PUSH1 0x20 SWAP1 DUP3 SWAP1 PUSH1 0x64 SWAP1 DUP3 SWAP1 DUP9 SWAP1 DUP8 AND GAS CALL DUP1 ISZERO PUSH2 0xE0E JUMPI PUSH2 0xE19 JUMPI JUMPDEST POP PUSH1 0x64 PUSH1 0x20 DUP3 PUSH1 0xE SLOAD AND PUSH1 0x40 MLOAD SWAP3 DUP4 DUP1 SWAP3 PUSH4 0xF52B31F1 PUSH1 0xE0 SHL DUP3 MSTORE DUP11 PUSH1 0x4 DUP4 ADD MSTORE DUP8 PUSH1 0x24 DUP4 ADD MSTORE DUP10 PUSH1 0x44 DUP4 ADD MSTORE GAS STATICCALL DUP1 ISZERO PUSH2 0xE0E JUMPI DUP5 SWAP1 PUSH2 0xDDA JUMPI JUMPDEST PUSH2 0x990 SWAP2 POP PUSH1 0xFF PUSH1 0x7 SLOAD AND SWAP1 PUSH2 0x1EC4 JUMP JUMPDEST POP SWAP8 PUSH1 0x40 MLOAD SWAP1 PUSH4 0x1A90A219 PUSH1 0xE0 SHL DUP3 MSTORE PUSH1 0x20 DUP3 PUSH1 0x4 DUP2 DUP7 PUSH32 0x0 AND GAS STATICCALL SWAP2 DUP3 ISZERO PUSH2 0xDCF JUMPI DUP6 SWAP3 PUSH2 0xD9B JUMPI JUMPDEST POP PUSH2 0x9E5 DUP3 CALLVALUE EQ PUSH2 0x1D6A JUMP JUMPDEST PUSH1 0x40 MLOAD SWAP10 PUSH4 0x82C947B7 PUSH1 0xE0 SHL DUP12 MSTORE ADDRESS PUSH1 0x4 DUP13 ADD MSTORE PUSH1 0x20 DUP12 PUSH1 0x24 DUP2 PUSH20 0x0 GAS DELEGATECALL SWAP5 DUP6 ISZERO PUSH2 0xD90 JUMPI DUP7 SWAP6 PUSH2 0xD5B JUMPI JUMPDEST PUSH2 0xFFFF DUP11 AND DUP8 MSTORE PUSH1 0x8 PUSH1 0x20 SWAP1 DUP2 MSTORE PUSH1 0x40 DUP1 DUP10 KECCAK256 SLOAD PUSH1 0x5 SLOAD DUP3 MLOAD CALLER DUP2 DUP7 ADD SWAP1 DUP2 MSTORE SWAP4 DUP2 ADD DUP9 SWAP1 MSTORE PUSH4 0xFFFFFFFF SWAP1 SWAP2 AND PUSH1 0x60 DUP3 ADD MSTORE TIMESTAMP PUSH1 0x80 DUP3 ADD MSTORE SWAP3 SWAP15 POP SWAP8 SWAP2 PUSH2 0xA79 DUP2 PUSH1 0xA0 DUP2 ADD JUMPDEST SUB PUSH1 0x1F NOT DUP2 ADD DUP4 MSTORE DUP3 PUSH2 0x13A4 JUMP JUMPDEST MLOAD SWAP1 KECCAK256 SWAP11 PUSH1 0x2 SLOAD SWAP5 PUSH1 0x40 MLOAD SWAP15 DUP16 PUSH4 0x82C947B7 PUSH1 0xE0 SHL DUP2 MSTORE CALLER PUSH1 0x4 DUP3 ADD MSTORE PUSH1 0x24 DUP2 PUSH20 0x0 GAS DELEGATECALL DUP1 ISZERO PUSH2 0xD50 JUMPI DUP14 SWAP15 SWAP16 DUP12 SWAP13 SWAP14 SWAP15 SWAP11 SWAP12 SWAP2 PUSH2 0xD05 JUMPI JUMPDEST POP PUSH1 0x40 DUP1 MLOAD PUSH1 0x20 DUP2 DUP2 ADD SWAP10 SWAP1 SWAP10 MSTORE SWAP1 DUP2 ADD SWAP11 SWAP1 SWAP11 MSTORE PUSH1 0x60 DUP11 ADD MSTORE PUSH1 0x80 DUP10 ADD MSTORE PUSH2 0xFFFF AND PUSH1 0xA0 DUP9 ADD MSTORE PUSH1 0xC0 DUP8 ADD MSTORE PUSH1 0xE0 DUP7 ADD SWAP7 SWAP1 SWAP7 MSTORE PUSH2 0x100 DUP6 ADD SWAP6 SWAP1 SWAP6 MSTORE PUSH2 0x120 DUP5 ADD SWAP5 SWAP1 SWAP5 MSTORE PUSH2 0xB51 SWAP4 SWAP3 SWAP2 SWAP1 PUSH2 0xB2B DUP4 PUSH2 0x140 DUP2 ADD JUMPDEST SUB PUSH1 0x1F NOT DUP2 ADD DUP6 MSTORE DUP5 PUSH2 0x13A4 JUMP JUMPDEST PUSH4 0xFFFFFFFF PUSH1 0x5 SLOAD AND SWAP1 PUSH1 0x40 MLOAD DUP1 SWAP7 DUP2 SWAP6 DUP3 SWAP5 PUSH4 0x58CD21BF PUSH1 0xE1 SHL DUP5 MSTORE PUSH1 0x4 DUP5 ADD PUSH2 0x1DD5 JUMP JUMPDEST SUB SWAP3 PUSH32 0x0 AND GAS CALL DUP1 ISZERO PUSH2 0xCCB JUMPI PUSH2 0xCD6 JUMPI JUMPDEST POP PUSH1 0x40 MLOAD SWAP3 PUSH4 0x82C947B7 PUSH1 0xE0 SHL DUP5 MSTORE CALLER PUSH1 0x4 DUP6 ADD MSTORE PUSH1 0x20 DUP5 PUSH1 0x24 DUP2 PUSH20 0x0 GAS DELEGATECALL SWAP4 DUP5 ISZERO PUSH2 0xCCB JUMPI DUP3 SWAP5 PUSH2 0xC97 JUMPI JUMPDEST POP PUSH1 0x40 MLOAD SWAP4 PUSH2 0xBD0 DUP6 PUSH2 0x1388 JUMP JUMPDEST DUP5 MSTORE PUSH1 0x20 DUP5 ADD SWAP3 DUP3 DUP5 MSTORE PUSH1 0x40 DUP6 ADD SWAP2 DUP3 MSTORE PUSH1 0x60 DUP6 ADD SWAP1 DUP2 MSTORE PUSH1 0x80 DUP6 ADD SWAP2 PUSH1 0x1 DUP4 MSTORE PUSH1 0xA0 DUP7 ADD SWAP5 TIMESTAMP DUP7 MSTORE DUP8 DUP6 MSTORE PUSH1 0x9 PUSH1 0x20 MSTORE PUSH1 0x40 DUP6 KECCAK256 SWAP7 MLOAD DUP8 SSTORE MLOAD PUSH1 0x2 DUP2 LT ISZERO PUSH2 0xC83 JUMPI PUSH2 0xC20 SWAP1 PUSH1 0x1 DUP9 ADD PUSH2 0x1E31 JUMP JUMPDEST MLOAD PUSH1 0x2 DUP7 ADD SSTORE MLOAD PUSH1 0x3 DUP6 ADD SSTORE MLOAD SWAP1 PUSH1 0x4 DUP3 LT ISZERO PUSH2 0xC6F JUMPI POP SWAP1 PUSH2 0xC48 PUSH1 0x5 SWAP3 PUSH1 0x4 DUP6 ADD PUSH2 0x1E49 JUMP JUMPDEST MLOAD SWAP2 ADD SSTORE PUSH1 0x5 SLOAD PUSH4 0xFFFFFFFF PUSH2 0xC5F DUP2 DUP4 AND PUSH2 0x1E61 JUMP JUMPDEST AND SWAP1 PUSH4 0xFFFFFFFF NOT AND OR PUSH1 0x5 SSTORE SWAP1 JUMP JUMPDEST DUP1 PUSH4 0x4E487B71 PUSH1 0xE0 SHL PUSH1 0x24 SWAP3 MSTORE PUSH1 0x21 PUSH1 0x4 MSTORE REVERT JUMPDEST PUSH1 0x24 DUP6 PUSH4 0x4E487B71 PUSH1 0xE0 SHL DUP2 MSTORE PUSH1 0x21 PUSH1 0x4 MSTORE REVERT JUMPDEST SWAP1 SWAP4 POP PUSH1 0x20 DUP2 RETURNDATASIZE PUSH1 0x20 GT PUSH2 0xCC3 JUMPI JUMPDEST DUP2 PUSH2 0xCB3 PUSH1 0x20 SWAP4 DUP4 PUSH2 0x13A4 JUMP JUMPDEST DUP2 ADD SUB SLT PUSH2 0x10D JUMPI MLOAD SWAP3 CODESIZE PUSH2 0xBC2 JUMP JUMPDEST RETURNDATASIZE SWAP2 POP PUSH2 0xCA6 JUMP JUMPDEST PUSH1 0x40 MLOAD RETURNDATASIZE DUP5 DUP3 RETURNDATACOPY RETURNDATASIZE SWAP1 REVERT JUMPDEST PUSH2 0xCF7 SWAP1 PUSH1 0x20 RETURNDATASIZE PUSH1 0x20 GT PUSH2 0xCFE JUMPI JUMPDEST PUSH2 0xCEF DUP2 DUP4 PUSH2 0x13A4 JUMP JUMPDEST DUP2 ADD SWAP1 PUSH2 0x1DB5 JUMP JUMPDEST POP CODESIZE PUSH2 0xB82 JUMP JUMPDEST POP RETURNDATASIZE PUSH2 0xCE5 JUMP JUMPDEST SWAP4 SWAP10 POP POP SWAP4 SWAP1 SWAP7 SWAP6 SWAP5 SWAP3 PUSH1 0x20 DUP4 RETURNDATASIZE PUSH1 0x20 GT PUSH2 0xD48 JUMPI JUMPDEST DUP2 PUSH2 0xD28 PUSH1 0x20 SWAP4 DUP4 PUSH2 0x13A4 JUMP JUMPDEST DUP2 ADD SUB SLT PUSH2 0x10D JUMPI SWAP2 MLOAD DUP14 SWAP9 SWAP7 SWAP8 SWAP6 SWAP7 SWAP4 SWAP6 SWAP2 SWAP5 SWAP3 SWAP4 SWAP3 SWAP1 PUSH2 0xB1D PUSH2 0xAC5 JUMP JUMPDEST RETURNDATASIZE SWAP2 POP PUSH2 0xD1B JUMP JUMPDEST PUSH1 0x40 MLOAD RETURNDATASIZE DUP13 DUP3 RETURNDATACOPY RETURNDATASIZE SWAP1 REVERT JUMPDEST SWAP5 POP PUSH1 0x20 DUP12 RETURNDATASIZE PUSH1 0x20 GT PUSH2 0xD88 JUMPI JUMPDEST DUP2 PUSH2 0xD76 PUSH1 0x20 SWAP4 DUP4 PUSH2 0x13A4 JUMP JUMPDEST DUP2 ADD SUB SLT PUSH2 0x10D JUMPI PUSH1 0x20 SWAP11 MLOAD SWAP5 PUSH2 0xA24 JUMP JUMPDEST RETURNDATASIZE SWAP2 POP PUSH2 0xD69 JUMP JUMPDEST PUSH1 0x40 MLOAD RETURNDATASIZE DUP9 DUP3 RETURNDATACOPY RETURNDATASIZE SWAP1 REVERT JUMPDEST SWAP1 SWAP2 POP PUSH1 0x20 DUP2 RETURNDATASIZE PUSH1 0x20 GT PUSH2 0xDC7 JUMPI JUMPDEST DUP2 PUSH2 0xDB7 PUSH1 0x20 SWAP4 DUP4 PUSH2 0x13A4 JUMP JUMPDEST DUP2 ADD SUB SLT PUSH2 0x10D JUMPI MLOAD SWAP1 CODESIZE PUSH2 0x9D9 JUMP JUMPDEST RETURNDATASIZE SWAP2 POP PUSH2 0xDAA JUMP JUMPDEST PUSH1 0x40 MLOAD RETURNDATASIZE DUP8 DUP3 RETURNDATACOPY RETURNDATASIZE SWAP1 REVERT JUMPDEST POP PUSH1 0x20 DUP2 RETURNDATASIZE PUSH1 0x20 GT PUSH2 0xE06 JUMPI JUMPDEST DUP2 PUSH2 0xDF4 PUSH1 0x20 SWAP4 DUP4 PUSH2 0x13A4 JUMP JUMPDEST DUP2 ADD SUB SLT PUSH2 0x10D JUMPI PUSH2 0x990 SWAP1 MLOAD PUSH2 0x97F JUMP JUMPDEST RETURNDATASIZE SWAP2 POP PUSH2 0xDE7 JUMP JUMPDEST PUSH1 0x40 MLOAD RETURNDATASIZE DUP7 DUP3 RETURNDATACOPY RETURNDATASIZE SWAP1 REVERT JUMPDEST PUSH2 0xE31 SWAP1 PUSH1 0x20 RETURNDATASIZE PUSH1 0x20 GT PUSH2 0x3D0 JUMPI PUSH2 0x3C1 DUP2 DUP4 PUSH2 0x13A4 JUMP JUMPDEST POP CODESIZE PUSH2 0x943 JUMP JUMPDEST PUSH2 0xE51 SWAP2 POP PUSH1 0x20 RETURNDATASIZE PUSH1 0x20 GT PUSH2 0x409 JUMPI PUSH2 0x3FB DUP2 DUP4 PUSH2 0x13A4 JUMP JUMPDEST CODESIZE PUSH2 0x8ED JUMP JUMPDEST PUSH1 0x40 MLOAD RETURNDATASIZE DUP6 DUP3 RETURNDATACOPY RETURNDATASIZE SWAP1 REVERT JUMPDEST PUSH1 0x1 SUB PUSH2 0x4B7 JUMPI PUSH1 0x40 MLOAD PUSH4 0x2E7682C7 PUSH1 0xE1 SHL DUP2 MSTORE DUP5 PUSH1 0x4 DUP3 ADD MSTORE PUSH1 0x20 DUP2 PUSH1 0x24 DUP2 PUSH20 0x0 GAS DELEGATECALL SWAP1 DUP2 ISZERO PUSH2 0xE57 JUMPI DUP4 SWAP2 PUSH2 0x12F6 JUMPI JUMPDEST POP PUSH2 0xEB4 PUSH2 0x8FA DUP3 PUSH2 0x7E4 JUMP JUMPDEST PUSH1 0x1 PUSH1 0x1 PUSH1 0xA0 SHL SUB DUP1 SWAP2 AND DUP1 EXTCODESIZE ISZERO PUSH2 0x12F2 JUMPI PUSH1 0x40 MLOAD PUSH4 0x23B872DD PUSH1 0xE0 SHL DUP2 MSTORE CALLER PUSH1 0x4 DUP3 ADD MSTORE ADDRESS PUSH1 0x24 DUP3 ADD MSTORE PUSH1 0x44 DUP2 ADD DUP7 SWAP1 MSTORE SWAP1 DUP5 SWAP1 DUP3 SWAP1 PUSH1 0x64 SWAP1 DUP3 SWAP1 DUP5 SWAP1 GAS CALL DUP1 ISZERO PUSH2 0xE0E JUMPI PUSH2 0x12DF JUMPI JUMPDEST POP PUSH1 0x64 PUSH1 0x20 DUP3 PUSH1 0xE SLOAD AND PUSH1 0x40 MLOAD SWAP3 DUP4 DUP1 SWAP3 PUSH4 0xF52B31F1 PUSH1 0xE0 SHL DUP3 MSTORE DUP11 PUSH1 0x4 DUP4 ADD MSTORE DUP8 PUSH1 0x24 DUP4 ADD MSTORE PUSH1 0x1 PUSH1 0x44 DUP4 ADD MSTORE GAS STATICCALL DUP1 ISZERO PUSH2 0xE0E JUMPI DUP5 SWAP1 PUSH2 0x12AB JUMPI JUMPDEST PUSH2 0xF4D SWAP2 POP PUSH1 0xFF PUSH1 0x7 SLOAD AND SWAP1 PUSH2 0x1EC4 JUMP JUMPDEST POP SWAP8 PUSH1 0x40 MLOAD SWAP1 PUSH4 0x1A90A219 PUSH1 0xE0 SHL DUP3 MSTORE PUSH1 0x20 DUP3 PUSH1 0x4 DUP2 DUP7 PUSH32 0x0 AND GAS STATICCALL SWAP2 DUP3 ISZERO PUSH2 0xDCF JUMPI DUP6 SWAP3 PUSH2 0x1277 JUMPI JUMPDEST POP PUSH2 0xFA2 DUP3 CALLVALUE EQ PUSH2 0x1D6A JUMP JUMPDEST PUSH1 0x40 MLOAD SWAP10 PUSH4 0x82C947B7 PUSH1 0xE0 SHL DUP12 MSTORE ADDRESS PUSH1 0x4 DUP13 ADD MSTORE PUSH1 0x20 DUP12 PUSH1 0x24 DUP2 PUSH20 0x0 GAS DELEGATECALL SWAP5 DUP6 ISZERO PUSH2 0xD90 JUMPI DUP7 SWAP6 PUSH2 0x1242 JUMPI JUMPDEST PUSH2 0xFFFF DUP11 AND DUP8 MSTORE PUSH1 0x8 PUSH1 0x20 SWAP1 DUP2 MSTORE PUSH1 0x40 DUP1 DUP10 KECCAK256 SLOAD PUSH1 0x5 SLOAD DUP3 MLOAD CALLER DUP2 DUP7 ADD SWAP1 DUP2 MSTORE SWAP4 DUP2 ADD DUP9 SWAP1 MSTORE PUSH4 0xFFFFFFFF SWAP1 SWAP2 AND PUSH1 0x60 DUP3 ADD MSTORE TIMESTAMP PUSH1 0x80 DUP3 ADD MSTORE SWAP3 SWAP15 POP SWAP8 SWAP2 PUSH2 0x102C DUP2 PUSH1 0xA0 DUP2 ADD PUSH2 0xA6B JUMP JUMPDEST MLOAD SWAP1 KECCAK256 SWAP11 PUSH1 0x3 SLOAD SWAP5 PUSH1 0x40 MLOAD SWAP15 DUP16 PUSH4 0x82C947B7 PUSH1 0xE0 SHL DUP2 MSTORE CALLER PUSH1 0x4 DUP3 ADD MSTORE PUSH1 0x24 DUP2 PUSH20 0x0 GAS DELEGATECALL DUP1 ISZERO PUSH2 0xD50 JUMPI DUP14 SWAP15 SWAP16 DUP12 SWAP13 SWAP14 SWAP15 SWAP11 SWAP12 SWAP2 PUSH2 0x11F7 JUMPI JUMPDEST POP PUSH1 0x40 DUP1 MLOAD PUSH1 0x20 DUP2 DUP2 ADD SWAP10 SWAP1 SWAP10 MSTORE SWAP1 DUP2 ADD SWAP11 SWAP1 SWAP11 MSTORE PUSH1 0x60 DUP11 ADD MSTORE PUSH1 0x80 DUP10 ADD MSTORE PUSH2 0xFFFF AND PUSH1 0xA0 DUP9 ADD MSTORE PUSH1 0xC0 DUP8 ADD MSTORE PUSH1 0xE0 DUP7 ADD SWAP7 SWAP1 SWAP7 MSTORE PUSH2 0x100 DUP6 ADD SWAP6 SWAP1 SWAP6 MSTORE PUSH2 0x120 DUP5 ADD SWAP5 SWAP1 SWAP5 MSTORE PUSH2 0x10D4 SWAP4 SWAP3 SWAP2 SWAP1 PUSH2 0xB2B DUP4 PUSH2 0x140 DUP2 ADD PUSH2 0xB1D JUMP JUMPDEST SUB SWAP3 PUSH32 0x0 AND GAS CALL DUP1 ISZERO PUSH2 0xCCB JUMPI PUSH2 0x11D8 JUMPI JUMPDEST POP PUSH1 0x40 MLOAD SWAP3 PUSH4 0x82C947B7 PUSH1 0xE0 SHL DUP5 MSTORE CALLER PUSH1 0x4 DUP6 ADD MSTORE PUSH1 0x20 DUP5 PUSH1 0x24 DUP2 PUSH20 0x0 GAS DELEGATECALL SWAP4 DUP5 ISZERO PUSH2 0xCCB JUMPI DUP3 SWAP5 PUSH2 0x11A4 JUMPI JUMPDEST POP PUSH1 0x40 MLOAD SWAP4 PUSH2 0x1153 DUP6 PUSH2 0x1388 JUMP JUMPDEST DUP5 MSTORE PUSH1 0x20 DUP5 ADD SWAP3 PUSH1 0x1 DUP5 MSTORE PUSH1 0x40 DUP6 ADD SWAP2 DUP3 MSTORE PUSH1 0x60 DUP6 ADD SWAP1 DUP2 MSTORE PUSH1 0x80 DUP6 ADD SWAP2 PUSH1 0x1 DUP4 MSTORE PUSH1 0xA0 DUP7 ADD SWAP5 TIMESTAMP DUP7 MSTORE DUP8 DUP6 MSTORE PUSH1 0x9 PUSH1 0x20 MSTORE PUSH1 0x40 DUP6 KECCAK256 SWAP7 MLOAD DUP8 SSTORE MLOAD PUSH1 0x2 DUP2 LT ISZERO PUSH2 0xC83 JUMPI PUSH2 0xC20 SWAP1 PUSH1 0x1 DUP9 ADD PUSH2 0x1E31 JUMP JUMPDEST SWAP1 SWAP4 POP PUSH1 0x20 DUP2 RETURNDATASIZE PUSH1 0x20 GT PUSH2 0x11D0 JUMPI JUMPDEST DUP2 PUSH2 0x11C0 PUSH1 0x20 SWAP4 DUP4 PUSH2 0x13A4 JUMP JUMPDEST DUP2 ADD SUB SLT PUSH2 0x10D JUMPI MLOAD SWAP3 CODESIZE PUSH2 0x1145 JUMP JUMPDEST RETURNDATASIZE SWAP2 POP PUSH2 0x11B3 JUMP JUMPDEST PUSH2 0x11F0 SWAP1 PUSH1 0x20 RETURNDATASIZE PUSH1 0x20 GT PUSH2 0xCFE JUMPI PUSH2 0xCEF DUP2 DUP4 PUSH2 0x13A4 JUMP JUMPDEST POP CODESIZE PUSH2 0x1105 JUMP JUMPDEST SWAP4 SWAP10 POP POP SWAP4 SWAP1 SWAP7 SWAP6 SWAP5 SWAP3 PUSH1 0x20 DUP4 RETURNDATASIZE PUSH1 0x20 GT PUSH2 0x123A JUMPI JUMPDEST DUP2 PUSH2 0x121A PUSH1 0x20 SWAP4 DUP4 PUSH2 0x13A4 JUMP JUMPDEST DUP2 ADD SUB SLT PUSH2 0x10D JUMPI SWAP2 MLOAD DUP14 SWAP9 SWAP7 SWAP8 SWAP6 SWAP7 SWAP4 SWAP6 SWAP2 SWAP5 SWAP3 SWAP4 SWAP3 SWAP1 PUSH2 0xB1D PUSH2 0x1078 JUMP JUMPDEST RETURNDATASIZE SWAP2 POP PUSH2 0x120D JUMP JUMPDEST SWAP5 POP PUSH1 0x20 DUP12 RETURNDATASIZE PUSH1 0x20 GT PUSH2 0x126F JUMPI JUMPDEST DUP2 PUSH2 0x125D PUSH1 0x20 SWAP4 DUP4 PUSH2 0x13A4 JUMP JUMPDEST DUP2 ADD SUB SLT PUSH2 0x10D JUMPI PUSH1 0x20 SWAP11 MLOAD SWAP5 PUSH2 0xFE1 JUMP JUMPDEST RETURNDATASIZE SWAP2 POP PUSH2 0x1250 JUMP JUMPDEST SWAP1 SWAP2 POP PUSH1 0x20 DUP2 RETURNDATASIZE PUSH1 0x20 GT PUSH2 0x12A3 JUMPI JUMPDEST DUP2 PUSH2 0x1293 PUSH1 0x20 SWAP4 DUP4 PUSH2 0x13A4 JUMP JUMPDEST DUP2 ADD SUB SLT PUSH2 0x10D JUMPI MLOAD SWAP1 CODESIZE PUSH2 0xF96 JUMP JUMPDEST RETURNDATASIZE SWAP2 POP PUSH2 0x1286 JUMP JUMPDEST POP PUSH1 0x20 DUP2 RETURNDATASIZE PUSH1 0x20 GT PUSH2 0x12D7 JUMPI JUMPDEST DUP2 PUSH2 0x12C5 PUSH1 0x20 SWAP4 DUP4 PUSH2 0x13A4 JUMP JUMPDEST DUP2 ADD SUB SLT PUSH2 0x10D JUMPI PUSH2 0xF4D SWAP1 MLOAD PUSH2 0xF3C JUMP JUMPDEST RETURNDATASIZE SWAP2 POP PUSH2 0x12B8 JUMP JUMPDEST PUSH2 0x12EB SWAP1 SWAP4 SWAP2 SWAP4 PUSH2 0x1374 JUMP JUMPDEST SWAP2 CODESIZE PUSH2 0xEFF JUMP JUMPDEST DUP4 DUP1 REVERT JUMPDEST PUSH2 0x130F SWAP2 POP PUSH1 0x20 RETURNDATASIZE PUSH1 0x20 GT PUSH2 0x409 JUMPI PUSH2 0x3FB DUP2 DUP4 PUSH2 0x13A4 JUMP JUMPDEST CODESIZE PUSH2 0xEA7 JUMP JUMPDEST PUSH1 0x24 DUP4 PUSH4 0x4E487B71 PUSH1 0xE0 SHL DUP2 MSTORE PUSH1 0x21 PUSH1 0x4 MSTORE REVERT JUMPDEST PUSH1 0x2 DUP3 LT ISZERO PUSH2 0x392 JUMPI MSTORE JUMP JUMPDEST PUSH1 0x4 DUP3 LT ISZERO PUSH2 0x392 JUMPI MSTORE JUMP JUMPDEST PUSH2 0x100 DUP2 ADD SWAP1 DUP2 LT PUSH8 0xFFFFFFFFFFFFFFFF DUP3 GT OR PUSH2 0x135E JUMPI PUSH1 0x40 MSTORE JUMP JUMPDEST PUSH4 0x4E487B71 PUSH1 0xE0 SHL PUSH1 0x0 MSTORE PUSH1 0x41 PUSH1 0x4 MSTORE PUSH1 0x24 PUSH1 0x0 REVERT JUMPDEST PUSH8 0xFFFFFFFFFFFFFFFF DUP2 GT PUSH2 0x135E JUMPI PUSH1 0x40 MSTORE JUMP JUMPDEST PUSH1 0xC0 DUP2 ADD SWAP1 DUP2 LT PUSH8 0xFFFFFFFFFFFFFFFF DUP3 GT OR PUSH2 0x135E JUMPI PUSH1 0x40 MSTORE JUMP JUMPDEST SWAP1 PUSH1 0x1F DUP1 NOT SWAP2 ADD AND DUP2 ADD SWAP1 DUP2 LT PUSH8 0xFFFFFFFFFFFFFFFF DUP3 GT OR PUSH2 0x135E JUMPI PUSH1 0x40 MSTORE JUMP JUMPDEST ISZERO PUSH2 0x13CD JUMPI JUMP JUMPDEST PUSH1 0x64 PUSH1 0x40 MLOAD PUSH3 0x461BCD PUSH1 0xE5 SHL DUP2 MSTORE PUSH1 0x20 PUSH1 0x4 DUP3 ADD MSTORE PUSH1 0x12 PUSH1 0x24 DUP3 ADD MSTORE PUSH32 0x4C6F616E206973206E6F74206163746976650000000000000000000000000000 PUSH1 0x44 DUP3 ADD MSTORE REVERT JUMPDEST SWAP1 DUP2 PUSH1 0x20 SWAP2 SUB SLT PUSH2 0x10D JUMPI MLOAD PUSH1 0x1 PUSH1 0x1 PUSH1 0xA0 SHL SUB DUP2 AND DUP2 SUB PUSH2 0x10D JUMPI SWAP1 JUMP JUMPDEST PUSH1 0x7 PUSH1 0x0 SWAP2 DUP1 DUP4 MSTORE PUSH1 0x20 SWAP1 PUSH1 0xA DUP3 MSTORE PUSH1 0x40 DUP1 DUP6 KECCAK256 SWAP5 DUP2 MLOAD SWAP3 PUSH2 0x1451 DUP5 PUSH2 0x1341 JUMP JUMPDEST DUP7 SLOAD DUP5 MSTORE PUSH1 0xFF PUSH1 0x1 DUP9 ADD SLOAD AND SWAP4 PUSH2 0x146B DUP7 DUP3 ADD SWAP6 DUP7 PUSH2 0x1329 JUMP JUMPDEST PUSH1 0x2 DUP9 ADD SLOAD DUP5 DUP3 ADD MSTORE PUSH1 0x3 DUP9 ADD SLOAD PUSH1 0x60 DUP3 ADD MSTORE PUSH1 0x4 SWAP8 PUSH1 0xFF DUP10 DUP3 ADD SLOAD AND SWAP1 PUSH2 0x1497 PUSH1 0x80 DUP5 ADD SWAP3 DUP4 PUSH2 0x1335 JUMP JUMPDEST PUSH1 0x5 DUP2 ADD SLOAD PUSH1 0xA0 DUP5 ADD MSTORE PUSH1 0x6 DUP2 ADD SLOAD PUSH1 0xC0 DUP5 ADD MSTORE PUSH2 0xFFFF SWAP9 DUP10 SWAP2 ADD SLOAD AND PUSH1 0xE0 DUP4 ADD MSTORE MLOAD DUP9 DUP2 LT ISZERO PUSH2 0x18B9 JUMPI PUSH1 0x1 PUSH2 0x14CE SWAP2 EQ PUSH2 0x13C6 JUMP JUMPDEST MLOAD SWAP6 PUSH20 0x0 SWAP1 DUP5 MLOAD SWAP2 PUSH4 0x2E7682C7 PUSH1 0xE1 SHL SWAP9 DUP10 DUP5 MSTORE DUP11 DUP5 ADD MSTORE PUSH1 0x24 SWAP7 DUP9 DUP5 DUP10 DUP2 DUP6 GAS DELEGATECALL SWAP4 DUP5 ISZERO PUSH2 0x176F JUMPI DUP7 SWAP5 PUSH2 0x189A JUMPI JUMPDEST POP PUSH1 0x1 PUSH1 0x1 PUSH1 0xA0 SHL SUB SWAP4 DUP5 CALLER SWAP2 AND SUB PUSH2 0x1859 JUMPI MLOAD PUSH1 0x2 DUP2 LT ISZERO PUSH2 0x1847 JUMPI PUSH2 0x1808 JUMPI DUP4 DUP6 MSTORE PUSH1 0xA DUP9 MSTORE DUP6 DUP6 KECCAK256 SWAP9 PUSH1 0x3 DUP11 ADD SLOAD SWAP1 PUSH6 0xF7CF9B8D0000 PUSH2 0x1571 DUP13 PUSH2 0x156C PUSH2 0x1565 PUSH1 0x6 PUSH1 0x5 DUP5 ADD SLOAD SWAP4 ADD SLOAD SWAP3 TIMESTAMP PUSH2 0x1EB7 JUMP JUMPDEST SWAP2 DUP7 PUSH2 0x1EA4 JUMP JUMPDEST PUSH2 0x1EA4 JUMP JUMPDEST DIV DUP3 ADD DUP1 SWAP3 GT PUSH2 0x17F6 JUMPI PUSH1 0x2 DUP12 ADD SLOAD DUP9 MLOAD SWAP2 DUP3 MSTORE DUP13 DUP3 ADD MSTORE DUP10 DUP2 DUP11 DUP2 DUP7 GAS DELEGATECALL SWAP1 DUP2 ISZERO PUSH2 0x17EC JUMPI SWAP2 DUP11 SWAP2 PUSH2 0x15E4 SWAP4 DUP10 SWAP2 PUSH2 0x17CF JUMPI JUMPDEST POP DUP14 DUP10 DUP9 DUP13 MLOAD DUP1 SWAP8 DUP2 SWAP7 DUP3 SWAP6 PUSH4 0x23B872DD PUSH1 0xE0 SHL DUP5 MSTORE ADDRESS SWAP1 CALLER SWAP1 DUP6 ADD PUSH1 0x40 SWAP2 SWAP5 SWAP4 SWAP3 SWAP5 PUSH1 0x60 DUP3 ADD SWAP6 PUSH1 0x1 PUSH1 0x1 PUSH1 0xA0 SHL SUB DUP1 SWAP3 AND DUP4 MSTORE AND PUSH1 0x20 DUP3 ADD MSTORE ADD MSTORE JUMP JUMPDEST SUB SWAP4 AND GAS CALL DUP1 ISZERO PUSH2 0x176F JUMPI SWAP1 DUP10 SWAP3 SWAP2 PUSH2 0x17B2 JUMPI JUMPDEST POP DUP7 MLOAD SWAP8 DUP9 DUP1 SWAP3 PUSH4 0x82C947B7 PUSH1 0xE0 SHL DUP3 MSTORE DUP14 ADDRESS SWAP1 DUP4 ADD MSTORE GAS DELEGATECALL SWAP6 DUP7 ISZERO PUSH2 0x17A8 JUMPI DUP5 SWAP7 PUSH2 0x1779 JUMPI JUMPDEST POP PUSH1 0x7 DUP9 ADD SLOAD AND DUP1 DUP5 MSTORE PUSH1 0x8 DUP8 MSTORE DUP5 DUP5 KECCAK256 SLOAD SWAP2 PUSH32 0x0 AND SWAP2 DUP6 MLOAD SWAP7 PUSH4 0x1A90A219 PUSH1 0xE0 SHL DUP9 MSTORE DUP9 DUP9 DUP13 DUP2 DUP8 GAS STATICCALL SWAP3 DUP4 ISZERO PUSH2 0x176F JUMPI SWAP1 DUP10 SWAP6 SWAP5 SWAP4 SWAP3 SWAP2 DUP8 SWAP4 PUSH2 0x172B JUMPI JUMPDEST PUSH2 0x16DE SWAP10 POP PUSH2 0x168E DUP5 CALLVALUE EQ PUSH2 0x1D6A JUMP JUMPDEST PUSH1 0x3 SLOAD SWAP6 DUP10 MLOAD SWAP7 DUP9 DUP9 ADD MSTORE DUP10 DUP8 ADD MSTORE PUSH1 0x60 DUP7 ADD MSTORE PUSH1 0x80 DUP6 ADD MSTORE PUSH1 0xA0 DUP5 ADD MSTORE PUSH1 0xA0 DUP4 MSTORE PUSH2 0x16B9 DUP4 PUSH2 0x1388 JUMP JUMPDEST PUSH4 0xFFFFFFFF PUSH1 0x5 SLOAD AND SWAP1 DUP11 DUP8 MLOAD SWAP9 DUP10 SWAP6 DUP7 SWAP5 DUP6 SWAP4 PUSH4 0x58CD21BF PUSH1 0xE1 SHL DUP6 MSTORE DUP5 ADD PUSH2 0x1DD5 JUMP JUMPDEST SUB SWAP3 GAS CALL SWAP2 DUP3 ISZERO PUSH2 0x1721 JUMPI POP POP PUSH2 0x1703 JUMPI JUMPDEST POP POP ADD DUP1 SLOAD PUSH1 0xFF NOT AND PUSH1 0x2 OR SWAP1 SSTORE PUSH1 0x1 SWAP1 JUMP JUMPDEST DUP2 PUSH2 0x1719 SWAP3 SWAP1 RETURNDATASIZE LT PUSH2 0xCFE JUMPI PUSH2 0xCEF DUP2 DUP4 PUSH2 0x13A4 JUMP JUMPDEST POP CODESIZE DUP1 PUSH2 0x16F0 JUMP JUMPDEST MLOAD SWAP1 RETURNDATASIZE SWAP1 DUP3 RETURNDATACOPY RETURNDATASIZE SWAP1 REVERT JUMPDEST SWAP5 SWAP7 SWAP8 SWAP9 DUP7 DUP2 SWAP4 SWAP6 SWAP8 SWAP3 SWAP5 POP RETURNDATASIZE DUP4 GT PUSH2 0x1768 JUMPI JUMPDEST PUSH2 0x1749 DUP2 DUP4 PUSH2 0x13A4 JUMP JUMPDEST DUP2 ADD SUB SLT PUSH2 0x1764 JUMPI SWAP2 PUSH2 0x16DE SWAP8 SWAP7 SWAP6 SWAP4 SWAP2 DUP10 SWAP6 SWAP4 MLOAD SWAP3 PUSH2 0x167E JUMP JUMPDEST DUP7 DUP1 REVERT JUMPDEST POP RETURNDATASIZE PUSH2 0x173F JUMP JUMPDEST DUP8 MLOAD RETURNDATASIZE DUP9 DUP3 RETURNDATACOPY RETURNDATASIZE SWAP1 REVERT JUMPDEST SWAP1 SWAP6 POP DUP7 DUP2 DUP2 RETURNDATASIZE DUP4 GT PUSH2 0x17A1 JUMPI JUMPDEST PUSH2 0x1791 DUP2 DUP4 PUSH2 0x13A4 JUMP JUMPDEST DUP2 ADD SUB SLT PUSH2 0x12F2 JUMPI MLOAD SWAP5 CODESIZE PUSH2 0x161F JUMP JUMPDEST POP RETURNDATASIZE PUSH2 0x1787 JUMP JUMPDEST DUP6 MLOAD RETURNDATASIZE DUP7 DUP3 RETURNDATACOPY RETURNDATASIZE SWAP1 REVERT JUMPDEST PUSH2 0x17C8 SWAP1 DUP4 RETURNDATASIZE DUP6 GT PUSH2 0x3D0 JUMPI PUSH2 0x3C1 DUP2 DUP4 PUSH2 0x13A4 JUMP JUMPDEST POP CODESIZE PUSH2 0x15F8 JUMP JUMPDEST PUSH2 0x17E6 SWAP2 POP DUP4 RETURNDATASIZE DUP6 GT PUSH2 0x409 JUMPI PUSH2 0x3FB DUP2 DUP4 PUSH2 0x13A4 JUMP JUMPDEST CODESIZE PUSH2 0x15A5 JUMP JUMPDEST DUP9 MLOAD RETURNDATASIZE DUP10 DUP3 RETURNDATACOPY RETURNDATASIZE SWAP1 REVERT JUMPDEST DUP9 DUP8 PUSH1 0x11 DUP15 PUSH4 0x4E487B71 PUSH1 0xE0 SHL DUP4 MSTORE MSTORE REVERT JUMPDEST PUSH2 0x4EF DUP11 DUP8 MLOAD SWAP2 DUP3 SWAP2 PUSH3 0x461BCD PUSH1 0xE5 SHL DUP4 MSTORE DUP3 ADD PUSH1 0x60 SWAP1 PUSH1 0x20 DUP2 MSTORE PUSH1 0x10 PUSH1 0x20 DUP3 ADD MSTORE PUSH16 0x155B9919599A5B9959081B595D1A1BD9 PUSH1 0x82 SHL PUSH1 0x40 DUP3 ADD MSTORE ADD SWAP1 JUMP JUMPDEST DUP8 DUP7 PUSH1 0x21 DUP14 PUSH4 0x4E487B71 PUSH1 0xE0 SHL DUP4 MSTORE MSTORE REVERT JUMPDEST PUSH1 0x64 DUP12 PUSH1 0x11 DUP11 DUP13 DUP12 MLOAD SWAP4 PUSH3 0x461BCD PUSH1 0xE5 SHL DUP6 MSTORE DUP5 ADD MSTORE DUP3 ADD MSTORE PUSH32 0x556E617574686F72697A6564206C6F616E000000000000000000000000000000 PUSH1 0x44 DUP3 ADD MSTORE REVERT JUMPDEST PUSH2 0x18B2 SWAP2 SWAP5 POP DUP10 RETURNDATASIZE DUP12 GT PUSH2 0x409 JUMPI PUSH2 0x3FB DUP2 DUP4 PUSH2 0x13A4 JUMP JUMPDEST SWAP3 CODESIZE PUSH2 0x1511 JUMP JUMPDEST PUSH1 0x24 DUP5 PUSH1 0x21 DUP12 PUSH4 0x4E487B71 PUSH1 0xE0 SHL DUP4 MSTORE MSTORE REVERT JUMPDEST PUSH1 0xC DUP1 SLOAD SWAP2 SWAP1 PUSH1 0x0 DUP1 JUMPDEST DUP5 DUP2 LT PUSH2 0x18E7 JUMPI POP POP POP POP POP PUSH1 0x0 SWAP1 JUMP JUMPDEST DUP3 DUP3 MSTORE PUSH1 0x1 PUSH1 0x1 PUSH1 0xA0 SHL SUB DUP1 DUP3 PUSH32 0xDF6966C971051C3D54EC59162606531493A51404A002842F56009D7E5CF4A8C7 ADD SLOAD AND SWAP1 DUP6 AND EQ PUSH2 0x840 JUMPI PUSH1 0x1 ADD PUSH2 0x18D6 JUMP JUMPDEST PUSH1 0x1 PUSH1 0x1 PUSH1 0xA0 SHL SUB PUSH1 0x0 SLOAD AND CALLER SUB PUSH2 0x193C JUMPI JUMP JUMPDEST PUSH1 0x64 PUSH1 0x40 MLOAD PUSH3 0x461BCD PUSH1 0xE5 SHL DUP2 MSTORE PUSH1 0x20 PUSH1 0x4 DUP3 ADD MSTORE PUSH1 0x20 PUSH1 0x24 DUP3 ADD MSTORE PUSH32 0x4F776E61626C653A2063616C6C6572206973206E6F7420746865206F776E6572 PUSH1 0x44 DUP3 ADD MSTORE REVERT JUMPDEST PUSH1 0x0 SWAP1 DUP1 DUP3 MSTORE PUSH1 0x20 SWAP2 PUSH1 0x9 DUP4 MSTORE PUSH1 0x40 SWAP3 DUP4 DUP3 KECCAK256 SWAP4 DUP1 MLOAD SWAP4 PUSH2 0x19A0 DUP6 PUSH2 0x1388 JUMP JUMPDEST DUP6 SLOAD DUP6 MSTORE PUSH1 0xFF PUSH1 0x1 DUP8 ADD SLOAD AND PUSH2 0x19B9 DUP5 DUP8 ADD SWAP2 DUP3 PUSH2 0x1329 JUMP JUMPDEST PUSH1 0x2 SWAP7 DUP8 DUP2 ADD SLOAD DUP5 DUP9 ADD MSTORE PUSH1 0x3 DUP2 ADD SLOAD PUSH1 0x60 DUP9 ADD MSTORE PUSH1 0x4 SWAP7 PUSH1 0xA0 PUSH1 0x5 PUSH1 0xFF DUP11 DUP6 ADD SLOAD AND SWAP4 PUSH2 0x19EB PUSH1 0x80 DUP6 ADD SWAP6 DUP7 PUSH2 0x1335 JUMP JUMPDEST ADD SLOAD SWAP2 ADD MSTORE MLOAD DUP7 DUP2 LT ISZERO PUSH2 0x1D0C JUMPI PUSH1 0x1 PUSH2 0x1A05 SWAP2 EQ PUSH2 0x13C6 JUMP JUMPDEST DUP1 MLOAD DUP8 DUP2 LT ISZERO PUSH2 0x1D0C JUMPI PUSH2 0x1B5C JUMPI POP DUP4 MSTORE PUSH1 0x9 DUP3 MSTORE DUP1 DUP4 KECCAK256 SWAP3 DUP6 DUP5 ADD SLOAD PUSH20 0x0 SWAP1 DUP4 MLOAD SWAP1 PUSH4 0x2E7682C7 PUSH1 0xE1 SHL SWAP1 DUP2 DUP4 MSTORE DUP9 DUP4 ADD MSTORE DUP6 DUP3 PUSH1 0x24 DUP2 DUP7 GAS DELEGATECALL SWAP2 DUP3 ISZERO PUSH2 0x17A8 JUMPI SWAP1 DUP7 SWAP2 DUP6 SWAP4 PUSH2 0x1B3D JUMPI JUMPDEST POP PUSH1 0x24 DUP9 SLOAD SWAP2 DUP8 MLOAD SWAP6 DUP7 SWAP4 DUP5 SWAP3 DUP4 MSTORE DUP13 DUP4 ADD MSTORE GAS DELEGATECALL SWAP2 DUP3 ISZERO PUSH2 0x1B33 JUMPI SWAP2 DUP6 SWAP2 DUP5 SWAP4 PUSH2 0x1AD1 SWAP7 SWAP6 SWAP3 PUSH2 0x1B14 JUMPI JUMPDEST POP PUSH1 0x3 DUP9 ADD SLOAD SWAP2 DUP5 PUSH1 0x1 PUSH1 0x1 PUSH1 0xA0 SHL SUB DUP12 DUP9 MLOAD SWAP10 DUP11 SWAP7 DUP8 SWAP6 DUP7 SWAP4 PUSH4 0xA9059CBB PUSH1 0xE0 SHL DUP6 MSTORE DUP5 ADD PUSH1 0x20 SWAP1 SWAP4 SWAP3 SWAP2 SWAP4 PUSH1 0x1 PUSH1 0x1 PUSH1 0xA0 SHL SUB PUSH1 0x40 DUP3 ADD SWAP6 AND DUP2 MSTORE ADD MSTORE JUMP JUMPDEST SUB SWAP4 AND GAS CALL SWAP2 DUP3 ISZERO PUSH2 0x1721 JUMPI POP POP PUSH2 0x1AF6 JUMPI JUMPDEST POP POP ADD SWAP1 PUSH1 0xFF NOT DUP3 SLOAD AND OR SWAP1 SSTORE PUSH1 0x1 SWAP1 JUMP JUMPDEST DUP2 PUSH2 0x1B0C SWAP3 SWAP1 RETURNDATASIZE LT PUSH2 0x3D0 JUMPI PUSH2 0x3C1 DUP2 DUP4 PUSH2 0x13A4 JUMP JUMPDEST POP CODESIZE DUP1 PUSH2 0x1AE4 JUMP JUMPDEST PUSH2 0x1B2C SWAP2 SWAP3 POP DUP4 RETURNDATASIZE DUP6 GT PUSH2 0x409 JUMPI PUSH2 0x3FB DUP2 DUP4 PUSH2 0x13A4 JUMP JUMPDEST SWAP1 CODESIZE PUSH2 0x1A90 JUMP JUMPDEST DUP5 MLOAD RETURNDATASIZE DUP6 DUP3 RETURNDATACOPY RETURNDATASIZE SWAP1 REVERT JUMPDEST PUSH2 0x1B55 SWAP2 SWAP4 POP DUP3 RETURNDATASIZE DUP5 GT PUSH2 0x409 JUMPI PUSH2 0x3FB DUP2 DUP4 PUSH2 0x13A4 JUMP JUMPDEST SWAP2 CODESIZE PUSH2 0x1A64 JUMP JUMPDEST SWAP4 SWAP2 SWAP3 SWAP4 MLOAD DUP7 DUP2 LT ISZERO PUSH2 0x1CF9 JUMPI PUSH1 0x1 SUB PUSH2 0x1CBA JUMPI DUP2 MSTORE PUSH1 0x9 DUP4 MSTORE DUP2 DUP2 KECCAK256 SWAP3 DUP6 DUP5 ADD SLOAD PUSH20 0x0 DUP5 MLOAD SWAP2 PUSH4 0x2E7682C7 PUSH1 0xE1 SHL SWAP1 DUP2 DUP5 MSTORE DUP9 DUP5 ADD MSTORE DUP4 DUP4 PUSH1 0x24 DUP2 DUP6 GAS DELEGATECALL SWAP3 DUP4 ISZERO PUSH2 0x1CB0 JUMPI SWAP1 DUP5 SWAP2 DUP7 SWAP5 PUSH2 0x1C91 JUMPI JUMPDEST POP PUSH1 0x24 DUP9 SLOAD SWAP2 DUP9 MLOAD SWAP5 DUP6 SWAP4 DUP5 SWAP3 DUP4 MSTORE DUP13 DUP4 ADD MSTORE GAS DELEGATECALL SWAP3 DUP4 ISZERO PUSH2 0x17A8 JUMPI DUP5 SWAP4 PUSH2 0x1C67 JUMPI JUMPDEST POP POP PUSH1 0x1 PUSH1 0x1 PUSH1 0xA0 SHL SUB AND PUSH1 0x3 DUP6 ADD SLOAD SWAP2 DUP2 EXTCODESIZE ISZERO PUSH2 0x12F2 JUMPI DUP5 MLOAD PUSH4 0x23B872DD PUSH1 0xE0 SHL DUP2 MSTORE PUSH1 0x1 PUSH1 0x1 PUSH1 0xA0 SHL SUB SWAP1 SWAP2 AND DUP2 DUP9 ADD SWAP1 DUP2 MSTORE ADDRESS PUSH1 0x20 DUP3 ADD MSTORE PUSH1 0x40 DUP2 ADD SWAP4 SWAP1 SWAP4 MSTORE SWAP4 SWAP3 SWAP2 DUP3 SWAP2 DUP6 SWAP2 DUP3 SWAP1 DUP5 SWAP1 DUP3 SWAP1 PUSH1 0x60 ADD SUB SWAP3 GAS CALL SWAP2 DUP3 ISZERO PUSH2 0x1721 JUMPI POP POP PUSH2 0x1C58 JUMPI JUMPDEST POP ADD SWAP1 PUSH1 0xFF NOT DUP3 SLOAD AND OR SWAP1 SSTORE PUSH1 0x1 SWAP1 JUMP JUMPDEST PUSH2 0x1C61 SWAP1 PUSH2 0x1374 JUMP JUMPDEST CODESIZE PUSH2 0x1C47 JUMP JUMPDEST PUSH1 0x1 PUSH1 0x1 PUSH1 0xA0 SHL SUB SWAP3 SWAP4 POP SWAP1 DUP2 PUSH2 0x1C89 SWAP3 SWAP1 RETURNDATASIZE LT PUSH2 0x409 JUMPI PUSH2 0x3FB DUP2 DUP4 PUSH2 0x13A4 JUMP JUMPDEST SWAP2 SWAP1 CODESIZE PUSH2 0x1BE2 JUMP JUMPDEST PUSH2 0x1CA9 SWAP2 SWAP5 POP DUP3 RETURNDATASIZE DUP5 GT PUSH2 0x409 JUMPI PUSH2 0x3FB DUP2 DUP4 PUSH2 0x13A4 JUMP JUMPDEST SWAP3 CODESIZE PUSH2 0x1BBF JUMP JUMPDEST DUP7 MLOAD RETURNDATASIZE DUP8 DUP3 RETURNDATACOPY RETURNDATASIZE SWAP1 REVERT JUMPDEST PUSH2 0x4EF DUP6 DUP5 MLOAD SWAP2 DUP3 SWAP2 PUSH3 0x461BCD PUSH1 0xE5 SHL DUP4 MSTORE DUP3 ADD PUSH1 0x60 SWAP1 PUSH1 0x20 DUP2 MSTORE PUSH1 0x10 PUSH1 0x20 DUP3 ADD MSTORE PUSH16 0x155B9919599A5B9959081B595D1A1BD9 PUSH1 0x82 SHL PUSH1 0x40 DUP3 ADD MSTORE ADD SWAP1 JUMP JUMPDEST PUSH1 0x24 DUP4 PUSH1 0x21 DUP9 PUSH4 0x4E487B71 PUSH1 0xE0 SHL DUP4 MSTORE MSTORE REVERT JUMPDEST PUSH1 0x24 DUP7 PUSH1 0x21 DUP10 PUSH4 0x4E487B71 PUSH1 0xE0 SHL DUP4 MSTORE MSTORE REVERT JUMPDEST ISZERO PUSH2 0x1D26 JUMPI JUMP JUMPDEST PUSH1 0x64 PUSH1 0x40 MLOAD PUSH3 0x461BCD PUSH1 0xE5 SHL DUP2 MSTORE PUSH1 0x20 PUSH1 0x4 DUP3 ADD MSTORE PUSH1 0x13 PUSH1 0x24 DUP3 ADD MSTORE PUSH32 0x546F6B656E206E6F7420737570706F7274656400000000000000000000000000 PUSH1 0x44 DUP3 ADD MSTORE REVERT JUMPDEST ISZERO PUSH2 0x1D71 JUMPI JUMP JUMPDEST PUSH1 0x64 PUSH1 0x40 MLOAD PUSH3 0x461BCD PUSH1 0xE5 SHL DUP2 MSTORE PUSH1 0x20 PUSH1 0x4 DUP3 ADD MSTORE PUSH1 0x18 PUSH1 0x24 DUP3 ADD MSTORE PUSH32 0x496E73756666696369656E74206D657373616765206665650000000000000000 PUSH1 0x44 DUP3 ADD MSTORE REVERT JUMPDEST SWAP1 DUP2 PUSH1 0x20 SWAP2 SUB SLT PUSH2 0x10D JUMPI MLOAD PUSH8 0xFFFFFFFFFFFFFFFF DUP2 AND DUP2 SUB PUSH2 0x10D JUMPI SWAP1 JUMP JUMPDEST SWAP3 SWAP2 SWAP1 PUSH4 0xFFFFFFFF AND DUP4 MSTORE PUSH1 0x20 PUSH1 0x60 PUSH1 0x20 DUP6 ADD MSTORE DUP2 MLOAD SWAP2 DUP3 PUSH1 0x60 DUP7 ADD MSTORE PUSH1 0x0 JUMPDEST DUP4 DUP2 LT PUSH2 0x1E1D JUMPI POP POP POP PUSH1 0x40 PUSH1 0x80 DUP3 PUSH1 0x0 DUP3 PUSH1 0xC8 SWAP6 DUP9 ADD ADD MSTORE PUSH1 0x1F DUP1 NOT SWAP2 ADD AND DUP6 ADD ADD SWAP4 ADD MSTORE JUMP JUMPDEST DUP2 DUP2 ADD DUP4 ADD MLOAD DUP7 DUP3 ADD PUSH1 0x80 ADD MSTORE DUP3 ADD PUSH2 0x1DF5 JUMP JUMPDEST SWAP1 PUSH1 0x2 DUP2 LT ISZERO PUSH2 0x392 JUMPI PUSH1 0xFF DUP1 NOT DUP4 SLOAD AND SWAP2 AND OR SWAP1 SSTORE JUMP JUMPDEST SWAP1 PUSH1 0x4 DUP2 LT ISZERO PUSH2 0x392 JUMPI PUSH1 0xFF DUP1 NOT DUP4 SLOAD AND SWAP2 AND OR SWAP1 SSTORE JUMP JUMPDEST PUSH4 0xFFFFFFFF DUP1 SWAP2 AND SWAP1 DUP2 EQ PUSH2 0x1E76 JUMPI PUSH1 0x1 ADD SWAP1 JUMP JUMPDEST PUSH4 0x4E487B71 PUSH1 0xE0 SHL PUSH1 0x0 MSTORE PUSH1 0x11 PUSH1 0x4 MSTORE PUSH1 0x24 PUSH1 0x0 REVERT JUMPDEST SWAP1 DUP2 PUSH1 0x20 SWAP2 SUB SLT PUSH2 0x10D JUMPI MLOAD DUP1 ISZERO ISZERO DUP2 SUB PUSH2 0x10D JUMPI SWAP1 JUMP JUMPDEST DUP2 DUP2 MUL SWAP3 SWAP2 DUP2 ISZERO SWAP2 DUP5 DIV EQ OR ISZERO PUSH2 0x1E76 JUMPI JUMP JUMPDEST SWAP2 SWAP1 DUP3 SUB SWAP2 DUP3 GT PUSH2 0x1E76 JUMPI JUMP JUMPDEST SWAP2 SWAP1 PUSH1 0xFF AND PUSH1 0x64 DUP2 GT PUSH2 0x1EEB JUMPI PUSH1 0x64 PUSH2 0x1EE0 PUSH2 0x1EE8 SWAP3 DUP6 PUSH2 0x1EA4 JUMP JUMPDEST DIV DUP1 SWAP4 PUSH2 0x1EB7 JUMP JUMPDEST SWAP1 JUMP JUMPDEST PUSH1 0x84 PUSH1 0x40 MLOAD PUSH3 0x461BCD PUSH1 0xE5 SHL DUP2 MSTORE PUSH1 0x20 PUSH1 0x4 DUP3 ADD MSTORE PUSH1 0x24 DUP1 DUP3 ADD MSTORE PUSH32 0x50657263656E74616765206D757374206265206265747765656E203020616E64 PUSH1 0x44 DUP3 ADD MSTORE PUSH32 0x2031303000000000000000000000000000000000000000000000000000000000 PUSH1 0x64 DUP3 ADD MSTORE REVERT INVALID LOG2 PUSH5 0x6970667358 0x22 SLT KECCAK256 0xBC BLOCKHASH PUSH6 0xC9B318D2E77D PUSH15 0x7C67640C2F551799296922693922EC PUSH19 0xD9CA9794392464736F6C634300081800330000 "
        },
        "methodIdentifiers": {
          "_isNftSupported(address)": "05bd0120",
          "_isTokenSupported(address)": "9c112790",
          "acceptOwnership()": "79ba5097",
          "borrow(uint16,bytes32,bytes32,uint8,uint256,bytes32)": "2e9ce2b4",
          "owner()": "8da5cb5b",
          "pendingOwner()": "e30c3978",
          "receiveOnBorrow(uint32,bytes32,bytes32,bytes32,uint16,bytes32,bytes32,uint8,uint256)": "f2b2aaa4",
          "receiveOnRepay(uint32,bytes32,bytes32)": "13d80c1e",
          "renounceOwnership()": "715018a6",
          "repay(bytes32)": "563dd613",
          "transferOwnership(address)": "f2fde38b"
        }
      }
    }
  }
}